{
  "contractName": "BetContract",
  "abi": [
    {
      "inputs": [
        {
          "internalType": "address",
          "name": "_gameAddress",
          "type": "address"
        },
        {
          "internalType": "address",
          "name": "_admin",
          "type": "address"
        }
      ],
      "stateMutability": "nonpayable",
      "type": "constructor"
    },
    {
      "anonymous": false,
      "inputs": [
        {
          "indexed": false,
          "internalType": "enum BetContract.BETSTATES",
          "name": "",
          "type": "uint8"
        }
      ],
      "name": "BetStateChanged",
      "type": "event"
    },
    {
      "anonymous": false,
      "inputs": [
        {
          "components": [
            {
              "internalType": "string",
              "name": "name",
              "type": "string"
            },
            {
              "internalType": "uint32",
              "name": "score",
              "type": "uint32"
            }
          ],
          "indexed": false,
          "internalType": "struct IsCommon.Team",
          "name": "",
          "type": "tuple"
        }
      ],
      "name": "GameScoreChanged",
      "type": "event"
    },
    {
      "anonymous": false,
      "inputs": [
        {
          "indexed": false,
          "internalType": "enum IsCommon.GAMESTATES",
          "name": "",
          "type": "uint8"
        }
      ],
      "name": "GameStateChanged",
      "type": "event"
    },
    {
      "anonymous": false,
      "inputs": [
        {
          "components": [
            {
              "internalType": "enum IsCommon.GAMEOUTCOMES",
              "name": "gameOutcome",
              "type": "uint8"
            },
            {
              "internalType": "uint256",
              "name": "amount",
              "type": "uint256"
            },
            {
              "internalType": "address payable",
              "name": "userAddress",
              "type": "address"
            }
          ],
          "indexed": false,
          "internalType": "struct BetContract.Bet",
          "name": "",
          "type": "tuple"
        }
      ],
      "name": "NewBet",
      "type": "event"
    },
    {
      "inputs": [
        {
          "internalType": "enum IsCommon.GAMEOUTCOMES",
          "name": "gameOutcome",
          "type": "uint8"
        },
        {
          "internalType": "address",
          "name": "_admin",
          "type": "address"
        }
      ],
      "name": "settleBet",
      "outputs": [],
      "stateMutability": "nonpayable",
      "type": "function"
    },
    {
      "inputs": [
        {
          "internalType": "address",
          "name": "_admin",
          "type": "address"
        }
      ],
      "name": "setBetStateTo_CLOSE",
      "outputs": [
        {
          "internalType": "enum BetContract.BETSTATES",
          "name": "",
          "type": "uint8"
        }
      ],
      "stateMutability": "nonpayable",
      "type": "function"
    },
    {
      "inputs": [
        {
          "internalType": "address",
          "name": "_admin",
          "type": "address"
        }
      ],
      "name": "setBetStateTo_TOPAY",
      "outputs": [
        {
          "internalType": "enum BetContract.BETSTATES",
          "name": "",
          "type": "uint8"
        }
      ],
      "stateMutability": "nonpayable",
      "type": "function"
    },
    {
      "inputs": [
        {
          "internalType": "address",
          "name": "_admin",
          "type": "address"
        }
      ],
      "name": "setBetStateTo_PAYED",
      "outputs": [
        {
          "internalType": "enum BetContract.BETSTATES",
          "name": "",
          "type": "uint8"
        }
      ],
      "stateMutability": "nonpayable",
      "type": "function"
    },
    {
      "inputs": [],
      "name": "betTeamA",
      "outputs": [],
      "stateMutability": "payable",
      "type": "function"
    },
    {
      "inputs": [],
      "name": "betTeamB",
      "outputs": [],
      "stateMutability": "payable",
      "type": "function"
    },
    {
      "inputs": [],
      "name": "betNULL",
      "outputs": [],
      "stateMutability": "payable",
      "type": "function"
    },
    {
      "inputs": [],
      "name": "getBetStatsA",
      "outputs": [
        {
          "components": [
            {
              "internalType": "enum IsCommon.GAMEOUTCOMES",
              "name": "gameOutcome",
              "type": "uint8"
            },
            {
              "internalType": "uint256",
              "name": "amount",
              "type": "uint256"
            },
            {
              "internalType": "address payable",
              "name": "userAddress",
              "type": "address"
            }
          ],
          "internalType": "struct BetContract.Bet[]",
          "name": "teamABets",
          "type": "tuple[]"
        },
        {
          "internalType": "uint256",
          "name": "teamABetsSum",
          "type": "uint256"
        },
        {
          "internalType": "uint256",
          "name": "teamABetsCount",
          "type": "uint256"
        },
        {
          "internalType": "bool",
          "name": "isTeamAWinner",
          "type": "bool"
        }
      ],
      "stateMutability": "view",
      "type": "function"
    },
    {
      "inputs": [],
      "name": "getBetStatsB",
      "outputs": [
        {
          "components": [
            {
              "internalType": "enum IsCommon.GAMEOUTCOMES",
              "name": "gameOutcome",
              "type": "uint8"
            },
            {
              "internalType": "uint256",
              "name": "amount",
              "type": "uint256"
            },
            {
              "internalType": "address payable",
              "name": "userAddress",
              "type": "address"
            }
          ],
          "internalType": "struct BetContract.Bet[]",
          "name": "teamBBets",
          "type": "tuple[]"
        },
        {
          "internalType": "uint256",
          "name": "teamBBetsSum",
          "type": "uint256"
        },
        {
          "internalType": "uint256",
          "name": "teamBBetsCount",
          "type": "uint256"
        },
        {
          "internalType": "bool",
          "name": "isTeamBWinner",
          "type": "bool"
        }
      ],
      "stateMutability": "view",
      "type": "function"
    },
    {
      "inputs": [],
      "name": "getBetStatsNull",
      "outputs": [
        {
          "components": [
            {
              "internalType": "enum IsCommon.GAMEOUTCOMES",
              "name": "gameOutcome",
              "type": "uint8"
            },
            {
              "internalType": "uint256",
              "name": "amount",
              "type": "uint256"
            },
            {
              "internalType": "address payable",
              "name": "userAddress",
              "type": "address"
            }
          ],
          "internalType": "struct BetContract.Bet[]",
          "name": "nullBets",
          "type": "tuple[]"
        },
        {
          "internalType": "uint256",
          "name": "nullBetsSum",
          "type": "uint256"
        },
        {
          "internalType": "uint256",
          "name": "nullBetsCount",
          "type": "uint256"
        },
        {
          "internalType": "bool",
          "name": "isNullWinner",
          "type": "bool"
        }
      ],
      "stateMutability": "view",
      "type": "function"
    },
    {
      "inputs": [],
      "name": "getBetState",
      "outputs": [
        {
          "internalType": "string",
          "name": "betCurrentState",
          "type": "string"
        }
      ],
      "stateMutability": "view",
      "type": "function"
    }
  ],
  "bytecode": "0x60806040526000600a556000600b556000600c5534801561001f57600080fd5b50604051620016953803806200169583398101604081905261004091610097565b600880546001600160a01b039283166001600160a01b031991821617909155600e80549390921692169190911760ff60a01b191690556100c9565b80516001600160a01b038116811461009257600080fd5b919050565b600080604083850312156100a9578182fd5b6100b28361007b565b91506100c06020840161007b565b90509250929050565b6115bc80620000d96000396000f3fe60806040526004361061009c5760003560e01c806363466cd01161006457806363466cd0146101465780636a8a03701461014e5780637956d375146101635780637d624676146101855780639d98b6811461018d578063b8c703ed146101ad5761009c565b806339a3e495146100a157806339f8ac03146100ab57806342065a84146100e15780634cc162b4146101015780635023fe9414610126575b600080fd5b6100a96101c2565b005b3480156100b757600080fd5b506100cb6100c6366004611270565b6103ea565b6040516100d89190611387565b60405180910390f35b3480156100ed57600080fd5b506100a96100fc366004611291565b610449565b34801561010d57600080fd5b506101166105d5565b6040516100d89493929190611324565b34801561013257600080fd5b506100cb610141366004611270565b61072b565b6100a9610775565b34801561015a57600080fd5b5061011661089a565b34801561016f57600080fd5b506101786109ee565b6040516100d891906113a1565b6100a9610b48565b34801561019957600080fd5b506100cb6101a8366004611270565b610c6d565b3480156101b957600080fd5b50610116610cb7565b6000600e54600160a01b900460ff1660038111156101f057634e487b7160e01b600052602160045260246000fd5b146102165760405162461bcd60e51b815260040161020d90611477565b60405180910390fd5b60408051606081018252600081523460208201523381830152905160099061023d906112fa565b90815260405160209181900382019020805460018082018355600092835292909120835160039092020180548493919291839160ff19169083600281111561029557634e487b7160e01b600052602160045260246000fd5b021790555060208201516001820155604090910151600290910180546001600160a01b0319166001600160a01b03909216919091179055600b80549060006102dc8361153f565b919050555034600d6040516102f0906112fa565b9081526020016040518091039020600082825461030d91906114e8565b9091555050600f805460018181018355600092909252825160039091027f8d1108e10bcb7c27dddfc02ed9d693a074039d026cf4ea4240b40f7d581ac8020180548493919291839160ff19169083600281111561037a57634e487b7160e01b600052602160045260246000fd5b021790555060208201516001820155604091820151600290910180546001600160a01b0319166001600160a01b03909216919091179055517fd4b76bd808a2ad094a96fd435f55a233dd5e0bc27ed6cd078568bb0759290106906103df9083906114d4565b60405180910390a150565b6008546000906001600160a01b0383811691161461041a5760405162461bcd60e51b815260040161020d906113f4565b600e80546002919060ff60a01b1916600160a01b835b021790555050600e54600160a01b900460ff165b919050565b6008546001600160a01b038281169116146104765760405162461bcd60e51b815260040161020d906113f4565b6002600e54600160a01b900460ff1660038111156104a457634e487b7160e01b600052602160045260246000fd5b146104c15760405162461bcd60e51b815260040161020d90611440565b6000806000806104d086610df7565b935093509350935060005b8381101561057557600085828151811061050557634e487b7160e01b600052603260045260246000fd5b60200260200101519050600061052082602001518587611219565b905081604001516001600160a01b03166108fc829081150290604051600060405180830381858888f1935050505015801561055f573d6000803e3d6000fd5b505050808061056d9061153f565b9150506104db565b50600e805460ff60a01b1916600360a01b17908190556040517fb788f159f71f900499e53244a7e18c381d9fee90ce0d48d4363aaee5589b0c50916105c591600160a01b90910460ff1690611387565b60405180910390a1505050505050565b606060008080806002600754600160a81b900460ff16600281111561060a57634e487b7160e01b600052602160045260246000fd5b14610616576000610619565b60015b9050600960405161062990611314565b9081526020016040518091039020600d60405161064590611314565b908152602001604051809103902054600c548383805480602002602001604051908101604052809291908181526020016000905b82821015610716576000848152602090206040805160608101909152600384029091018054829060ff1660028111156106c257634e487b7160e01b600052602160045260246000fd5b60028111156106e157634e487b7160e01b600052602160045260246000fd5b81526001828101546020808401919091526002909301546001600160a01b031660409092019190915291835292019101610679565b50505050935094509450945094505090919293565b6008546000906001600160a01b0383811691161461075b5760405162461bcd60e51b815260040161020d906113f4565b600e80546001919060ff60a01b1916600160a01b83610430565b6000600e54600160a01b900460ff1660038111156107a357634e487b7160e01b600052602160045260246000fd5b146107c05760405162461bcd60e51b815260040161020d90611477565b6040805160608101825260018152346020820152338183015290516009906107e790611307565b90815260405160209181900382019020805460018082018355600092835292909120835160039092020180548493919291839160ff19169083600281111561083f57634e487b7160e01b600052602160045260246000fd5b021790555060208201516001820155604090910151600290910180546001600160a01b0319166001600160a01b03909216919091179055600a80549060006108868361153f565b919050555034600d6040516102f090611307565b6060600080806002600754600160a81b900460ff1660028111156108ce57634e487b7160e01b600052602160045260246000fd5b146108da5760006108dd565b60015b905060096040516108ed90611307565b9081526020016040518091039020600d60405161090990611307565b908152602001604051809103902054600a548383805480602002602001604051908101604052809291908181526020016000905b828210156109da576000848152602090206040805160608101909152600384029091018054829060ff16600281111561098657634e487b7160e01b600052602160045260246000fd5b60028111156109a557634e487b7160e01b600052602160045260246000fd5b81526001828101546020808401919091526002909301546001600160a01b03166040909201919091529183529201910161093d565b505050509350935093509350935090919293565b60606000600e54600160a01b900460ff166003811115610a1e57634e487b7160e01b600052602160045260246000fd5b1415610a45575060408051808201909152600481526327a822a760e11b6020820152610b45565b6001600e54600160a01b900460ff166003811115610a7357634e487b7160e01b600052602160045260246000fd5b1415610a9c575060408051808201909152600681526510d313d4d15160d21b6020820152610b45565b6002600e54600160a01b900460ff166003811115610aca57634e487b7160e01b600052602160045260246000fd5b1415610af35750604080518082019091526006815265544f2050415960d01b6020820152610b45565b6003600e54600160a01b900460ff166003811115610b2157634e487b7160e01b600052602160045260246000fd5b1415610b455750604080518082019091526005815264141056515160da1b60208201525b90565b6000600e54600160a01b900460ff166003811115610b7657634e487b7160e01b600052602160045260246000fd5b14610b935760405162461bcd60e51b815260040161020d90611477565b604080516060810182526002815234602082015233818301529051600990610bba90611314565b90815260405160209181900382019020805460018082018355600092835292909120835160039092020180548493919291839160ff191690836002811115610c1257634e487b7160e01b600052602160045260246000fd5b021790555060208201516001820155604090910151600290910180546001600160a01b0319166001600160a01b03909216919091179055600c8054906000610c598361153f565b919050555034600d6040516102f090611314565b6008546000906001600160a01b03838116911614610c9d5760405162461bcd60e51b815260040161020d906113f4565b600e80546003919060ff60a01b1916600160a01b83610430565b6060600080806002600754600160a81b900460ff166002811115610ceb57634e487b7160e01b600052602160045260246000fd5b14610cf7576000610cfa565b60015b90506009604051610d0a906112fa565b9081526020016040518091039020600d604051610d26906112fa565b908152602001604051809103902054600b548383805480602002602001604051908101604052809291908181526020016000905b828210156109da576000848152602090206040805160608101909152600384029091018054829060ff166002811115610da357634e487b7160e01b600052602160045260246000fd5b6002811115610dc257634e487b7160e01b600052602160045260246000fd5b81526001828101546020808401919091526002909301546001600160a01b031660409092019190915291835292019101610d5a565b60606000808080856002811115610e1e57634e487b7160e01b600052602160045260246000fd5b1415610f72576009604051610e32906112fa565b9081526020016040518091039020805480602002602001604051908101604052809291908181526020016000905b82821015610efd576000848152602090206040805160608101909152600384029091018054829060ff166002811115610ea957634e487b7160e01b600052602160045260246000fd5b6002811115610ec857634e487b7160e01b600052602160045260246000fd5b81526001828101546020808401919091526002909301546001600160a01b031660409092019190915291835292019101610e60565b505050509350600b549250600d604051610f16906112fa565b9081526020016040518091039020549150600d604051610f3590611314565b908152602001604051809103902054600d604051610f5290611307565b908152602001604051809103902054610f6b91906114e8565b9050611212565b6001856002811115610f9457634e487b7160e01b600052602160045260246000fd5b14156110c8576009604051610fa890611307565b9081526020016040518091039020805480602002602001604051908101604052809291908181526020016000905b82821015611073576000848152602090206040805160608101909152600384029091018054829060ff16600281111561101f57634e487b7160e01b600052602160045260246000fd5b600281111561103e57634e487b7160e01b600052602160045260246000fd5b81526001828101546020808401919091526002909301546001600160a01b031660409092019190915291835292019101610fd6565b505050509350600a549250600d60405161108c90611307565b9081526020016040518091039020549150600d6040516110ab90611314565b908152602001604051809103902054600d604051610f52906112fa565b60096040516110d690611314565b9081526020016040518091039020805480602002602001604051908101604052809291908181526020016000905b828210156111a1576000848152602090206040805160608101909152600384029091018054829060ff16600281111561114d57634e487b7160e01b600052602160045260246000fd5b600281111561116c57634e487b7160e01b600052602160045260246000fd5b81526001828101546020808401919091526002909301546001600160a01b031660409092019190915291835292019101611104565b505050509350600c549250600d6040516111ba90611314565b9081526020016040518091039020549150600d6040516111d990611307565b908152602001604051809103902054600d6040516111f6906112fa565b90815260200160405180910390205461120f91906114e8565b90505b9193509193565b6000826064806112298588611520565b6112339190611500565b61123d9190611500565b6112479190611520565b61125190856114e8565b949350505050565b80356001600160a01b038116811461044457600080fd5b600060208284031215611281578081fd5b61128a82611259565b9392505050565b600080604083850312156112a3578081fd5b8235600381106112b1578182fd5b91506112bf60208401611259565b90509250929050565b8051600381106112da576112da611570565b8252602081810151908301526040908101516001600160a01b0316910152565b604160f81b815260010190565b602160f91b815260010190565b631395531360e21b815260040190565b6080808252855190820181905260009060209060a0840190828901845b82811015611367576113548483516112c8565b6060939093019290840190600101611341565b505050908301959095525060408101929092521515606090910152919050565b602081016004831061139b5761139b611570565b91905290565b6000602080835283518082850152825b818110156113cd578581018301518582016040015282016113b1565b818111156113de5783604083870101525b50601f01601f1916929092016040019392505050565b6020808252602c908201527f596f75206e6565642061646d696e2072696768747320746f20706572666f726d60408201526b103a3434b99030b1ba34b7b760a11b606082015260800190565b60208082526017908201527f626574207374617465206d75737420626520544f504159000000000000000000604082015260600190565b6020808252603a908201527f47616d652068617320616c726561647920737461727465642c20796f7520636160408201527f6e206e6f742074616b65206265747320616e79206c6f6e676572000000000000606082015260800190565b606081016114e282846112c8565b92915050565b600082198211156114fb576114fb61155a565b500190565b60008261151b57634e487b7160e01b81526012600452602481fd5b500490565b600081600019048311821515161561153a5761153a61155a565b500290565b60006000198214156115535761155361155a565b5060010190565b634e487b7160e01b600052601160045260246000fd5b634e487b7160e01b600052602160045260246000fdfea2646970667358221220e42ffda359108178063308aa714bb8587da16c9c9860cd2176bc780c33c0291a64736f6c63430008000033",
  "immutableReferences": {},
  "source": "// SPDX-License-Identifier: UNLICENSED\npragma solidity ^0.8.0;\n\nimport \"./IsCommon.sol\";\nimport \"./GameContract.sol\";\n\ncontract BetContract is IsCommon {\n    // BETSTATES\n    enum BETSTATES {\n        OPEN,\n        CLOSED,\n        TOPAY,\n        PAYED\n    }\n\n    // Bet data model\n    struct Bet {\n        GAMEOUTCOMES gameOutcome;\n        uint256 amount;\n        address payable userAddress;\n    }\n\n    mapping(string => Bet[]) MapOutcomeToBet;\n    uint256 mapBToBetCount = 0;\n    uint256 mapAToBetCount = 0;\n    uint256 mapNULLToBetCount = 0;\n\n    mapping(string => uint256) MapOutcomeToBetValue;\n\n    // storage ref to linked GameContract\n    address gameAddress;\n    // storage bet current state\n    BETSTATES betState;\n    // storage bets\n    Bet[] bets;\n\n    // Events\n    event NewBet(Bet);\n    event BetStateChanged(BETSTATES);\n\n    // constructor intantiating BetContract from GameContract aka 1 GameCOntract -> 1 BetContract\n    constructor(address _gameAddress, address _admin) {\n        admin = _admin;\n        gameAddress = _gameAddress;\n        betState = BETSTATES.OPEN;\n    }\n\n    // PUBLIC\n\n    // settle Bets\n    function settleBet(GAMEOUTCOMES gameOutcome, address _admin) public {\n        require(\n            _admin == admin,\n            \"You need admin rights to perform this action\"\n        );\n        require(betState == BETSTATES.TOPAY, \"bet state must be TOPAY\");\n        (\n            Bet[] memory winnerBets,\n            uint256 winnerBetsCount,\n            uint256 sumWinnerBets,\n            uint256 sumLoserBets\n        ) = getBetSettlementData(gameOutcome);\n\n        for (uint256 i; i < winnerBetsCount; i++) {\n            // store current bet in temp variable in memory\n            Bet memory bet = winnerBets[i];\n            uint256 amountPayable = calculateAmountPayable(\n                bet.amount,\n                sumLoserBets,\n                sumWinnerBets\n            );\n            bet.userAddress.transfer(amountPayable);\n        }\n\n        betState = BETSTATES.PAYED;\n        emit BetStateChanged(betState);\n    }\n\n    // admin setters\n    function setBetStateTo_CLOSE(address _admin) public returns (BETSTATES) {\n        require(\n            _admin == admin,\n            \"You need admin rights to perform this action\"\n        );\n        betState = BETSTATES.CLOSED;\n        return betState;\n    }\n\n    function setBetStateTo_TOPAY(address _admin) public returns (BETSTATES) {\n        require(\n            _admin == admin,\n            \"You need admin rights to perform this action\"\n        );\n        betState = BETSTATES.TOPAY;\n        return betState;\n    }\n\n    function setBetStateTo_PAYED(address _admin) public returns (BETSTATES) {\n        require(\n            _admin == admin,\n            \"You need admin rights to perform this action\"\n        );\n        betState = BETSTATES.PAYED;\n        return betState;\n    }\n\n    // EXTERNAL\n\n    // function to take a bet on team A\n    function betTeamA() external payable isBetStateOpen() {\n        Bet memory newBet = Bet({\n            gameOutcome: GAMEOUTCOMES.TEAMA,\n            amount: msg.value,\n            userAddress: payable(msg.sender)\n        });\n        MapOutcomeToBet[\"A\"].push(newBet);\n        mapAToBetCount++;\n        MapOutcomeToBetValue[\"A\"] += msg.value;\n        bets.push(newBet);\n        emit NewBet(newBet);\n    }\n\n    // function to take a bet on team B\n    function betTeamB() external payable isBetStateOpen() {\n        Bet memory newBet = Bet({\n            gameOutcome: GAMEOUTCOMES.TEAMB,\n            amount: msg.value,\n            userAddress: payable(msg.sender)\n        });\n        MapOutcomeToBet[\"B\"].push(newBet);\n        mapBToBetCount++;\n        MapOutcomeToBetValue[\"B\"] += msg.value;\n        bets.push(newBet);\n        emit NewBet(newBet);\n    }\n\n    // function to take a bet on NULL\n    function betNULL() external payable isBetStateOpen() {\n        Bet memory newBet = Bet({\n            gameOutcome: GAMEOUTCOMES.NULL,\n            amount: msg.value,\n            userAddress: payable(msg.sender)\n        });\n        MapOutcomeToBet[\"NULL\"].push(newBet);\n        mapNULLToBetCount++;\n        MapOutcomeToBetValue[\"NULL\"] += msg.value;\n        bets.push(newBet);\n        emit NewBet(newBet);\n    }\n\n    function getBetStatsA()\n        external\n        view\n        returns (\n            Bet[] memory teamABets,\n            uint256 teamABetsSum,\n            uint256 teamABetsCount,\n            bool isTeamAWinner\n        )\n    {\n        isTeamAWinner = game.gameOutcome == GAMEOUTCOMES.NULL ? true : false;\n        return (\n            MapOutcomeToBet[\"A\"],\n            MapOutcomeToBetValue[\"A\"],\n            mapAToBetCount,\n            isTeamAWinner\n        );\n    }\n\n    function getBetStatsB()\n        external\n        view\n        returns (\n            Bet[] memory teamBBets,\n            uint256 teamBBetsSum,\n            uint256 teamBBetsCount,\n            bool isTeamBWinner\n        )\n    {\n        isTeamBWinner = game.gameOutcome == GAMEOUTCOMES.NULL ? true : false;\n        return (\n            MapOutcomeToBet[\"B\"],\n            MapOutcomeToBetValue[\"B\"],\n            mapBToBetCount,\n            isTeamBWinner\n        );\n    }\n\n    function getBetStatsNull()\n        external\n        view\n        returns (\n            Bet[] memory nullBets,\n            uint256 nullBetsSum,\n            uint256 nullBetsCount,\n            bool isNullWinner\n        )\n    {\n        bool _isNullWinner = game.gameOutcome == GAMEOUTCOMES.NULL\n            ? true\n            : false;\n        return (\n            MapOutcomeToBet[\"NULL\"],\n            MapOutcomeToBetValue[\"NULL\"],\n            mapNULLToBetCount,\n            _isNullWinner\n        );\n    }\n\n    function getBetState()\n        external\n        view\n        returns (string memory betCurrentState)\n    {\n        if (betState == BETSTATES.OPEN) {\n            return \"OPEN\";\n        } else if (betState == BETSTATES.CLOSED) {\n            return \"CLOSED\";\n        } else if (betState == BETSTATES.TOPAY) {\n            return \"TO PAY\";\n        } else if (betState == BETSTATES.PAYED) {\n            return \"PAYED\";\n        }\n    }\n\n    // PRIVATE\n\n    // calculate amount due to winner by weighting the initial amount bet on the sum of the losers bet value;\n    function calculateAmountPayable(\n        uint256 initalBetAmount,\n        uint256 sumLoserBets,\n        uint256 sumWinnerBets\n    ) private pure returns (uint256) {\n        return\n            initalBetAmount +\n            (((initalBetAmount * sumWinnerBets) / 100) / 100) *\n            sumLoserBets;\n    }\n\n    // getting winnerBets according to Game issue and returning winnerBets, winnerBetsCount, sumWinnerBets, sumLoserBets to calculateAmountPayable\n    function getBetSettlementData(GAMEOUTCOMES gameOutcome)\n        private\n        view\n        returns (\n            Bet[] memory winnerBets,\n            uint256 winnerBetsCount,\n            uint256 sumWinnerBets,\n            uint256 sumLoserBets\n        )\n    {\n        if (gameOutcome == GAMEOUTCOMES.TEAMA) {\n            winnerBets = MapOutcomeToBet[\"A\"];\n            winnerBetsCount = mapAToBetCount;\n            sumWinnerBets = MapOutcomeToBetValue[\"A\"];\n            sumLoserBets =\n                MapOutcomeToBetValue[\"B\"] +\n                MapOutcomeToBetValue[\"NULL\"];\n        } else if (gameOutcome == GAMEOUTCOMES.TEAMB) {\n            winnerBets = MapOutcomeToBet[\"B\"];\n            winnerBetsCount = mapBToBetCount;\n            sumWinnerBets = MapOutcomeToBetValue[\"B\"];\n            sumLoserBets =\n                MapOutcomeToBetValue[\"A\"] +\n                MapOutcomeToBetValue[\"NULL\"];\n        } else {\n            winnerBets = MapOutcomeToBet[\"NULL\"];\n            winnerBetsCount = mapNULLToBetCount;\n            sumWinnerBets = MapOutcomeToBetValue[\"NULL\"];\n            sumLoserBets =\n                MapOutcomeToBetValue[\"A\"] +\n                MapOutcomeToBetValue[\"B\"];\n        }\n        return (winnerBets, winnerBetsCount, sumWinnerBets, sumLoserBets);\n    }\n\n    // modifiers\n    modifier isBetStateOpen() {\n        require(\n            betState == BETSTATES.OPEN,\n            \"Game has already started, you can not take bets any longer\"\n        );\n        _;\n    }\n}\n",
  "sourcePath": "/home/neurotropik/Documents/PROJECTS/ETHEREUM/SportsOnTheBlock/contracts/BetContract.sol",
  "compiler": {
    "name": "solc",
    "version": "0.8.0+commit.c7dfd78e.Emscripten.clang"
  },
  "schemaVersion": "3.4.1",
  "updatedAt": "2021-06-27T15:22:55.506Z",
  "devdoc": {
    "kind": "dev",
    "methods": {},
    "version": 1
  },
  "userdoc": {
    "kind": "user",
    "methods": {},
    "version": 1
  }
}