{
  "contractName": "BettingContract",
  "abi": [
    {
      "anonymous": false,
      "inputs": [
        {
          "indexed": false,
          "internalType": "bool",
          "name": "",
          "type": "bool"
        }
      ],
      "name": "GameEnded",
      "type": "event"
    },
    {
      "anonymous": false,
      "inputs": [
        {
          "indexed": false,
          "internalType": "bool",
          "name": "",
          "type": "bool"
        }
      ],
      "name": "GameStarted",
      "type": "event"
    },
    {
      "anonymous": false,
      "inputs": [
        {
          "components": [
            {
              "internalType": "address",
              "name": "user",
              "type": "address"
            },
            {
              "internalType": "uint256",
              "name": "amount",
              "type": "uint256"
            },
            {
              "internalType": "uint256",
              "name": "outcome",
              "type": "uint256"
            }
          ],
          "indexed": false,
          "internalType": "struct isCommon.Bet",
          "name": "",
          "type": "tuple"
        }
      ],
      "name": "NewBet",
      "type": "event"
    },
    {
      "anonymous": false,
      "inputs": [
        {
          "components": [
            {
              "internalType": "string",
              "name": "name",
              "type": "string"
            },
            {
              "internalType": "string",
              "name": "description",
              "type": "string"
            },
            {
              "internalType": "string",
              "name": "cover",
              "type": "string"
            },
            {
              "internalType": "bool",
              "name": "available",
              "type": "bool"
            }
          ],
          "indexed": false,
          "internalType": "struct isCommon.Competition",
          "name": "",
          "type": "tuple"
        }
      ],
      "name": "NewCompetition",
      "type": "event"
    },
    {
      "anonymous": false,
      "inputs": [
        {
          "components": [
            {
              "internalType": "string",
              "name": "team1Name",
              "type": "string"
            },
            {
              "internalType": "string",
              "name": "team2Name",
              "type": "string"
            },
            {
              "internalType": "string",
              "name": "description",
              "type": "string"
            },
            {
              "internalType": "string",
              "name": "cover",
              "type": "string"
            },
            {
              "internalType": "uint256",
              "name": "team1Score",
              "type": "uint256"
            },
            {
              "internalType": "uint256",
              "name": "team2Score",
              "type": "uint256"
            },
            {
              "internalType": "uint256",
              "name": "winner",
              "type": "uint256"
            },
            {
              "internalType": "bool",
              "name": "ended",
              "type": "bool"
            },
            {
              "internalType": "bool",
              "name": "started",
              "type": "bool"
            }
          ],
          "indexed": false,
          "internalType": "struct isCommon.Game",
          "name": "",
          "type": "tuple"
        }
      ],
      "name": "NewGame",
      "type": "event"
    },
    {
      "inputs": [],
      "name": "owner",
      "outputs": [
        {
          "internalType": "address",
          "name": "",
          "type": "address"
        }
      ],
      "stateMutability": "view",
      "type": "function",
      "constant": true
    },
    {
      "inputs": [],
      "name": "getCompetitions",
      "outputs": [
        {
          "components": [
            {
              "internalType": "string",
              "name": "name",
              "type": "string"
            },
            {
              "internalType": "string",
              "name": "description",
              "type": "string"
            },
            {
              "internalType": "string",
              "name": "cover",
              "type": "string"
            },
            {
              "internalType": "bool",
              "name": "available",
              "type": "bool"
            }
          ],
          "internalType": "struct isCommon.Competition[]",
          "name": "",
          "type": "tuple[]"
        }
      ],
      "stateMutability": "view",
      "type": "function",
      "constant": true
    },
    {
      "inputs": [
        {
          "internalType": "uint256",
          "name": "competitionId",
          "type": "uint256"
        }
      ],
      "name": "getGames",
      "outputs": [
        {
          "components": [
            {
              "internalType": "string",
              "name": "team1Name",
              "type": "string"
            },
            {
              "internalType": "string",
              "name": "team2Name",
              "type": "string"
            },
            {
              "internalType": "string",
              "name": "description",
              "type": "string"
            },
            {
              "internalType": "string",
              "name": "cover",
              "type": "string"
            },
            {
              "internalType": "uint256",
              "name": "team1Score",
              "type": "uint256"
            },
            {
              "internalType": "uint256",
              "name": "team2Score",
              "type": "uint256"
            },
            {
              "internalType": "uint256",
              "name": "winner",
              "type": "uint256"
            },
            {
              "internalType": "bool",
              "name": "ended",
              "type": "bool"
            },
            {
              "internalType": "bool",
              "name": "started",
              "type": "bool"
            }
          ],
          "internalType": "struct isCommon.Game[]",
          "name": "games",
          "type": "tuple[]"
        }
      ],
      "stateMutability": "view",
      "type": "function",
      "constant": true
    },
    {
      "inputs": [
        {
          "internalType": "uint256",
          "name": "gameId",
          "type": "uint256"
        }
      ],
      "name": "getBets",
      "outputs": [
        {
          "components": [
            {
              "internalType": "address",
              "name": "user",
              "type": "address"
            },
            {
              "internalType": "uint256",
              "name": "amount",
              "type": "uint256"
            },
            {
              "internalType": "uint256",
              "name": "outcome",
              "type": "uint256"
            }
          ],
          "internalType": "struct isCommon.Bet[]",
          "name": "bets",
          "type": "tuple[]"
        }
      ],
      "stateMutability": "view",
      "type": "function",
      "constant": true
    },
    {
      "inputs": [
        {
          "internalType": "uint256",
          "name": "gameId",
          "type": "uint256"
        },
        {
          "internalType": "uint256",
          "name": "outcome",
          "type": "uint256"
        }
      ],
      "name": "bet",
      "outputs": [],
      "stateMutability": "payable",
      "type": "function",
      "payable": true
    },
    {
      "inputs": [
        {
          "internalType": "string",
          "name": "name",
          "type": "string"
        },
        {
          "internalType": "string",
          "name": "description",
          "type": "string"
        },
        {
          "internalType": "string",
          "name": "cover",
          "type": "string"
        }
      ],
      "name": "newCompetition",
      "outputs": [],
      "stateMutability": "nonpayable",
      "type": "function"
    },
    {
      "inputs": [
        {
          "internalType": "uint256",
          "name": "competitionId",
          "type": "uint256"
        },
        {
          "internalType": "string",
          "name": "team1Name",
          "type": "string"
        },
        {
          "internalType": "string",
          "name": "team2Name",
          "type": "string"
        },
        {
          "internalType": "string",
          "name": "description",
          "type": "string"
        },
        {
          "internalType": "string",
          "name": "cover",
          "type": "string"
        }
      ],
      "name": "newGame",
      "outputs": [],
      "stateMutability": "nonpayable",
      "type": "function"
    },
    {
      "inputs": [
        {
          "internalType": "uint256",
          "name": "gameId",
          "type": "uint256"
        },
        {
          "internalType": "uint256",
          "name": "winner",
          "type": "uint256"
        }
      ],
      "name": "settleGame",
      "outputs": [],
      "stateMutability": "nonpayable",
      "type": "function"
    }
  ],
  "bytecode": "0x608060405234801561001057600080fd5b50600080546001600160a01b03191633179055611c63806100326000396000f3fe60806040526004361061007b5760003560e01c80638da5cb5b1161004e5780638da5cb5b1461010b5780639d6aaa7d1461012d5780639f6c0ce31461015a5780639ff930881461017c5761007b565b80631ccf6955146100805780633992c0a3146100b657806365237d20146100d85780636ffcc719146100f8575b600080fd5b34801561008c57600080fd5b506100a061009b3660046116d1565b61019c565b6040516100ad9190611950565b60405180910390f35b3480156100c257600080fd5b506100d66100d13660046116e9565b61028f565b005b3480156100e457600080fd5b506100d66100f336600461163b565b6105ec565b6100d66101063660046117b4565b610812565b34801561011757600080fd5b50610120610911565b6040516100ad919061193c565b34801561013957600080fd5b5061014d6101483660046116d1565b610920565b6040516100ad9190611a12565b34801561016657600080fd5b5061016f610c38565b6040516100ad91906119b2565b34801561018857600080fd5b506100d66101973660046117b4565b610e5f565b6060816000811180156101b157506002548111155b6101d65760405162461bcd60e51b81526004016101cd90611aa7565b60405180910390fd5b6000831180156101e857506002548311155b6102045760405162461bcd60e51b81526004016101cd90611aa7565b600083815260066020908152604080832080548251818502810185019093528083529193909284015b82821015610282576000848152602090819020604080516060810182526003860290920180546001600160a01b031683526001808201548486015260029091015491830191909152908352909201910161022d565b5050505091505b50919050565b886000811180156102a257506003548111155b6102be5760405162461bcd60e51b81526004016101cd90611ad5565b6000546001600160a01b031633146102d557600080fd5b604080516101406020601f8c01819004028201810190925261012081018a81526000928291908d908d9081908501838280828437600092019190915250505090825250604080516020601f8c018190048102820181019092528a815291810191908b908b9081908401838280828437600092019190915250505090825250604080516020601f8a0181900481028201810190925288815291810191908990899081908401838280828437600092019190915250505090825250604080516020601f880181900481028201810190925286815291810191908790879081908401838280828437600092018290525093855250505060208083018290526040808401839052606084018390526080840183905260a090930182905260025482526007815291902082518051939450849391926104149284929091019061155b565b50602082810151805161042d926001850192019061155b565b506040820151805161044991600284019160209091019061155b565b506060820151805161046591600384019160209091019061155b565b506080820151600482015560a082015160058083019190915560c0830151600683015560e0830151600790920180546101009485015160ff199091169315159390931761ff0019169215159093029190911790915560008c81526020918252604081208054600181018255908252908290208351805185946008909402909201926104f59284929091019061155b565b50602082810151805161050e926001850192019061155b565b506040820151805161052a91600284019160209091019061155b565b506060820151805161054691600384019160209091019061155b565b506080820151600482015560a0820151600582015560c0820151600682015560e0820151600790910180546101009384015160ff199091169215159290921761ff001916911515909202179055600280549060006105a383611bfc565b91905055507fe2d196aa7d13c9880ce53c2b8b7bd42594be12d56789b25d3b30210d2628966c816040516105d79190611b5d565b60405180910390a15050505050505050505050565b6040805160a06020601f89018190040282018101909252608081018781526000928291908a908a9081908501838280828437600092019190915250505090825250604080516020601f890181900481028201810190925287815291810191908890889081908401838280828437600092019190915250505090825250604080516020601f870181900481028201810190925285815291810191908690869081908401838280828437600092018290525093855250506001602093840152506003548152600482526040902082518051939450849391926106d19284929091019061155b565b5060208281015180516106ea926001850192019061155b565b506040820151805161070691600284019160209091019061155b565b50606091909101516003909101805491151560ff199092169190911790556001805480820182556000919091528151805183926004027fb10e2d527612073b26eecdfd717e6a320cf44b4afac2b0732d9fcbe2b7fa0cf6019161076e9183916020019061155b565b506020828101518051610787926001850192019061155b565b50604082015180516107a391600284019160209091019061155b565b50606091909101516003918201805460ff191691151591909117905580549060006107cd83611bfc565b91905055507f0adbede93e7486b6cd70aea787deab75918d4cb9c03f4d62c14cf8b633c708e9816040516108019190611b43565b60405180910390a150505050505050565b8160008111801561082557506002548111155b6108415760405162461bcd60e51b81526004016101cd90611aa7565b8160028111156108635760405162461bcd60e51b81526004016101cd90611a70565b600084815260076020819052604090912001548490610100900460ff161561089d5760405162461bcd60e51b81526004016101cd90611b0c565b5050506000918252600660209081526040808420815160608101835233815234818501908152928101948552815460018082018455928752939095209451600390930290940180546001600160a01b0319166001600160a01b03909316929092178255519281019290925551600290910155565b6000546001600160a01b031681565b60608160008111801561093557506003548111155b6109515760405162461bcd60e51b81526004016101cd90611ad5565b600083815260056020908152604080832080548251818502810185019093528083529193909284015b828210156102825783829060005260206000209060080201604051806101200160405290816000820180546109ae90611bc7565b80601f01602080910402602001604051908101604052809291908181526020018280546109da90611bc7565b8015610a275780601f106109fc57610100808354040283529160200191610a27565b820191906000526020600020905b815481529060010190602001808311610a0a57829003601f168201915b50505050508152602001600182018054610a4090611bc7565b80601f0160208091040260200160405190810160405280929190818152602001828054610a6c90611bc7565b8015610ab95780601f10610a8e57610100808354040283529160200191610ab9565b820191906000526020600020905b815481529060010190602001808311610a9c57829003601f168201915b50505050508152602001600282018054610ad290611bc7565b80601f0160208091040260200160405190810160405280929190818152602001828054610afe90611bc7565b8015610b4b5780601f10610b2057610100808354040283529160200191610b4b565b820191906000526020600020905b815481529060010190602001808311610b2e57829003601f168201915b50505050508152602001600382018054610b6490611bc7565b80601f0160208091040260200160405190810160405280929190818152602001828054610b9090611bc7565b8015610bdd5780601f10610bb257610100808354040283529160200191610bdd565b820191906000526020600020905b815481529060010190602001808311610bc057829003601f168201915b50505091835250506004820154602080830191909152600583015460408301526006830154606083015260079092015460ff8082161515608084015261010090910416151560a090910152908252600192909201910161097a565b60606001805480602002602001604051908101604052809291908181526020016000905b82821015610e565783829060005260206000209060040201604051806080016040529081600082018054610c8f90611bc7565b80601f0160208091040260200160405190810160405280929190818152602001828054610cbb90611bc7565b8015610d085780601f10610cdd57610100808354040283529160200191610d08565b820191906000526020600020905b815481529060010190602001808311610ceb57829003601f168201915b50505050508152602001600182018054610d2190611bc7565b80601f0160208091040260200160405190810160405280929190818152602001828054610d4d90611bc7565b8015610d9a5780601f10610d6f57610100808354040283529160200191610d9a565b820191906000526020600020905b815481529060010190602001808311610d7d57829003601f168201915b50505050508152602001600282018054610db390611bc7565b80601f0160208091040260200160405190810160405280929190818152602001828054610ddf90611bc7565b8015610e2c5780601f10610e0157610100808354040283529160200191610e2c565b820191906000526020600020905b815481529060010190602001808311610e0f57829003601f168201915b50505091835250506003919091015460ff1615156020918201529082526001929092019101610c5c565b50505050905090565b81600081118015610e7257506002548111155b610e8e5760405162461bcd60e51b81526004016101cd90611aa7565b6000546001600160a01b03163314610ea557600080fd5b60008381526007602052604080822081516101208101909252805482908290610ecd90611bc7565b80601f0160208091040260200160405190810160405280929190818152602001828054610ef990611bc7565b8015610f465780601f10610f1b57610100808354040283529160200191610f46565b820191906000526020600020905b815481529060010190602001808311610f2957829003601f168201915b50505050508152602001600182018054610f5f90611bc7565b80601f0160208091040260200160405190810160405280929190818152602001828054610f8b90611bc7565b8015610fd85780601f10610fad57610100808354040283529160200191610fd8565b820191906000526020600020905b815481529060010190602001808311610fbb57829003601f168201915b50505050508152602001600282018054610ff190611bc7565b80601f016020809104026020016040519081016040528092919081815260200182805461101d90611bc7565b801561106a5780601f1061103f5761010080835404028352916020019161106a565b820191906000526020600020905b81548152906001019060200180831161104d57829003601f168201915b5050505050815260200160038201805461108390611bc7565b80601f01602080910402602001604051908101604052809291908181526020018280546110af90611bc7565b80156110fc5780601f106110d1576101008083540402835291602001916110fc565b820191906000526020600020905b8154815290600101906020018083116110df57829003601f168201915b505050918352505060048201546020808301919091526005830154604080840191909152600680850154606085015260079094015460ff8082161515608086015261010090910416151560a09093019290925260008881529281528183208054835181840281018401909452808452949550929391929190849084015b828210156111ce576000848152602090819020604080516060810182526003860290920180546001600160a01b0316835260018082015484860152600290910154918301919091529083529092019101611179565b50505050905060008060006111e384886113bb565b95505050935050925060005b83518110156112ad57600084828151811061121a57634e487b7160e01b600052603260045260246000fd5b60200260200101519050600084826020015160646112389190611ba8565b6112429190611b88565b61124c9085611ba8565b905081600001516001600160a01b03166108fc82846020015161126f9190611b70565b6040518115909202916000818181858888f19350505050158015611297573d6000803e3d6000fd5b50505080806112a590611bfc565b9150506111ef565b50600160e086015260008881526007602090815260409091208651805188936112da92849291019061155b565b5060208281015180516112f3926001850192019061155b565b506040820151805161130f91600284019160209091019061155b565b506060820151805161132b91600384019160209091019061155b565b506080820151600482015560a0820151600582015560c0820151600682015560e0820151600790910180546101009384015160ff199091169215159290921761ff0019169115159092021790556040517fdf7a1dfb51dd87859a6f44cf9bddb076effbccd933619eec97e64a79fd94d324906113a990600190611a65565b60405180910390a15050505050505050565b6060600080606060008060005b885181101561155057878982815181106113f257634e487b7160e01b600052603260045260246000fd5b60200260200101516040015114156114a35788818151811061142457634e487b7160e01b600052603260045260246000fd5b602002602001015187878151811061144c57634e487b7160e01b600052603260045260246000fd5b6020026020010181905250858061146290611bfc565b96505088818151811061148557634e487b7160e01b600052603260045260246000fd5b6020026020010151602001518561149c9190611b70565b945061153e565b8881815181106114c357634e487b7160e01b600052603260045260246000fd5b60200260200101518484815181106114eb57634e487b7160e01b600052603260045260246000fd5b6020026020010181905250828061150190611bfc565b93505088818151811061152457634e487b7160e01b600052603260045260246000fd5b6020026020010151602001518261153b9190611b70565b91505b8061154881611bfc565b9150506113c8565b509295509295509295565b82805461156790611bc7565b90600052602060002090601f01602090048101928261158957600085556115cf565b82601f106115a257805160ff19168380011785556115cf565b828001600101855582156115cf579182015b828111156115cf5782518255916020019190600101906115b4565b506115db9291506115df565b5090565b5b808211156115db57600081556001016115e0565b60008083601f840112611605578182fd5b50813567ffffffffffffffff81111561161c578182fd5b60208301915083602082850101111561163457600080fd5b9250929050565b60008060008060008060608789031215611653578182fd5b863567ffffffffffffffff8082111561166a578384fd5b6116768a838b016115f4565b9098509650602089013591508082111561168e578384fd5b61169a8a838b016115f4565b909650945060408901359150808211156116b2578384fd5b506116bf89828a016115f4565b979a9699509497509295939492505050565b6000602082840312156116e2578081fd5b5035919050565b600080600080600080600080600060a08a8c031215611706578283fd5b8935985060208a013567ffffffffffffffff80821115611724578485fd5b6117308d838e016115f4565b909a50985060408c0135915080821115611748578485fd5b6117548d838e016115f4565b909850965060608c013591508082111561176c578485fd5b6117788d838e016115f4565b909650945060808c0135915080821115611790578384fd5b5061179d8c828d016115f4565b915080935050809150509295985092959850929598565b600080604083850312156117c6578182fd5b50508035926020909101359150565b15159052565b60008151808452815b81811015611800576020818501810151868301820152016117e4565b818111156118115782602083870101525b50601f01601f19169290920160200192915050565b600081516080845261183b60808501826117db565b90506020830151848203602086015261185482826117db565b9150506040830151848203604086015261186e82826117db565b9150506060830151151560608501528091505092915050565b6000610120825181855261189d828601826117db565b915050602083015184820360208601526118b782826117db565b915050604083015184820360408601526118d182826117db565b915050606083015184820360608601526118eb82826117db565b9150506080830151608085015260a083015160a085015260c083015160c085015260e083015161191e60e08601826117d5565b5061010080840151611932828701826117d5565b5090949350505050565b6001600160a01b0391909116815260200190565b602080825282518282018190526000919060409081850190868401855b828110156119a557815180516001600160a01b031685528681015187860152850151858501526060909301929085019060010161196d565b5091979650505050505050565b6000602080830181845280855180835260408601915060408482028701019250838701855b82811015611a0557603f198886030184526119f3858351611826565b945092850192908501906001016119d7565b5092979650505050505050565b6000602080830181845280855180835260408601915060408482028701019250838701855b82811015611a0557603f19888603018452611a53858351611887565b94509285019290850190600101611a37565b901515815260200190565b6020808252601a908201527f4f7574636f6d65206d75737420626520302c20312c206f722032000000000000604082015260600190565b60208082526014908201527347616d6520646f6573206e6f742065786973747360601b604082015260600190565b6020808252601b908201527f436f6d7065746974696f6e20646f6573206e6f74206578697374730000000000604082015260600190565b60208082526018908201527f67616d652068617320616c726561647920737461727465640000000000000000604082015260600190565b600060208252611b566020830184611826565b9392505050565b600060208252611b566020830184611887565b60008219821115611b8357611b83611c17565b500190565b600082611ba357634e487b7160e01b81526012600452602481fd5b500490565b6000816000190483118215151615611bc257611bc2611c17565b500290565b600281046001821680611bdb57607f821691505b6020821081141561028957634e487b7160e01b600052602260045260246000fd5b6000600019821415611c1057611c10611c17565b5060010190565b634e487b7160e01b600052601160045260246000fdfea2646970667358221220c35a90fd57f134d09cce2e4c5403b58837ff441ddca654bf6920cc7f1e3e1cb364736f6c63430008000033",
  "immutableReferences": {},
  "source": "// SPDX-License-Identifier: UNLICENSED\npragma solidity ^0.8.0;\n\nimport \"./Owner.sol\";\nimport \"./isCommon.sol\";\n\ncontract BettingContract is Owner, isCommon {\n    function getCompetitions() external view returns (Competition[] memory) {\n        return competitions;\n    }\n\n    function getGames(uint256 competitionId)\n        external\n        view\n        competitionExists(competitionId)\n        returns (Game[] memory games)\n    {\n        return CompetitionIdToGames[competitionId];\n    }\n\n    function getBets(uint256 gameId)\n        external\n        view\n        gameExists(gameId)\n        returns (Bet[] memory bets)\n    {\n        require(gameId > 0 && gameId <= currentGameId, \"Game does not exists\");\n        return GameIdToBets[gameId];\n    }\n\n    function bet(uint256 gameId, uint256 outcome)\n        external\n        payable\n        gameExists(gameId)\n        betOutcomeIsValid(outcome)\n        checkGameState(gameId)\n    {\n        GameIdToBets[gameId].push(Bet(msg.sender, msg.value, outcome));\n    }\n\n    // costly 3 writes in storage\n    function newCompetition(\n        string calldata name,\n        string calldata description,\n        string calldata cover\n    ) external {\n        Competition memory _competition = Competition(\n            name,\n            description,\n            cover,\n            true\n        );\n        CompetitionIdToCompetition[currentCompetitionId] = _competition;\n        competitions.push(_competition);\n        currentCompetitionId++;\n        emit NewCompetition(_competition);\n    }\n\n    // costly 3 writes in storage\n    function newGame(\n        uint256 competitionId,\n        string calldata team1Name,\n        string calldata team2Name,\n        string calldata description,\n        string calldata cover\n    ) external competitionExists(competitionId) isOwner() {\n        Game memory _game = Game(\n            team1Name,\n            team2Name,\n            description,\n            cover,\n            0,\n            0,\n            0,\n            false,\n            false\n        );\n        GameIdToGame[currentGameId] = _game;\n        CompetitionIdToGames[competitionId].push(_game);\n        currentGameId++;\n        emit NewGame(_game);\n    }\n\n    function settleGame(uint256 gameId, uint256 winner)\n        external\n        gameExists(gameId)\n        isOwner()\n    {\n        Game memory _game = GameIdToGame[gameId];\n        Bet[] memory _bets = GameIdToBets[gameId];\n        (\n            Bet[] memory _winnerBets,\n            ,\n            uint256 _winnerBetsSum,\n            ,\n            ,\n            uint256 _loserBetsSum\n        ) = getSettlementData(_bets, winner);\n\n        for (uint256 i = 0; i < _winnerBets.length; i++) {\n            Bet memory _bet = _winnerBets[i];\n            uint256 _profit = _loserBetsSum *\n                ((_bet.amount * 100) / _winnerBetsSum);\n            payable(_bet.user).transfer(_bet.amount + _profit);\n        }\n        _game.ended = true;\n        GameIdToGame[gameId] = _game;\n        emit GameEnded(true);\n    }\n\n    function getSettlementData(Bet[] memory _bets, uint256 winner)\n        private\n        pure\n        returns (\n            Bet[] memory _winnerBets,\n            uint256 _winnerBetsCount,\n            uint256 _winnerBetsSum,\n            Bet[] memory _loserBets,\n            uint256 _loserBetsCount,\n            uint256 _loserBetsSum\n        )\n    {\n        for (uint256 i = 0; i < _bets.length; i++) {\n            if (_bets[i].outcome == winner) {\n                _winnerBets[_winnerBetsCount] = _bets[i];\n                _winnerBetsCount++;\n                _winnerBetsSum += _bets[i].amount;\n            } else {\n                _loserBets[_loserBetsCount] = _bets[i];\n                _loserBetsCount++;\n                _loserBetsSum += _bets[i].amount;\n            }\n        }\n\n        return (\n            _winnerBets,\n            _winnerBetsCount,\n            _winnerBetsSum,\n            _loserBets,\n            _loserBetsCount,\n            _loserBetsSum\n        );\n    }\n}\n",
  "sourcePath": "/home/bitch1y/Documents/PROJECTS/ETHEREUM/SportsOnTheBlock/contracts/BettingContrat.sol",
  "compiler": {
    "name": "solc",
    "version": "0.8.0+commit.c7dfd78e.Emscripten.clang"
  },
  "schemaVersion": "3.4.1",
  "updatedAt": "2021-07-01T10:53:43.723Z",
  "networkType": "ethereum",
  "devdoc": {
    "kind": "dev",
    "methods": {},
    "version": 1
  },
  "userdoc": {
    "kind": "user",
    "methods": {},
    "version": 1
  }
}