{
  "contractName": "BettingContract",
  "abi": [
    {
      "inputs": [],
      "stateMutability": "nonpayable",
      "type": "constructor"
    },
    {
      "anonymous": false,
      "inputs": [
        {
          "indexed": false,
          "internalType": "bool",
          "name": "",
          "type": "bool"
        }
      ],
      "name": "GameEnded",
      "type": "event"
    },
    {
      "anonymous": false,
      "inputs": [
        {
          "indexed": false,
          "internalType": "bool",
          "name": "",
          "type": "bool"
        }
      ],
      "name": "GameStarted",
      "type": "event"
    },
    {
      "anonymous": false,
      "inputs": [
        {
          "components": [
            {
              "internalType": "address",
              "name": "user",
              "type": "address"
            },
            {
              "internalType": "uint256",
              "name": "amount",
              "type": "uint256"
            },
            {
              "internalType": "uint256",
              "name": "outcome",
              "type": "uint256"
            }
          ],
          "indexed": false,
          "internalType": "struct isCommon.Bet",
          "name": "",
          "type": "tuple"
        }
      ],
      "name": "NewBet",
      "type": "event"
    },
    {
      "anonymous": false,
      "inputs": [
        {
          "components": [
            {
              "internalType": "uint256",
              "name": "id",
              "type": "uint256"
            },
            {
              "internalType": "string",
              "name": "name",
              "type": "string"
            },
            {
              "internalType": "bool",
              "name": "available",
              "type": "bool"
            },
            {
              "internalType": "bool",
              "name": "exists",
              "type": "bool"
            }
          ],
          "indexed": false,
          "internalType": "struct isCommon.Competition",
          "name": "",
          "type": "tuple"
        }
      ],
      "name": "NewCompetition",
      "type": "event"
    },
    {
      "anonymous": false,
      "inputs": [
        {
          "components": [
            {
              "internalType": "uint256",
              "name": "id",
              "type": "uint256"
            },
            {
              "internalType": "string",
              "name": "team1Name",
              "type": "string"
            },
            {
              "internalType": "string",
              "name": "team2Name",
              "type": "string"
            },
            {
              "internalType": "uint256",
              "name": "start",
              "type": "uint256"
            },
            {
              "internalType": "uint256",
              "name": "team1Score",
              "type": "uint256"
            },
            {
              "internalType": "uint256",
              "name": "team2Score",
              "type": "uint256"
            },
            {
              "internalType": "uint256",
              "name": "winner",
              "type": "uint256"
            },
            {
              "internalType": "bool",
              "name": "ended",
              "type": "bool"
            },
            {
              "internalType": "bool",
              "name": "started",
              "type": "bool"
            },
            {
              "internalType": "bool",
              "name": "exists",
              "type": "bool"
            }
          ],
          "indexed": false,
          "internalType": "struct isCommon.Game",
          "name": "",
          "type": "tuple"
        }
      ],
      "name": "NewGame",
      "type": "event"
    },
    {
      "inputs": [],
      "name": "owner",
      "outputs": [
        {
          "internalType": "address",
          "name": "",
          "type": "address"
        }
      ],
      "stateMutability": "view",
      "type": "function"
    },
    {
      "inputs": [
        {
          "internalType": "uint256",
          "name": "gameId",
          "type": "uint256"
        }
      ],
      "name": "getGame",
      "outputs": [
        {
          "components": [
            {
              "internalType": "uint256",
              "name": "id",
              "type": "uint256"
            },
            {
              "internalType": "string",
              "name": "team1Name",
              "type": "string"
            },
            {
              "internalType": "string",
              "name": "team2Name",
              "type": "string"
            },
            {
              "internalType": "uint256",
              "name": "start",
              "type": "uint256"
            },
            {
              "internalType": "uint256",
              "name": "team1Score",
              "type": "uint256"
            },
            {
              "internalType": "uint256",
              "name": "team2Score",
              "type": "uint256"
            },
            {
              "internalType": "uint256",
              "name": "winner",
              "type": "uint256"
            },
            {
              "internalType": "bool",
              "name": "ended",
              "type": "bool"
            },
            {
              "internalType": "bool",
              "name": "started",
              "type": "bool"
            },
            {
              "internalType": "bool",
              "name": "exists",
              "type": "bool"
            }
          ],
          "internalType": "struct isCommon.Game",
          "name": "game",
          "type": "tuple"
        }
      ],
      "stateMutability": "view",
      "type": "function"
    },
    {
      "inputs": [],
      "name": "getCompetitions",
      "outputs": [
        {
          "components": [
            {
              "internalType": "uint256",
              "name": "id",
              "type": "uint256"
            },
            {
              "internalType": "string",
              "name": "name",
              "type": "string"
            },
            {
              "internalType": "bool",
              "name": "available",
              "type": "bool"
            },
            {
              "internalType": "bool",
              "name": "exists",
              "type": "bool"
            }
          ],
          "internalType": "struct isCommon.Competition[]",
          "name": "",
          "type": "tuple[]"
        }
      ],
      "stateMutability": "view",
      "type": "function"
    },
    {
      "inputs": [
        {
          "internalType": "uint256",
          "name": "competitionId",
          "type": "uint256"
        }
      ],
      "name": "getGames",
      "outputs": [
        {
          "components": [
            {
              "internalType": "uint256",
              "name": "id",
              "type": "uint256"
            },
            {
              "internalType": "string",
              "name": "team1Name",
              "type": "string"
            },
            {
              "internalType": "string",
              "name": "team2Name",
              "type": "string"
            },
            {
              "internalType": "uint256",
              "name": "start",
              "type": "uint256"
            },
            {
              "internalType": "uint256",
              "name": "team1Score",
              "type": "uint256"
            },
            {
              "internalType": "uint256",
              "name": "team2Score",
              "type": "uint256"
            },
            {
              "internalType": "uint256",
              "name": "winner",
              "type": "uint256"
            },
            {
              "internalType": "bool",
              "name": "ended",
              "type": "bool"
            },
            {
              "internalType": "bool",
              "name": "started",
              "type": "bool"
            },
            {
              "internalType": "bool",
              "name": "exists",
              "type": "bool"
            }
          ],
          "internalType": "struct isCommon.Game[]",
          "name": "games",
          "type": "tuple[]"
        }
      ],
      "stateMutability": "view",
      "type": "function"
    },
    {
      "inputs": [
        {
          "internalType": "uint256",
          "name": "gameId",
          "type": "uint256"
        }
      ],
      "name": "getBets",
      "outputs": [
        {
          "components": [
            {
              "internalType": "address",
              "name": "user",
              "type": "address"
            },
            {
              "internalType": "uint256",
              "name": "amount",
              "type": "uint256"
            },
            {
              "internalType": "uint256",
              "name": "outcome",
              "type": "uint256"
            }
          ],
          "internalType": "struct isCommon.Bet[]",
          "name": "bets",
          "type": "tuple[]"
        }
      ],
      "stateMutability": "view",
      "type": "function"
    },
    {
      "inputs": [
        {
          "internalType": "uint256",
          "name": "gameId",
          "type": "uint256"
        },
        {
          "internalType": "uint256",
          "name": "outcome",
          "type": "uint256"
        }
      ],
      "name": "bet",
      "outputs": [],
      "stateMutability": "payable",
      "type": "function"
    },
    {
      "inputs": [
        {
          "internalType": "uint256",
          "name": "competitionId",
          "type": "uint256"
        },
        {
          "internalType": "string",
          "name": "name",
          "type": "string"
        }
      ],
      "name": "newCompetition",
      "outputs": [],
      "stateMutability": "nonpayable",
      "type": "function"
    },
    {
      "inputs": [
        {
          "internalType": "uint256",
          "name": "gameId",
          "type": "uint256"
        },
        {
          "internalType": "uint256",
          "name": "competitionId",
          "type": "uint256"
        },
        {
          "internalType": "uint256",
          "name": "start",
          "type": "uint256"
        },
        {
          "internalType": "string",
          "name": "team1Name",
          "type": "string"
        },
        {
          "internalType": "string",
          "name": "team2Name",
          "type": "string"
        }
      ],
      "name": "newGame",
      "outputs": [],
      "stateMutability": "nonpayable",
      "type": "function"
    },
    {
      "inputs": [
        {
          "internalType": "uint256",
          "name": "gameId",
          "type": "uint256"
        }
      ],
      "name": "setGameToStarted",
      "outputs": [],
      "stateMutability": "nonpayable",
      "type": "function"
    },
    {
      "inputs": [
        {
          "internalType": "uint256",
          "name": "gameId",
          "type": "uint256"
        },
        {
          "internalType": "uint256",
          "name": "team1Score",
          "type": "uint256"
        },
        {
          "internalType": "uint256",
          "name": "team2Score",
          "type": "uint256"
        }
      ],
      "name": "settleGame",
      "outputs": [],
      "stateMutability": "nonpayable",
      "type": "function"
    }
  ],
  "bytecode": "0x608060405234801561001057600080fd5b50600080546001600160a01b031990811633908117909116179055611da68061003a6000396000f3fe6080604052600436106100915760003560e01c80639d6aaa7d116100595780639d6aaa7d146101435780639f6c0ce314610170578063a2f77bcc14610192578063ac96c8c9146101bf578063c0c090bc146101df57610091565b8063081cd7db146100965780631ccf6955146100b85780636579642b146100ee5780636ffcc7191461010e5780638da5cb5b14610121575b600080fd5b3480156100a257600080fd5b506100b66100b13660046117dc565b6101ff565b005b3480156100c457600080fd5b506100d86100d33660046117c4565b6103b9565b6040516100e59190611a70565b60405180910390f35b3480156100fa57600080fd5b506100b66101093660046117c4565b610489565b6100b661011c366004611826565b6104c0565b34801561012d57600080fd5b50610136610601565b6040516100e59190611a5c565b34801561014f57600080fd5b5061016361015e3660046117c4565b610610565b6040516100e59190611b1e565b34801561017c57600080fd5b50610185610832565b6040516100e59190611abe565b34801561019e57600080fd5b506101b26101ad3660046117c4565b610956565b6040516100e59190611ca0565b3480156101cb57600080fd5b506100b66101da366004611872565b610b08565b3480156101eb57600080fd5b506100b66101fa366004611847565b610de6565b6000546001600160a01b0316331461021657600080fd5b6000604051806080016040528085815260200184848080601f016020809104026020016040519081016040528093929190818152602001838380828437600092018290525093855250506001602080850182905260409485018290528984526002815293909220845181558484015180519596508695919461029d9486019350019061168b565b5060408201516002909101805460609093015115156101000261ff001992151560ff199094169390931791909116919091179055600180548082018255600091909152815160039091027fb10e2d527612073b26eecdfd717e6a320cf44b4afac2b0732d9fcbe2b7fa0cf681019182556020808401518051859493610348937fb10e2d527612073b26eecdfd717e6a320cf44b4afac2b0732d9fcbe2b7fa0cf790910192019061168b565b506040828101516002909201805460609094015115156101000261ff001993151560ff199095169490941792909216929092179055517fe8ec462dbfbc6b452f16d8deef17218d3715b40c1ca0f70527bcc9912329cd84906103ab908390611c86565b60405180910390a150505050565b600081815260056020526040902060070154606090829062010000900460ff166103fe5760405162461bcd60e51b81526004016103f590611ba8565b60405180910390fd5b600083815260046020908152604080832080548251818502810185019093528083529193909284015b8282101561047c576000848152602090819020604080516060810182526003860290920180546001600160a01b0316835260018082015484860152600290910154918301919091529083529092019101610427565b5050505091505b50919050565b6000546001600160a01b031633146104a057600080fd5b6000908152600560205260409020600701805461ff001916610100179055565b600082815260056020526040902060070154829062010000900460ff166104f95760405162461bcd60e51b81526004016103f590611ba8565b81600281111561051b5760405162461bcd60e51b81526004016103f590611b7c565b6000848152600560205260409020600701548490610100900460ff16156105545760405162461bcd60e51b81526004016103f590611c3b565b6040805160608101825233815234602080830191825282840188815260008a81526004835285812080546001808201835591835293909120855160039094020180546001600160a01b0319166001600160a01b03909416939093178355925192820192909255905160029091015590517f46e48e42ee97857124fc71280d565b91420047a714f31dd5e7a0d655e11b4955906105f1908390611c72565b60405180910390a1505050505050565b6000546001600160a01b031681565b600081815260026020819052604090912001546060908290610100900460ff1661064c5760405162461bcd60e51b81526004016103f590611c04565b600083815260036020908152604080832080548251818502810185019093528083529193909284015b8282101561047c578382906000526020600020906008020160405180610140016040529081600082015481526020016001820180546106b390611d0a565b80601f01602080910402602001604051908101604052809291908181526020018280546106df90611d0a565b801561072c5780601f106107015761010080835404028352916020019161072c565b820191906000526020600020905b81548152906001019060200180831161070f57829003601f168201915b5050505050815260200160028201805461074590611d0a565b80601f016020809104026020016040519081016040528092919081815260200182805461077190611d0a565b80156107be5780601f10610793576101008083540402835291602001916107be565b820191906000526020600020905b8154815290600101906020018083116107a157829003601f168201915b5050509183525050600382015460208083019190915260048301546040830152600583015460608301526006830154608083015260079092015460ff808216151560a084015261010082048116151560c08401526201000090910416151560e0909101529082526001929092019101610675565b60606001805480602002602001604051908101604052809291908181526020016000905b8282101561094d57838290600052602060002090600302016040518060800160405290816000820154815260200160018201805461089390611d0a565b80601f01602080910402602001604051908101604052809291908181526020018280546108bf90611d0a565b801561090c5780601f106108e15761010080835404028352916020019161090c565b820191906000526020600020905b8154815290600101906020018083116108ef57829003601f168201915b50505091835250506002919091015460ff80821615156020808501919091526101009092041615156040909201919091529082526001929092019101610856565b50505050905090565b61095e61170f565b60056000838152602001908152602001600020604051806101400160405290816000820154815260200160018201805461099790611d0a565b80601f01602080910402602001604051908101604052809291908181526020018280546109c390611d0a565b8015610a105780601f106109e557610100808354040283529160200191610a10565b820191906000526020600020905b8154815290600101906020018083116109f357829003601f168201915b50505050508152602001600282018054610a2990611d0a565b80601f0160208091040260200160405190810160405280929190818152602001828054610a5590611d0a565b8015610aa25780601f10610a7757610100808354040283529160200191610aa2565b820191906000526020600020905b815481529060010190602001808311610a8557829003601f168201915b50505091835250506003820154602082015260048201546040820152600582015460608201526006820154608082015260079091015460ff808216151560a084015261010082048116151560c08401526201000090910416151560e09091015292915050565b600086815260026020819052604090912001548690610100900460ff16610b415760405162461bcd60e51b81526004016103f590611c04565b6000546001600160a01b03163314610b5857600080fd5b60006040518061014001604052808a815260200187878080601f016020809104026020016040519081016040528093929190818152602001838380828437600092019190915250505090825250604080516020601f880181900481028201810190925286815291810191908790879081908401838280828437600092018290525093855250505060208083018b90526040808401839052606084018390526080840183905260a0840183905260c08401839052600160e09094018490528d8352600582529091208351815583820151805194955085949193610c40939085019291019061168b565b5060408201518051610c5c91600284019160209091019061168b565b5060608201516003808301919091556080830151600483015560a0830151600583015560c0830151600683015560e08301516007909201805461010080860151610120909601511515620100000262ff00001996151590910261ff001995151560ff19909316929092179490941617939093169190911790915560008981526020918252604081208054600181810183559183529183902084516008909302019182558383015180518594610d1593850192019061168b565b5060408201518051610d3191600284019160209091019061168b565b50606082015160038201556080820151600482015560a0820151600582015560c0820151600682015560e08201516007909101805461010080850151610120909501511515620100000262ff00001995151590910261ff001994151560ff19909316929092179390931617929092161790556040517fa767a6eb2512f3582b00e6e26f955916df5c2db941ac8b503b94ccf41a28c03090610dd3908390611ca0565b60405180910390a1505050505050505050565b600083815260056020526040902060070154839062010000900460ff16610e1f5760405162461bcd60e51b81526004016103f590611ba8565b6000546001600160a01b03163314610e3657600080fd5b6000600560008681526020019081526020016000206040518061014001604052908160008201548152602001600182018054610e7190611d0a565b80601f0160208091040260200160405190810160405280929190818152602001828054610e9d90611d0a565b8015610eea5780601f10610ebf57610100808354040283529160200191610eea565b820191906000526020600020905b815481529060010190602001808311610ecd57829003601f168201915b50505050508152602001600282018054610f0390611d0a565b80601f0160208091040260200160405190810160405280929190818152602001828054610f2f90611d0a565b8015610f7c5780601f10610f5157610100808354040283529160200191610f7c565b820191906000526020600020905b815481529060010190602001808311610f5f57829003601f168201915b5050509183525050600382015460208083019190915260048301546040808401919091526005808501546060850152600685015460808086019190915260079095015460ff808216151560a08088019190915261010083048216151560c08801526201000090920416151560e0958601529486018a9052938501889052600192850183905260008a8152938252909220835181558383015180519495508594919361102c9385019291019061168b565b506040820151805161104891600284019160209091019061168b565b50606082015160038201556080820151600482015560a082015160058083019190915560c0830151600683015560e08301516007928301805461010080870151610120909701511515620100000262ff00001997151590910261ff001994151560ff19909316929092179390931617949094161790925560008781526020929092526040909120015460ff166110f05760405162461bcd60e51b81526004016103f590611bd6565b60006110fb866112ab565b9050600060046000888152602001908152602001600020805480602002602001604051908101604052809291908181526020016000905b82821015611187576000848152602090819020604080516060810182526003860290920180546001600160a01b0316835260018082015484860152600290910154918301919091529083529092019101611132565b505050509050600080600061119c84866114eb565b95505050935050925060005b83518110156112665760008482815181106111d357634e487b7160e01b600052603260045260246000fd5b60200260200101519050600084826020015160646111f19190611ceb565b6111fb9190611ccb565b6112059085611ceb565b905081600001516001600160a01b03166108fc8284602001516112289190611cb3565b6040518115909202916000818181858888f19350505050158015611250573d6000803e3d6000fd5b505050808061125e90611d3f565b9150506111a8565b507fdf7a1dfb51dd87859a6f44cf9bddb076effbccd933619eec97e64a79fd94d32460016040516112979190611b71565b60405180910390a150505050505050505050565b600080546001600160a01b031633146112c357600080fd5b600082815260056020526040902060070154829062010000900460ff166112fc5760405162461bcd60e51b81526004016103f590611ba8565b600060056000858152602001908152602001600020604051806101400160405290816000820154815260200160018201805461133790611d0a565b80601f016020809104026020016040519081016040528092919081815260200182805461136390611d0a565b80156113b05780601f10611385576101008083540402835291602001916113b0565b820191906000526020600020905b81548152906001019060200180831161139357829003601f168201915b505050505081526020016002820180546113c990611d0a565b80601f01602080910402602001604051908101604052809291908181526020018280546113f590611d0a565b80156114425780601f1061141757610100808354040283529160200191611442565b820191906000526020600020905b81548152906001019060200180831161142557829003601f168201915b5050509183525050600382015460208201526004820154604082015260058201546060820152600682015460808083019190915260079092015460ff808216151560a08085019190915261010083048216151560c08501526201000090920416151560e0909201919091528201519082015191925010156114c7576001925050610483565b80608001518160a0015111156114e1576002925050610483565b6000925050610483565b6060600080606060008060005b8851811015611680578789828151811061152257634e487b7160e01b600052603260045260246000fd5b60200260200101516040015114156115d35788818151811061155457634e487b7160e01b600052603260045260246000fd5b602002602001015187878151811061157c57634e487b7160e01b600052603260045260246000fd5b6020026020010181905250858061159290611d3f565b9650508881815181106115b557634e487b7160e01b600052603260045260246000fd5b602002602001015160200151856115cc9190611cb3565b945061166e565b8881815181106115f357634e487b7160e01b600052603260045260246000fd5b602002602001015184848151811061161b57634e487b7160e01b600052603260045260246000fd5b6020026020010181905250828061163190611d3f565b93505088818151811061165457634e487b7160e01b600052603260045260246000fd5b6020026020010151602001518261166b9190611cb3565b91505b8061167881611d3f565b9150506114f8565b509295509295509295565b82805461169790611d0a565b90600052602060002090601f0160209004810192826116b957600085556116ff565b82601f106116d257805160ff19168380011785556116ff565b828001600101855582156116ff579182015b828111156116ff5782518255916020019190600101906116e4565b5061170b929150611768565b5090565b604051806101400160405280600081526020016060815260200160608152602001600081526020016000815260200160008152602001600081526020016000151581526020016000151581526020016000151581525090565b5b8082111561170b5760008155600101611769565b60008083601f84011261178e578182fd5b50813567ffffffffffffffff8111156117a5578182fd5b6020830191508360208285010111156117bd57600080fd5b9250929050565b6000602082840312156117d5578081fd5b5035919050565b6000806000604084860312156117f0578182fd5b83359250602084013567ffffffffffffffff81111561180d578283fd5b6118198682870161177d565b9497909650939450505050565b60008060408385031215611838578182fd5b50508035926020909101359150565b60008060006060848603121561185b578283fd5b505081359360208301359350604090920135919050565b600080600080600080600060a0888a03121561188c578283fd5b873596506020880135955060408801359450606088013567ffffffffffffffff808211156118b8578485fd5b6118c48b838c0161177d565b909650945060808a01359150808211156118dc578384fd5b506118e98a828b0161177d565b989b979a50959850939692959293505050565b15159052565b60008151808452815b818110156119275760208185018101518683018201520161190b565b818111156119385782602083870101525b50601f01601f19169290920160200192915050565b80516001600160a01b0316825260208082015190830152604090810151910152565b60008151835260208201516080602085015261198e6080850182611902565b90506040830151151560408501526060830151151560608501528091505092915050565b60006101408251845260208301518160208601526119d282860182611902565b915050604083015184820360408601526119ec8282611902565b915050606083015160608501526080830151608085015260a083015160a085015260c083015160c085015260e0830151611a2960e08601826118fc565b5061010080840151611a3d828701826118fc565b505061012080840151611a52828701826118fc565b5090949350505050565b6001600160a01b0391909116815260200190565b6020808252825182820181905260009190848201906040850190845b81811015611ab257611a9f83855161194d565b9284019260609290920191600101611a8c565b50909695505050505050565b6000602080830181845280855180835260408601915060408482028701019250838701855b82811015611b1157603f19888603018452611aff85835161196f565b94509285019290850190600101611ae3565b5092979650505050505050565b6000602080830181845280855180835260408601915060408482028701019250838701855b82811015611b1157603f19888603018452611b5f8583516119b2565b94509285019290850190600101611b43565b901515815260200190565b60208082526012908201527113dd5d18dbdb59481a5cc81a5b9d985b1a5960721b604082015260600190565b60208082526014908201527347616d6520646f6573206e6f742065786973747360601b604082015260600190565b60208082526014908201527311d85b59481b5d5cdd081a185d9948195b99195960621b604082015260600190565b6020808252601b908201527f436f6d7065746974696f6e20646f6573206e6f74206578697374730000000000604082015260600190565b60208082526018908201527f67616d652068617320616c726561647920737461727465640000000000000000604082015260600190565b60608101611c80828461194d565b92915050565b600060208252611c99602083018461196f565b9392505050565b600060208252611c9960208301846119b2565b60008219821115611cc657611cc6611d5a565b500190565b600082611ce657634e487b7160e01b81526012600452602481fd5b500490565b6000816000190483118215151615611d0557611d05611d5a565b500290565b600281046001821680611d1e57607f821691505b6020821081141561048357634e487b7160e01b600052602260045260246000fd5b6000600019821415611d5357611d53611d5a565b5060010190565b634e487b7160e01b600052601160045260246000fdfea264697066735822122089b65654289ee150ebf54582e1a6dd92aacdbda30ce754ed6941e56c0a00b6a364736f6c63430008000033",
  "immutableReferences": {},
  "source": "// SPDX-License-Identifier: UNLICENSED\npragma solidity ^0.8.0;\n\nimport \"./Owner.sol\";\nimport \"./isCommon.sol\";\n\ncontract BettingContract is Owner, isCommon {\n    constructor() {\n        owner = msg.sender;\n    }\n\n    function getGame(uint256 gameId) external view returns (Game memory game) {\n        return GameIdToGame[gameId];\n    }\n\n    function getCompetitions() external view returns (Competition[] memory) {\n        return competitions;\n    }\n\n    function getGames(uint256 competitionId)\n        external\n        view\n        competitionExists(competitionId)\n        returns (Game[] memory games)\n    {\n        return CompetitionIdToGames[competitionId];\n    }\n\n    function getBets(uint256 gameId)\n        external\n        view\n        gameExists(gameId)\n        returns (Bet[] memory bets)\n    {\n        return GameIdToBets[gameId];\n    }\n\n    function bet(uint256 gameId, uint256 outcome)\n        external\n        payable\n        gameExists(gameId)\n        betOutcomeIsValid(outcome)\n        checkGameState(gameId)\n    {\n        Bet memory newBet = Bet(msg.sender, msg.value, outcome);\n        GameIdToBets[gameId].push(newBet);\n        emit NewBet(newBet);\n    }\n\n    // costly 3 writes in storage\n    function newCompetition(uint256 competitionId, string calldata name)\n        external\n        isOwner()\n    {\n        Competition memory _competition = Competition(\n            competitionId,\n            name,\n            true,\n            true\n        );\n        CompetitionIdToCompetition[competitionId] = _competition;\n        competitions.push(_competition);\n        emit NewCompetition(_competition);\n    }\n\n    // costly 3 writes in storage\n    function newGame(\n        uint256 gameId,\n        uint256 competitionId,\n        uint256 start,\n        string calldata team1Name,\n        string calldata team2Name\n    ) external competitionExists(competitionId) isOwner() {\n        Game memory _game = Game(\n            gameId,\n            team1Name,\n            team2Name,\n            start,\n            0,\n            0,\n            0,\n            false,\n            false,\n            true\n        );\n        GameIdToGame[gameId] = _game;\n        CompetitionIdToGames[competitionId].push(_game);\n        emit NewGame(_game);\n    }\n\n    function setGameToStarted(uint256 gameId) external isOwner() {\n        GameIdToGame[gameId].started = true;\n    }\n\n    function settleGame(\n        uint256 gameId,\n        uint256 team1Score,\n        uint256 team2Score\n    ) external gameExists(gameId) isOwner() {\n        Game memory _game = GameIdToGame[gameId];\n        _game.team1Score = team1Score;\n        _game.team2Score = team2Score;\n        _game.ended = true;\n        GameIdToGame[gameId] = _game;\n        require(GameIdToGame[gameId].ended, \"Game must have ended\");\n        uint256 winner = getWinner(gameId);\n        Bet[] memory _bets = GameIdToBets[gameId];\n        (\n            Bet[] memory _winnerBets,\n            ,\n            uint256 _winnerBetsSum,\n            ,\n            ,\n            uint256 _loserBetsSum\n        ) = getSettlementData(_bets, winner);\n\n        for (uint256 i = 0; i < _winnerBets.length; i++) {\n            Bet memory _bet = _winnerBets[i];\n            uint256 _profit = _loserBetsSum *\n                ((_bet.amount * 100) / _winnerBetsSum);\n            payable(_bet.user).transfer(_bet.amount + _profit);\n        }\n        emit GameEnded(true);\n    }\n\n    function getWinner(uint256 gameId)\n        private\n        view\n        isOwner()\n        gameExists(gameId)\n        returns (uint256)\n    {\n        Game memory _game = GameIdToGame[gameId];\n        if (_game.team1Score > _game.team2Score) {\n            return 1;\n        } else if (_game.team2Score > _game.team1Score) {\n            return 2;\n        } else {\n            return 0;\n        }\n    }\n\n    function getSettlementData(Bet[] memory _bets, uint256 winner)\n        private\n        pure\n        returns (\n            Bet[] memory _winnerBets,\n            uint256 _winnerBetsCount,\n            uint256 _winnerBetsSum,\n            Bet[] memory _loserBets,\n            uint256 _loserBetsCount,\n            uint256 _loserBetsSum\n        )\n    {\n        for (uint256 i = 0; i < _bets.length; i++) {\n            if (_bets[i].outcome == winner) {\n                _winnerBets[_winnerBetsCount] = _bets[i];\n                _winnerBetsCount++;\n                _winnerBetsSum += _bets[i].amount;\n            } else {\n                _loserBets[_loserBetsCount] = _bets[i];\n                _loserBetsCount++;\n                _loserBetsSum += _bets[i].amount;\n            }\n        }\n\n        return (\n            _winnerBets,\n            _winnerBetsCount,\n            _winnerBetsSum,\n            _loserBets,\n            _loserBetsCount,\n            _loserBetsSum\n        );\n    }\n}\n",
  "sourcePath": "/home/kstwa/Documents/SportsOnTheBlock/contracts/BettingContract.sol",
  "compiler": {
    "name": "solc",
    "version": "0.8.0+commit.c7dfd78e.Emscripten.clang"
  },
  "schemaVersion": "3.4.1",
  "updatedAt": "2021-07-10T05:30:14.037Z",
  "devdoc": {
    "kind": "dev",
    "methods": {},
    "version": 1
  },
  "userdoc": {
    "kind": "user",
    "methods": {},
    "version": 1
  }
}