{
  "contractName": "BettingContract",
  "abi": [
    {
      "inputs": [],
      "stateMutability": "nonpayable",
      "type": "constructor"
    },
    {
      "anonymous": false,
      "inputs": [
        {
          "indexed": false,
          "internalType": "bool",
          "name": "",
          "type": "bool"
        },
        {
          "indexed": false,
          "internalType": "uint256",
          "name": "",
          "type": "uint256"
        }
      ],
      "name": "GameEnded",
      "type": "event"
    },
    {
      "anonymous": false,
      "inputs": [
        {
          "indexed": false,
          "internalType": "bool",
          "name": "",
          "type": "bool"
        },
        {
          "indexed": false,
          "internalType": "uint256",
          "name": "",
          "type": "uint256"
        }
      ],
      "name": "GameStarted",
      "type": "event"
    },
    {
      "anonymous": false,
      "inputs": [
        {
          "components": [
            {
              "internalType": "address",
              "name": "user",
              "type": "address"
            },
            {
              "internalType": "uint256",
              "name": "amount",
              "type": "uint256"
            },
            {
              "internalType": "uint256",
              "name": "outcome",
              "type": "uint256"
            }
          ],
          "indexed": false,
          "internalType": "struct isCommon.Bet",
          "name": "",
          "type": "tuple"
        },
        {
          "indexed": false,
          "internalType": "uint256",
          "name": "",
          "type": "uint256"
        }
      ],
      "name": "NewBet",
      "type": "event"
    },
    {
      "anonymous": false,
      "inputs": [
        {
          "indexed": false,
          "internalType": "uint256",
          "name": "",
          "type": "uint256"
        }
      ],
      "name": "NewCompetition",
      "type": "event"
    },
    {
      "anonymous": false,
      "inputs": [
        {
          "components": [
            {
              "internalType": "uint96",
              "name": "id",
              "type": "uint96"
            },
            {
              "internalType": "uint56",
              "name": "start",
              "type": "uint56"
            },
            {
              "internalType": "uint32",
              "name": "team1Score",
              "type": "uint32"
            },
            {
              "internalType": "uint32",
              "name": "team2Score",
              "type": "uint32"
            },
            {
              "internalType": "uint32",
              "name": "winner",
              "type": "uint32"
            },
            {
              "internalType": "bool",
              "name": "ended",
              "type": "bool"
            },
            {
              "internalType": "bool",
              "name": "started",
              "type": "bool"
            },
            {
              "internalType": "bool",
              "name": "exists",
              "type": "bool"
            },
            {
              "internalType": "uint256",
              "name": "winnerBetsSum",
              "type": "uint256"
            },
            {
              "internalType": "uint256",
              "name": "loserBetsSum",
              "type": "uint256"
            }
          ],
          "indexed": false,
          "internalType": "struct isCommon.Game",
          "name": "",
          "type": "tuple"
        }
      ],
      "name": "NewGame",
      "type": "event"
    },
    {
      "inputs": [],
      "name": "owner",
      "outputs": [
        {
          "internalType": "address",
          "name": "",
          "type": "address"
        }
      ],
      "stateMutability": "view",
      "type": "function"
    },
    {
      "inputs": [
        {
          "internalType": "uint256",
          "name": "gameId",
          "type": "uint256"
        }
      ],
      "name": "getGame",
      "outputs": [
        {
          "components": [
            {
              "internalType": "uint96",
              "name": "id",
              "type": "uint96"
            },
            {
              "internalType": "uint56",
              "name": "start",
              "type": "uint56"
            },
            {
              "internalType": "uint32",
              "name": "team1Score",
              "type": "uint32"
            },
            {
              "internalType": "uint32",
              "name": "team2Score",
              "type": "uint32"
            },
            {
              "internalType": "uint32",
              "name": "winner",
              "type": "uint32"
            },
            {
              "internalType": "bool",
              "name": "ended",
              "type": "bool"
            },
            {
              "internalType": "bool",
              "name": "started",
              "type": "bool"
            },
            {
              "internalType": "bool",
              "name": "exists",
              "type": "bool"
            },
            {
              "internalType": "uint256",
              "name": "winnerBetsSum",
              "type": "uint256"
            },
            {
              "internalType": "uint256",
              "name": "loserBetsSum",
              "type": "uint256"
            }
          ],
          "internalType": "struct isCommon.Game",
          "name": "game",
          "type": "tuple"
        }
      ],
      "stateMutability": "view",
      "type": "function"
    },
    {
      "inputs": [],
      "name": "getCompetitions",
      "outputs": [
        {
          "internalType": "uint256[]",
          "name": "",
          "type": "uint256[]"
        }
      ],
      "stateMutability": "view",
      "type": "function"
    },
    {
      "inputs": [
        {
          "internalType": "uint256",
          "name": "competitionId",
          "type": "uint256"
        }
      ],
      "name": "getGames",
      "outputs": [
        {
          "internalType": "uint256[]",
          "name": "games",
          "type": "uint256[]"
        }
      ],
      "stateMutability": "view",
      "type": "function"
    },
    {
      "inputs": [
        {
          "internalType": "uint256",
          "name": "gameId",
          "type": "uint256"
        }
      ],
      "name": "getBets",
      "outputs": [
        {
          "components": [
            {
              "internalType": "address",
              "name": "user",
              "type": "address"
            },
            {
              "internalType": "uint256",
              "name": "amount",
              "type": "uint256"
            },
            {
              "internalType": "uint256",
              "name": "outcome",
              "type": "uint256"
            }
          ],
          "internalType": "struct isCommon.Bet[]",
          "name": "bets",
          "type": "tuple[]"
        }
      ],
      "stateMutability": "view",
      "type": "function"
    },
    {
      "inputs": [
        {
          "internalType": "uint256",
          "name": "competitionId",
          "type": "uint256"
        }
      ],
      "name": "newCompetition",
      "outputs": [],
      "stateMutability": "nonpayable",
      "type": "function"
    },
    {
      "inputs": [
        {
          "internalType": "uint96",
          "name": "gameId",
          "type": "uint96"
        },
        {
          "internalType": "uint256",
          "name": "competitionId",
          "type": "uint256"
        },
        {
          "internalType": "uint56",
          "name": "start",
          "type": "uint56"
        }
      ],
      "name": "newGame",
      "outputs": [],
      "stateMutability": "nonpayable",
      "type": "function"
    },
    {
      "inputs": [
        {
          "internalType": "uint256",
          "name": "gameId",
          "type": "uint256"
        },
        {
          "internalType": "uint256",
          "name": "outcome",
          "type": "uint256"
        }
      ],
      "name": "bet",
      "outputs": [],
      "stateMutability": "payable",
      "type": "function"
    },
    {
      "inputs": [
        {
          "internalType": "uint32",
          "name": "gameId",
          "type": "uint32"
        },
        {
          "internalType": "uint32",
          "name": "team1Score",
          "type": "uint32"
        },
        {
          "internalType": "uint32",
          "name": "team2Score",
          "type": "uint32"
        }
      ],
      "name": "settleGame",
      "outputs": [],
      "stateMutability": "nonpayable",
      "type": "function"
    },
    {
      "inputs": [
        {
          "internalType": "uint256",
          "name": "gameId",
          "type": "uint256"
        }
      ],
      "name": "claimProfits",
      "outputs": [],
      "stateMutability": "payable",
      "type": "function"
    },
    {
      "inputs": [
        {
          "internalType": "uint256",
          "name": "gameId",
          "type": "uint256"
        }
      ],
      "name": "getUserWinnerBetSum",
      "outputs": [
        {
          "internalType": "uint256",
          "name": "profits",
          "type": "uint256"
        }
      ],
      "stateMutability": "view",
      "type": "function"
    },
    {
      "inputs": [
        {
          "internalType": "uint256",
          "name": "gameId",
          "type": "uint256"
        },
        {
          "internalType": "uint256",
          "name": "outcome",
          "type": "uint256"
        }
      ],
      "name": "getUserInitialBetSum",
      "outputs": [
        {
          "internalType": "uint256",
          "name": "betSum",
          "type": "uint256"
        }
      ],
      "stateMutability": "view",
      "type": "function"
    }
  ],
  "bytecode": "0x608060405234801561001057600080fd5b50336000806101000a81548173ffffffffffffffffffffffffffffffffffffffff021916908373ffffffffffffffffffffffffffffffffffffffff160217905550336000806101000a81548173ffffffffffffffffffffffffffffffffffffffff021916908373ffffffffffffffffffffffffffffffffffffffff160217905550612857806100a06000396000f3fe6080604052600436106100a75760003560e01c806398d079a71161006457806398d079a7146101d35780639d6aaa7d146101fc5780639f6c0ce314610239578063a2f77bcc14610264578063da839c97146102a1578063e3c93656146102bd576100a7565b80630468a2c4146100ac5780631ccf6955146100d55780636ffcc719146101125780638da5cb5b1461012e5780638fdcc8c61461015957806394328aa314610196575b600080fd5b3480156100b857600080fd5b506100d360048036038101906100ce9190611e53565b6102e6565b005b3480156100e157600080fd5b506100fc60048036038101906100f79190611dee565b610759565b604051610109919061238d565b60405180910390f35b61012c60048036038101906101279190611e17565b61089a565b005b34801561013a57600080fd5b50610143610b5a565b6040516101509190612372565b60405180910390f35b34801561016557600080fd5b50610180600480360381019061017b9190611e17565b610b7e565b60405161018d91906124ff565b60405180910390f35b3480156101a257600080fd5b506101bd60048036038101906101b89190611dee565b610c4f565b6040516101ca91906124ff565b60405180910390f35b3480156101df57600080fd5b506101fa60048036038101906101f59190611dee565b610efd565b005b34801561020857600080fd5b50610223600480360381019061021e9190611dee565b610fb8565b60405161023091906123af565b60405180910390f35b34801561024557600080fd5b5061024e611023565b60405161025b91906123af565b60405180910390f35b34801561027057600080fd5b5061028b60048036038101906102869190611dee565b61107b565b60405161029891906124e3565b60405180910390f35b6102bb60048036038101906102b69190611dee565b6111ed565b005b3480156102c957600080fd5b506102e460048036038101906102df9190611ea2565b611607565b005b8263ffffffff166004600082815260200190815260200160002060010160019054906101000a900460ff16610350576040517f08c379a00000000000000000000000000000000000000000000000000000000081526004016103479061247a565b60405180910390fd5b60008054906101000a900473ffffffffffffffffffffffffffffffffffffffff1673ffffffffffffffffffffffffffffffffffffffff163373ffffffffffffffffffffffffffffffffffffffff16146103a857600080fd5b60008060006103b687611951565b9250925092506000600460008963ffffffff168152602001908152602001600020604051806101400160405290816000820160009054906101000a90046bffffffffffffffffffffffff166bffffffffffffffffffffffff166bffffffffffffffffffffffff16815260200160008201600c9054906101000a900466ffffffffffffff1666ffffffffffffff1666ffffffffffffff1681526020016000820160139054906101000a900463ffffffff1663ffffffff1663ffffffff1681526020016000820160179054906101000a900463ffffffff1663ffffffff1663ffffffff16815260200160008201601b9054906101000a900463ffffffff1663ffffffff1663ffffffff16815260200160008201601f9054906101000a900460ff161515151581526020016001820160009054906101000a900460ff161515151581526020016001820160019054906101000a900460ff1615151515815260200160028201548152602001600382015481525050905086816040019063ffffffff16908163ffffffff168152505085816060019063ffffffff16908163ffffffff168152505060018160a001901515908115158152505060018160c001901515908115158152505081816080019063ffffffff16908163ffffffff16815250508281610120018181525050838161010001818152505080600460008a63ffffffff16815260200190815260200160002060008201518160000160006101000a8154816bffffffffffffffffffffffff02191690836bffffffffffffffffffffffff160217905550602082015181600001600c6101000a81548166ffffffffffffff021916908366ffffffffffffff16021790555060408201518160000160136101000a81548163ffffffff021916908363ffffffff16021790555060608201518160000160176101000a81548163ffffffff021916908363ffffffff160217905550608082015181600001601b6101000a81548163ffffffff021916908363ffffffff16021790555060a082015181600001601f6101000a81548160ff02191690831515021790555060c08201518160010160006101000a81548160ff02191690831515021790555060e08201518160010160016101000a81548160ff021916908315150217905550610100820151816002015561012082015181600301559050507fe89bb1849f637efae3f96a973a9c0775b0033ccf1deba9c11915717455a7fe836001896040516107479291906123d1565b60405180910390a15050505050505050565b6060816004600082815260200190815260200160002060010160019054906101000a900460ff166107bf576040517f08c379a00000000000000000000000000000000000000000000000000000000081526004016107b69061247a565b60405180910390fd5b60036000848152602001908152602001600020805480602002602001604051908101604052809291908181526020016000905b8282101561088e57838290600052602060002090600302016040518060600160405290816000820160009054906101000a900473ffffffffffffffffffffffffffffffffffffffff1673ffffffffffffffffffffffffffffffffffffffff1673ffffffffffffffffffffffffffffffffffffffff16815260200160018201548152602001600282015481525050815260200190600101906107f2565b50505050915050919050565b816004600082815260200190815260200160002060010160019054906101000a900460ff166108fe576040517f08c379a00000000000000000000000000000000000000000000000000000000081526004016108f59061247a565b60405180910390fd5b8160008110158015610911575060028111155b610950576040517f08c379a00000000000000000000000000000000000000000000000000000000081526004016109479061243a565b60405180910390fd5b8360046000828152602001908152602001600020600001600c9054906101000a900466ffffffffffffff1666ffffffffffffff166103e842610992919061262f565b106109d2576040517f08c379a00000000000000000000000000000000000000000000000000000000081526004016109c99061249a565b60405180910390fd5b600060405180606001604052803373ffffffffffffffffffffffffffffffffffffffff1681526020013481526020018681525090506003600087815260200190815260200160002081908060018154018082558091505060019003906000526020600020906003020160009091909190915060008201518160000160006101000a81548173ffffffffffffffffffffffffffffffffffffffff021916908373ffffffffffffffffffffffffffffffffffffffff1602179055506020820151816001015560408201518160020155505034600560003373ffffffffffffffffffffffffffffffffffffffff1673ffffffffffffffffffffffffffffffffffffffff168152602001908152602001600020600088815260200190815260200160002060008781526020019081526020016000206000828254610b1291906125a8565b925050819055507f49497e006b29902259c7a439a9fa5011c00afe0e0aa37e810333db207adcefb08187604051610b4a9291906124ba565b60405180910390a1505050505050565b60008054906101000a900473ffffffffffffffffffffffffffffffffffffffff1681565b6000826004600082815260200190815260200160002060010160019054906101000a900460ff16610be4576040517f08c379a0000000000000000000000000000000000000000000000000000000008152600401610bdb9061247a565b60405180910390fd5b600560003373ffffffffffffffffffffffffffffffffffffffff1673ffffffffffffffffffffffffffffffffffffffff168152602001908152602001600020600085815260200190815260200160002060008481526020019081526020016000205491505092915050565b6000816004600082815260200190815260200160002060010160019054906101000a900460ff16610cb5576040517f08c379a0000000000000000000000000000000000000000000000000000000008152600401610cac9061247a565b60405180910390fd5b826001151560046000838152602001908152602001600020600001601f9054906101000a900460ff16151514610d20576040517f08c379a0000000000000000000000000000000000000000000000000000000008152600401610d179061241a565b60405180910390fd5b600060046000868152602001908152602001600020604051806101400160405290816000820160009054906101000a90046bffffffffffffffffffffffff166bffffffffffffffffffffffff166bffffffffffffffffffffffff16815260200160008201600c9054906101000a900466ffffffffffffff1666ffffffffffffff1666ffffffffffffff1681526020016000820160139054906101000a900463ffffffff1663ffffffff1663ffffffff1681526020016000820160179054906101000a900463ffffffff1663ffffffff1663ffffffff16815260200160008201601b9054906101000a900463ffffffff1663ffffffff1663ffffffff16815260200160008201601f9054906101000a900460ff161515151581526020016001820160009054906101000a900460ff161515151581526020016001820160019054906101000a900460ff16151515158152602001600282015481526020016003820154815250509050600560003373ffffffffffffffffffffffffffffffffffffffff1673ffffffffffffffffffffffffffffffffffffffff16815260200190815260200160002060008681526020019081526020016000206000826080015163ffffffff168152602001908152602001600020549350505050919050565b60008054906101000a900473ffffffffffffffffffffffffffffffffffffffff1673ffffffffffffffffffffffffffffffffffffffff163373ffffffffffffffffffffffffffffffffffffffff1614610f5557600080fd5b60018190806001815401808255809150506001900390600052602060002001600090919091909150557f9edc9bae9b3983d36dfb38fff741c45440f54213c4782f68a10a50cc5d753c7c81604051610fad91906124ff565b60405180910390a150565b60606002600083815260200190815260200160002080548060200260200160405190810160405280929190818152602001828054801561101757602002820191906000526020600020905b815481526020019060010190808311611003575b50505050509050919050565b6060600180548060200260200160405190810160405280929190818152602001828054801561107157602002820191906000526020600020905b81548152602001906001019080831161105d575b5050505050905090565b611083611d18565b60046000838152602001908152602001600020604051806101400160405290816000820160009054906101000a90046bffffffffffffffffffffffff166bffffffffffffffffffffffff166bffffffffffffffffffffffff16815260200160008201600c9054906101000a900466ffffffffffffff1666ffffffffffffff1666ffffffffffffff1681526020016000820160139054906101000a900463ffffffff1663ffffffff1663ffffffff1681526020016000820160179054906101000a900463ffffffff1663ffffffff1663ffffffff16815260200160008201601b9054906101000a900463ffffffff1663ffffffff1663ffffffff16815260200160008201601f9054906101000a900460ff161515151581526020016001820160009054906101000a900460ff161515151581526020016001820160019054906101000a900460ff16151515158152602001600282015481526020016003820154815250509050919050565b806004600082815260200190815260200160002060010160019054906101000a900460ff16611251576040517f08c379a00000000000000000000000000000000000000000000000000000000081526004016112489061247a565b60405180910390fd5b816001151560046000838152602001908152602001600020600001601f9054906101000a900460ff161515146112bc576040517f08c379a00000000000000000000000000000000000000000000000000000000081526004016112b39061241a565b60405180910390fd5b600060046000858152602001908152602001600020604051806101400160405290816000820160009054906101000a90046bffffffffffffffffffffffff166bffffffffffffffffffffffff166bffffffffffffffffffffffff16815260200160008201600c9054906101000a900466ffffffffffffff1666ffffffffffffff1666ffffffffffffff1681526020016000820160139054906101000a900463ffffffff1663ffffffff1663ffffffff1681526020016000820160179054906101000a900463ffffffff1663ffffffff1663ffffffff16815260200160008201601b9054906101000a900463ffffffff1663ffffffff1663ffffffff16815260200160008201601f9054906101000a900460ff161515151581526020016001820160009054906101000a900460ff161515151581526020016001820160019054906101000a900460ff161515151581526020016002820154815260200160038201548152505090506000600560003373ffffffffffffffffffffffffffffffffffffffff1673ffffffffffffffffffffffffffffffffffffffff16815260200190815260200160002060008681526020019081526020016000206000836080015163ffffffff168152602001908152602001600020549050600060648361012001518461010001516064856114b0919061262f565b6114ba91906125fe565b6114c4919061262f565b6114ce91906125fe565b90506000600560003373ffffffffffffffffffffffffffffffffffffffff1673ffffffffffffffffffffffffffffffffffffffff16815260200190815260200160002060008881526020019081526020016000206000856080015163ffffffff168152602001908152602001600020819055506000828261154f91906125a8565b905060003373ffffffffffffffffffffffffffffffffffffffff16826040516115779061235d565b60006040518083038185875af1925050503d80600081146115b4576040519150601f19603f3d011682016040523d82523d6000602084013e6115b9565b606091505b50509050806115fd576040517f08c379a00000000000000000000000000000000000000000000000000000000081526004016115f4906123fa565b60405180910390fd5b5050505050505050565b826bffffffffffffffffffffffff166004600082815260200190815260200160002060010160019054906101000a900460ff161561167a576040517f08c379a00000000000000000000000000000000000000000000000000000000081526004016116719061245a565b60405180910390fd5b60008054906101000a900473ffffffffffffffffffffffffffffffffffffffff1673ffffffffffffffffffffffffffffffffffffffff163373ffffffffffffffffffffffffffffffffffffffff16146116d257600080fd5b6000604051806101400160405280866bffffffffffffffffffffffff1681526020018466ffffffffffffff168152602001600063ffffffff168152602001600063ffffffff168152602001600063ffffffff16815260200160001515815260200160001515815260200160011515815260200160008152602001600081525090508060046000876bffffffffffffffffffffffff16815260200190815260200160002060008201518160000160006101000a8154816bffffffffffffffffffffffff02191690836bffffffffffffffffffffffff160217905550602082015181600001600c6101000a81548166ffffffffffffff021916908366ffffffffffffff16021790555060408201518160000160136101000a81548163ffffffff021916908363ffffffff16021790555060608201518160000160176101000a81548163ffffffff021916908363ffffffff160217905550608082015181600001601b6101000a81548163ffffffff021916908363ffffffff16021790555060a082015181600001601f6101000a81548160ff02191690831515021790555060c08201518160010160006101000a81548160ff02191690831515021790555060e08201518160010160016101000a81548160ff0219169083151502179055506101008201518160020155610120820151816003015590505060026000858152602001908152602001600020816000015190806001815401808255809150506001900390600052602060002001600090916bffffffffffffffffffffffff169091909150557feada69c71ccb7e691fff2e286de47fbac785d1ede8b3eb1def52ada7d057047d8160405161194291906124e3565b60405180910390a15050505050565b600080600061195f84611af9565b905060005b600360008663ffffffff16815260200190815260200160002080549050811015611af1578163ffffffff16600360008763ffffffff16815260200190815260200160002082815481106119e0577f4e487b7100000000000000000000000000000000000000000000000000000000600052603260045260246000fd5b9060005260206000209060030201600201541415611a6d57600360008663ffffffff1681526020019081526020016000208181548110611a49577f4e487b7100000000000000000000000000000000000000000000000000000000600052603260045260246000fd5b90600052602060002090600302016001015484611a6691906125a8565b9350611ade565b600360008663ffffffff1681526020019081526020016000208181548110611abe577f4e487b7100000000000000000000000000000000000000000000000000000000600052603260045260246000fd5b90600052602060002090600302016001015483611adb91906125a8565b92505b8080611ae99061271e565b915050611964565b509193909250565b60008060009054906101000a900473ffffffffffffffffffffffffffffffffffffffff1673ffffffffffffffffffffffffffffffffffffffff163373ffffffffffffffffffffffffffffffffffffffff1614611b5457600080fd5b6000600460008463ffffffff168152602001908152602001600020604051806101400160405290816000820160009054906101000a90046bffffffffffffffffffffffff166bffffffffffffffffffffffff166bffffffffffffffffffffffff16815260200160008201600c9054906101000a900466ffffffffffffff1666ffffffffffffff1666ffffffffffffff1681526020016000820160139054906101000a900463ffffffff1663ffffffff1663ffffffff1681526020016000820160179054906101000a900463ffffffff1663ffffffff1663ffffffff16815260200160008201601b9054906101000a900463ffffffff1663ffffffff1663ffffffff16815260200160008201601f9054906101000a900460ff161515151581526020016001820160009054906101000a900460ff161515151581526020016001820160019054906101000a900460ff16151515158152602001600282015481526020016003820154815250509050806060015163ffffffff16816040015163ffffffff161115611ce7576001915050611d13565b806040015163ffffffff16816060015163ffffffff161115611d0d576002915050611d13565b60009150505b919050565b60405180610140016040528060006bffffffffffffffffffffffff168152602001600066ffffffffffffff168152602001600063ffffffff168152602001600063ffffffff168152602001600063ffffffff16815260200160001515815260200160001515815260200160001515815260200160008152602001600081525090565b600081359050611da9816127c5565b92915050565b600081359050611dbe816127dc565b92915050565b600081359050611dd3816127f3565b92915050565b600081359050611de88161280a565b92915050565b600060208284031215611e0057600080fd5b6000611e0e84828501611d9a565b91505092915050565b60008060408385031215611e2a57600080fd5b6000611e3885828601611d9a565b9250506020611e4985828601611d9a565b9150509250929050565b600080600060608486031215611e6857600080fd5b6000611e7686828701611daf565b9350506020611e8786828701611daf565b9250506040611e9886828701611daf565b9150509250925092565b600080600060608486031215611eb757600080fd5b6000611ec586828701611dd9565b9350506020611ed686828701611d9a565b9250506040611ee786828701611dc4565b9150509250925092565b6000611efd83836121b3565b60608301905092915050565b6000611f158383612303565b60208301905092915050565b611f2a81612689565b82525050565b611f3981612689565b82525050565b6000611f4a8261253a565b611f54818561256a565b9350611f5f8361251a565b8060005b83811015611f90578151611f778882611ef1565b9750611f8283612550565b925050600181019050611f63565b5085935050505092915050565b6000611fa882612545565b611fb2818561257b565b9350611fbd8361252a565b8060005b83811015611fee578151611fd58882611f09565b9750611fe08361255d565b925050600181019050611fc1565b5085935050505092915050565b6120048161269b565b82525050565b6120138161269b565b82525050565b6000612026601583612597565b91507f6761696e73207472616e73666572206661696c656400000000000000000000006000830152602082019050919050565b6000612066601483612597565b91507f67616d65206d757374206861766520656e6465640000000000000000000000006000830152602082019050919050565b60006120a6601283612597565b91507f4f7574636f6d6520697320696e76616c696400000000000000000000000000006000830152602082019050919050565b60006120e6601483612597565b91507f47616d6520616c657265616479206578697374730000000000000000000000006000830152602082019050919050565b6000612126601483612597565b91507f47616d6520646f6573206e6f74206578697374730000000000000000000000006000830152602082019050919050565b600061216660008361258c565b9150600082019050919050565b6000612180601883612597565b91507f67616d652068617320616c7265616479207374617274656400000000000000006000830152602082019050919050565b6060820160008201516121c96000850182611f21565b5060208201516121dc6020850182612303565b5060408201516121ef6040850182612303565b50505050565b60608201600082015161220b6000850182611f21565b50602082015161221e6020850182612303565b5060408201516122316040850182612303565b50505050565b6101408201600082015161224e600085018261234e565b506020820151612261602085018261233f565b5060408201516122746040850182612330565b5060608201516122876060850182612330565b50608082015161229a6080850182612330565b5060a08201516122ad60a0850182611ffb565b5060c08201516122c060c0850182611ffb565b5060e08201516122d360e0850182611ffb565b506101008201516122e8610100850182612303565b506101208201516122fd610120850182612303565b50505050565b61230c816126c7565b82525050565b61231b816126c7565b82525050565b61232a8161270c565b82525050565b612339816126d1565b82525050565b612348816126e1565b82525050565b612357816126f4565b82525050565b600061236882612159565b9150819050919050565b60006020820190506123876000830184611f30565b92915050565b600060208201905081810360008301526123a78184611f3f565b905092915050565b600060208201905081810360008301526123c98184611f9d565b905092915050565b60006040820190506123e6600083018561200a565b6123f36020830184612321565b9392505050565b6000602082019050818103600083015261241381612019565b9050919050565b6000602082019050818103600083015261243381612059565b9050919050565b6000602082019050818103600083015261245381612099565b9050919050565b60006020820190508181036000830152612473816120d9565b9050919050565b6000602082019050818103600083015261249381612119565b9050919050565b600060208201905081810360008301526124b381612173565b9050919050565b60006080820190506124cf60008301856121f5565b6124dc6060830184612312565b9392505050565b6000610140820190506124f96000830184612237565b92915050565b60006020820190506125146000830184612312565b92915050565b6000819050602082019050919050565b6000819050602082019050919050565b600081519050919050565b600081519050919050565b6000602082019050919050565b6000602082019050919050565b600082825260208201905092915050565b600082825260208201905092915050565b600081905092915050565b600082825260208201905092915050565b60006125b3826126c7565b91506125be836126c7565b9250827fffffffffffffffffffffffffffffffffffffffffffffffffffffffffffffffff038211156125f3576125f2612767565b5b828201905092915050565b6000612609826126c7565b9150612614836126c7565b92508261262457612623612796565b5b828204905092915050565b600061263a826126c7565b9150612645836126c7565b9250817fffffffffffffffffffffffffffffffffffffffffffffffffffffffffffffffff048311821515161561267e5761267d612767565b5b828202905092915050565b6000612694826126a7565b9050919050565b60008115159050919050565b600073ffffffffffffffffffffffffffffffffffffffff82169050919050565b6000819050919050565b600063ffffffff82169050919050565b600066ffffffffffffff82169050919050565b60006bffffffffffffffffffffffff82169050919050565b6000612717826126d1565b9050919050565b6000612729826126c7565b91507fffffffffffffffffffffffffffffffffffffffffffffffffffffffffffffffff82141561275c5761275b612767565b5b600182019050919050565b7f4e487b7100000000000000000000000000000000000000000000000000000000600052601160045260246000fd5b7f4e487b7100000000000000000000000000000000000000000000000000000000600052601260045260246000fd5b6127ce816126c7565b81146127d957600080fd5b50565b6127e5816126d1565b81146127f057600080fd5b50565b6127fc816126e1565b811461280757600080fd5b50565b612813816126f4565b811461281e57600080fd5b5056fea2646970667358221220bbd5155ba327984c925562c72a27459620bcae50a7bf0e1c5c810c1aa3f8bb8764736f6c63430008000033",
  "immutableReferences": {},
  "source": "// SPDX-License-Identifier: UNLICENSED\npragma solidity ^0.8.0;\n\nimport \"./Owner.sol\";\nimport \"./isCommon.sol\";\n\ncontract BettingContract is Owner, isCommon {\n    constructor() {\n        owner = msg.sender;\n    }\n\n    function getGame(uint256 gameId) external view returns (Game memory game) {\n        return GameIdToGame[gameId];\n    }\n\n    function getCompetitions() external view returns (uint256[] memory) {\n        return competitions;\n    }\n\n    function getGames(uint256 competitionId)\n        external\n        view\n        returns (uint256[] memory games)\n    {\n        return CompetitionIdToGamesIds[competitionId];\n    }\n\n    function getBets(uint256 gameId)\n        external\n        view\n        gameExists(gameId)\n        returns (Bet[] memory bets)\n    {\n        return GameIdToBets[gameId];\n    }\n\n    function newCompetition(uint256 competitionId) external isOwner() {\n        competitions.push(competitionId);\n        emit NewCompetition(competitionId);\n    }\n\n    function newGame(\n        uint96 gameId,\n        uint256 competitionId,\n        uint56 start\n    ) external gameDoesNotExists(gameId) isOwner() {\n        Game memory _game = Game(\n            gameId,\n            start,\n            0,\n            0,\n            0,\n            false,\n            false,\n            true,\n            0,\n            0\n        );\n        GameIdToGame[gameId] = _game;\n        CompetitionIdToGamesIds[competitionId].push(_game.id);\n        emit NewGame(_game);\n    }\n\n    function bet(uint256 gameId, uint256 outcome)\n        external\n        payable\n        gameExists(gameId)\n        betOutcomeIsValid(outcome)\n        checkGameState(gameId)\n    {\n        Bet memory newBet = Bet(msg.sender, msg.value, outcome);\n        GameIdToBets[gameId].push(newBet);\n        UserBetSumByGameAndOutcome[msg.sender][gameId][outcome] += msg.value;\n        emit NewBet(newBet, gameId);\n    }\n\n    function settleGame(\n        uint32 gameId,\n        uint32 team1Score,\n        uint32 team2Score\n    ) external gameExists(gameId) isOwner() {\n        (\n            uint256 _winnerBetsSum,\n            uint256 _loserBetsSum,\n            uint32 _winner\n        ) = getSettlementData(gameId);\n        Game memory _game = GameIdToGame[gameId];\n        _game.team1Score = team1Score;\n        _game.team2Score = team2Score;\n        _game.ended = true;\n        _game.started = true;\n        _game.winner = _winner;\n        _game.loserBetsSum = _loserBetsSum;\n        _game.winnerBetsSum = _winnerBetsSum;\n        GameIdToGame[gameId] = _game;\n        emit GameEnded(true, gameId);\n    }\n\n    function claimProfits(uint256 gameId)\n        external\n        payable\n        gameExists(gameId)\n        gameEnded(gameId)\n    {\n        Game memory _game = GameIdToGame[gameId];\n        uint256 userInitialBetSumWei = UserBetSumByGameAndOutcome[msg.sender][\n            gameId\n        ][_game.winner];\n        uint256 userProfitsWei = (((((userInitialBetSumWei) * 100) /\n            _game.winnerBetsSum) * _game.loserBetsSum) / 100);\n        UserBetSumByGameAndOutcome[msg.sender][gameId][_game.winner] = 0;\n        uint256 userGains = userProfitsWei + userInitialBetSumWei;\n        (bool success, ) = msg.sender.call{value: userGains}(\"\");\n        require(success, \"gains transfer failed\");\n    }\n\n    function getUserWinnerBetSum(uint256 gameId)\n        external\n        view\n        gameExists(gameId)\n        gameEnded(gameId)\n        returns (uint256 profits)\n    {\n        Game memory _game = GameIdToGame[gameId];\n        return UserBetSumByGameAndOutcome[msg.sender][gameId][_game.winner];\n    }\n\n    function getUserInitialBetSum(uint256 gameId, uint256 outcome)\n        external\n        view\n        gameExists(gameId)\n        returns (uint256 betSum)\n    {\n        return UserBetSumByGameAndOutcome[msg.sender][gameId][outcome];\n    }\n\n    function getWinner(uint32 gameId) private view isOwner() returns (uint32) {\n        Game memory _game = GameIdToGame[gameId];\n        if (_game.team1Score > _game.team2Score) {\n            return 1;\n        } else if (_game.team2Score > _game.team1Score) {\n            return 2;\n        } else {\n            return 0;\n        }\n    }\n\n    function getSettlementData(uint32 gameId)\n        private\n        view\n        returns (\n            uint256 _winnerBetsSum,\n            uint256 _loserBetsSum,\n            uint32 _winner\n        )\n    {\n        _winner = getWinner(gameId);\n        for (uint256 i = 0; i < GameIdToBets[gameId].length; i++) {\n            if (GameIdToBets[gameId][i].outcome == _winner) {\n                _winnerBetsSum += GameIdToBets[gameId][i].amount;\n            } else {\n                _loserBetsSum += GameIdToBets[gameId][i].amount;\n            }\n        }\n\n        return (_winnerBetsSum, _loserBetsSum, _winner);\n    }\n}\n",
  "sourcePath": "/home/kstwa/Documents/SportsOnTheBlock/contracts/BettingContract.sol",
  "compiler": {
    "name": "solc",
    "version": "0.8.0+commit.c7dfd78e.Emscripten.clang"
  },
  "schemaVersion": "3.4.1",
  "updatedAt": "2021-07-16T19:02:01.860Z",
  "devdoc": {
    "kind": "dev",
    "methods": {},
    "version": 1
  },
  "userdoc": {
    "kind": "user",
    "methods": {},
    "version": 1
  }
}