{
  "contractName": "BettingContract",
  "abi": [
    {
      "inputs": [],
      "stateMutability": "nonpayable",
      "type": "constructor"
    },
    {
      "anonymous": false,
      "inputs": [
        {
          "indexed": false,
          "internalType": "bool",
          "name": "",
          "type": "bool"
        },
        {
          "indexed": false,
          "internalType": "uint256",
          "name": "",
          "type": "uint256"
        }
      ],
      "name": "GameEnded",
      "type": "event"
    },
    {
      "anonymous": false,
      "inputs": [
        {
          "indexed": false,
          "internalType": "bool",
          "name": "",
          "type": "bool"
        },
        {
          "indexed": false,
          "internalType": "uint256",
          "name": "",
          "type": "uint256"
        }
      ],
      "name": "GameStarted",
      "type": "event"
    },
    {
      "anonymous": false,
      "inputs": [
        {
          "components": [
            {
              "internalType": "address",
              "name": "user",
              "type": "address"
            },
            {
              "internalType": "uint256",
              "name": "amount",
              "type": "uint256"
            },
            {
              "internalType": "uint256",
              "name": "outcome",
              "type": "uint256"
            }
          ],
          "indexed": false,
          "internalType": "struct isCommon.Bet",
          "name": "",
          "type": "tuple"
        },
        {
          "indexed": false,
          "internalType": "uint256",
          "name": "",
          "type": "uint256"
        }
      ],
      "name": "NewBet",
      "type": "event"
    },
    {
      "anonymous": false,
      "inputs": [
        {
          "indexed": false,
          "internalType": "uint256",
          "name": "",
          "type": "uint256"
        }
      ],
      "name": "NewCompetition",
      "type": "event"
    },
    {
      "anonymous": false,
      "inputs": [
        {
          "components": [
            {
              "internalType": "uint256",
              "name": "id",
              "type": "uint256"
            },
            {
              "internalType": "uint256",
              "name": "start",
              "type": "uint256"
            },
            {
              "internalType": "uint256",
              "name": "team1Score",
              "type": "uint256"
            },
            {
              "internalType": "uint256",
              "name": "team2Score",
              "type": "uint256"
            },
            {
              "internalType": "uint256",
              "name": "winner",
              "type": "uint256"
            },
            {
              "internalType": "uint256",
              "name": "winnerBetsSum",
              "type": "uint256"
            },
            {
              "internalType": "uint256",
              "name": "loserBetsSum",
              "type": "uint256"
            },
            {
              "internalType": "bool",
              "name": "ended",
              "type": "bool"
            },
            {
              "internalType": "bool",
              "name": "started",
              "type": "bool"
            },
            {
              "internalType": "bool",
              "name": "exists",
              "type": "bool"
            }
          ],
          "indexed": false,
          "internalType": "struct isCommon.Game",
          "name": "",
          "type": "tuple"
        }
      ],
      "name": "NewGame",
      "type": "event"
    },
    {
      "inputs": [],
      "name": "owner",
      "outputs": [
        {
          "internalType": "address",
          "name": "",
          "type": "address"
        }
      ],
      "stateMutability": "view",
      "type": "function"
    },
    {
      "inputs": [
        {
          "internalType": "uint256",
          "name": "gameId",
          "type": "uint256"
        }
      ],
      "name": "getGame",
      "outputs": [
        {
          "components": [
            {
              "internalType": "uint256",
              "name": "id",
              "type": "uint256"
            },
            {
              "internalType": "uint256",
              "name": "start",
              "type": "uint256"
            },
            {
              "internalType": "uint256",
              "name": "team1Score",
              "type": "uint256"
            },
            {
              "internalType": "uint256",
              "name": "team2Score",
              "type": "uint256"
            },
            {
              "internalType": "uint256",
              "name": "winner",
              "type": "uint256"
            },
            {
              "internalType": "uint256",
              "name": "winnerBetsSum",
              "type": "uint256"
            },
            {
              "internalType": "uint256",
              "name": "loserBetsSum",
              "type": "uint256"
            },
            {
              "internalType": "bool",
              "name": "ended",
              "type": "bool"
            },
            {
              "internalType": "bool",
              "name": "started",
              "type": "bool"
            },
            {
              "internalType": "bool",
              "name": "exists",
              "type": "bool"
            }
          ],
          "internalType": "struct isCommon.Game",
          "name": "game",
          "type": "tuple"
        }
      ],
      "stateMutability": "view",
      "type": "function"
    },
    {
      "inputs": [],
      "name": "getCompetitions",
      "outputs": [
        {
          "internalType": "uint256[]",
          "name": "",
          "type": "uint256[]"
        }
      ],
      "stateMutability": "view",
      "type": "function"
    },
    {
      "inputs": [
        {
          "internalType": "uint256",
          "name": "competitionId",
          "type": "uint256"
        }
      ],
      "name": "getGames",
      "outputs": [
        {
          "internalType": "uint256[]",
          "name": "games",
          "type": "uint256[]"
        }
      ],
      "stateMutability": "view",
      "type": "function"
    },
    {
      "inputs": [
        {
          "internalType": "uint256",
          "name": "gameId",
          "type": "uint256"
        }
      ],
      "name": "getBets",
      "outputs": [
        {
          "components": [
            {
              "internalType": "address",
              "name": "user",
              "type": "address"
            },
            {
              "internalType": "uint256",
              "name": "amount",
              "type": "uint256"
            },
            {
              "internalType": "uint256",
              "name": "outcome",
              "type": "uint256"
            }
          ],
          "internalType": "struct isCommon.Bet[]",
          "name": "bets",
          "type": "tuple[]"
        }
      ],
      "stateMutability": "view",
      "type": "function"
    },
    {
      "inputs": [
        {
          "internalType": "uint256",
          "name": "competitionId",
          "type": "uint256"
        }
      ],
      "name": "newCompetition",
      "outputs": [],
      "stateMutability": "nonpayable",
      "type": "function"
    },
    {
      "inputs": [
        {
          "internalType": "uint256",
          "name": "gameId",
          "type": "uint256"
        },
        {
          "internalType": "uint256",
          "name": "competitionId",
          "type": "uint256"
        },
        {
          "internalType": "uint256",
          "name": "start",
          "type": "uint256"
        }
      ],
      "name": "newGame",
      "outputs": [],
      "stateMutability": "nonpayable",
      "type": "function"
    },
    {
      "inputs": [
        {
          "internalType": "uint256",
          "name": "gameId",
          "type": "uint256"
        },
        {
          "internalType": "uint256",
          "name": "outcome",
          "type": "uint256"
        }
      ],
      "name": "bet",
      "outputs": [],
      "stateMutability": "payable",
      "type": "function"
    },
    {
      "inputs": [
        {
          "internalType": "uint256",
          "name": "gameId",
          "type": "uint256"
        }
      ],
      "name": "setGameToStarted",
      "outputs": [],
      "stateMutability": "nonpayable",
      "type": "function"
    },
    {
      "inputs": [
        {
          "internalType": "uint256",
          "name": "gameId",
          "type": "uint256"
        },
        {
          "internalType": "uint256",
          "name": "team1Score",
          "type": "uint256"
        },
        {
          "internalType": "uint256",
          "name": "team2Score",
          "type": "uint256"
        }
      ],
      "name": "settleGame",
      "outputs": [],
      "stateMutability": "nonpayable",
      "type": "function"
    },
    {
      "inputs": [
        {
          "internalType": "uint256",
          "name": "gameId",
          "type": "uint256"
        }
      ],
      "name": "claimProfits",
      "outputs": [],
      "stateMutability": "payable",
      "type": "function"
    },
    {
      "inputs": [
        {
          "internalType": "uint256",
          "name": "gameId",
          "type": "uint256"
        }
      ],
      "name": "getUserWinnerBetSum",
      "outputs": [
        {
          "internalType": "uint256",
          "name": "profits",
          "type": "uint256"
        }
      ],
      "stateMutability": "view",
      "type": "function"
    },
    {
      "inputs": [
        {
          "internalType": "uint256",
          "name": "gameId",
          "type": "uint256"
        },
        {
          "internalType": "uint256",
          "name": "outcome",
          "type": "uint256"
        }
      ],
      "name": "getUserInitialBetSum",
      "outputs": [
        {
          "internalType": "uint256",
          "name": "betSum",
          "type": "uint256"
        }
      ],
      "stateMutability": "view",
      "type": "function"
    }
  ],
  "bytecode": "0x608060405234801561001057600080fd5b50336000806101000a81548173ffffffffffffffffffffffffffffffffffffffff021916908373ffffffffffffffffffffffffffffffffffffffff160217905550336000806101000a81548173ffffffffffffffffffffffffffffffffffffffff021916908373ffffffffffffffffffffffffffffffffffffffff160217905550612234806100a06000396000f3fe6080604052600436106100c25760003560e01c806394328aa31161007f5780639f6c0ce3116100595780639f6c0ce31461027d578063a2f77bcc146102a8578063c0c090bc146102e5578063da839c971461030e576100c2565b806394328aa3146101da57806398d079a7146102175780639d6aaa7d14610240576100c2565b80631ccf6955146100c757806330852db8146101045780636579642b1461012d5780636ffcc719146101565780638da5cb5b146101725780638fdcc8c61461019d575b600080fd5b3480156100d357600080fd5b506100ee60048036038101906100e991906118e8565b61032a565b6040516100fb9190611dfc565b60405180910390f35b34801561011057600080fd5b5061012b6004803603810190610126919061194d565b61046b565b005b34801561013957600080fd5b50610154600480360381019061014f91906118e8565b6106bb565b005b610170600480360381019061016b9190611911565b61077f565b005b34801561017e57600080fd5b50610187610a28565b6040516101949190611de1565b60405180910390f35b3480156101a957600080fd5b506101c460048036038101906101bf9190611911565b610a4c565b6040516101d19190611f6e565b60405180910390f35b3480156101e657600080fd5b5061020160048036038101906101fc91906118e8565b610b1d565b60405161020e9190611f6e565b60405180910390f35b34801561022357600080fd5b5061023e600480360381019061023991906118e8565b610d18565b005b34801561024c57600080fd5b50610267600480360381019061026291906118e8565b610dd3565b6040516102749190611e1e565b60405180910390f35b34801561028957600080fd5b50610292610e3e565b60405161029f9190611e1e565b60405180910390f35b3480156102b457600080fd5b506102cf60048036038101906102ca91906118e8565b610e96565b6040516102dc9190611f52565b60405180910390f35b3480156102f157600080fd5b5061030c6004803603810190610307919061194d565b610f5b565b005b610328600480360381019061032391906118e8565b61123d565b005b6060816004600082815260200190815260200160002060070160029054906101000a900460ff16610390576040517f08c379a000000000000000000000000000000000000000000000000000000000815260040161038790611ee9565b60405180910390fd5b60036000848152602001908152602001600020805480602002602001604051908101604052809291908181526020016000905b8282101561045f57838290600052602060002090600302016040518060600160405290816000820160009054906101000a900473ffffffffffffffffffffffffffffffffffffffff1673ffffffffffffffffffffffffffffffffffffffff1673ffffffffffffffffffffffffffffffffffffffff16815260200160018201548152602001600282015481525050815260200190600101906103c3565b50505050915050919050565b826004600082815260200190815260200160002060070160029054906101000a900460ff16156104d0576040517f08c379a00000000000000000000000000000000000000000000000000000000081526004016104c790611ec9565b60405180910390fd5b60008054906101000a900473ffffffffffffffffffffffffffffffffffffffff1673ffffffffffffffffffffffffffffffffffffffff163373ffffffffffffffffffffffffffffffffffffffff161461052857600080fd5b600060405180610140016040528086815260200184815260200160008152602001600081526020016000815260200160008152602001600081526020016000151581526020016000151581526020016001151581525090508060046000878152602001908152602001600020600082015181600001556020820151816001015560408201518160020155606082015181600301556080820151816004015560a0820151816005015560c0820151816006015560e08201518160070160006101000a81548160ff0219169083151502179055506101008201518160070160016101000a81548160ff0219169083151502179055506101208201518160070160026101000a81548160ff02191690831515021790555090505060026000858152602001908152602001600020816000015190806001815401808255809150506001900390600052602060002001600090919091909150557f57e59bf1623ed8daab69247f6aab2e3f69b7633c0a042b5b88b3b3bb13518dd4816040516106ac9190611f52565b60405180910390a15050505050565b60008054906101000a900473ffffffffffffffffffffffffffffffffffffffff1673ffffffffffffffffffffffffffffffffffffffff163373ffffffffffffffffffffffffffffffffffffffff161461071357600080fd5b60016004600083815260200190815260200160002060070160016101000a81548160ff0219169083151502179055507f219c3a22229b4c93cc3c883b6b4ce989139ed2a11ec15db5643ec56f3d94e070600182604051610774929190611e40565b60405180910390a150565b816004600082815260200190815260200160002060070160029054906101000a900460ff166107e3576040517f08c379a00000000000000000000000000000000000000000000000000000000081526004016107da90611ee9565b60405180910390fd5b81600081101580156107f6575060028111155b610835576040517f08c379a000000000000000000000000000000000000000000000000000000000815260040161082c90611ea9565b60405180910390fd5b83600015156004600083815260200190815260200160002060070160019054906101000a900460ff161515146108a0576040517f08c379a000000000000000000000000000000000000000000000000000000000815260040161089790611f09565b60405180910390fd5b600060405180606001604052803373ffffffffffffffffffffffffffffffffffffffff1681526020013481526020018681525090506003600087815260200190815260200160002081908060018154018082558091505060019003906000526020600020906003020160009091909190915060008201518160000160006101000a81548173ffffffffffffffffffffffffffffffffffffffff021916908373ffffffffffffffffffffffffffffffffffffffff1602179055506020820151816001015560408201518160020155505034600560003373ffffffffffffffffffffffffffffffffffffffff1673ffffffffffffffffffffffffffffffffffffffff1681526020019081526020016000206000888152602001908152602001600020600087815260200190815260200160002060008282546109e09190612017565b925050819055507f49497e006b29902259c7a439a9fa5011c00afe0e0aa37e810333db207adcefb08187604051610a18929190611f29565b60405180910390a1505050505050565b60008054906101000a900473ffffffffffffffffffffffffffffffffffffffff1681565b6000826004600082815260200190815260200160002060070160029054906101000a900460ff16610ab2576040517f08c379a0000000000000000000000000000000000000000000000000000000008152600401610aa990611ee9565b60405180910390fd5b600560003373ffffffffffffffffffffffffffffffffffffffff1673ffffffffffffffffffffffffffffffffffffffff168152602001908152602001600020600085815260200190815260200160002060008481526020019081526020016000205491505092915050565b6000816004600082815260200190815260200160002060070160029054906101000a900460ff16610b83576040517f08c379a0000000000000000000000000000000000000000000000000000000008152600401610b7a90611ee9565b60405180910390fd5b82600115156004600083815260200190815260200160002060070160009054906101000a900460ff16151514610bee576040517f08c379a0000000000000000000000000000000000000000000000000000000008152600401610be590611e89565b60405180910390fd5b60006004600086815260200190815260200160002060405180610140016040529081600082015481526020016001820154815260200160028201548152602001600382015481526020016004820154815260200160058201548152602001600682015481526020016007820160009054906101000a900460ff161515151581526020016007820160019054906101000a900460ff161515151581526020016007820160029054906101000a900460ff1615151515815250509050600560003373ffffffffffffffffffffffffffffffffffffffff1673ffffffffffffffffffffffffffffffffffffffff1681526020019081526020016000206000868152602001908152602001600020600082608001518152602001908152602001600020549350505050919050565b60008054906101000a900473ffffffffffffffffffffffffffffffffffffffff1673ffffffffffffffffffffffffffffffffffffffff163373ffffffffffffffffffffffffffffffffffffffff1614610d7057600080fd5b60018190806001815401808255809150506001900390600052602060002001600090919091909150557f9edc9bae9b3983d36dfb38fff741c45440f54213c4782f68a10a50cc5d753c7c81604051610dc89190611f6e565b60405180910390a150565b606060026000838152602001908152602001600020805480602002602001604051908101604052809291908181526020018280548015610e3257602002820191906000526020600020905b815481526020019060010190808311610e1e575b50505050509050919050565b60606001805480602002602001604051908101604052809291908181526020018280548015610e8c57602002820191906000526020600020905b815481526020019060010190808311610e78575b5050505050905090565b610e9e61187a565b6004600083815260200190815260200160002060405180610140016040529081600082015481526020016001820154815260200160028201548152602001600382015481526020016004820154815260200160058201548152602001600682015481526020016007820160009054906101000a900460ff161515151581526020016007820160019054906101000a900460ff161515151581526020016007820160029054906101000a900460ff1615151515815250509050919050565b826004600082815260200190815260200160002060070160029054906101000a900460ff16610fbf576040517f08c379a0000000000000000000000000000000000000000000000000000000008152600401610fb690611ee9565b60405180910390fd5b60008054906101000a900473ffffffffffffffffffffffffffffffffffffffff1673ffffffffffffffffffffffffffffffffffffffff163373ffffffffffffffffffffffffffffffffffffffff161461101757600080fd5b60008060006110258761159c565b92509250925060006004600089815260200190815260200160002060405180610140016040529081600082015481526020016001820154815260200160028201548152602001600382015481526020016004820154815260200160058201548152602001600682015481526020016007820160009054906101000a900460ff161515151581526020016007820160019054906101000a900460ff161515151581526020016007820160029054906101000a900460ff1615151515815250509050868160400181815250508581606001818152505060018160e001901515908115158152505060018161010001901515908115158152505081816080018181525050828160c0018181525050838160a001818152505080600460008a8152602001908152602001600020600082015181600001556020820151816001015560408201518160020155606082015181600301556080820151816004015560a0820151816005015560c0820151816006015560e08201518160070160006101000a81548160ff0219169083151502179055506101008201518160070160016101000a81548160ff0219169083151502179055506101208201518160070160026101000a81548160ff0219169083151502179055509050507fe89bb1849f637efae3f96a973a9c0775b0033ccf1deba9c11915717455a7fe8360018960405161122b929190611e40565b60405180910390a15050505050505050565b806004600082815260200190815260200160002060070160029054906101000a900460ff166112a1576040517f08c379a000000000000000000000000000000000000000000000000000000000815260040161129890611ee9565b60405180910390fd5b81600115156004600083815260200190815260200160002060070160009054906101000a900460ff1615151461130c576040517f08c379a000000000000000000000000000000000000000000000000000000000815260040161130390611e89565b60405180910390fd5b60006004600085815260200190815260200160002060405180610140016040529081600082015481526020016001820154815260200160028201548152602001600382015481526020016004820154815260200160058201548152602001600682015481526020016007820160009054906101000a900460ff161515151581526020016007820160019054906101000a900460ff161515151581526020016007820160029054906101000a900460ff16151515158152505090506000600560003373ffffffffffffffffffffffffffffffffffffffff1673ffffffffffffffffffffffffffffffffffffffff1681526020019081526020016000206000868152602001908152602001600020600083608001518152602001908152602001600020549050600060648360c001518460a0015160648561144b919061209e565b611455919061206d565b61145f919061209e565b611469919061206d565b90506000600560003373ffffffffffffffffffffffffffffffffffffffff1673ffffffffffffffffffffffffffffffffffffffff168152602001908152602001600020600088815260200190815260200160002060008560800151815260200190815260200160002081905550600082826114e49190612017565b905060003373ffffffffffffffffffffffffffffffffffffffff168260405161150c90611dcc565b60006040518083038185875af1925050503d8060008114611549576040519150601f19603f3d011682016040523d82523d6000602084013e61154e565b606091505b5050905080611592576040517f08c379a000000000000000000000000000000000000000000000000000000000815260040161158990611e69565b60405180910390fd5b5050505050505050565b60008060006115aa84611726565b905060005b600360008681526020019081526020016000208054905081101561171e5781600360008781526020019081526020016000208281548110611619577f4e487b7100000000000000000000000000000000000000000000000000000000600052603260045260246000fd5b90600052602060002090600302016002015414156116a05760036000868152602001908152602001600020818154811061167c577f4e487b7100000000000000000000000000000000000000000000000000000000600052603260045260246000fd5b906000526020600020906003020160010154846116999190612017565b935061170b565b6003600086815260200190815260200160002081815481106116eb577f4e487b7100000000000000000000000000000000000000000000000000000000600052603260045260246000fd5b906000526020600020906003020160010154836117089190612017565b92505b808061171690612140565b9150506115af565b509193909250565b60008060009054906101000a900473ffffffffffffffffffffffffffffffffffffffff1673ffffffffffffffffffffffffffffffffffffffff163373ffffffffffffffffffffffffffffffffffffffff161461178157600080fd5b60006004600084815260200190815260200160002060405180610140016040529081600082015481526020016001820154815260200160028201548152602001600382015481526020016004820154815260200160058201548152602001600682015481526020016007820160009054906101000a900460ff161515151581526020016007820160019054906101000a900460ff161515151581526020016007820160029054906101000a900460ff1615151515815250509050806060015181604001511115611855576001915050611875565b80604001518160600151111561186f576002915050611875565b60009150505b919050565b604051806101400160405280600081526020016000815260200160008152602001600081526020016000815260200160008152602001600081526020016000151581526020016000151581526020016000151581525090565b6000813590506118e2816121e7565b92915050565b6000602082840312156118fa57600080fd5b6000611908848285016118d3565b91505092915050565b6000806040838503121561192457600080fd5b6000611932858286016118d3565b9250506020611943858286016118d3565b9150509250929050565b60008060006060848603121561196257600080fd5b6000611970868287016118d3565b9350506020611981868287016118d3565b9250506040611992868287016118d3565b9150509250925092565b60006119a88383611c5e565b60608301905092915050565b60006119c08383611dae565b60208301905092915050565b6119d5816120f8565b82525050565b6119e4816120f8565b82525050565b60006119f582611fa9565b6119ff8185611fd9565b9350611a0a83611f89565b8060005b83811015611a3b578151611a22888261199c565b9750611a2d83611fbf565b925050600181019050611a0e565b5085935050505092915050565b6000611a5382611fb4565b611a5d8185611fea565b9350611a6883611f99565b8060005b83811015611a99578151611a8088826119b4565b9750611a8b83611fcc565b925050600181019050611a6c565b5085935050505092915050565b611aaf8161210a565b82525050565b611abe8161210a565b82525050565b6000611ad1601583612006565b91507f6761696e73207472616e73666572206661696c656400000000000000000000006000830152602082019050919050565b6000611b11601483612006565b91507f67616d65206d757374206861766520656e6465640000000000000000000000006000830152602082019050919050565b6000611b51601283612006565b91507f4f7574636f6d6520697320696e76616c696400000000000000000000000000006000830152602082019050919050565b6000611b91601483612006565b91507f47616d6520616c657265616479206578697374730000000000000000000000006000830152602082019050919050565b6000611bd1601483612006565b91507f47616d6520646f6573206e6f74206578697374730000000000000000000000006000830152602082019050919050565b6000611c11600083611ffb565b9150600082019050919050565b6000611c2b601883612006565b91507f67616d652068617320616c7265616479207374617274656400000000000000006000830152602082019050919050565b606082016000820151611c7460008501826119cc565b506020820151611c876020850182611dae565b506040820151611c9a6040850182611dae565b50505050565b606082016000820151611cb660008501826119cc565b506020820151611cc96020850182611dae565b506040820151611cdc6040850182611dae565b50505050565b61014082016000820151611cf96000850182611dae565b506020820151611d0c6020850182611dae565b506040820151611d1f6040850182611dae565b506060820151611d326060850182611dae565b506080820151611d456080850182611dae565b5060a0820151611d5860a0850182611dae565b5060c0820151611d6b60c0850182611dae565b5060e0820151611d7e60e0850182611aa6565b50610100820151611d93610100850182611aa6565b50610120820151611da8610120850182611aa6565b50505050565b611db781612136565b82525050565b611dc681612136565b82525050565b6000611dd782611c04565b9150819050919050565b6000602082019050611df660008301846119db565b92915050565b60006020820190508181036000830152611e1681846119ea565b905092915050565b60006020820190508181036000830152611e388184611a48565b905092915050565b6000604082019050611e556000830185611ab5565b611e626020830184611dbd565b9392505050565b60006020820190508181036000830152611e8281611ac4565b9050919050565b60006020820190508181036000830152611ea281611b04565b9050919050565b60006020820190508181036000830152611ec281611b44565b9050919050565b60006020820190508181036000830152611ee281611b84565b9050919050565b60006020820190508181036000830152611f0281611bc4565b9050919050565b60006020820190508181036000830152611f2281611c1e565b9050919050565b6000608082019050611f3e6000830185611ca0565b611f4b6060830184611dbd565b9392505050565b600061014082019050611f686000830184611ce2565b92915050565b6000602082019050611f836000830184611dbd565b92915050565b6000819050602082019050919050565b6000819050602082019050919050565b600081519050919050565b600081519050919050565b6000602082019050919050565b6000602082019050919050565b600082825260208201905092915050565b600082825260208201905092915050565b600081905092915050565b600082825260208201905092915050565b600061202282612136565b915061202d83612136565b9250827fffffffffffffffffffffffffffffffffffffffffffffffffffffffffffffffff0382111561206257612061612189565b5b828201905092915050565b600061207882612136565b915061208383612136565b925082612093576120926121b8565b5b828204905092915050565b60006120a982612136565b91506120b483612136565b9250817fffffffffffffffffffffffffffffffffffffffffffffffffffffffffffffffff04831182151516156120ed576120ec612189565b5b828202905092915050565b600061210382612116565b9050919050565b60008115159050919050565b600073ffffffffffffffffffffffffffffffffffffffff82169050919050565b6000819050919050565b600061214b82612136565b91507fffffffffffffffffffffffffffffffffffffffffffffffffffffffffffffffff82141561217e5761217d612189565b5b600182019050919050565b7f4e487b7100000000000000000000000000000000000000000000000000000000600052601160045260246000fd5b7f4e487b7100000000000000000000000000000000000000000000000000000000600052601260045260246000fd5b6121f081612136565b81146121fb57600080fd5b5056fea2646970667358221220632913774aa853670f721f2c9b8388c807f5b17f3f27bd390f8332eca78f5c2d64736f6c63430008000033",
  "immutableReferences": {},
  "source": "// SPDX-License-Identifier: UNLICENSED\npragma solidity ^0.8.0;\n\nimport \"./Owner.sol\";\nimport \"./isCommon.sol\";\n\ncontract BettingContract is Owner, isCommon {\n    constructor() {\n        owner = msg.sender;\n    }\n\n    function getGame(uint256 gameId) external view returns (Game memory game) {\n        return GameIdToGame[gameId];\n    }\n\n    function getCompetitions() external view returns (uint256[] memory) {\n        return competitions;\n    }\n\n    function getGames(uint256 competitionId)\n        external\n        view\n        returns (uint256[] memory games)\n    {\n        return CompetitionIdToGamesIds[competitionId];\n    }\n\n    function getBets(uint256 gameId)\n        external\n        view\n        gameExists(gameId)\n        returns (Bet[] memory bets)\n    {\n        return GameIdToBets[gameId];\n    }\n\n    function newCompetition(uint256 competitionId) external isOwner() {\n        competitions.push(competitionId);\n        emit NewCompetition(competitionId);\n    }\n\n    function newGame(\n        uint256 gameId,\n        uint256 competitionId,\n        uint256 start\n    ) external gameDoesNotExists(gameId) isOwner() {\n        Game memory _game = Game(\n            gameId,\n            start,\n            0,\n            0,\n            0,\n            0,\n            0,\n            false,\n            false,\n            true\n        );\n        GameIdToGame[gameId] = _game;\n        CompetitionIdToGamesIds[competitionId].push(_game.id);\n        emit NewGame(_game);\n    }\n\n    function bet(uint256 gameId, uint256 outcome)\n        external\n        payable\n        gameExists(gameId)\n        betOutcomeIsValid(outcome)\n        checkGameState(gameId)\n    {\n        Bet memory newBet = Bet(msg.sender, msg.value, outcome);\n        GameIdToBets[gameId].push(newBet);\n        UserBetSumByGameAndOutcome[msg.sender][gameId][outcome] += msg.value;\n        emit NewBet(newBet, gameId);\n    }\n\n    function setGameToStarted(uint256 gameId) external isOwner() {\n        GameIdToGame[gameId].started = true;\n        emit GameStarted(true, gameId);\n    }\n\n    function settleGame(\n        uint256 gameId,\n        uint256 team1Score,\n        uint256 team2Score\n    ) external gameExists(gameId) isOwner() {\n        (\n            uint256 _winnerBetsSum,\n            uint256 _loserBetsSum,\n            uint256 _winner\n        ) = getSettlementData(gameId);\n        Game memory _game = GameIdToGame[gameId];\n        _game.team1Score = team1Score;\n        _game.team2Score = team2Score;\n        _game.ended = true;\n        _game.started = true;\n        _game.winner = _winner;\n        _game.loserBetsSum = _loserBetsSum;\n        _game.winnerBetsSum = _winnerBetsSum;\n        GameIdToGame[gameId] = _game;\n        emit GameEnded(true, gameId);\n    }\n\n    function claimProfits(uint256 gameId)\n        external\n        payable\n        gameExists(gameId)\n        gameEnded(gameId)\n    {\n        Game memory _game = GameIdToGame[gameId];\n        uint256 userInitialBetSumWei = UserBetSumByGameAndOutcome[msg.sender][\n            gameId\n        ][_game.winner];\n        uint256 userProfitsWei = (((((userInitialBetSumWei) * 100) /\n            _game.winnerBetsSum) * _game.loserBetsSum) / 100);\n        UserBetSumByGameAndOutcome[msg.sender][gameId][_game.winner] = 0;\n        uint256 userGains = userProfitsWei + userInitialBetSumWei;\n        (bool success, ) = msg.sender.call{value: userGains}(\"\");\n        require(success, \"gains transfer failed\");\n    }\n\n    function getUserWinnerBetSum(uint256 gameId)\n        external\n        view\n        gameExists(gameId)\n        gameEnded(gameId)\n        returns (uint256 profits)\n    {\n        Game memory _game = GameIdToGame[gameId];\n        return UserBetSumByGameAndOutcome[msg.sender][gameId][_game.winner];\n    }\n\n    function getUserInitialBetSum(uint256 gameId, uint256 outcome)\n        external\n        view\n        gameExists(gameId)\n        returns (uint256 betSum)\n    {\n        return UserBetSumByGameAndOutcome[msg.sender][gameId][outcome];\n    }\n\n    function getWinner(uint256 gameId)\n        private\n        view\n        isOwner()\n        returns (uint256)\n    {\n        Game memory _game = GameIdToGame[gameId];\n        if (_game.team1Score > _game.team2Score) {\n            return 1;\n        } else if (_game.team2Score > _game.team1Score) {\n            return 2;\n        } else {\n            return 0;\n        }\n    }\n\n    function getSettlementData(uint256 gameId)\n        private\n        view\n        returns (\n            uint256 _winnerBetsSum,\n            uint256 _loserBetsSum,\n            uint256 _winner\n        )\n    {\n        _winner = getWinner(gameId);\n        for (uint256 i = 0; i < GameIdToBets[gameId].length; i++) {\n            if (GameIdToBets[gameId][i].outcome == _winner) {\n                _winnerBetsSum += GameIdToBets[gameId][i].amount;\n            } else {\n                _loserBetsSum += GameIdToBets[gameId][i].amount;\n            }\n        }\n\n        return (_winnerBetsSum, _loserBetsSum, _winner);\n    }\n}\n",
  "sourcePath": "/home/kstwa/Documents/SportsOnTheBlock/contracts/BettingContract.sol",
  "compiler": {
    "name": "solc",
    "version": "0.8.0+commit.c7dfd78e.Emscripten.clang"
  },
  "schemaVersion": "3.4.1",
  "updatedAt": "2021-07-15T13:39:35.903Z",
  "devdoc": {
    "kind": "dev",
    "methods": {},
    "version": 1
  },
  "userdoc": {
    "kind": "user",
    "methods": {},
    "version": 1
  }
}