{
  "contractName": "BettingContract",
  "abi": [
    {
      "inputs": [],
      "stateMutability": "nonpayable",
      "type": "constructor"
    },
    {
      "anonymous": false,
      "inputs": [
        {
          "indexed": false,
          "internalType": "bool",
          "name": "",
          "type": "bool"
        }
      ],
      "name": "GameEnded",
      "type": "event"
    },
    {
      "anonymous": false,
      "inputs": [
        {
          "indexed": false,
          "internalType": "bool",
          "name": "",
          "type": "bool"
        }
      ],
      "name": "GameStarted",
      "type": "event"
    },
    {
      "anonymous": false,
      "inputs": [
        {
          "components": [
            {
              "internalType": "address",
              "name": "user",
              "type": "address"
            },
            {
              "internalType": "uint256",
              "name": "amount",
              "type": "uint256"
            },
            {
              "internalType": "uint256",
              "name": "outcome",
              "type": "uint256"
            }
          ],
          "indexed": false,
          "internalType": "struct isCommon.Bet",
          "name": "",
          "type": "tuple"
        },
        {
          "indexed": false,
          "internalType": "uint256",
          "name": "",
          "type": "uint256"
        }
      ],
      "name": "NewBet",
      "type": "event"
    },
    {
      "anonymous": false,
      "inputs": [
        {
          "indexed": false,
          "internalType": "uint256",
          "name": "",
          "type": "uint256"
        }
      ],
      "name": "NewCompetition",
      "type": "event"
    },
    {
      "anonymous": false,
      "inputs": [
        {
          "components": [
            {
              "internalType": "uint256",
              "name": "id",
              "type": "uint256"
            },
            {
              "internalType": "uint256",
              "name": "start",
              "type": "uint256"
            },
            {
              "internalType": "uint256",
              "name": "team1Score",
              "type": "uint256"
            },
            {
              "internalType": "uint256",
              "name": "team2Score",
              "type": "uint256"
            },
            {
              "internalType": "uint256",
              "name": "winner",
              "type": "uint256"
            },
            {
              "internalType": "uint256",
              "name": "winnerBetsSum",
              "type": "uint256"
            },
            {
              "internalType": "uint256",
              "name": "loserBetsSum",
              "type": "uint256"
            },
            {
              "internalType": "bool",
              "name": "ended",
              "type": "bool"
            },
            {
              "internalType": "bool",
              "name": "started",
              "type": "bool"
            },
            {
              "internalType": "bool",
              "name": "exists",
              "type": "bool"
            }
          ],
          "indexed": false,
          "internalType": "struct isCommon.Game",
          "name": "",
          "type": "tuple"
        }
      ],
      "name": "NewGame",
      "type": "event"
    },
    {
      "inputs": [],
      "name": "owner",
      "outputs": [
        {
          "internalType": "address",
          "name": "",
          "type": "address"
        }
      ],
      "stateMutability": "view",
      "type": "function"
    },
    {
      "inputs": [
        {
          "internalType": "uint256",
          "name": "gameId",
          "type": "uint256"
        }
      ],
      "name": "getGame",
      "outputs": [
        {
          "components": [
            {
              "internalType": "uint256",
              "name": "id",
              "type": "uint256"
            },
            {
              "internalType": "uint256",
              "name": "start",
              "type": "uint256"
            },
            {
              "internalType": "uint256",
              "name": "team1Score",
              "type": "uint256"
            },
            {
              "internalType": "uint256",
              "name": "team2Score",
              "type": "uint256"
            },
            {
              "internalType": "uint256",
              "name": "winner",
              "type": "uint256"
            },
            {
              "internalType": "uint256",
              "name": "winnerBetsSum",
              "type": "uint256"
            },
            {
              "internalType": "uint256",
              "name": "loserBetsSum",
              "type": "uint256"
            },
            {
              "internalType": "bool",
              "name": "ended",
              "type": "bool"
            },
            {
              "internalType": "bool",
              "name": "started",
              "type": "bool"
            },
            {
              "internalType": "bool",
              "name": "exists",
              "type": "bool"
            }
          ],
          "internalType": "struct isCommon.Game",
          "name": "game",
          "type": "tuple"
        }
      ],
      "stateMutability": "view",
      "type": "function"
    },
    {
      "inputs": [],
      "name": "getCompetitions",
      "outputs": [
        {
          "internalType": "uint256[]",
          "name": "",
          "type": "uint256[]"
        }
      ],
      "stateMutability": "view",
      "type": "function"
    },
    {
      "inputs": [
        {
          "internalType": "uint256",
          "name": "competitionId",
          "type": "uint256"
        }
      ],
      "name": "getGames",
      "outputs": [
        {
          "internalType": "uint256[]",
          "name": "games",
          "type": "uint256[]"
        }
      ],
      "stateMutability": "view",
      "type": "function"
    },
    {
      "inputs": [
        {
          "internalType": "uint256",
          "name": "gameId",
          "type": "uint256"
        }
      ],
      "name": "getBets",
      "outputs": [
        {
          "components": [
            {
              "internalType": "address",
              "name": "user",
              "type": "address"
            },
            {
              "internalType": "uint256",
              "name": "amount",
              "type": "uint256"
            },
            {
              "internalType": "uint256",
              "name": "outcome",
              "type": "uint256"
            }
          ],
          "internalType": "struct isCommon.Bet[]",
          "name": "bets",
          "type": "tuple[]"
        }
      ],
      "stateMutability": "view",
      "type": "function"
    },
    {
      "inputs": [
        {
          "internalType": "uint256",
          "name": "competitionId",
          "type": "uint256"
        }
      ],
      "name": "newCompetition",
      "outputs": [],
      "stateMutability": "nonpayable",
      "type": "function"
    },
    {
      "inputs": [
        {
          "internalType": "uint256",
          "name": "gameId",
          "type": "uint256"
        },
        {
          "internalType": "uint256",
          "name": "competitionId",
          "type": "uint256"
        },
        {
          "internalType": "uint256",
          "name": "start",
          "type": "uint256"
        }
      ],
      "name": "newGame",
      "outputs": [],
      "stateMutability": "nonpayable",
      "type": "function"
    },
    {
      "inputs": [
        {
          "internalType": "uint256",
          "name": "gameId",
          "type": "uint256"
        },
        {
          "internalType": "uint256",
          "name": "outcome",
          "type": "uint256"
        }
      ],
      "name": "bet",
      "outputs": [],
      "stateMutability": "payable",
      "type": "function"
    },
    {
      "inputs": [
        {
          "internalType": "uint256",
          "name": "gameId",
          "type": "uint256"
        }
      ],
      "name": "setGameToStarted",
      "outputs": [],
      "stateMutability": "nonpayable",
      "type": "function"
    },
    {
      "inputs": [
        {
          "internalType": "uint256",
          "name": "gameId",
          "type": "uint256"
        },
        {
          "internalType": "uint256",
          "name": "team1Score",
          "type": "uint256"
        },
        {
          "internalType": "uint256",
          "name": "team2Score",
          "type": "uint256"
        }
      ],
      "name": "settleGame",
      "outputs": [],
      "stateMutability": "nonpayable",
      "type": "function"
    },
    {
      "inputs": [
        {
          "internalType": "uint256",
          "name": "gameId",
          "type": "uint256"
        }
      ],
      "name": "claimProfits",
      "outputs": [],
      "stateMutability": "payable",
      "type": "function"
    },
    {
      "inputs": [
        {
          "internalType": "uint256",
          "name": "gameId",
          "type": "uint256"
        }
      ],
      "name": "getUserProfits",
      "outputs": [
        {
          "internalType": "uint256",
          "name": "profits",
          "type": "uint256"
        }
      ],
      "stateMutability": "view",
      "type": "function"
    }
  ],
  "bytecode": "0x608060405234801561001057600080fd5b50336000806101000a81548173ffffffffffffffffffffffffffffffffffffffff021916908373ffffffffffffffffffffffffffffffffffffffff160217905550336000806101000a81548173ffffffffffffffffffffffffffffffffffffffff021916908373ffffffffffffffffffffffffffffffffffffffff160217905550611f05806100a06000396000f3fe6080604052600436106100a75760003560e01c806398d079a71161006457806398d079a7146101bf5780639d6aaa7d146101e85780639f6c0ce314610225578063a2f77bcc14610250578063c0c090bc1461028d578063da839c97146102b6576100a7565b806309ea407d146100ac5780631ccf6955146100e957806330852db8146101265780636579642b1461014f5780636ffcc719146101785780638da5cb5b14610194575b600080fd5b3480156100b857600080fd5b506100d360048036038101906100ce919061162d565b6102d2565b6040516100e09190611c16565b60405180910390f35b3480156100f557600080fd5b50610110600480360381019061010b919061162d565b6104cd565b60405161011d9190611ad2565b60405180910390f35b34801561013257600080fd5b5061014d60048036038101906101489190611692565b61060e565b005b34801561015b57600080fd5b506101766004803603810190610171919061162d565b61085e565b005b610192600480360381019061018d9190611656565b6108e8565b005b3480156101a057600080fd5b506101a9610b91565b6040516101b69190611ab7565b60405180910390f35b3480156101cb57600080fd5b506101e660048036038101906101e1919061162d565b610bb5565b005b3480156101f457600080fd5b5061020f600480360381019061020a919061162d565b610c70565b60405161021c9190611af4565b60405180910390f35b34801561023157600080fd5b5061023a610cdb565b6040516102479190611af4565b60405180910390f35b34801561025c57600080fd5b506102776004803603810190610272919061162d565b610d33565b6040516102849190611bfa565b60405180910390f35b34801561029957600080fd5b506102b460048036038101906102af9190611692565b610df8565b005b6102d060048036038101906102cb919061162d565b6110d8565b005b6000816004600082815260200190815260200160002060070160029054906101000a900460ff16610338576040517f08c379a000000000000000000000000000000000000000000000000000000000815260040161032f90611b91565b60405180910390fd5b82600115156004600083815260200190815260200160002060070160009054906101000a900460ff161515146103a3576040517f08c379a000000000000000000000000000000000000000000000000000000000815260040161039a90611b31565b60405180910390fd5b60006004600086815260200190815260200160002060405180610140016040529081600082015481526020016001820154815260200160028201548152602001600382015481526020016004820154815260200160058201548152602001600682015481526020016007820160009054906101000a900460ff161515151581526020016007820160019054906101000a900460ff161515151581526020016007820160029054906101000a900460ff1615151515815250509050600560003373ffffffffffffffffffffffffffffffffffffffff1673ffffffffffffffffffffffffffffffffffffffff1681526020019081526020016000206000868152602001908152602001600020600082608001518152602001908152602001600020549350505050919050565b6060816004600082815260200190815260200160002060070160029054906101000a900460ff16610533576040517f08c379a000000000000000000000000000000000000000000000000000000000815260040161052a90611b91565b60405180910390fd5b60036000848152602001908152602001600020805480602002602001604051908101604052809291908181526020016000905b8282101561060257838290600052602060002090600302016040518060600160405290816000820160009054906101000a900473ffffffffffffffffffffffffffffffffffffffff1673ffffffffffffffffffffffffffffffffffffffff1673ffffffffffffffffffffffffffffffffffffffff1681526020016001820154815260200160028201548152505081526020019060010190610566565b50505050915050919050565b826004600082815260200190815260200160002060070160029054906101000a900460ff1615610673576040517f08c379a000000000000000000000000000000000000000000000000000000000815260040161066a90611b71565b60405180910390fd5b60008054906101000a900473ffffffffffffffffffffffffffffffffffffffff1673ffffffffffffffffffffffffffffffffffffffff163373ffffffffffffffffffffffffffffffffffffffff16146106cb57600080fd5b600060405180610140016040528086815260200184815260200160008152602001600081526020016000815260200160008152602001600081526020016000151581526020016000151581526020016001151581525090508060046000878152602001908152602001600020600082015181600001556020820151816001015560408201518160020155606082015181600301556080820151816004015560a0820151816005015560c0820151816006015560e08201518160070160006101000a81548160ff0219169083151502179055506101008201518160070160016101000a81548160ff0219169083151502179055506101208201518160070160026101000a81548160ff02191690831515021790555090505060026000858152602001908152602001600020816000015190806001815401808255809150506001900390600052602060002001600090919091909150557f57e59bf1623ed8daab69247f6aab2e3f69b7633c0a042b5b88b3b3bb13518dd48160405161084f9190611bfa565b60405180910390a15050505050565b60008054906101000a900473ffffffffffffffffffffffffffffffffffffffff1673ffffffffffffffffffffffffffffffffffffffff163373ffffffffffffffffffffffffffffffffffffffff16146108b657600080fd5b60016004600083815260200190815260200160002060070160016101000a81548160ff02191690831515021790555050565b816004600082815260200190815260200160002060070160029054906101000a900460ff1661094c576040517f08c379a000000000000000000000000000000000000000000000000000000000815260040161094390611b91565b60405180910390fd5b816000811015801561095f575060028111155b61099e576040517f08c379a000000000000000000000000000000000000000000000000000000000815260040161099590611b51565b60405180910390fd5b83600015156004600083815260200190815260200160002060070160019054906101000a900460ff16151514610a09576040517f08c379a0000000000000000000000000000000000000000000000000000000008152600401610a0090611bb1565b60405180910390fd5b600060405180606001604052803373ffffffffffffffffffffffffffffffffffffffff1681526020013481526020018681525090506003600087815260200190815260200160002081908060018154018082558091505060019003906000526020600020906003020160009091909190915060008201518160000160006101000a81548173ffffffffffffffffffffffffffffffffffffffff021916908373ffffffffffffffffffffffffffffffffffffffff1602179055506020820151816001015560408201518160020155505034600560003373ffffffffffffffffffffffffffffffffffffffff1673ffffffffffffffffffffffffffffffffffffffff168152602001908152602001600020600088815260200190815260200160002060008781526020019081526020016000206000828254610b499190611cb4565b925050819055507f49497e006b29902259c7a439a9fa5011c00afe0e0aa37e810333db207adcefb08187604051610b81929190611bd1565b60405180910390a1505050505050565b60008054906101000a900473ffffffffffffffffffffffffffffffffffffffff1681565b60008054906101000a900473ffffffffffffffffffffffffffffffffffffffff1673ffffffffffffffffffffffffffffffffffffffff163373ffffffffffffffffffffffffffffffffffffffff1614610c0d57600080fd5b60018190806001815401808255809150506001900390600052602060002001600090919091909150557f9edc9bae9b3983d36dfb38fff741c45440f54213c4782f68a10a50cc5d753c7c81604051610c659190611c16565b60405180910390a150565b606060026000838152602001908152602001600020805480602002602001604051908101604052809291908181526020018280548015610ccf57602002820191906000526020600020905b815481526020019060010190808311610cbb575b50505050509050919050565b60606001805480602002602001604051908101604052809291908181526020018280548015610d2957602002820191906000526020600020905b815481526020019060010190808311610d15575b5050505050905090565b610d3b6115bf565b6004600083815260200190815260200160002060405180610140016040529081600082015481526020016001820154815260200160028201548152602001600382015481526020016004820154815260200160058201548152602001600682015481526020016007820160009054906101000a900460ff161515151581526020016007820160019054906101000a900460ff161515151581526020016007820160029054906101000a900460ff1615151515815250509050919050565b826004600082815260200190815260200160002060070160029054906101000a900460ff16610e5c576040517f08c379a0000000000000000000000000000000000000000000000000000000008152600401610e5390611b91565b60405180910390fd5b60008054906101000a900473ffffffffffffffffffffffffffffffffffffffff1673ffffffffffffffffffffffffffffffffffffffff163373ffffffffffffffffffffffffffffffffffffffff1614610eb457600080fd5b6000806000610ec2876112e1565b92509250925060006004600089815260200190815260200160002060405180610140016040529081600082015481526020016001820154815260200160028201548152602001600382015481526020016004820154815260200160058201548152602001600682015481526020016007820160009054906101000a900460ff161515151581526020016007820160019054906101000a900460ff161515151581526020016007820160029054906101000a900460ff1615151515815250509050868160400181815250508581606001818152505060018160e001901515908115158152505060018161010001901515908115158152505081816080018181525050828160c0018181525050838160a001818152505080600460008a8152602001908152602001600020600082015181600001556020820151816001015560408201518160020155606082015181600301556080820151816004015560a0820151816005015560c0820151816006015560e08201518160070160006101000a81548160ff0219169083151502179055506101008201518160070160016101000a81548160ff0219169083151502179055506101208201518160070160026101000a81548160ff0219169083151502179055509050507fdf7a1dfb51dd87859a6f44cf9bddb076effbccd933619eec97e64a79fd94d32460016040516110c69190611b16565b60405180910390a15050505050505050565b806004600082815260200190815260200160002060070160029054906101000a900460ff1661113c576040517f08c379a000000000000000000000000000000000000000000000000000000000815260040161113390611b91565b60405180910390fd5b60006004600084815260200190815260200160002060405180610140016040529081600082015481526020016001820154815260200160028201548152602001600382015481526020016004820154815260200160058201548152602001600682015481526020016007820160009054906101000a900460ff161515151581526020016007820160019054906101000a900460ff161515151581526020016007820160029054906101000a900460ff16151515158152505090503373ffffffffffffffffffffffffffffffffffffffff166108fc6404a817c8008360a001516064600560003373ffffffffffffffffffffffffffffffffffffffff1673ffffffffffffffffffffffffffffffffffffffff16815260200190815260200160002060008981526020019081526020016000206000876080015181526020019081526020016000205461128d9190611d3b565b6112979190611d0a565b8460c001516112a69190611d3b565b6112b09190611d95565b9081150290604051600060405180830381858888f193505050501580156112db573d6000803e3d6000fd5b50505050565b60008060006112ef8461146b565b905060005b6003600086815260200190815260200160002080549050811015611463578160036000878152602001908152602001600020828154811061135e577f4e487b7100000000000000000000000000000000000000000000000000000000600052603260045260246000fd5b90600052602060002090600302016002015414156113e5576003600086815260200190815260200160002081815481106113c1577f4e487b7100000000000000000000000000000000000000000000000000000000600052603260045260246000fd5b906000526020600020906003020160010154846113de9190611cb4565b9350611450565b600360008681526020019081526020016000208181548110611430577f4e487b7100000000000000000000000000000000000000000000000000000000600052603260045260246000fd5b9060005260206000209060030201600101548361144d9190611cb4565b92505b808061145b90611e11565b9150506112f4565b509193909250565b60008060009054906101000a900473ffffffffffffffffffffffffffffffffffffffff1673ffffffffffffffffffffffffffffffffffffffff163373ffffffffffffffffffffffffffffffffffffffff16146114c657600080fd5b60006004600084815260200190815260200160002060405180610140016040529081600082015481526020016001820154815260200160028201548152602001600382015481526020016004820154815260200160058201548152602001600682015481526020016007820160009054906101000a900460ff161515151581526020016007820160019054906101000a900460ff161515151581526020016007820160029054906101000a900460ff161515151581525050905080606001518160400151111561159a5760019150506115ba565b8060400151816060015111156115b45760029150506115ba565b60009150505b919050565b604051806101400160405280600081526020016000815260200160008152602001600081526020016000815260200160008152602001600081526020016000151581526020016000151581526020016000151581525090565b60008135905061162781611eb8565b92915050565b60006020828403121561163f57600080fd5b600061164d84828501611618565b91505092915050565b6000806040838503121561166957600080fd5b600061167785828601611618565b925050602061168885828601611618565b9150509250929050565b6000806000606084860312156116a757600080fd5b60006116b586828701611618565b93505060206116c686828701611618565b92505060406116d786828701611618565b9150509250925092565b60006116ed8383611949565b60608301905092915050565b60006117058383611a99565b60208301905092915050565b61171a81611dc9565b82525050565b61172981611dc9565b82525050565b600061173a82611c51565b6117448185611c81565b935061174f83611c31565b8060005b8381101561178057815161176788826116e1565b975061177283611c67565b925050600181019050611753565b5085935050505092915050565b600061179882611c5c565b6117a28185611c92565b93506117ad83611c41565b8060005b838110156117de5781516117c588826116f9565b97506117d083611c74565b9250506001810190506117b1565b5085935050505092915050565b6117f481611ddb565b82525050565b61180381611ddb565b82525050565b6000611816601483611ca3565b91507f67616d65206d757374206861766520656e6465640000000000000000000000006000830152602082019050919050565b6000611856601283611ca3565b91507f4f7574636f6d6520697320696e76616c696400000000000000000000000000006000830152602082019050919050565b6000611896601483611ca3565b91507f47616d6520616c657265616479206578697374730000000000000000000000006000830152602082019050919050565b60006118d6601483611ca3565b91507f47616d6520646f6573206e6f74206578697374730000000000000000000000006000830152602082019050919050565b6000611916601883611ca3565b91507f67616d652068617320616c7265616479207374617274656400000000000000006000830152602082019050919050565b60608201600082015161195f6000850182611711565b5060208201516119726020850182611a99565b5060408201516119856040850182611a99565b50505050565b6060820160008201516119a16000850182611711565b5060208201516119b46020850182611a99565b5060408201516119c76040850182611a99565b50505050565b610140820160008201516119e46000850182611a99565b5060208201516119f76020850182611a99565b506040820151611a0a6040850182611a99565b506060820151611a1d6060850182611a99565b506080820151611a306080850182611a99565b5060a0820151611a4360a0850182611a99565b5060c0820151611a5660c0850182611a99565b5060e0820151611a6960e08501826117eb565b50610100820151611a7e6101008501826117eb565b50610120820151611a936101208501826117eb565b50505050565b611aa281611e07565b82525050565b611ab181611e07565b82525050565b6000602082019050611acc6000830184611720565b92915050565b60006020820190508181036000830152611aec818461172f565b905092915050565b60006020820190508181036000830152611b0e818461178d565b905092915050565b6000602082019050611b2b60008301846117fa565b92915050565b60006020820190508181036000830152611b4a81611809565b9050919050565b60006020820190508181036000830152611b6a81611849565b9050919050565b60006020820190508181036000830152611b8a81611889565b9050919050565b60006020820190508181036000830152611baa816118c9565b9050919050565b60006020820190508181036000830152611bca81611909565b9050919050565b6000608082019050611be6600083018561198b565b611bf36060830184611aa8565b9392505050565b600061014082019050611c1060008301846119cd565b92915050565b6000602082019050611c2b6000830184611aa8565b92915050565b6000819050602082019050919050565b6000819050602082019050919050565b600081519050919050565b600081519050919050565b6000602082019050919050565b6000602082019050919050565b600082825260208201905092915050565b600082825260208201905092915050565b600082825260208201905092915050565b6000611cbf82611e07565b9150611cca83611e07565b9250827fffffffffffffffffffffffffffffffffffffffffffffffffffffffffffffffff03821115611cff57611cfe611e5a565b5b828201905092915050565b6000611d1582611e07565b9150611d2083611e07565b925082611d3057611d2f611e89565b5b828204905092915050565b6000611d4682611e07565b9150611d5183611e07565b9250817fffffffffffffffffffffffffffffffffffffffffffffffffffffffffffffffff0483118215151615611d8a57611d89611e5a565b5b828202905092915050565b6000611da082611e07565b9150611dab83611e07565b925082821015611dbe57611dbd611e5a565b5b828203905092915050565b6000611dd482611de7565b9050919050565b60008115159050919050565b600073ffffffffffffffffffffffffffffffffffffffff82169050919050565b6000819050919050565b6000611e1c82611e07565b91507fffffffffffffffffffffffffffffffffffffffffffffffffffffffffffffffff821415611e4f57611e4e611e5a565b5b600182019050919050565b7f4e487b7100000000000000000000000000000000000000000000000000000000600052601160045260246000fd5b7f4e487b7100000000000000000000000000000000000000000000000000000000600052601260045260246000fd5b611ec181611e07565b8114611ecc57600080fd5b5056fea264697066735822122040e7a4ed6490bbce2ac37d7013c5fddbdf3d8da38aaf120d4babe534a26f06ec64736f6c63430008000033",
  "immutableReferences": {},
  "source": "// SPDX-License-Identifier: UNLICENSED\npragma solidity ^0.8.0;\n\nimport \"./Owner.sol\";\nimport \"./isCommon.sol\";\n\ncontract BettingContract is Owner, isCommon {\n    constructor() {\n        owner = msg.sender;\n    }\n\n    function getGame(uint256 gameId) external view returns (Game memory game) {\n        return GameIdToGame[gameId];\n    }\n\n    function getCompetitions() external view returns (uint256[] memory) {\n        return competitions;\n    }\n\n    function getGames(uint256 competitionId)\n        external\n        view\n        returns (uint256[] memory games)\n    {\n        return CompetitionIdToGamesIds[competitionId];\n    }\n\n    function getBets(uint256 gameId)\n        external\n        view\n        gameExists(gameId)\n        returns (Bet[] memory bets)\n    {\n        return GameIdToBets[gameId];\n    }\n\n    function newCompetition(uint256 competitionId) external isOwner() {\n        competitions.push(competitionId);\n        emit NewCompetition(competitionId);\n    }\n\n    function newGame(\n        uint256 gameId,\n        uint256 competitionId,\n        uint256 start\n    ) external gameDoesNotExists(gameId) isOwner() {\n        Game memory _game = Game(\n            gameId,\n            start,\n            0,\n            0,\n            0,\n            0,\n            0,\n            false,\n            false,\n            true\n        );\n        GameIdToGame[gameId] = _game;\n        CompetitionIdToGamesIds[competitionId].push(_game.id);\n        emit NewGame(_game);\n    }\n\n    function bet(uint256 gameId, uint256 outcome)\n        external\n        payable\n        gameExists(gameId)\n        betOutcomeIsValid(outcome)\n        checkGameState(gameId)\n    {\n        Bet memory newBet = Bet(msg.sender, msg.value, outcome);\n        GameIdToBets[gameId].push(newBet);\n        UserBetSumByGameAndOutcome[msg.sender][gameId][outcome] += msg.value;\n        emit NewBet(newBet, gameId);\n    }\n\n    function setGameToStarted(uint256 gameId) external isOwner() {\n        GameIdToGame[gameId].started = true;\n    }\n\n    function settleGame(\n        uint256 gameId,\n        uint256 team1Score,\n        uint256 team2Score\n    ) external gameExists(gameId) isOwner() {\n        (\n            uint256 _winnerBetsSum,\n            uint256 _loserBetsSum,\n            uint256 _winner\n        ) = getSettlementData(gameId);\n        Game memory _game = GameIdToGame[gameId];\n        _game.team1Score = team1Score;\n        _game.team2Score = team2Score;\n        _game.ended = true;\n        _game.started = true;\n        _game.winner = _winner;\n        _game.loserBetsSum = _loserBetsSum;\n        _game.winnerBetsSum = _winnerBetsSum;\n        GameIdToGame[gameId] = _game;\n        emit GameEnded(true);\n    }\n\n    function claimProfits(uint256 gameId) external payable gameExists(gameId) {\n        Game memory _game = GameIdToGame[gameId];\n        payable(msg.sender).transfer(\n            (_game.loserBetsSum *\n                ((UserBetSumByGameAndOutcome[msg.sender][gameId][_game.winner] *\n                    100) / _game.winnerBetsSum)) - 20000000000 wei\n        );\n    }\n\n    function getUserProfits(uint256 gameId)\n        external\n        view\n        gameExists(gameId)\n        gameEnded(gameId)\n        returns (uint256 profits)\n    {\n        Game memory _game = GameIdToGame[gameId];\n        return UserBetSumByGameAndOutcome[msg.sender][gameId][_game.winner];\n    }\n\n    function getWinner(uint256 gameId)\n        private\n        view\n        isOwner()\n        returns (uint256)\n    {\n        Game memory _game = GameIdToGame[gameId];\n        if (_game.team1Score > _game.team2Score) {\n            return 1;\n        } else if (_game.team2Score > _game.team1Score) {\n            return 2;\n        } else {\n            return 0;\n        }\n    }\n\n    function getSettlementData(uint256 gameId)\n        private\n        view\n        returns (\n            uint256 _winnerBetsSum,\n            uint256 _loserBetsSum,\n            uint256 _winner\n        )\n    {\n        _winner = getWinner(gameId);\n        for (uint256 i = 0; i < GameIdToBets[gameId].length; i++) {\n            if (GameIdToBets[gameId][i].outcome == _winner) {\n                _winnerBetsSum += GameIdToBets[gameId][i].amount;\n            } else {\n                _loserBetsSum += GameIdToBets[gameId][i].amount;\n            }\n        }\n\n        return (_winnerBetsSum, _loserBetsSum, _winner);\n    }\n}\n",
  "sourcePath": "/home/kstwa/Documents/SportsOnTheBlock/contracts/BettingContract.sol",
  "compiler": {
    "name": "solc",
    "version": "0.8.0+commit.c7dfd78e.Emscripten.clang"
  },
  "schemaVersion": "3.4.1",
  "updatedAt": "2021-07-12T09:42:41.319Z",
  "devdoc": {
    "kind": "dev",
    "methods": {},
    "version": 1
  },
  "userdoc": {
    "kind": "user",
    "methods": {},
    "version": 1
  }
}