{
  "contractName": "BettingContract",
  "abi": [
    {
      "inputs": [],
      "stateMutability": "nonpayable",
      "type": "constructor"
    },
    {
      "anonymous": false,
      "inputs": [
        {
          "indexed": false,
          "internalType": "bool",
          "name": "",
          "type": "bool"
        }
      ],
      "name": "GameEnded",
      "type": "event"
    },
    {
      "anonymous": false,
      "inputs": [
        {
          "indexed": false,
          "internalType": "bool",
          "name": "",
          "type": "bool"
        }
      ],
      "name": "GameStarted",
      "type": "event"
    },
    {
      "anonymous": false,
      "inputs": [
        {
          "components": [
            {
              "internalType": "address",
              "name": "user",
              "type": "address"
            },
            {
              "internalType": "uint256",
              "name": "amount",
              "type": "uint256"
            },
            {
              "internalType": "uint256",
              "name": "outcome",
              "type": "uint256"
            }
          ],
          "indexed": false,
          "internalType": "struct isCommon.Bet",
          "name": "",
          "type": "tuple"
        },
        {
          "indexed": false,
          "internalType": "uint256",
          "name": "",
          "type": "uint256"
        }
      ],
      "name": "NewBet",
      "type": "event"
    },
    {
      "anonymous": false,
      "inputs": [
        {
          "indexed": false,
          "internalType": "uint256",
          "name": "",
          "type": "uint256"
        }
      ],
      "name": "NewCompetition",
      "type": "event"
    },
    {
      "anonymous": false,
      "inputs": [
        {
          "components": [
            {
              "internalType": "uint256",
              "name": "id",
              "type": "uint256"
            },
            {
              "internalType": "uint256",
              "name": "start",
              "type": "uint256"
            },
            {
              "internalType": "uint256",
              "name": "team1Score",
              "type": "uint256"
            },
            {
              "internalType": "uint256",
              "name": "team2Score",
              "type": "uint256"
            },
            {
              "internalType": "uint256",
              "name": "winner",
              "type": "uint256"
            },
            {
              "internalType": "uint256",
              "name": "winnerBetsSum",
              "type": "uint256"
            },
            {
              "internalType": "uint256",
              "name": "loserBetsSum",
              "type": "uint256"
            },
            {
              "internalType": "bool",
              "name": "ended",
              "type": "bool"
            },
            {
              "internalType": "bool",
              "name": "started",
              "type": "bool"
            },
            {
              "internalType": "bool",
              "name": "exists",
              "type": "bool"
            }
          ],
          "indexed": false,
          "internalType": "struct isCommon.Game",
          "name": "",
          "type": "tuple"
        }
      ],
      "name": "NewGame",
      "type": "event"
    },
    {
      "inputs": [],
      "name": "owner",
      "outputs": [
        {
          "internalType": "address",
          "name": "",
          "type": "address"
        }
      ],
      "stateMutability": "view",
      "type": "function"
    },
    {
      "inputs": [
        {
          "internalType": "uint256",
          "name": "gameId",
          "type": "uint256"
        }
      ],
      "name": "getGame",
      "outputs": [
        {
          "components": [
            {
              "internalType": "uint256",
              "name": "id",
              "type": "uint256"
            },
            {
              "internalType": "uint256",
              "name": "start",
              "type": "uint256"
            },
            {
              "internalType": "uint256",
              "name": "team1Score",
              "type": "uint256"
            },
            {
              "internalType": "uint256",
              "name": "team2Score",
              "type": "uint256"
            },
            {
              "internalType": "uint256",
              "name": "winner",
              "type": "uint256"
            },
            {
              "internalType": "uint256",
              "name": "winnerBetsSum",
              "type": "uint256"
            },
            {
              "internalType": "uint256",
              "name": "loserBetsSum",
              "type": "uint256"
            },
            {
              "internalType": "bool",
              "name": "ended",
              "type": "bool"
            },
            {
              "internalType": "bool",
              "name": "started",
              "type": "bool"
            },
            {
              "internalType": "bool",
              "name": "exists",
              "type": "bool"
            }
          ],
          "internalType": "struct isCommon.Game",
          "name": "game",
          "type": "tuple"
        }
      ],
      "stateMutability": "view",
      "type": "function"
    },
    {
      "inputs": [],
      "name": "getCompetitions",
      "outputs": [
        {
          "internalType": "uint256[]",
          "name": "",
          "type": "uint256[]"
        }
      ],
      "stateMutability": "view",
      "type": "function"
    },
    {
      "inputs": [
        {
          "internalType": "uint256",
          "name": "competitionId",
          "type": "uint256"
        }
      ],
      "name": "getGames",
      "outputs": [
        {
          "internalType": "uint256[]",
          "name": "games",
          "type": "uint256[]"
        }
      ],
      "stateMutability": "view",
      "type": "function"
    },
    {
      "inputs": [
        {
          "internalType": "uint256",
          "name": "gameId",
          "type": "uint256"
        }
      ],
      "name": "getBets",
      "outputs": [
        {
          "components": [
            {
              "internalType": "address",
              "name": "user",
              "type": "address"
            },
            {
              "internalType": "uint256",
              "name": "amount",
              "type": "uint256"
            },
            {
              "internalType": "uint256",
              "name": "outcome",
              "type": "uint256"
            }
          ],
          "internalType": "struct isCommon.Bet[]",
          "name": "bets",
          "type": "tuple[]"
        }
      ],
      "stateMutability": "view",
      "type": "function"
    },
    {
      "inputs": [
        {
          "internalType": "uint256",
          "name": "competitionId",
          "type": "uint256"
        }
      ],
      "name": "newCompetition",
      "outputs": [],
      "stateMutability": "nonpayable",
      "type": "function"
    },
    {
      "inputs": [
        {
          "internalType": "uint256",
          "name": "gameId",
          "type": "uint256"
        },
        {
          "internalType": "uint256",
          "name": "competitionId",
          "type": "uint256"
        },
        {
          "internalType": "uint256",
          "name": "start",
          "type": "uint256"
        }
      ],
      "name": "newGame",
      "outputs": [],
      "stateMutability": "nonpayable",
      "type": "function"
    },
    {
      "inputs": [
        {
          "internalType": "uint256",
          "name": "gameId",
          "type": "uint256"
        },
        {
          "internalType": "uint256",
          "name": "outcome",
          "type": "uint256"
        }
      ],
      "name": "bet",
      "outputs": [],
      "stateMutability": "payable",
      "type": "function"
    },
    {
      "inputs": [
        {
          "internalType": "uint256",
          "name": "gameId",
          "type": "uint256"
        }
      ],
      "name": "setGameToStarted",
      "outputs": [],
      "stateMutability": "nonpayable",
      "type": "function"
    },
    {
      "inputs": [
        {
          "internalType": "uint256",
          "name": "gameId",
          "type": "uint256"
        },
        {
          "internalType": "uint256",
          "name": "team1Score",
          "type": "uint256"
        },
        {
          "internalType": "uint256",
          "name": "team2Score",
          "type": "uint256"
        }
      ],
      "name": "settleGame",
      "outputs": [],
      "stateMutability": "nonpayable",
      "type": "function"
    },
    {
      "inputs": [
        {
          "internalType": "uint256",
          "name": "gameId",
          "type": "uint256"
        }
      ],
      "name": "claimProfits",
      "outputs": [],
      "stateMutability": "payable",
      "type": "function"
    },
    {
      "inputs": [
        {
          "internalType": "uint256",
          "name": "gameId",
          "type": "uint256"
        }
      ],
      "name": "getUserInitialBetSum",
      "outputs": [
        {
          "internalType": "uint256",
          "name": "profits",
          "type": "uint256"
        }
      ],
      "stateMutability": "view",
      "type": "function"
    }
  ],
  "bytecode": "0x608060405234801561001057600080fd5b50336000806101000a81548173ffffffffffffffffffffffffffffffffffffffff021916908373ffffffffffffffffffffffffffffffffffffffff160217905550336000806101000a81548173ffffffffffffffffffffffffffffffffffffffff021916908373ffffffffffffffffffffffffffffffffffffffff160217905550612055806100a06000396000f3fe6080604052600436106100a75760003560e01c806398d079a71161006457806398d079a7146101bf5780639d6aaa7d146101e85780639f6c0ce314610225578063a2f77bcc14610250578063c0c090bc1461028d578063da839c97146102b6576100a7565b80631ccf6955146100ac57806330852db8146100e95780636579642b146101125780636ffcc7191461013b57806386815fa9146101575780638da5cb5b14610194575b600080fd5b3480156100b857600080fd5b506100d360048036038101906100ce9190611717565b6102d2565b6040516100e09190611c2b565b60405180910390f35b3480156100f557600080fd5b50610110600480360381019061010b919061177c565b610413565b005b34801561011e57600080fd5b5061013960048036038101906101349190611717565b610663565b005b61015560048036038101906101509190611740565b6106ed565b005b34801561016357600080fd5b5061017e60048036038101906101799190611717565b610996565b60405161018b9190611d8f565b60405180910390f35b3480156101a057600080fd5b506101a9610b91565b6040516101b69190611c10565b60405180910390f35b3480156101cb57600080fd5b506101e660048036038101906101e19190611717565b610bb5565b005b3480156101f457600080fd5b5061020f600480360381019061020a9190611717565b610c70565b60405161021c9190611c4d565b60405180910390f35b34801561023157600080fd5b5061023a610cdb565b6040516102479190611c4d565b60405180910390f35b34801561025c57600080fd5b5061027760048036038101906102729190611717565b610d33565b6040516102849190611d73565b60405180910390f35b34801561029957600080fd5b506102b460048036038101906102af919061177c565b610df8565b005b6102d060048036038101906102cb9190611717565b6110d8565b005b6060816004600082815260200190815260200160002060070160029054906101000a900460ff16610338576040517f08c379a000000000000000000000000000000000000000000000000000000000815260040161032f90611d0a565b60405180910390fd5b60036000848152602001908152602001600020805480602002602001604051908101604052809291908181526020016000905b8282101561040757838290600052602060002090600302016040518060600160405290816000820160009054906101000a900473ffffffffffffffffffffffffffffffffffffffff1673ffffffffffffffffffffffffffffffffffffffff1673ffffffffffffffffffffffffffffffffffffffff168152602001600182015481526020016002820154815250508152602001906001019061036b565b50505050915050919050565b826004600082815260200190815260200160002060070160029054906101000a900460ff1615610478576040517f08c379a000000000000000000000000000000000000000000000000000000000815260040161046f90611cea565b60405180910390fd5b60008054906101000a900473ffffffffffffffffffffffffffffffffffffffff1673ffffffffffffffffffffffffffffffffffffffff163373ffffffffffffffffffffffffffffffffffffffff16146104d057600080fd5b600060405180610140016040528086815260200184815260200160008152602001600081526020016000815260200160008152602001600081526020016000151581526020016000151581526020016001151581525090508060046000878152602001908152602001600020600082015181600001556020820151816001015560408201518160020155606082015181600301556080820151816004015560a0820151816005015560c0820151816006015560e08201518160070160006101000a81548160ff0219169083151502179055506101008201518160070160016101000a81548160ff0219169083151502179055506101208201518160070160026101000a81548160ff02191690831515021790555090505060026000858152602001908152602001600020816000015190806001815401808255809150506001900390600052602060002001600090919091909150557f57e59bf1623ed8daab69247f6aab2e3f69b7633c0a042b5b88b3b3bb13518dd4816040516106549190611d73565b60405180910390a15050505050565b60008054906101000a900473ffffffffffffffffffffffffffffffffffffffff1673ffffffffffffffffffffffffffffffffffffffff163373ffffffffffffffffffffffffffffffffffffffff16146106bb57600080fd5b60016004600083815260200190815260200160002060070160016101000a81548160ff02191690831515021790555050565b816004600082815260200190815260200160002060070160029054906101000a900460ff16610751576040517f08c379a000000000000000000000000000000000000000000000000000000000815260040161074890611d0a565b60405180910390fd5b8160008110158015610764575060028111155b6107a3576040517f08c379a000000000000000000000000000000000000000000000000000000000815260040161079a90611cca565b60405180910390fd5b83600015156004600083815260200190815260200160002060070160019054906101000a900460ff1615151461080e576040517f08c379a000000000000000000000000000000000000000000000000000000000815260040161080590611d2a565b60405180910390fd5b600060405180606001604052803373ffffffffffffffffffffffffffffffffffffffff1681526020013481526020018681525090506003600087815260200190815260200160002081908060018154018082558091505060019003906000526020600020906003020160009091909190915060008201518160000160006101000a81548173ffffffffffffffffffffffffffffffffffffffff021916908373ffffffffffffffffffffffffffffffffffffffff1602179055506020820151816001015560408201518160020155505034600560003373ffffffffffffffffffffffffffffffffffffffff1673ffffffffffffffffffffffffffffffffffffffff16815260200190815260200160002060008881526020019081526020016000206000878152602001908152602001600020600082825461094e9190611e38565b925050819055507f49497e006b29902259c7a439a9fa5011c00afe0e0aa37e810333db207adcefb08187604051610986929190611d4a565b60405180910390a1505050505050565b6000816004600082815260200190815260200160002060070160029054906101000a900460ff166109fc576040517f08c379a00000000000000000000000000000000000000000000000000000000081526004016109f390611d0a565b60405180910390fd5b82600115156004600083815260200190815260200160002060070160009054906101000a900460ff16151514610a67576040517f08c379a0000000000000000000000000000000000000000000000000000000008152600401610a5e90611caa565b60405180910390fd5b60006004600086815260200190815260200160002060405180610140016040529081600082015481526020016001820154815260200160028201548152602001600382015481526020016004820154815260200160058201548152602001600682015481526020016007820160009054906101000a900460ff161515151581526020016007820160019054906101000a900460ff161515151581526020016007820160029054906101000a900460ff1615151515815250509050600560003373ffffffffffffffffffffffffffffffffffffffff1673ffffffffffffffffffffffffffffffffffffffff1681526020019081526020016000206000868152602001908152602001600020600082608001518152602001908152602001600020549350505050919050565b60008054906101000a900473ffffffffffffffffffffffffffffffffffffffff1681565b60008054906101000a900473ffffffffffffffffffffffffffffffffffffffff1673ffffffffffffffffffffffffffffffffffffffff163373ffffffffffffffffffffffffffffffffffffffff1614610c0d57600080fd5b60018190806001815401808255809150506001900390600052602060002001600090919091909150557f9edc9bae9b3983d36dfb38fff741c45440f54213c4782f68a10a50cc5d753c7c81604051610c659190611d8f565b60405180910390a150565b606060026000838152602001908152602001600020805480602002602001604051908101604052809291908181526020018280548015610ccf57602002820191906000526020600020905b815481526020019060010190808311610cbb575b50505050509050919050565b60606001805480602002602001604051908101604052809291908181526020018280548015610d2957602002820191906000526020600020905b815481526020019060010190808311610d15575b5050505050905090565b610d3b6116a9565b6004600083815260200190815260200160002060405180610140016040529081600082015481526020016001820154815260200160028201548152602001600382015481526020016004820154815260200160058201548152602001600682015481526020016007820160009054906101000a900460ff161515151581526020016007820160019054906101000a900460ff161515151581526020016007820160029054906101000a900460ff1615151515815250509050919050565b826004600082815260200190815260200160002060070160029054906101000a900460ff16610e5c576040517f08c379a0000000000000000000000000000000000000000000000000000000008152600401610e5390611d0a565b60405180910390fd5b60008054906101000a900473ffffffffffffffffffffffffffffffffffffffff1673ffffffffffffffffffffffffffffffffffffffff163373ffffffffffffffffffffffffffffffffffffffff1614610eb457600080fd5b6000806000610ec2876113cb565b92509250925060006004600089815260200190815260200160002060405180610140016040529081600082015481526020016001820154815260200160028201548152602001600382015481526020016004820154815260200160058201548152602001600682015481526020016007820160009054906101000a900460ff161515151581526020016007820160019054906101000a900460ff161515151581526020016007820160029054906101000a900460ff1615151515815250509050868160400181815250508581606001818152505060018160e001901515908115158152505060018161010001901515908115158152505081816080018181525050828160c0018181525050838160a001818152505080600460008a8152602001908152602001600020600082015181600001556020820151816001015560408201518160020155606082015181600301556080820151816004015560a0820151816005015560c0820151816006015560e08201518160070160006101000a81548160ff0219169083151502179055506101008201518160070160016101000a81548160ff0219169083151502179055506101208201518160070160026101000a81548160ff0219169083151502179055509050507fdf7a1dfb51dd87859a6f44cf9bddb076effbccd933619eec97e64a79fd94d32460016040516110c69190611c6f565b60405180910390a15050505050505050565b806004600082815260200190815260200160002060070160029054906101000a900460ff1661113c576040517f08c379a000000000000000000000000000000000000000000000000000000000815260040161113390611d0a565b60405180910390fd5b60006004600084815260200190815260200160002060405180610140016040529081600082015481526020016001820154815260200160028201548152602001600382015481526020016004820154815260200160058201548152602001600682015481526020016007820160009054906101000a900460ff161515151581526020016007820160019054906101000a900460ff161515151581526020016007820160029054906101000a900460ff16151515158152505090506000600560003373ffffffffffffffffffffffffffffffffffffffff1673ffffffffffffffffffffffffffffffffffffffff1681526020019081526020016000206000858152602001908152602001600020600083608001518152602001908152602001600020549050600060648360c001518460a0015160648561127b9190611ebf565b6112859190611e8e565b61128f9190611ebf565b6112999190611e8e565b90506000600560003373ffffffffffffffffffffffffffffffffffffffff1673ffffffffffffffffffffffffffffffffffffffff168152602001908152602001600020600087815260200190815260200160002060008560800151815260200190815260200160002081905550600082826113149190611e38565b905060003373ffffffffffffffffffffffffffffffffffffffff168260405161133c90611bfb565b60006040518083038185875af1925050503d8060008114611379576040519150601f19603f3d011682016040523d82523d6000602084013e61137e565b606091505b50509050806113c2576040517f08c379a00000000000000000000000000000000000000000000000000000000081526004016113b990611c8a565b60405180910390fd5b50505050505050565b60008060006113d984611555565b905060005b600360008681526020019081526020016000208054905081101561154d5781600360008781526020019081526020016000208281548110611448577f4e487b7100000000000000000000000000000000000000000000000000000000600052603260045260246000fd5b90600052602060002090600302016002015414156114cf576003600086815260200190815260200160002081815481106114ab577f4e487b7100000000000000000000000000000000000000000000000000000000600052603260045260246000fd5b906000526020600020906003020160010154846114c89190611e38565b935061153a565b60036000868152602001908152602001600020818154811061151a577f4e487b7100000000000000000000000000000000000000000000000000000000600052603260045260246000fd5b906000526020600020906003020160010154836115379190611e38565b92505b808061154590611f61565b9150506113de565b509193909250565b60008060009054906101000a900473ffffffffffffffffffffffffffffffffffffffff1673ffffffffffffffffffffffffffffffffffffffff163373ffffffffffffffffffffffffffffffffffffffff16146115b057600080fd5b60006004600084815260200190815260200160002060405180610140016040529081600082015481526020016001820154815260200160028201548152602001600382015481526020016004820154815260200160058201548152602001600682015481526020016007820160009054906101000a900460ff161515151581526020016007820160019054906101000a900460ff161515151581526020016007820160029054906101000a900460ff16151515158152505090508060600151816040015111156116845760019150506116a4565b80604001518160600151111561169e5760029150506116a4565b60009150505b919050565b604051806101400160405280600081526020016000815260200160008152602001600081526020016000815260200160008152602001600081526020016000151581526020016000151581526020016000151581525090565b60008135905061171181612008565b92915050565b60006020828403121561172957600080fd5b600061173784828501611702565b91505092915050565b6000806040838503121561175357600080fd5b600061176185828601611702565b925050602061177285828601611702565b9150509250929050565b60008060006060848603121561179157600080fd5b600061179f86828701611702565b93505060206117b086828701611702565b92505060406117c186828701611702565b9150509250925092565b60006117d78383611a8d565b60608301905092915050565b60006117ef8383611bdd565b60208301905092915050565b61180481611f19565b82525050565b61181381611f19565b82525050565b600061182482611dca565b61182e8185611dfa565b935061183983611daa565b8060005b8381101561186a57815161185188826117cb565b975061185c83611de0565b92505060018101905061183d565b5085935050505092915050565b600061188282611dd5565b61188c8185611e0b565b935061189783611dba565b8060005b838110156118c85781516118af88826117e3565b97506118ba83611ded565b92505060018101905061189b565b5085935050505092915050565b6118de81611f2b565b82525050565b6118ed81611f2b565b82525050565b6000611900601583611e27565b91507f6761696e73207472616e73666572206661696c656400000000000000000000006000830152602082019050919050565b6000611940601483611e27565b91507f67616d65206d757374206861766520656e6465640000000000000000000000006000830152602082019050919050565b6000611980601283611e27565b91507f4f7574636f6d6520697320696e76616c696400000000000000000000000000006000830152602082019050919050565b60006119c0601483611e27565b91507f47616d6520616c657265616479206578697374730000000000000000000000006000830152602082019050919050565b6000611a00601483611e27565b91507f47616d6520646f6573206e6f74206578697374730000000000000000000000006000830152602082019050919050565b6000611a40600083611e1c565b9150600082019050919050565b6000611a5a601883611e27565b91507f67616d652068617320616c7265616479207374617274656400000000000000006000830152602082019050919050565b606082016000820151611aa360008501826117fb565b506020820151611ab66020850182611bdd565b506040820151611ac96040850182611bdd565b50505050565b606082016000820151611ae560008501826117fb565b506020820151611af86020850182611bdd565b506040820151611b0b6040850182611bdd565b50505050565b61014082016000820151611b286000850182611bdd565b506020820151611b3b6020850182611bdd565b506040820151611b4e6040850182611bdd565b506060820151611b616060850182611bdd565b506080820151611b746080850182611bdd565b5060a0820151611b8760a0850182611bdd565b5060c0820151611b9a60c0850182611bdd565b5060e0820151611bad60e08501826118d5565b50610100820151611bc26101008501826118d5565b50610120820151611bd76101208501826118d5565b50505050565b611be681611f57565b82525050565b611bf581611f57565b82525050565b6000611c0682611a33565b9150819050919050565b6000602082019050611c25600083018461180a565b92915050565b60006020820190508181036000830152611c458184611819565b905092915050565b60006020820190508181036000830152611c678184611877565b905092915050565b6000602082019050611c8460008301846118e4565b92915050565b60006020820190508181036000830152611ca3816118f3565b9050919050565b60006020820190508181036000830152611cc381611933565b9050919050565b60006020820190508181036000830152611ce381611973565b9050919050565b60006020820190508181036000830152611d03816119b3565b9050919050565b60006020820190508181036000830152611d23816119f3565b9050919050565b60006020820190508181036000830152611d4381611a4d565b9050919050565b6000608082019050611d5f6000830185611acf565b611d6c6060830184611bec565b9392505050565b600061014082019050611d896000830184611b11565b92915050565b6000602082019050611da46000830184611bec565b92915050565b6000819050602082019050919050565b6000819050602082019050919050565b600081519050919050565b600081519050919050565b6000602082019050919050565b6000602082019050919050565b600082825260208201905092915050565b600082825260208201905092915050565b600081905092915050565b600082825260208201905092915050565b6000611e4382611f57565b9150611e4e83611f57565b9250827fffffffffffffffffffffffffffffffffffffffffffffffffffffffffffffffff03821115611e8357611e82611faa565b5b828201905092915050565b6000611e9982611f57565b9150611ea483611f57565b925082611eb457611eb3611fd9565b5b828204905092915050565b6000611eca82611f57565b9150611ed583611f57565b9250817fffffffffffffffffffffffffffffffffffffffffffffffffffffffffffffffff0483118215151615611f0e57611f0d611faa565b5b828202905092915050565b6000611f2482611f37565b9050919050565b60008115159050919050565b600073ffffffffffffffffffffffffffffffffffffffff82169050919050565b6000819050919050565b6000611f6c82611f57565b91507fffffffffffffffffffffffffffffffffffffffffffffffffffffffffffffffff821415611f9f57611f9e611faa565b5b600182019050919050565b7f4e487b7100000000000000000000000000000000000000000000000000000000600052601160045260246000fd5b7f4e487b7100000000000000000000000000000000000000000000000000000000600052601260045260246000fd5b61201181611f57565b811461201c57600080fd5b5056fea2646970667358221220a8ffd8279bc312cfc08b215c703fc25693f19a8cf98e44f898a8453af170185764736f6c63430008000033",
  "immutableReferences": {},
  "source": "// SPDX-License-Identifier: UNLICENSED\npragma solidity ^0.8.0;\n\nimport \"./Owner.sol\";\nimport \"./isCommon.sol\";\n\ncontract BettingContract is Owner, isCommon {\n    constructor() {\n        owner = msg.sender;\n    }\n\n    function getGame(uint256 gameId) external view returns (Game memory game) {\n        return GameIdToGame[gameId];\n    }\n\n    function getCompetitions() external view returns (uint256[] memory) {\n        return competitions;\n    }\n\n    function getGames(uint256 competitionId)\n        external\n        view\n        returns (uint256[] memory games)\n    {\n        return CompetitionIdToGamesIds[competitionId];\n    }\n\n    function getBets(uint256 gameId)\n        external\n        view\n        gameExists(gameId)\n        returns (Bet[] memory bets)\n    {\n        return GameIdToBets[gameId];\n    }\n\n    function newCompetition(uint256 competitionId) external isOwner() {\n        competitions.push(competitionId);\n        emit NewCompetition(competitionId);\n    }\n\n    function newGame(\n        uint256 gameId,\n        uint256 competitionId,\n        uint256 start\n    ) external gameDoesNotExists(gameId) isOwner() {\n        Game memory _game = Game(\n            gameId,\n            start,\n            0,\n            0,\n            0,\n            0,\n            0,\n            false,\n            false,\n            true\n        );\n        GameIdToGame[gameId] = _game;\n        CompetitionIdToGamesIds[competitionId].push(_game.id);\n        emit NewGame(_game);\n    }\n\n    function bet(uint256 gameId, uint256 outcome)\n        external\n        payable\n        gameExists(gameId)\n        betOutcomeIsValid(outcome)\n        checkGameState(gameId)\n    {\n        Bet memory newBet = Bet(msg.sender, msg.value, outcome);\n        GameIdToBets[gameId].push(newBet);\n        UserBetSumByGameAndOutcome[msg.sender][gameId][outcome] += msg.value;\n        emit NewBet(newBet, gameId);\n    }\n\n    function setGameToStarted(uint256 gameId) external isOwner() {\n        GameIdToGame[gameId].started = true;\n    }\n\n    function settleGame(\n        uint256 gameId,\n        uint256 team1Score,\n        uint256 team2Score\n    ) external gameExists(gameId) isOwner() {\n        (\n            uint256 _winnerBetsSum,\n            uint256 _loserBetsSum,\n            uint256 _winner\n        ) = getSettlementData(gameId);\n        Game memory _game = GameIdToGame[gameId];\n        _game.team1Score = team1Score;\n        _game.team2Score = team2Score;\n        _game.ended = true;\n        _game.started = true;\n        _game.winner = _winner;\n        _game.loserBetsSum = _loserBetsSum;\n        _game.winnerBetsSum = _winnerBetsSum;\n        GameIdToGame[gameId] = _game;\n        emit GameEnded(true);\n    }\n\n    function claimProfits(uint256 gameId) external payable gameExists(gameId) {\n        Game memory _game = GameIdToGame[gameId];\n        uint256 userInitialBetSumWei = UserBetSumByGameAndOutcome[msg.sender][gameId][_game.winner];\n        uint256 userProfitsWei = (((((userInitialBetSumWei) * 100) /\n            _game.winnerBetsSum) * _game.loserBetsSum) / 100);\n        UserBetSumByGameAndOutcome[msg.sender][gameId][_game.winner] = 0;\n        uint userGains = userProfitsWei + userInitialBetSumWei;\n        (bool success, ) = msg.sender.call{\n            value: userGains\n        }(\"\");\n        require(success, \"gains transfer failed\");\n    }\n\n    function getUserInitialBetSum(uint256 gameId)\n        external\n        view\n        gameExists(gameId)\n        gameEnded(gameId)\n        returns (uint256 profits)\n    {\n        Game memory _game = GameIdToGame[gameId];\n        return UserBetSumByGameAndOutcome[msg.sender][gameId][_game.winner];\n    }\n\n    function getWinner(uint256 gameId)\n        private\n        view\n        isOwner()\n        returns (uint256)\n    {\n        Game memory _game = GameIdToGame[gameId];\n        if (_game.team1Score > _game.team2Score) {\n            return 1;\n        } else if (_game.team2Score > _game.team1Score) {\n            return 2;\n        } else {\n            return 0;\n        }\n    }\n\n    function getSettlementData(uint256 gameId)\n        private\n        view\n        returns (\n            uint256 _winnerBetsSum,\n            uint256 _loserBetsSum,\n            uint256 _winner\n        )\n    {\n        _winner = getWinner(gameId);\n        for (uint256 i = 0; i < GameIdToBets[gameId].length; i++) {\n            if (GameIdToBets[gameId][i].outcome == _winner) {\n                _winnerBetsSum += GameIdToBets[gameId][i].amount;\n            } else {\n                _loserBetsSum += GameIdToBets[gameId][i].amount;\n            }\n        }\n\n        return (_winnerBetsSum, _loserBetsSum, _winner);\n    }\n}\n",
  "sourcePath": "/home/kstwa/Documents/SportsOnTheBlock/contracts/BettingContract.sol",
  "compiler": {
    "name": "solc",
    "version": "0.8.0+commit.c7dfd78e.Emscripten.clang"
  },
  "schemaVersion": "3.4.1",
  "updatedAt": "2021-07-15T08:58:14.760Z",
  "devdoc": {
    "kind": "dev",
    "methods": {},
    "version": 1
  },
  "userdoc": {
    "kind": "user",
    "methods": {},
    "version": 1
  }
}