{
  "contractName": "BettingContract",
  "abi": [
    {
      "inputs": [],
      "stateMutability": "nonpayable",
      "type": "constructor"
    },
    {
      "anonymous": false,
      "inputs": [
        {
          "indexed": false,
          "internalType": "bool",
          "name": "",
          "type": "bool"
        }
      ],
      "name": "GameEnded",
      "type": "event"
    },
    {
      "anonymous": false,
      "inputs": [
        {
          "indexed": false,
          "internalType": "bool",
          "name": "",
          "type": "bool"
        }
      ],
      "name": "GameStarted",
      "type": "event"
    },
    {
      "anonymous": false,
      "inputs": [
        {
          "components": [
            {
              "internalType": "address",
              "name": "user",
              "type": "address"
            },
            {
              "internalType": "uint256",
              "name": "amount",
              "type": "uint256"
            },
            {
              "internalType": "uint256",
              "name": "outcome",
              "type": "uint256"
            }
          ],
          "indexed": false,
          "internalType": "struct isCommon.Bet",
          "name": "",
          "type": "tuple"
        }
      ],
      "name": "NewBet",
      "type": "event"
    },
    {
      "anonymous": false,
      "inputs": [
        {
          "components": [
            {
              "internalType": "uint256",
              "name": "id",
              "type": "uint256"
            },
            {
              "internalType": "string",
              "name": "name",
              "type": "string"
            },
            {
              "internalType": "string",
              "name": "description",
              "type": "string"
            },
            {
              "internalType": "string",
              "name": "cover",
              "type": "string"
            },
            {
              "internalType": "bool",
              "name": "available",
              "type": "bool"
            },
            {
              "internalType": "bool",
              "name": "exists",
              "type": "bool"
            }
          ],
          "indexed": false,
          "internalType": "struct isCommon.Competition",
          "name": "",
          "type": "tuple"
        }
      ],
      "name": "NewCompetition",
      "type": "event"
    },
    {
      "anonymous": false,
      "inputs": [
        {
          "components": [
            {
              "internalType": "uint256",
              "name": "id",
              "type": "uint256"
            },
            {
              "internalType": "string",
              "name": "team1Name",
              "type": "string"
            },
            {
              "internalType": "string",
              "name": "team2Name",
              "type": "string"
            },
            {
              "internalType": "string",
              "name": "description",
              "type": "string"
            },
            {
              "internalType": "string",
              "name": "cover",
              "type": "string"
            },
            {
              "internalType": "uint256",
              "name": "start",
              "type": "uint256"
            },
            {
              "internalType": "uint256",
              "name": "team1Score",
              "type": "uint256"
            },
            {
              "internalType": "uint256",
              "name": "team2Score",
              "type": "uint256"
            },
            {
              "internalType": "uint256",
              "name": "winner",
              "type": "uint256"
            },
            {
              "internalType": "bool",
              "name": "ended",
              "type": "bool"
            },
            {
              "internalType": "bool",
              "name": "started",
              "type": "bool"
            },
            {
              "internalType": "bool",
              "name": "exists",
              "type": "bool"
            }
          ],
          "indexed": false,
          "internalType": "struct isCommon.Game",
          "name": "",
          "type": "tuple"
        }
      ],
      "name": "NewGame",
      "type": "event"
    },
    {
      "inputs": [],
      "name": "owner",
      "outputs": [
        {
          "internalType": "address",
          "name": "",
          "type": "address"
        }
      ],
      "stateMutability": "view",
      "type": "function"
    },
    {
      "inputs": [
        {
          "internalType": "uint256",
          "name": "gameId",
          "type": "uint256"
        }
      ],
      "name": "getGame",
      "outputs": [
        {
          "components": [
            {
              "internalType": "uint256",
              "name": "id",
              "type": "uint256"
            },
            {
              "internalType": "string",
              "name": "team1Name",
              "type": "string"
            },
            {
              "internalType": "string",
              "name": "team2Name",
              "type": "string"
            },
            {
              "internalType": "string",
              "name": "description",
              "type": "string"
            },
            {
              "internalType": "string",
              "name": "cover",
              "type": "string"
            },
            {
              "internalType": "uint256",
              "name": "start",
              "type": "uint256"
            },
            {
              "internalType": "uint256",
              "name": "team1Score",
              "type": "uint256"
            },
            {
              "internalType": "uint256",
              "name": "team2Score",
              "type": "uint256"
            },
            {
              "internalType": "uint256",
              "name": "winner",
              "type": "uint256"
            },
            {
              "internalType": "bool",
              "name": "ended",
              "type": "bool"
            },
            {
              "internalType": "bool",
              "name": "started",
              "type": "bool"
            },
            {
              "internalType": "bool",
              "name": "exists",
              "type": "bool"
            }
          ],
          "internalType": "struct isCommon.Game",
          "name": "game",
          "type": "tuple"
        }
      ],
      "stateMutability": "view",
      "type": "function"
    },
    {
      "inputs": [],
      "name": "getCompetitions",
      "outputs": [
        {
          "components": [
            {
              "internalType": "uint256",
              "name": "id",
              "type": "uint256"
            },
            {
              "internalType": "string",
              "name": "name",
              "type": "string"
            },
            {
              "internalType": "string",
              "name": "description",
              "type": "string"
            },
            {
              "internalType": "string",
              "name": "cover",
              "type": "string"
            },
            {
              "internalType": "bool",
              "name": "available",
              "type": "bool"
            },
            {
              "internalType": "bool",
              "name": "exists",
              "type": "bool"
            }
          ],
          "internalType": "struct isCommon.Competition[]",
          "name": "",
          "type": "tuple[]"
        }
      ],
      "stateMutability": "view",
      "type": "function"
    },
    {
      "inputs": [
        {
          "internalType": "uint256",
          "name": "competitionId",
          "type": "uint256"
        }
      ],
      "name": "getGames",
      "outputs": [
        {
          "components": [
            {
              "internalType": "uint256",
              "name": "id",
              "type": "uint256"
            },
            {
              "internalType": "string",
              "name": "team1Name",
              "type": "string"
            },
            {
              "internalType": "string",
              "name": "team2Name",
              "type": "string"
            },
            {
              "internalType": "string",
              "name": "description",
              "type": "string"
            },
            {
              "internalType": "string",
              "name": "cover",
              "type": "string"
            },
            {
              "internalType": "uint256",
              "name": "start",
              "type": "uint256"
            },
            {
              "internalType": "uint256",
              "name": "team1Score",
              "type": "uint256"
            },
            {
              "internalType": "uint256",
              "name": "team2Score",
              "type": "uint256"
            },
            {
              "internalType": "uint256",
              "name": "winner",
              "type": "uint256"
            },
            {
              "internalType": "bool",
              "name": "ended",
              "type": "bool"
            },
            {
              "internalType": "bool",
              "name": "started",
              "type": "bool"
            },
            {
              "internalType": "bool",
              "name": "exists",
              "type": "bool"
            }
          ],
          "internalType": "struct isCommon.Game[]",
          "name": "games",
          "type": "tuple[]"
        }
      ],
      "stateMutability": "view",
      "type": "function"
    },
    {
      "inputs": [
        {
          "internalType": "uint256",
          "name": "gameId",
          "type": "uint256"
        }
      ],
      "name": "getBets",
      "outputs": [
        {
          "components": [
            {
              "internalType": "address",
              "name": "user",
              "type": "address"
            },
            {
              "internalType": "uint256",
              "name": "amount",
              "type": "uint256"
            },
            {
              "internalType": "uint256",
              "name": "outcome",
              "type": "uint256"
            }
          ],
          "internalType": "struct isCommon.Bet[]",
          "name": "bets",
          "type": "tuple[]"
        }
      ],
      "stateMutability": "view",
      "type": "function"
    },
    {
      "inputs": [
        {
          "internalType": "uint256",
          "name": "gameId",
          "type": "uint256"
        },
        {
          "internalType": "uint256",
          "name": "outcome",
          "type": "uint256"
        }
      ],
      "name": "bet",
      "outputs": [],
      "stateMutability": "payable",
      "type": "function"
    },
    {
      "inputs": [
        {
          "internalType": "uint256",
          "name": "competitionId",
          "type": "uint256"
        },
        {
          "internalType": "string",
          "name": "name",
          "type": "string"
        },
        {
          "internalType": "string",
          "name": "description",
          "type": "string"
        },
        {
          "internalType": "string",
          "name": "cover",
          "type": "string"
        }
      ],
      "name": "newCompetition",
      "outputs": [],
      "stateMutability": "nonpayable",
      "type": "function"
    },
    {
      "inputs": [
        {
          "internalType": "uint256",
          "name": "gameId",
          "type": "uint256"
        },
        {
          "internalType": "uint256",
          "name": "competitionId",
          "type": "uint256"
        },
        {
          "internalType": "uint256",
          "name": "start",
          "type": "uint256"
        },
        {
          "internalType": "string",
          "name": "team1Name",
          "type": "string"
        },
        {
          "internalType": "string",
          "name": "team2Name",
          "type": "string"
        },
        {
          "internalType": "string",
          "name": "description",
          "type": "string"
        },
        {
          "internalType": "string",
          "name": "cover",
          "type": "string"
        }
      ],
      "name": "newGame",
      "outputs": [],
      "stateMutability": "nonpayable",
      "type": "function"
    },
    {
      "inputs": [
        {
          "internalType": "uint256",
          "name": "gameId",
          "type": "uint256"
        }
      ],
      "name": "setGameToStarted",
      "outputs": [],
      "stateMutability": "nonpayable",
      "type": "function"
    },
    {
      "inputs": [
        {
          "internalType": "uint256",
          "name": "gameId",
          "type": "uint256"
        },
        {
          "internalType": "uint256",
          "name": "team1Score",
          "type": "uint256"
        },
        {
          "internalType": "uint256",
          "name": "team2Score",
          "type": "uint256"
        }
      ],
      "name": "settleGame",
      "outputs": [],
      "stateMutability": "nonpayable",
      "type": "function"
    }
  ],
  "bytecode": "0x608060405234801561001057600080fd5b50600080546001600160a01b0319908116339081179091161790556126968061003a6000396000f3fe6080604052600436106100915760003560e01c80639d6aaa7d116100595780639d6aaa7d146101435780639f6c0ce314610170578063a2f77bcc14610192578063a7a0b372146101bf578063c0c090bc146101df57610091565b80631ccf6955146100965780635e701fc8146100cc5780636579642b146100ee5780636ffcc7191461010e5780638da5cb5b14610121575b600080fd5b3480156100a257600080fd5b506100b66100b1366004611f99565b6101ff565b6040516100c39190612360565b60405180910390f35b3480156100d857600080fd5b506100ec6100e7366004611fb1565b6102cf565b005b3480156100fa57600080fd5b506100ec610109366004611f99565b61055d565b6100ec61011c366004612051565b610594565b34801561012d57600080fd5b506101366106d5565b6040516100c3919061234c565b34801561014f57600080fd5b5061016361015e366004611f99565b6106e4565b6040516100c3919061240e565b34801561017c57600080fd5b50610185610a29565b6040516100c391906123ae565b34801561019e57600080fd5b506101b26101ad366004611f99565b610c71565b6040516100c39190612590565b3480156101cb57600080fd5b506100ec6101da36600461209d565b610f47565b3480156101eb57600080fd5b506100ec6101fa366004612072565b611330565b600081815260056020526040902060090154606090829062010000900460ff166102445760405162461bcd60e51b815260040161023b90612498565b60405180910390fd5b600083815260046020908152604080832080548251818502810185019093528083529193909284015b828210156102c2576000848152602090819020604080516060810182526003860290920180546001600160a01b031683526001808201548486015260029091015491830191909152908352909201910161026d565b5050505091505b50919050565b60006040518060c0016040528089815260200188888080601f016020809104026020016040519081016040528093929190818152602001838380828437600092019190915250505090825250604080516020601f890181900481028201810190925287815291810191908890889081908401838280828437600092019190915250505090825250604080516020601f870181900481028201810190925285815291810191908690869081908401838280828437600092018290525093855250506001602080850182905260409485018290528d8452600281529390922084518155848401518051959650869591946103cc94860193500190611e52565b50604082015180516103e8916002840191602090910190611e52565b5060608201518051610404916003840191602090910190611e52565b5060808201516004909101805460a09093015115156101000261ff001992151560ff199094169390931791909116919091179055600180548082018255600091909152815160059091027fb10e2d527612073b26eecdfd717e6a320cf44b4afac2b0732d9fcbe2b7fa0cf6810191825560208084015180518594936104af937fb10e2d527612073b26eecdfd717e6a320cf44b4afac2b0732d9fcbe2b7fa0cf7909101920190611e52565b50604082015180516104cb916002840191602090910190611e52565b50606082015180516104e7916003840191602090910190611e52565b5060808201516004909101805460a09093015115156101000261ff001992151560ff1990941693909317919091169190911790556040517f68aa0aa08335d7fd81ca7a0478b8aed2dcbc260690a5cc5a9a62e87541b47c439061054b908390612576565b60405180910390a15050505050505050565b6000546001600160a01b0316331461057457600080fd5b6000908152600560205260409020600901805461ff001916610100179055565b600082815260056020526040902060090154829062010000900460ff166105cd5760405162461bcd60e51b815260040161023b90612498565b8160028111156105ef5760405162461bcd60e51b815260040161023b9061246c565b6000848152600560205260409020600901548490610100900460ff16156106285760405162461bcd60e51b815260040161023b9061252b565b6040805160608101825233815234602080830191825282840188815260008a81526004835285812080546001808201835591835293909120855160039094020180546001600160a01b0319166001600160a01b03909416939093178355925192820192909255905160029091015590517f46e48e42ee97857124fc71280d565b91420047a714f31dd5e7a0d655e11b4955906106c5908390612562565b60405180910390a1505050505050565b6000546001600160a01b031681565b6000818152600260205260409020600401546060908290610100900460ff1661071f5760405162461bcd60e51b815260040161023b906124f4565b600083815260036020908152604080832080548251818502810185019093528083529193909284015b828210156102c257838290600052602060002090600a02016040518061018001604052908160008201548152602001600182018054610786906125fa565b80601f01602080910402602001604051908101604052809291908181526020018280546107b2906125fa565b80156107ff5780601f106107d4576101008083540402835291602001916107ff565b820191906000526020600020905b8154815290600101906020018083116107e257829003601f168201915b50505050508152602001600282018054610818906125fa565b80601f0160208091040260200160405190810160405280929190818152602001828054610844906125fa565b80156108915780601f1061086657610100808354040283529160200191610891565b820191906000526020600020905b81548152906001019060200180831161087457829003601f168201915b505050505081526020016003820180546108aa906125fa565b80601f01602080910402602001604051908101604052809291908181526020018280546108d6906125fa565b80156109235780601f106108f857610100808354040283529160200191610923565b820191906000526020600020905b81548152906001019060200180831161090657829003601f168201915b5050505050815260200160048201805461093c906125fa565b80601f0160208091040260200160405190810160405280929190818152602001828054610968906125fa565b80156109b55780601f1061098a576101008083540402835291602001916109b5565b820191906000526020600020905b81548152906001019060200180831161099857829003601f168201915b5050509183525050600582015460208083019190915260068301546040830152600783015460608301526008830154608083015260099092015460ff808216151560a084015261010082048116151560c08401526201000090910416151560e0909101529082526001929092019101610748565b60606001805480602002602001604051908101604052809291908181526020016000905b82821015610c6857838290600052602060002090600502016040518060c001604052908160008201548152602001600182018054610a8a906125fa565b80601f0160208091040260200160405190810160405280929190818152602001828054610ab6906125fa565b8015610b035780601f10610ad857610100808354040283529160200191610b03565b820191906000526020600020905b815481529060010190602001808311610ae657829003601f168201915b50505050508152602001600282018054610b1c906125fa565b80601f0160208091040260200160405190810160405280929190818152602001828054610b48906125fa565b8015610b955780601f10610b6a57610100808354040283529160200191610b95565b820191906000526020600020905b815481529060010190602001808311610b7857829003601f168201915b50505050508152602001600382018054610bae906125fa565b80601f0160208091040260200160405190810160405280929190818152602001828054610bda906125fa565b8015610c275780601f10610bfc57610100808354040283529160200191610c27565b820191906000526020600020905b815481529060010190602001808311610c0a57829003601f168201915b50505091835250506004919091015460ff80821615156020808501919091526101009092041615156040909201919091529082526001929092019101610a4d565b50505050905090565b610c79611ed6565b600560008381526020019081526020016000206040518061018001604052908160008201548152602001600182018054610cb2906125fa565b80601f0160208091040260200160405190810160405280929190818152602001828054610cde906125fa565b8015610d2b5780601f10610d0057610100808354040283529160200191610d2b565b820191906000526020600020905b815481529060010190602001808311610d0e57829003601f168201915b50505050508152602001600282018054610d44906125fa565b80601f0160208091040260200160405190810160405280929190818152602001828054610d70906125fa565b8015610dbd5780601f10610d9257610100808354040283529160200191610dbd565b820191906000526020600020905b815481529060010190602001808311610da057829003601f168201915b50505050508152602001600382018054610dd6906125fa565b80601f0160208091040260200160405190810160405280929190818152602001828054610e02906125fa565b8015610e4f5780601f10610e2457610100808354040283529160200191610e4f565b820191906000526020600020905b815481529060010190602001808311610e3257829003601f168201915b50505050508152602001600482018054610e68906125fa565b80601f0160208091040260200160405190810160405280929190818152602001828054610e94906125fa565b8015610ee15780601f10610eb657610100808354040283529160200191610ee1565b820191906000526020600020905b815481529060010190602001808311610ec457829003601f168201915b50505091835250506005820154602082015260068201546040820152600782015460608201526008820154608082015260099091015460ff808216151560a084015261010082048116151560c08401526201000090910416151560e09091015292915050565b60008a8152600260205260409020600401548a90610100900460ff16610f7f5760405162461bcd60e51b815260040161023b906124f4565b6000546001600160a01b03163314610f9657600080fd5b60006040518061018001604052808e81526020018b8b8080601f016020809104026020016040519081016040528093929190818152602001838380828437600092019190915250505090825250604080516020601f8c018190048102820181019092528a815291810191908b908b9081908401838280828437600092019190915250505090825250604080516020601f8a0181900481028201810190925288815291810191908990899081908401838280828437600092019190915250505090825250604080516020601f880181900481028201810190925286815291810191908790879081908401838280828437600081840152601f19601f8201169050808301925050505050505081526020018c815260200160008152602001600081526020016000815260200160001515815260200160001515815260200160011515815250905080600560008f8152602001908152602001600020600082015181600001556020820151816001019080519060200190611115929190611e52565b5060408201518051611131916002840191602090910190611e52565b506060820151805161114d916003840191602090910190611e52565b5060808201518051611169916004840191602090910190611e52565b5060a0820151600582015560c0820151600682015560e08201516007820155610100808301516008830155610120830151600990920180546101408501516101609095015160ff199091169315159390931761ff0019169315159091029290921762ff00001916620100009115159190910217905560008c81526003602090815260408220805460018181018355918452928290208451600a90940201928355838201518051859493611220938501920190611e52565b506040820151805161123c916002840191602090910190611e52565b5060608201518051611258916003840191602090910190611e52565b5060808201518051611274916004840191602090910190611e52565b5060a0820151600582015560c0820151600682015560e08201516007820155610100808301516008830155610120830151600990920180546101408501516101609095015160ff199091169315159390931761ff0019169315159091029290921762ff0000191662010000911515919091021790556040517fc3121d21effb6e14564cf3d76845c58450be8359f6ca512b9d4ffea6af185e6f90611319908390612590565b60405180910390a150505050505050505050505050565b600083815260056020526040902060090154839062010000900460ff166113695760405162461bcd60e51b815260040161023b90612498565b6000546001600160a01b0316331461138057600080fd5b60006005600086815260200190815260200160002060405180610180016040529081600082015481526020016001820180546113bb906125fa565b80601f01602080910402602001604051908101604052809291908181526020018280546113e7906125fa565b80156114345780601f1061140957610100808354040283529160200191611434565b820191906000526020600020905b81548152906001019060200180831161141757829003601f168201915b5050505050815260200160028201805461144d906125fa565b80601f0160208091040260200160405190810160405280929190818152602001828054611479906125fa565b80156114c65780601f1061149b576101008083540402835291602001916114c6565b820191906000526020600020905b8154815290600101906020018083116114a957829003601f168201915b505050505081526020016003820180546114df906125fa565b80601f016020809104026020016040519081016040528092919081815260200182805461150b906125fa565b80156115585780601f1061152d57610100808354040283529160200191611558565b820191906000526020600020905b81548152906001019060200180831161153b57829003601f168201915b50505050508152602001600482018054611571906125fa565b80601f016020809104026020016040519081016040528092919081815260200182805461159d906125fa565b80156115ea5780601f106115bf576101008083540402835291602001916115ea565b820191906000526020600020905b8154815290600101906020018083116115cd57829003601f168201915b50505091835250506005828101546020808401919091526006840154604080850191909152600785015460608501526008850154608085015260099094015460ff808216151560a086015261010082048116151560c0808701919091526201000090920416151560e09485015285018990529184018790526001610120850181905260008a815291835292902083518155838201518051949550859491936116989390850192910190611e52565b50604082015180516116b4916002840191602090910190611e52565b50606082015180516116d0916003840191602090910190611e52565b50608082015180516116ec916004840191602090910190611e52565b5060a082015160058083019190915560c0830151600683015560e0830151600783015561010080840151600884015561012084015160099384018054610140870151610160909701511515620100000262ff00001997151590940261ff001993151560ff19909216919091179290921691909117949094161790925560008781526020929092526040909120015460ff166117995760405162461bcd60e51b815260040161023b906124c6565b60006117a486611954565b9050600060046000888152602001908152602001600020805480602002602001604051908101604052809291908181526020016000905b82821015611830576000848152602090819020604080516060810182526003860290920180546001600160a01b03168352600180820154848601526002909101549183019190915290835290920191016117db565b50505050905060008060006118458486611cb2565b95505050935050925060005b835181101561190f57600084828151811061187c57634e487b7160e01b600052603260045260246000fd5b602002602001015190506000848260200151606461189a91906125db565b6118a491906125bb565b6118ae90856125db565b905081600001516001600160a01b03166108fc8284602001516118d191906125a3565b6040518115909202916000818181858888f193505050501580156118f9573d6000803e3d6000fd5b50505080806119079061262f565b915050611851565b507fdf7a1dfb51dd87859a6f44cf9bddb076effbccd933619eec97e64a79fd94d32460016040516119409190612461565b60405180910390a150505050505050505050565b600080546001600160a01b0316331461196c57600080fd5b600082815260056020526040902060090154829062010000900460ff166119a55760405162461bcd60e51b815260040161023b90612498565b60006005600085815260200190815260200160002060405180610180016040529081600082015481526020016001820180546119e0906125fa565b80601f0160208091040260200160405190810160405280929190818152602001828054611a0c906125fa565b8015611a595780601f10611a2e57610100808354040283529160200191611a59565b820191906000526020600020905b815481529060010190602001808311611a3c57829003601f168201915b50505050508152602001600282018054611a72906125fa565b80601f0160208091040260200160405190810160405280929190818152602001828054611a9e906125fa565b8015611aeb5780601f10611ac057610100808354040283529160200191611aeb565b820191906000526020600020905b815481529060010190602001808311611ace57829003601f168201915b50505050508152602001600382018054611b04906125fa565b80601f0160208091040260200160405190810160405280929190818152602001828054611b30906125fa565b8015611b7d5780601f10611b5257610100808354040283529160200191611b7d565b820191906000526020600020905b815481529060010190602001808311611b6057829003601f168201915b50505050508152602001600482018054611b96906125fa565b80601f0160208091040260200160405190810160405280929190818152602001828054611bc2906125fa565b8015611c0f5780601f10611be457610100808354040283529160200191611c0f565b820191906000526020600020905b815481529060010190602001808311611bf257829003601f168201915b50505091835250506005820154602082015260068201546040820152600782015460608201526008820154608082015260099091015460ff808216151560a084015261010082048116151560c0808501919091526201000090920416151560e09283015290820151908201519192501015611c8e5760019250506102c9565b8060c001518160e001511115611ca85760029250506102c9565b60009250506102c9565b6060600080606060008060005b8851811015611e475787898281518110611ce957634e487b7160e01b600052603260045260246000fd5b6020026020010151604001511415611d9a57888181518110611d1b57634e487b7160e01b600052603260045260246000fd5b6020026020010151878781518110611d4357634e487b7160e01b600052603260045260246000fd5b60200260200101819052508580611d599061262f565b965050888181518110611d7c57634e487b7160e01b600052603260045260246000fd5b60200260200101516020015185611d9391906125a3565b9450611e35565b888181518110611dba57634e487b7160e01b600052603260045260246000fd5b6020026020010151848481518110611de257634e487b7160e01b600052603260045260246000fd5b60200260200101819052508280611df89061262f565b935050888181518110611e1b57634e487b7160e01b600052603260045260246000fd5b60200260200101516020015182611e3291906125a3565b91505b80611e3f8161262f565b915050611cbf565b509295509295509295565b828054611e5e906125fa565b90600052602060002090601f016020900481019282611e805760008555611ec6565b82601f10611e9957805160ff1916838001178555611ec6565b82800160010185558215611ec6579182015b82811115611ec6578251825591602001919060010190611eab565b50611ed2929150611f3d565b5090565b6040518061018001604052806000815260200160608152602001606081526020016060815260200160608152602001600081526020016000815260200160008152602001600081526020016000151581526020016000151581526020016000151581525090565b5b80821115611ed25760008155600101611f3e565b60008083601f840112611f63578182fd5b50813567ffffffffffffffff811115611f7a578182fd5b602083019150836020828501011115611f9257600080fd5b9250929050565b600060208284031215611faa578081fd5b5035919050565b60008060008060008060006080888a031215611fcb578283fd5b87359650602088013567ffffffffffffffff80821115611fe9578485fd5b611ff58b838c01611f52565b909850965060408a013591508082111561200d578485fd5b6120198b838c01611f52565b909650945060608a0135915080821115612031578384fd5b5061203e8a828b01611f52565b989b979a50959850939692959293505050565b60008060408385031215612063578182fd5b50508035926020909101359150565b600080600060608486031215612086578283fd5b505081359360208301359350604090920135919050565b600080600080600080600080600080600060e08c8e0312156120bd578384fd5b8b359a5060208c0135995060408c0135985067ffffffffffffffff8060608e013511156120e8578485fd5b6120f88e60608f01358f01611f52565b909950975060808d013581101561210d578485fd5b61211d8e60808f01358f01611f52565b909750955060a08d0135811015612132578485fd5b6121428e60a08f01358f01611f52565b909550935060c08d0135811015612157578283fd5b506121688d60c08e01358e01611f52565b81935080925050509295989b509295989b9093969950565b15159052565b60008151808452815b818110156121ab5760208185018101518683018201520161218f565b818111156121bc5782602083870101525b50601f01601f19169290920160200192915050565b80516001600160a01b0316825260208082015190830152604090810151910152565b600081518352602082015160c0602085015261221260c0850182612186565b90506040830151848203604086015261222b8282612186565b915050606083015184820360608601526122458282612186565b91505060808301511515608085015260a0830151151560a08501528091505092915050565b600061018082518452602083015181602086015261228a82860182612186565b915050604083015184820360408601526122a48282612186565b915050606083015184820360608601526122be8282612186565b915050608083015184820360808601526122d88282612186565b91505060a083015160a085015260c083015160c085015260e083015160e08501526101008084015181860152506101208084015161231882870182612180565b50506101408084015161232d82870182612180565b50506101608084015161234282870182612180565b5090949350505050565b6001600160a01b0391909116815260200190565b6020808252825182820181905260009190848201906040850190845b818110156123a25761238f8385516121d1565b928401926060929092019160010161237c565b50909695505050505050565b6000602080830181845280855180835260408601915060408482028701019250838701855b8281101561240157603f198886030184526123ef8583516121f3565b945092850192908501906001016123d3565b5092979650505050505050565b6000602080830181845280855180835260408601915060408482028701019250838701855b8281101561240157603f1988860301845261244f85835161226a565b94509285019290850190600101612433565b901515815260200190565b60208082526012908201527113dd5d18dbdb59481a5cc81a5b9d985b1a5960721b604082015260600190565b60208082526014908201527347616d6520646f6573206e6f742065786973747360601b604082015260600190565b60208082526014908201527311d85b59481b5d5cdd081a185d9948195b99195960621b604082015260600190565b6020808252601b908201527f436f6d7065746974696f6e20646f6573206e6f74206578697374730000000000604082015260600190565b60208082526018908201527f67616d652068617320616c726561647920737461727465640000000000000000604082015260600190565b6060810161257082846121d1565b92915050565b60006020825261258960208301846121f3565b9392505050565b600060208252612589602083018461226a565b600082198211156125b6576125b661264a565b500190565b6000826125d657634e487b7160e01b81526012600452602481fd5b500490565b60008160001904831182151516156125f5576125f561264a565b500290565b60028104600182168061260e57607f821691505b602082108114156102c957634e487b7160e01b600052602260045260246000fd5b60006000198214156126435761264361264a565b5060010190565b634e487b7160e01b600052601160045260246000fdfea26469706673582212203bb51ec207c9b92ef4c0ede698431364281c6d580555fb846a0f829c97a4253364736f6c63430008000033",
  "immutableReferences": {},
  "source": "// SPDX-License-Identifier: UNLICENSED\npragma solidity ^0.8.0;\n\nimport \"./Owner.sol\";\nimport \"./isCommon.sol\";\n\ncontract BettingContract is Owner, isCommon {\n    constructor() {\n        owner = msg.sender;\n    }\n\n    function getGame(uint256 gameId) external view returns (Game memory game) {\n        return GameIdToGame[gameId];\n    }\n\n    function getCompetitions() external view returns (Competition[] memory) {\n        return competitions;\n    }\n\n    function getGames(uint256 competitionId)\n        external\n        view\n        competitionExists(competitionId)\n        returns (Game[] memory games)\n    {\n        return CompetitionIdToGames[competitionId];\n    }\n\n    function getBets(uint256 gameId)\n        external\n        view\n        gameExists(gameId)\n        returns (Bet[] memory bets)\n    {\n        return GameIdToBets[gameId];\n    }\n\n    function bet(uint256 gameId, uint256 outcome)\n        external\n        payable\n        gameExists(gameId)\n        betOutcomeIsValid(outcome)\n        checkGameState(gameId)\n    {\n        Bet memory newBet = Bet(msg.sender, msg.value, outcome);\n        GameIdToBets[gameId].push(newBet);\n        emit NewBet(newBet);\n    }\n\n    // costly 3 writes in storage\n    function newCompetition(\n        uint256 competitionId,\n        string calldata name,\n        string calldata description,\n        string calldata cover\n    ) external {\n        Competition memory _competition = Competition(\n            competitionId,\n            name,\n            description,\n            cover,\n            true,\n            true\n        );\n        CompetitionIdToCompetition[competitionId] = _competition;\n        competitions.push(_competition);\n        emit NewCompetition(_competition);\n    }\n\n    // costly 3 writes in storage\n    function newGame(\n        uint256 gameId,\n        uint256 competitionId,\n        uint256 start,\n        string calldata team1Name,\n        string calldata team2Name,\n        string calldata description,\n        string calldata cover\n    ) external competitionExists(competitionId) isOwner() {\n        Game memory _game = Game(\n            gameId,\n            team1Name,\n            team2Name,\n            description,\n            cover,\n            start,\n            0,\n            0,\n            0,\n            false,\n            false,\n            true\n        );\n        GameIdToGame[gameId] = _game;\n        CompetitionIdToGames[competitionId].push(_game);\n        emit NewGame(_game);\n    }\n\n    function setGameToStarted(uint256 gameId) external isOwner() {\n        GameIdToGame[gameId].started = true;\n    }\n\n    function settleGame(\n        uint256 gameId,\n        uint256 team1Score,\n        uint256 team2Score\n    ) external gameExists(gameId) isOwner() {\n        Game memory _game = GameIdToGame[gameId];\n        _game.team1Score = team1Score;\n        _game.team2Score = team2Score;\n        _game.ended = true;\n        GameIdToGame[gameId] = _game;\n        require(GameIdToGame[gameId].ended, \"Game must have ended\");\n        uint256 winner = getWinner(gameId);\n        Bet[] memory _bets = GameIdToBets[gameId];\n        (\n            Bet[] memory _winnerBets,\n            ,\n            uint256 _winnerBetsSum,\n            ,\n            ,\n            uint256 _loserBetsSum\n        ) = getSettlementData(_bets, winner);\n\n        for (uint256 i = 0; i < _winnerBets.length; i++) {\n            Bet memory _bet = _winnerBets[i];\n            uint256 _profit = _loserBetsSum *\n                ((_bet.amount * 100) / _winnerBetsSum);\n            payable(_bet.user).transfer(_bet.amount + _profit);\n        }\n        emit GameEnded(true);\n    }\n\n    function getWinner(uint256 gameId)\n        private\n        view\n        isOwner()\n        gameExists(gameId)\n        returns (uint256)\n    {\n        Game memory _game = GameIdToGame[gameId];\n        if (_game.team1Score > _game.team2Score) {\n            return 1;\n        } else if (_game.team2Score > _game.team1Score) {\n            return 2;\n        } else {\n            return 0;\n        }\n    }\n\n    function getSettlementData(Bet[] memory _bets, uint256 winner)\n        private\n        pure\n        returns (\n            Bet[] memory _winnerBets,\n            uint256 _winnerBetsCount,\n            uint256 _winnerBetsSum,\n            Bet[] memory _loserBets,\n            uint256 _loserBetsCount,\n            uint256 _loserBetsSum\n        )\n    {\n        for (uint256 i = 0; i < _bets.length; i++) {\n            if (_bets[i].outcome == winner) {\n                _winnerBets[_winnerBetsCount] = _bets[i];\n                _winnerBetsCount++;\n                _winnerBetsSum += _bets[i].amount;\n            } else {\n                _loserBets[_loserBetsCount] = _bets[i];\n                _loserBetsCount++;\n                _loserBetsSum += _bets[i].amount;\n            }\n        }\n\n        return (\n            _winnerBets,\n            _winnerBetsCount,\n            _winnerBetsSum,\n            _loserBets,\n            _loserBetsCount,\n            _loserBetsSum\n        );\n    }\n}\n",
  "sourcePath": "/home/sama/Documents/PROJECTS/ETHEREUM/SportsOnTheBlock/contracts/BettingContract.sol",
  "compiler": {
    "name": "solc",
    "version": "0.8.0+commit.c7dfd78e.Emscripten.clang"
  },
  "schemaVersion": "3.4.1",
  "updatedAt": "2021-07-07T09:28:56.314Z",
  "devdoc": {
    "kind": "dev",
    "methods": {},
    "version": 1
  },
  "userdoc": {
    "kind": "user",
    "methods": {},
    "version": 1
  }
}