{
  "contractName": "BettingContract",
  "abi": [
    {
      "anonymous": false,
      "inputs": [
        {
          "indexed": false,
          "internalType": "bool",
          "name": "",
          "type": "bool"
        }
      ],
      "name": "GameEnded",
      "type": "event"
    },
    {
      "anonymous": false,
      "inputs": [
        {
          "indexed": false,
          "internalType": "bool",
          "name": "",
          "type": "bool"
        }
      ],
      "name": "GameStarted",
      "type": "event"
    },
    {
      "anonymous": false,
      "inputs": [
        {
          "components": [
            {
              "internalType": "address",
              "name": "user",
              "type": "address"
            },
            {
              "internalType": "uint256",
              "name": "amount",
              "type": "uint256"
            },
            {
              "internalType": "uint256",
              "name": "outcome",
              "type": "uint256"
            }
          ],
          "indexed": false,
          "internalType": "struct isCommon.Bet",
          "name": "",
          "type": "tuple"
        }
      ],
      "name": "NewBet",
      "type": "event"
    },
    {
      "anonymous": false,
      "inputs": [
        {
          "components": [
            {
              "internalType": "string",
              "name": "name",
              "type": "string"
            },
            {
              "internalType": "string",
              "name": "description",
              "type": "string"
            },
            {
              "internalType": "string",
              "name": "cover",
              "type": "string"
            },
            {
              "internalType": "bool",
              "name": "available",
              "type": "bool"
            }
          ],
          "indexed": false,
          "internalType": "struct isCommon.Competition",
          "name": "",
          "type": "tuple"
        }
      ],
      "name": "NewCompetition",
      "type": "event"
    },
    {
      "anonymous": false,
      "inputs": [
        {
          "components": [
            {
              "internalType": "string",
              "name": "team1Name",
              "type": "string"
            },
            {
              "internalType": "string",
              "name": "team2Name",
              "type": "string"
            },
            {
              "internalType": "string",
              "name": "description",
              "type": "string"
            },
            {
              "internalType": "string",
              "name": "cover",
              "type": "string"
            },
            {
              "internalType": "uint256",
              "name": "start",
              "type": "uint256"
            },
            {
              "internalType": "uint256",
              "name": "team1Score",
              "type": "uint256"
            },
            {
              "internalType": "uint256",
              "name": "team2Score",
              "type": "uint256"
            },
            {
              "internalType": "uint256",
              "name": "winner",
              "type": "uint256"
            },
            {
              "internalType": "bool",
              "name": "ended",
              "type": "bool"
            },
            {
              "internalType": "bool",
              "name": "started",
              "type": "bool"
            }
          ],
          "indexed": false,
          "internalType": "struct isCommon.Game",
          "name": "",
          "type": "tuple"
        }
      ],
      "name": "NewGame",
      "type": "event"
    },
    {
      "inputs": [],
      "name": "owner",
      "outputs": [
        {
          "internalType": "address",
          "name": "",
          "type": "address"
        }
      ],
      "stateMutability": "view",
      "type": "function",
      "constant": true
    },
    {
      "inputs": [],
      "name": "getCompetitions",
      "outputs": [
        {
          "components": [
            {
              "internalType": "string",
              "name": "name",
              "type": "string"
            },
            {
              "internalType": "string",
              "name": "description",
              "type": "string"
            },
            {
              "internalType": "string",
              "name": "cover",
              "type": "string"
            },
            {
              "internalType": "bool",
              "name": "available",
              "type": "bool"
            }
          ],
          "internalType": "struct isCommon.Competition[]",
          "name": "",
          "type": "tuple[]"
        }
      ],
      "stateMutability": "view",
      "type": "function",
      "constant": true
    },
    {
      "inputs": [
        {
          "internalType": "uint256",
          "name": "competitionId",
          "type": "uint256"
        }
      ],
      "name": "getGames",
      "outputs": [
        {
          "components": [
            {
              "internalType": "string",
              "name": "team1Name",
              "type": "string"
            },
            {
              "internalType": "string",
              "name": "team2Name",
              "type": "string"
            },
            {
              "internalType": "string",
              "name": "description",
              "type": "string"
            },
            {
              "internalType": "string",
              "name": "cover",
              "type": "string"
            },
            {
              "internalType": "uint256",
              "name": "start",
              "type": "uint256"
            },
            {
              "internalType": "uint256",
              "name": "team1Score",
              "type": "uint256"
            },
            {
              "internalType": "uint256",
              "name": "team2Score",
              "type": "uint256"
            },
            {
              "internalType": "uint256",
              "name": "winner",
              "type": "uint256"
            },
            {
              "internalType": "bool",
              "name": "ended",
              "type": "bool"
            },
            {
              "internalType": "bool",
              "name": "started",
              "type": "bool"
            }
          ],
          "internalType": "struct isCommon.Game[]",
          "name": "games",
          "type": "tuple[]"
        }
      ],
      "stateMutability": "view",
      "type": "function",
      "constant": true
    },
    {
      "inputs": [
        {
          "internalType": "uint256",
          "name": "gameId",
          "type": "uint256"
        }
      ],
      "name": "getBets",
      "outputs": [
        {
          "components": [
            {
              "internalType": "address",
              "name": "user",
              "type": "address"
            },
            {
              "internalType": "uint256",
              "name": "amount",
              "type": "uint256"
            },
            {
              "internalType": "uint256",
              "name": "outcome",
              "type": "uint256"
            }
          ],
          "internalType": "struct isCommon.Bet[]",
          "name": "bets",
          "type": "tuple[]"
        }
      ],
      "stateMutability": "view",
      "type": "function",
      "constant": true
    },
    {
      "inputs": [
        {
          "internalType": "uint256",
          "name": "gameId",
          "type": "uint256"
        },
        {
          "internalType": "uint256",
          "name": "outcome",
          "type": "uint256"
        }
      ],
      "name": "bet",
      "outputs": [],
      "stateMutability": "payable",
      "type": "function",
      "payable": true
    },
    {
      "inputs": [
        {
          "internalType": "string",
          "name": "name",
          "type": "string"
        },
        {
          "internalType": "string",
          "name": "description",
          "type": "string"
        },
        {
          "internalType": "string",
          "name": "cover",
          "type": "string"
        }
      ],
      "name": "newCompetition",
      "outputs": [],
      "stateMutability": "nonpayable",
      "type": "function"
    },
    {
      "inputs": [
        {
          "internalType": "uint256",
          "name": "competitionId",
          "type": "uint256"
        },
        {
          "internalType": "uint256",
          "name": "start",
          "type": "uint256"
        },
        {
          "internalType": "string",
          "name": "team1Name",
          "type": "string"
        },
        {
          "internalType": "string",
          "name": "team2Name",
          "type": "string"
        },
        {
          "internalType": "string",
          "name": "description",
          "type": "string"
        },
        {
          "internalType": "string",
          "name": "cover",
          "type": "string"
        }
      ],
      "name": "newGame",
      "outputs": [],
      "stateMutability": "nonpayable",
      "type": "function"
    },
    {
      "inputs": [
        {
          "internalType": "uint256",
          "name": "gameId",
          "type": "uint256"
        }
      ],
      "name": "setGameToStarted",
      "outputs": [],
      "stateMutability": "nonpayable",
      "type": "function"
    },
    {
      "inputs": [
        {
          "internalType": "uint256",
          "name": "gameId",
          "type": "uint256"
        },
        {
          "internalType": "uint256",
          "name": "winner",
          "type": "uint256"
        }
      ],
      "name": "settleGame",
      "outputs": [],
      "stateMutability": "nonpayable",
      "type": "function"
    }
  ],
  "bytecode": "0x608060405234801561001057600080fd5b50600080546001600160a01b03191633179055611d1a806100326000396000f3fe6080604052600436106100865760003560e01c80638b1a046d116100595780638b1a046d146101165780638da5cb5b146101365780639d6aaa7d146101585780639f6c0ce3146101855780639ff93088146101a757610086565b80631ccf69551461008b57806365237d20146100c15780636579642b146100e35780636ffcc71914610103575b600080fd5b34801561009757600080fd5b506100ab6100a6366004611772565b6101c7565b6040516100b89190611a07565b60405180910390f35b3480156100cd57600080fd5b506100e16100dc3660046116dc565b6102ba565b005b3480156100ef57600080fd5b506100e16100fe366004611772565b6104e0565b6100e161011136600461178a565b610517565b34801561012257600080fd5b506100e16101313660046117ab565b610615565b34801561014257600080fd5b5061014b610990565b6040516100b891906119f3565b34801561016457600080fd5b50610178610173366004611772565b61099f565b6040516100b89190611ac9565b34801561019157600080fd5b5061019a610cc1565b6040516100b89190611a69565b3480156101b357600080fd5b506100e16101c236600461178a565b610ee8565b6060816000811180156101dc57506002548111155b6102015760405162461bcd60e51b81526004016101f890611b5e565b60405180910390fd5b60008311801561021357506002548311155b61022f5760405162461bcd60e51b81526004016101f890611b5e565b600083815260066020908152604080832080548251818502810185019093528083529193909284015b828210156102ad576000848152602090819020604080516060810182526003860290920180546001600160a01b0316835260018082015484860152600290910154918301919091529083529092019101610258565b5050505091505b50919050565b6040805160a06020601f89018190040282018101909252608081018781526000928291908a908a9081908501838280828437600092019190915250505090825250604080516020601f890181900481028201810190925287815291810191908890889081908401838280828437600092019190915250505090825250604080516020601f8701819004810282018101909252858152918101919086908690819084018382808284376000920182905250938552505060016020938401525060035481526004825260409020825180519394508493919261039f928492909101906115fc565b5060208281015180516103b892600185019201906115fc565b50604082015180516103d49160028401916020909101906115fc565b50606091909101516003909101805491151560ff199092169190911790556001805480820182556000919091528151805183926004027fb10e2d527612073b26eecdfd717e6a320cf44b4afac2b0732d9fcbe2b7fa0cf6019161043c918391602001906115fc565b50602082810151805161045592600185019201906115fc565b50604082015180516104719160028401916020909101906115fc565b50606091909101516003918201805460ff1916911515919091179055805490600061049b83611cb3565b91905055507f0adbede93e7486b6cd70aea787deab75918d4cb9c03f4d62c14cf8b633c708e9816040516104cf9190611bfa565b60405180910390a150505050505050565b6000546001600160a01b031633146104f757600080fd5b6000908152600760205260409020600801805461ff001916610100179055565b8160008111801561052a57506002548111155b6105465760405162461bcd60e51b81526004016101f890611b5e565b8160028111156105685760405162461bcd60e51b81526004016101f890611b27565b6000848152600760205260409020600801548490610100900460ff16156105a15760405162461bcd60e51b81526004016101f890611bc3565b5050506000918252600660209081526040808420815160608101835233815234818501908152928101948552815460018082018455928752939095209451600390930290940180546001600160a01b0319166001600160a01b03909316929092178255519281019290925551600290910155565b8960008111801561062857506003548111155b6106445760405162461bcd60e51b81526004016101f890611b8c565b6000546001600160a01b0316331461065b57600080fd5b604080516101606020601f8c01819004028201810190925261014081018a81526000928291908d908d9081908501838280828437600092019190915250505090825250604080516020601f8c018190048102820181019092528a815291810191908b908b9081908401838280828437600092019190915250505090825250604080516020601f8a0181900481028201810190925288815291810191908990899081908401838280828437600092019190915250505090825250604080516020601f880181900481028201810190925286815291810191908790879081908401838280828437600092018290525093855250505060208083018f90526040808401839052606084018390526080840183905260a0840183905260c090930182905260025482526007815291902082518051939450849391926107a1928492909101906115fc565b5060208281015180516107ba92600185019201906115fc565b50604082015180516107d69160028401916020909101906115fc565b50606082015180516107f29160038401916020909101906115fc565b506080820151600482015560a082015160058083019190915560c0830151600683015560e0830151600783015561010080840151600890930180546101209095015160ff199095169315159390931761ff0019169315150292909217905560008d815260209182526040812080546001810182559082529082902083518051859460099094029092019261088b928492909101906115fc565b5060208281015180516108a492600185019201906115fc565b50604082015180516108c09160028401916020909101906115fc565b50606082015180516108dc9160038401916020909101906115fc565b506080820151600482015560a0820151600582015560c0820151600682015560e0820151600782015561010080830151600890920180546101209094015160ff199094169215159290921761ff001916921515029190911790556002805490600061094683611cb3565b91905055507f0a7b7bc807ba5c692e5602ad5b8461eeb00850aa30921eb4ef2b59d32e763e688160405161097a9190611c14565b60405180910390a1505050505050505050505050565b6000546001600160a01b031681565b6060816000811180156109b457506003548111155b6109d05760405162461bcd60e51b81526004016101f890611b8c565b600083815260056020908152604080832080548251818502810185019093528083529193909284015b828210156102ad578382906000526020600020906009020160405180610140016040529081600082018054610a2d90611c7e565b80601f0160208091040260200160405190810160405280929190818152602001828054610a5990611c7e565b8015610aa65780601f10610a7b57610100808354040283529160200191610aa6565b820191906000526020600020905b815481529060010190602001808311610a8957829003601f168201915b50505050508152602001600182018054610abf90611c7e565b80601f0160208091040260200160405190810160405280929190818152602001828054610aeb90611c7e565b8015610b385780601f10610b0d57610100808354040283529160200191610b38565b820191906000526020600020905b815481529060010190602001808311610b1b57829003601f168201915b50505050508152602001600282018054610b5190611c7e565b80601f0160208091040260200160405190810160405280929190818152602001828054610b7d90611c7e565b8015610bca5780601f10610b9f57610100808354040283529160200191610bca565b820191906000526020600020905b815481529060010190602001808311610bad57829003601f168201915b50505050508152602001600382018054610be390611c7e565b80601f0160208091040260200160405190810160405280929190818152602001828054610c0f90611c7e565b8015610c5c5780601f10610c3157610100808354040283529160200191610c5c565b820191906000526020600020905b815481529060010190602001808311610c3f57829003601f168201915b5050509183525050600482015460208083019190915260058301546040830152600683015460608301526007830154608083015260089092015460ff808216151560a084015261010090910416151560c09091015290825260019290920191016109f9565b60606001805480602002602001604051908101604052809291908181526020016000905b82821015610edf5783829060005260206000209060040201604051806080016040529081600082018054610d1890611c7e565b80601f0160208091040260200160405190810160405280929190818152602001828054610d4490611c7e565b8015610d915780601f10610d6657610100808354040283529160200191610d91565b820191906000526020600020905b815481529060010190602001808311610d7457829003601f168201915b50505050508152602001600182018054610daa90611c7e565b80601f0160208091040260200160405190810160405280929190818152602001828054610dd690611c7e565b8015610e235780601f10610df857610100808354040283529160200191610e23565b820191906000526020600020905b815481529060010190602001808311610e0657829003601f168201915b50505050508152602001600282018054610e3c90611c7e565b80601f0160208091040260200160405190810160405280929190818152602001828054610e6890611c7e565b8015610eb55780601f10610e8a57610100808354040283529160200191610eb5565b820191906000526020600020905b815481529060010190602001808311610e9857829003601f168201915b50505091835250506003919091015460ff1615156020918201529082526001929092019101610ce5565b50505050905090565b81600081118015610efb57506002548111155b610f175760405162461bcd60e51b81526004016101f890611b5e565b6000546001600160a01b03163314610f2e57600080fd5b60008381526007602052604080822081516101408101909252805482908290610f5690611c7e565b80601f0160208091040260200160405190810160405280929190818152602001828054610f8290611c7e565b8015610fcf5780601f10610fa457610100808354040283529160200191610fcf565b820191906000526020600020905b815481529060010190602001808311610fb257829003601f168201915b50505050508152602001600182018054610fe890611c7e565b80601f016020809104026020016040519081016040528092919081815260200182805461101490611c7e565b80156110615780601f1061103657610100808354040283529160200191611061565b820191906000526020600020905b81548152906001019060200180831161104457829003601f168201915b5050505050815260200160028201805461107a90611c7e565b80601f01602080910402602001604051908101604052809291908181526020018280546110a690611c7e565b80156110f35780601f106110c8576101008083540402835291602001916110f3565b820191906000526020600020905b8154815290600101906020018083116110d657829003601f168201915b5050505050815260200160038201805461110c90611c7e565b80601f016020809104026020016040519081016040528092919081815260200182805461113890611c7e565b80156111855780601f1061115a57610100808354040283529160200191611185565b820191906000526020600020905b81548152906001019060200180831161116857829003601f168201915b50505091835250506004820154602080830191909152600583015460408084019190915260068085015460608501526007850154608085015260089094015460ff808216151560a086015261010090910416151560c09093019290925260008881529281528183208054835181840281018401909452808452949550929391929190849084015b82821015611261576000848152602090819020604080516060810182526003860290920180546001600160a01b031683526001808201548486015260029091015491830191909152908352909201910161120c565b5050505090506000806000611276848861145c565b95505050935050925060005b83518110156113405760008482815181106112ad57634e487b7160e01b600052603260045260246000fd5b60200260200101519050600084826020015160646112cb9190611c5f565b6112d59190611c3f565b6112df9085611c5f565b905081600001516001600160a01b03166108fc8284602001516113029190611c27565b6040518115909202916000818181858888f1935050505015801561132a573d6000803e3d6000fd5b505050808061133890611cb3565b915050611282565b506001610100860152600088815260076020908152604090912086518051889361136e9284929101906115fc565b50602082810151805161138792600185019201906115fc565b50604082015180516113a39160028401916020909101906115fc565b50606082015180516113bf9160038401916020909101906115fc565b506080820151600482015560a0820151600582015560c0820151600682015560e0820151600782015561010080830151600890920180546101209094015160ff199094169215159290921761ff001916921515029190911790556040517fdf7a1dfb51dd87859a6f44cf9bddb076effbccd933619eec97e64a79fd94d3249061144a90600190611b1c565b60405180910390a15050505050505050565b6060600080606060008060005b88518110156115f1578789828151811061149357634e487b7160e01b600052603260045260246000fd5b6020026020010151604001511415611544578881815181106114c557634e487b7160e01b600052603260045260246000fd5b60200260200101518787815181106114ed57634e487b7160e01b600052603260045260246000fd5b6020026020010181905250858061150390611cb3565b96505088818151811061152657634e487b7160e01b600052603260045260246000fd5b6020026020010151602001518561153d9190611c27565b94506115df565b88818151811061156457634e487b7160e01b600052603260045260246000fd5b602002602001015184848151811061158c57634e487b7160e01b600052603260045260246000fd5b602002602001018190525082806115a290611cb3565b9350508881815181106115c557634e487b7160e01b600052603260045260246000fd5b602002602001015160200151826115dc9190611c27565b91505b806115e981611cb3565b915050611469565b509295509295509295565b82805461160890611c7e565b90600052602060002090601f01602090048101928261162a5760008555611670565b82601f1061164357805160ff1916838001178555611670565b82800160010185558215611670579182015b82811115611670578251825591602001919060010190611655565b5061167c929150611680565b5090565b5b8082111561167c5760008155600101611681565b60008083601f8401126116a6578182fd5b50813567ffffffffffffffff8111156116bd578182fd5b6020830191508360208285010111156116d557600080fd5b9250929050565b600080600080600080606087890312156116f4578182fd5b863567ffffffffffffffff8082111561170b578384fd5b6117178a838b01611695565b9098509650602089013591508082111561172f578384fd5b61173b8a838b01611695565b90965094506040890135915080821115611753578384fd5b5061176089828a01611695565b979a9699509497509295939492505050565b600060208284031215611783578081fd5b5035919050565b6000806040838503121561179c578182fd5b50508035926020909101359150565b60008060008060008060008060008060c08b8d0312156117c9578384fd5b8a35995060208b0135985060408b013567ffffffffffffffff808211156117ee578586fd5b6117fa8e838f01611695565b909a50985060608d0135915080821115611812578586fd5b61181e8e838f01611695565b909850965060808d0135915080821115611836578586fd5b6118428e838f01611695565b909650945060a08d013591508082111561185a578384fd5b506118678d828e01611695565b915080935050809150509295989b9194979a5092959850565b15159052565b60008151808452815b818110156118ab5760208185018101518683018201520161188f565b818111156118bc5782602083870101525b50601f01601f19169290920160200192915050565b60008151608084526118e66080850182611886565b9050602083015184820360208601526118ff8282611886565b915050604083015184820360408601526119198282611886565b9150506060830151151560608501528091505092915050565b6000610140825181855261194882860182611886565b915050602083015184820360208601526119628282611886565b9150506040830151848203604086015261197c8282611886565b915050606083015184820360608601526119968282611886565b9150506080830151608085015260a083015160a085015260c083015160c085015260e083015160e0850152610100808401516119d482870182611880565b5050610120808401516119e982870182611880565b5090949350505050565b6001600160a01b0391909116815260200190565b602080825282518282018190526000919060409081850190868401855b82811015611a5c57815180516001600160a01b0316855286810151878601528501518585015260609093019290850190600101611a24565b5091979650505050505050565b6000602080830181845280855180835260408601915060408482028701019250838701855b82811015611abc57603f19888603018452611aaa8583516118d1565b94509285019290850190600101611a8e565b5092979650505050505050565b6000602080830181845280855180835260408601915060408482028701019250838701855b82811015611abc57603f19888603018452611b0a858351611932565b94509285019290850190600101611aee565b901515815260200190565b6020808252601a908201527f4f7574636f6d65206d75737420626520302c20312c206f722032000000000000604082015260600190565b60208082526014908201527347616d6520646f6573206e6f742065786973747360601b604082015260600190565b6020808252601b908201527f436f6d7065746974696f6e20646f6573206e6f74206578697374730000000000604082015260600190565b60208082526018908201527f67616d652068617320616c726561647920737461727465640000000000000000604082015260600190565b600060208252611c0d60208301846118d1565b9392505050565b600060208252611c0d6020830184611932565b60008219821115611c3a57611c3a611cce565b500190565b600082611c5a57634e487b7160e01b81526012600452602481fd5b500490565b6000816000190483118215151615611c7957611c79611cce565b500290565b600281046001821680611c9257607f821691505b602082108114156102b457634e487b7160e01b600052602260045260246000fd5b6000600019821415611cc757611cc7611cce565b5060010190565b634e487b7160e01b600052601160045260246000fdfea26469706673582212206a7c83439497ae630151701103c6c95e6bedf1e9e9d9957bcc849dde0cede21c64736f6c63430008000033",
  "immutableReferences": {},
  "source": "// SPDX-License-Identifier: UNLICENSED\npragma solidity ^0.8.0;\n\nimport \"./Owner.sol\";\nimport \"./isCommon.sol\";\n\ncontract BettingContract is Owner, isCommon {\n    function getCompetitions() external view returns (Competition[] memory) {\n        return competitions;\n    }\n\n    function getGames(uint256 competitionId)\n        external\n        view\n        competitionExists(competitionId)\n        returns (Game[] memory games)\n    {\n        return CompetitionIdToGames[competitionId];\n    }\n\n    function getBets(uint256 gameId)\n        external\n        view\n        gameExists(gameId)\n        returns (Bet[] memory bets)\n    {\n        require(gameId > 0 && gameId <= currentGameId, \"Game does not exists\");\n        return GameIdToBets[gameId];\n    }\n\n    function bet(uint256 gameId, uint256 outcome)\n        external\n        payable\n        gameExists(gameId)\n        betOutcomeIsValid(outcome)\n        checkGameState(gameId)\n    {\n        GameIdToBets[gameId].push(Bet(msg.sender, msg.value, outcome));\n    }\n\n    // costly 3 writes in storage\n    function newCompetition(\n        string calldata name,\n        string calldata description,\n        string calldata cover\n    ) external {\n        Competition memory _competition = Competition(\n            name,\n            description,\n            cover,\n            true\n        );\n        CompetitionIdToCompetition[currentCompetitionId] = _competition;\n        competitions.push(_competition);\n        currentCompetitionId++;\n        emit NewCompetition(_competition);\n    }\n\n    // costly 3 writes in storage\n    function newGame(\n        uint256 competitionId,\n        uint256 start,\n        string calldata team1Name,\n        string calldata team2Name,\n        string calldata description,\n        string calldata cover\n    ) external competitionExists(competitionId) isOwner() {\n        Game memory _game = Game(\n            team1Name,\n            team2Name,\n            description,\n            cover,\n            start,\n            0,\n            0,\n            0,\n            false,\n            false\n        );\n        GameIdToGame[currentGameId] = _game;\n        CompetitionIdToGames[competitionId].push(_game);\n        currentGameId++;\n        emit NewGame(_game);\n    }\n\n    function setGameToStarted(uint256 gameId) external isOwner() {\n        GameIdToGame[gameId].started = true;\n    }\n\n    function settleGame(uint256 gameId, uint256 winner)\n        external\n        gameExists(gameId)\n        isOwner()\n    {\n        Game memory _game = GameIdToGame[gameId];\n        Bet[] memory _bets = GameIdToBets[gameId];\n        (\n            Bet[] memory _winnerBets,\n            ,\n            uint256 _winnerBetsSum,\n            ,\n            ,\n            uint256 _loserBetsSum\n        ) = getSettlementData(_bets, winner);\n\n        for (uint256 i = 0; i < _winnerBets.length; i++) {\n            Bet memory _bet = _winnerBets[i];\n            uint256 _profit = _loserBetsSum *\n                ((_bet.amount * 100) / _winnerBetsSum);\n            payable(_bet.user).transfer(_bet.amount + _profit);\n        }\n        _game.ended = true;\n        GameIdToGame[gameId] = _game;\n        emit GameEnded(true);\n    }\n\n    function getSettlementData(Bet[] memory _bets, uint256 winner)\n        private\n        pure\n        returns (\n            Bet[] memory _winnerBets,\n            uint256 _winnerBetsCount,\n            uint256 _winnerBetsSum,\n            Bet[] memory _loserBets,\n            uint256 _loserBetsCount,\n            uint256 _loserBetsSum\n        )\n    {\n        for (uint256 i = 0; i < _bets.length; i++) {\n            if (_bets[i].outcome == winner) {\n                _winnerBets[_winnerBetsCount] = _bets[i];\n                _winnerBetsCount++;\n                _winnerBetsSum += _bets[i].amount;\n            } else {\n                _loserBets[_loserBetsCount] = _bets[i];\n                _loserBetsCount++;\n                _loserBetsSum += _bets[i].amount;\n            }\n        }\n\n        return (\n            _winnerBets,\n            _winnerBetsCount,\n            _winnerBetsSum,\n            _loserBets,\n            _loserBetsCount,\n            _loserBetsSum\n        );\n    }\n}\n",
  "sourcePath": "/home/bitch1y/Documents/PROJECTS/ETHEREUM/SportsOnTheBlock/contracts/BettingContrat.sol",
  "compiler": {
    "name": "solc",
    "version": "0.8.0+commit.c7dfd78e.Emscripten.clang"
  },
  "schemaVersion": "3.4.1",
  "updatedAt": "2021-07-02T11:41:20.566Z",
  "networkType": "ethereum",
  "devdoc": {
    "kind": "dev",
    "methods": {},
    "version": 1
  },
  "userdoc": {
    "kind": "user",
    "methods": {},
    "version": 1
  }
}