{
  "contractName": "GameContract",
  "abi": [
    {
      "inputs": [
        {
          "internalType": "string",
          "name": "teamAName",
          "type": "string"
        },
        {
          "internalType": "string",
          "name": "teamBName",
          "type": "string"
        },
        {
          "internalType": "string",
          "name": "_description",
          "type": "string"
        },
        {
          "internalType": "uint256",
          "name": "_start",
          "type": "uint256"
        },
        {
          "internalType": "address",
          "name": "_admin",
          "type": "address"
        },
        {
          "internalType": "string",
          "name": "cover",
          "type": "string"
        }
      ],
      "stateMutability": "nonpayable",
      "type": "constructor"
    },
    {
      "anonymous": false,
      "inputs": [
        {
          "components": [
            {
              "internalType": "string",
              "name": "name",
              "type": "string"
            },
            {
              "internalType": "uint32",
              "name": "score",
              "type": "uint32"
            }
          ],
          "indexed": false,
          "internalType": "struct IsCommon.Team",
          "name": "",
          "type": "tuple"
        }
      ],
      "name": "GameScoreChanged",
      "type": "event"
    },
    {
      "anonymous": false,
      "inputs": [
        {
          "indexed": false,
          "internalType": "enum IsCommon.GAMESTATES",
          "name": "",
          "type": "uint8"
        }
      ],
      "name": "GameStateChanged",
      "type": "event"
    },
    {
      "inputs": [],
      "name": "getAdmin",
      "outputs": [
        {
          "internalType": "address",
          "name": "",
          "type": "address"
        }
      ],
      "stateMutability": "view",
      "type": "function"
    },
    {
      "inputs": [],
      "name": "getGame",
      "outputs": [
        {
          "internalType": "address",
          "name": "betContractAddress",
          "type": "address"
        },
        {
          "internalType": "string",
          "name": "teamAName",
          "type": "string"
        },
        {
          "internalType": "uint256",
          "name": "teamAScore",
          "type": "uint256"
        },
        {
          "internalType": "string",
          "name": "teamBName",
          "type": "string"
        },
        {
          "internalType": "uint256",
          "name": "teamBScore",
          "type": "uint256"
        },
        {
          "internalType": "string",
          "name": "description",
          "type": "string"
        },
        {
          "internalType": "uint256",
          "name": "start",
          "type": "uint256"
        },
        {
          "internalType": "string",
          "name": "gameState",
          "type": "string"
        },
        {
          "internalType": "string",
          "name": "gameOutcome",
          "type": "string"
        },
        {
          "internalType": "string",
          "name": "cover",
          "type": "string"
        }
      ],
      "stateMutability": "view",
      "type": "function"
    },
    {
      "inputs": [],
      "name": "getGameState",
      "outputs": [
        {
          "internalType": "string",
          "name": "gameState",
          "type": "string"
        }
      ],
      "stateMutability": "view",
      "type": "function"
    },
    {
      "inputs": [],
      "name": "getTeamA",
      "outputs": [
        {
          "internalType": "string",
          "name": "name",
          "type": "string"
        },
        {
          "internalType": "uint32",
          "name": "score",
          "type": "uint32"
        }
      ],
      "stateMutability": "view",
      "type": "function"
    },
    {
      "inputs": [],
      "name": "getTeamB",
      "outputs": [
        {
          "internalType": "string",
          "name": "name",
          "type": "string"
        },
        {
          "internalType": "uint32",
          "name": "score",
          "type": "uint32"
        }
      ],
      "stateMutability": "view",
      "type": "function"
    },
    {
      "inputs": [
        {
          "internalType": "string",
          "name": "_name",
          "type": "string"
        },
        {
          "internalType": "uint32",
          "name": "newScore",
          "type": "uint32"
        }
      ],
      "name": "setScore",
      "outputs": [],
      "stateMutability": "nonpayable",
      "type": "function"
    },
    {
      "inputs": [],
      "name": "settleGame",
      "outputs": [],
      "stateMutability": "nonpayable",
      "type": "function"
    },
    {
      "inputs": [],
      "name": "closeBets",
      "outputs": [],
      "stateMutability": "nonpayable",
      "type": "function"
    },
    {
      "inputs": [],
      "name": "getGameOutcome",
      "outputs": [
        {
          "internalType": "string",
          "name": "gameOutcome",
          "type": "string"
        }
      ],
      "stateMutability": "view",
      "type": "function"
    }
  ],
  "bytecode": "0x60806040523480156200001157600080fd5b5060405162002e5638038062002e56833981016040819052620000349162000406565b600880546001600160a01b0319166001600160a01b03841617905560006200005b6200027b565b9050600030826040516200006f906200028a565b6200007c929190620004d5565b604051809103906000f08015801562000099573d6000803e3d6000fd5b50604080516101408101825261010081018b815260006101208301819052908252825180840184528b81526020818101929092529082015290810187905260608101889052608081018590526001600160a01b03821660a082015290915060c0810160018152602001600290528051805180516000929183916200012591839160209091019062000298565b50602091820151600191909101805463ffffffff191663ffffffff90921691909117905582810151805180519192600285019262000167928492019062000298565b50602091820151600191909101805463ffffffff191663ffffffff9092169190911790556040830151600483015560608301518051620001ae926005850192019062000298565b5060808201518051620001cc91600684019160209091019062000298565b5060a08201516007820180546001600160a01b0319166001600160a01b039092169190911780825560c0840151919060ff60a01b1916600160a01b8360028111156200022857634e487b7160e01b600052602160045260246000fd5b021790555060e082015160078201805460ff60a81b1916600160a81b8360028111156200026557634e487b7160e01b600052602160045260246000fd5b0217905550905050505050505050505062000542565b6008546001600160a01b031690565b61169580620017c183390190565b828054620002a690620004ef565b90600052602060002090601f016020900481019282620002ca576000855562000315565b82601f10620002e557805160ff191683800117855562000315565b8280016001018555821562000315579182015b8281111562000315578251825591602001919060010190620002f8565b506200032392915062000327565b5090565b5b8082111562000323576000815560010162000328565b80516001600160a01b03811681146200035657600080fd5b919050565b600082601f8301126200036c578081fd5b81516001600160401b03808211156200038957620003896200052c565b6040516020601f8401601f1916820181018381118382101715620003b157620003b16200052c565b6040528382528584018101871015620003c8578485fd5b8492505b83831015620003eb5785830181015182840182015291820191620003cc565b83831115620003fc57848185840101525b5095945050505050565b60008060008060008060c087890312156200041f578182fd5b86516001600160401b038082111562000436578384fd5b620004448a838b016200035b565b975060208901519150808211156200045a578384fd5b620004688a838b016200035b565b965060408901519150808211156200047e578384fd5b6200048c8a838b016200035b565b955060608901519450620004a360808a016200033e565b935060a0890151915080821115620004b9578283fd5b50620004c889828a016200035b565b9150509295509295509295565b6001600160a01b0392831681529116602082015260400190565b6002810460018216806200050457607f821691505b602082108114156200052657634e487b7160e01b600052602260045260246000fd5b50919050565b634e487b7160e01b600052604160045260246000fd5b61126f80620005526000396000f3fe608060405234801561001057600080fd5b50600436106100935760003560e01c806372374eac1161006657806372374eac146100ff5780637776282014610107578063886e34371461010f578063b7d0628b14610117578063d3d2d6b71461012c57610093565b80634494fd9f146100985780634d1c9241146100bf5780636046d29c146100d45780636e9960c3146100ea575b600080fd5b6100a0610134565b6040516100b69a99989796959493929190610eea565b60405180910390f35b6100d26100cd366004610d77565b6104c5565b005b6100dc6106a6565b6040516100b6929190610fe3565b6100f2610750565b6040516100b69190610ed6565b6100dc610760565b6100d2610780565b6100d261097c565b61011f6109e4565b6040516100b69190610fd0565b61011f610aed565b600754600154600354600480546040805163b7d0628b60e01b81529051600096606096889688968896889688968896879687966001600160a01b03909216958a9563ffffffff9283169560029594909316936005939192309263b7d0628b92818301928b92829003018186803b1580156101ad57600080fd5b505afa1580156101c1573d6000803e3d6000fd5b505050506040513d6000823e601f3d908101601f191682016040526101e99190810190610dfd565b306001600160a01b031663d3d2d6b76040518163ffffffff1660e01b815260040160006040518083038186803b15801561022257600080fd5b505afa158015610236573d6000803e3d6000fd5b505050506040513d6000823e601f3d908101601f1916820160405261025e9190810190610dfd565b600060060188805461026f90611197565b80601f016020809104026020016040519081016040528092919081815260200182805461029b90611197565b80156102e85780601f106102bd576101008083540402835291602001916102e8565b820191906000526020600020905b8154815290600101906020018083116102cb57829003601f168201915b505050505098508763ffffffff16975086805461030490611197565b80601f016020809104026020016040519081016040528092919081815260200182805461033090611197565b801561037d5780601f106103525761010080835404028352916020019161037d565b820191906000526020600020905b81548152906001019060200180831161036057829003601f168201915b505050505096508563ffffffff16955084805461039990611197565b80601f01602080910402602001604051908101604052809291908181526020018280546103c590611197565b80156104125780601f106103e757610100808354040283529160200191610412565b820191906000526020600020905b8154815290600101906020018083116103f557829003601f168201915b5050505050945080805461042590611197565b80601f016020809104026020016040519081016040528092919081815260200182805461045190611197565b801561049e5780601f106104735761010080835404028352916020019161049e565b820191906000526020600020905b81548152906001019060200180831161048157829003601f168201915b50505050509050995099509950995099509950995099509950995090919293949596979899565b6008546001600160a01b031633146104f85760405162461bcd60e51b81526004016104ef9061103b565b60405180910390fd5b600080546105c4919061050a90611197565b80601f016020809104026020016040519081016040528092919081815260200182805461053690611197565b80156105835780601f1061055857610100808354040283529160200191610583565b820191906000526020600020905b81548152906001019060200180831161056657829003601f168201915b505050505084848080601f016020809104026020016040519081016040528093929190818152602001838380828437600092019190915250610bf092505050565b15610624576001805463ffffffff191663ffffffff83161790556105e6610cac565b6040517fe6d464df9d910b9846254c10eff03706981866b31a34cbc4331c4463de3b36c09061061790600090611087565b60405180910390a16106a1565b60028054610636919061050a90611197565b15610689576003805463ffffffff191663ffffffff8316179055610658610cac565b6040517fe6d464df9d910b9846254c10eff03706981866b31a34cbc4331c4463de3b36c09061061790600290611087565b60405162461bcd60e51b81526004016104ef9061100b565b505050565b600354600280546060926000929163ffffffff9091169082906106c890611197565b80601f01602080910402602001604051908101604052809291908181526020018280546106f490611197565b80156107415780601f1061071657610100808354040283529160200191610741565b820191906000526020600020905b81548152906001019060200180831161072457829003601f168201915b50505050509150915091509091565b6008546001600160a01b03165b90565b60015460008054606092829163ffffffff9091169082906106c890611197565b6008546001600160a01b031633146107aa5760405162461bcd60e51b81526004016104ef9061103b565b6007805460ff60a01b1916600160a11b1790556107c5610cac565b6007546040516339f8ac0360e01b81526001600160a01b039091169081906339f8ac03906107f7903390600401610ed6565b602060405180830381600087803b15801561081157600080fd5b505af1158015610825573d6000803e3d6000fd5b505050506040513d601f19601f820116820180604052508101906108499190610d51565b5060075460405163108196a160e21b81526001600160a01b038316916342065a849161088491600160a81b900460ff16903390600401610f98565b600060405180830381600087803b15801561089e57600080fd5b505af11580156108b2573d6000803e3d6000fd5b5050604051639d98b68160e01b81526001600160a01b0384169250639d98b68191506108e2903390600401610ed6565b602060405180830381600087803b1580156108fc57600080fd5b505af1158015610910573d6000803e3d6000fd5b505050506040513d601f19601f820116820180604052508101906109349190610d51565b506007546040517ea8b06dd72552dea96e97c9a96acf39a1908ada44765cefe367620485b2c7e19161097191600160a01b90910460ff1690610fbd565b60405180910390a150565b6008546001600160a01b031633146109a65760405162461bcd60e51b81526004016104ef9061103b565b6007805460ff60a01b198116909155604051631408ffa560e21b81526001600160a01b03909116908190635023fe94906108e2903390600401610ed6565b60606001600754600160a01b900460ff166002811115610a1457634e487b7160e01b600052602160045260246000fd5b1415610a3f5750604080518082019091526008815267494e434f4d494e4760c01b602082015261075d565b6000600754600160a01b900460ff166002811115610a6d57634e487b7160e01b600052602160045260246000fd5b1415610a975750604080518082019091526007815266504c4159494e4760c81b602082015261075d565b6002600754600160a01b900460ff166002811115610ac557634e487b7160e01b600052602160045260246000fd5b141561075d5750604080518082019091526005815264115391115160da1b602082015261075d565b60606000600754600160a81b900460ff166002811115610b1d57634e487b7160e01b600052602160045260246000fd5b1415610b4557506040805180820190915260058152645445414d4160d81b602082015261075d565b6001600754600160a81b900460ff166002811115610b7357634e487b7160e01b600052602160045260246000fd5b1415610b9b57506040805180820190915260058152642a22a0a6a160d91b602082015261075d565b6002600754600160a81b900460ff166002811115610bc957634e487b7160e01b600052602160045260246000fd5b141561075d57506040805180820190915260048152631395531360e21b602082015261075d565b805182516000918491849114610c0b57600092505050610ca6565b60005b8251811015610c9e57818181518110610c3757634e487b7160e01b600052603260045260246000fd5b602001015160f81c60f81b6001600160f81b031916838281518110610c6c57634e487b7160e01b600052603260045260246000fd5b01602001516001600160f81b03191614610c8c5760009350505050610ca6565b80610c96816111db565b915050610c0e565b506001925050505b92915050565b600154600354610cc59163ffffffff9081169116610cfc565b6007805460ff60a81b1916600160a81b836002811115610cf557634e487b7160e01b600052602160045260246000fd5b0217905550565b6008546000906001600160a01b03163314610d295760405162461bcd60e51b81526004016104ef9061103b565b81831115610d3957506000610ca6565b82821115610d4957506001610ca6565b506002610ca6565b600060208284031215610d62578081fd5b815160048110610d70578182fd5b9392505050565b600080600060408486031215610d8b578182fd5b833567ffffffffffffffff80821115610da2578384fd5b818601915086601f830112610db5578384fd5b813581811115610dc3578485fd5b876020828501011115610dd4578485fd5b6020928301955093505084013563ffffffff81168114610df2578182fd5b809150509250925092565b600060208284031215610e0e578081fd5b815167ffffffffffffffff80821115610e25578283fd5b818401915084601f830112610e38578283fd5b815181811115610e4a57610e4a611202565b604051601f8201601f191681016020018381118282101715610e6e57610e6e611202565b604052818152838201602001871015610e85578485fd5b610e96826020830160208701611167565b9695505050505050565b60008151808452610eb8816020860160208601611167565b601f01601f19169290920160200192915050565b63ffffffff169052565b6001600160a01b0391909116815260200190565b6001600160a01b038b16815261014060208201819052600090610f0f8382018d610ea0565b90508a60408401528281036060840152610f29818b610ea0565b905088608084015282810360a0840152610f438189610ea0565b90508660c084015282810360e0840152610f5d8187610ea0565b9050828103610100840152610f728186610ea0565b9050828103610120840152610f878185610ea0565b9d9c50505050505050505050505050565b60408101610fa584611218565b9281526001600160a01b039190911660209091015290565b60208101610fca83611218565b91905290565b600060208252610d706020830184610ea0565b600060408252610ff66040830185610ea0565b905063ffffffff831660208301529392505050565b6020808252601690820152751519585b481b985b59481a5cc81b9bdd081d985b1a5960521b604082015260600190565b6020808252602c908201527f596f75206e6565642061646d696e2072696768747320746f20706572666f726d60408201526b103a3434b99030b1ba34b7b760a11b606082015260800190565b60006020808352604081840152818454836002820490506001808316806110af57607f831692505b8583108114156110cd57634e487b7160e01b87526022600452602487fd5b6110da8360608a0161115e565b8180156110ee57600181146110ff57611129565b60ff19861682528782019650611129565b6111088b611152565b895b868110156111235781548482015290850190890161110a565b83019750505b505050611138818901546111d2565b945050505061114a6040850183610ecc565b949350505050565b60009081526020902090565b90815260200190565b60005b8381101561118257818101518382015260200161116a565b83811115611191576000848401525b50505050565b6002810460018216806111ab57607f821691505b602082108114156111cc57634e487b7160e01b600052602260045260246000fd5b50919050565b63ffffffff1690565b60006000198214156111fb57634e487b7160e01b81526011600452602481fd5b5060010190565b634e487b7160e01b600052604160045260246000fd5b6003811061123657634e487b7160e01b600052602160045260246000fd5b5056fea2646970667358221220bcb4b3b0f058ebf42f2b3b31b85e3f4abc6e530b38bb8c250a7fb0722d239f6d64736f6c6343000800003360806040526000600a556000600b556000600c5534801561001f57600080fd5b50604051620016953803806200169583398101604081905261004091610097565b600880546001600160a01b039283166001600160a01b031991821617909155600e80549390921692169190911760ff60a01b191690556100c9565b80516001600160a01b038116811461009257600080fd5b919050565b600080604083850312156100a9578182fd5b6100b28361007b565b91506100c06020840161007b565b90509250929050565b6115bc80620000d96000396000f3fe60806040526004361061009c5760003560e01c806363466cd01161006457806363466cd0146101465780636a8a03701461014e5780637956d375146101635780637d624676146101855780639d98b6811461018d578063b8c703ed146101ad5761009c565b806339a3e495146100a157806339f8ac03146100ab57806342065a84146100e15780634cc162b4146101015780635023fe9414610126575b600080fd5b6100a96101c2565b005b3480156100b757600080fd5b506100cb6100c6366004611270565b6103ea565b6040516100d89190611387565b60405180910390f35b3480156100ed57600080fd5b506100a96100fc366004611291565b610449565b34801561010d57600080fd5b506101166105d5565b6040516100d89493929190611324565b34801561013257600080fd5b506100cb610141366004611270565b61072b565b6100a9610775565b34801561015a57600080fd5b5061011661089a565b34801561016f57600080fd5b506101786109ee565b6040516100d891906113a1565b6100a9610b48565b34801561019957600080fd5b506100cb6101a8366004611270565b610c6d565b3480156101b957600080fd5b50610116610cb7565b6000600e54600160a01b900460ff1660038111156101f057634e487b7160e01b600052602160045260246000fd5b146102165760405162461bcd60e51b815260040161020d90611477565b60405180910390fd5b60408051606081018252600081523460208201523381830152905160099061023d906112fa565b90815260405160209181900382019020805460018082018355600092835292909120835160039092020180548493919291839160ff19169083600281111561029557634e487b7160e01b600052602160045260246000fd5b021790555060208201516001820155604090910151600290910180546001600160a01b0319166001600160a01b03909216919091179055600b80549060006102dc8361153f565b919050555034600d6040516102f0906112fa565b9081526020016040518091039020600082825461030d91906114e8565b9091555050600f805460018181018355600092909252825160039091027f8d1108e10bcb7c27dddfc02ed9d693a074039d026cf4ea4240b40f7d581ac8020180548493919291839160ff19169083600281111561037a57634e487b7160e01b600052602160045260246000fd5b021790555060208201516001820155604091820151600290910180546001600160a01b0319166001600160a01b03909216919091179055517fd4b76bd808a2ad094a96fd435f55a233dd5e0bc27ed6cd078568bb0759290106906103df9083906114d4565b60405180910390a150565b6008546000906001600160a01b0383811691161461041a5760405162461bcd60e51b815260040161020d906113f4565b600e80546002919060ff60a01b1916600160a01b835b021790555050600e54600160a01b900460ff165b919050565b6008546001600160a01b038281169116146104765760405162461bcd60e51b815260040161020d906113f4565b6002600e54600160a01b900460ff1660038111156104a457634e487b7160e01b600052602160045260246000fd5b146104c15760405162461bcd60e51b815260040161020d90611440565b6000806000806104d086610df7565b935093509350935060005b8381101561057557600085828151811061050557634e487b7160e01b600052603260045260246000fd5b60200260200101519050600061052082602001518587611219565b905081604001516001600160a01b03166108fc829081150290604051600060405180830381858888f1935050505015801561055f573d6000803e3d6000fd5b505050808061056d9061153f565b9150506104db565b50600e805460ff60a01b1916600360a01b17908190556040517fb788f159f71f900499e53244a7e18c381d9fee90ce0d48d4363aaee5589b0c50916105c591600160a01b90910460ff1690611387565b60405180910390a1505050505050565b606060008080806002600754600160a81b900460ff16600281111561060a57634e487b7160e01b600052602160045260246000fd5b14610616576000610619565b60015b9050600960405161062990611314565b9081526020016040518091039020600d60405161064590611314565b908152602001604051809103902054600c548383805480602002602001604051908101604052809291908181526020016000905b82821015610716576000848152602090206040805160608101909152600384029091018054829060ff1660028111156106c257634e487b7160e01b600052602160045260246000fd5b60028111156106e157634e487b7160e01b600052602160045260246000fd5b81526001828101546020808401919091526002909301546001600160a01b031660409092019190915291835292019101610679565b50505050935094509450945094505090919293565b6008546000906001600160a01b0383811691161461075b5760405162461bcd60e51b815260040161020d906113f4565b600e80546001919060ff60a01b1916600160a01b83610430565b6000600e54600160a01b900460ff1660038111156107a357634e487b7160e01b600052602160045260246000fd5b146107c05760405162461bcd60e51b815260040161020d90611477565b6040805160608101825260018152346020820152338183015290516009906107e790611307565b90815260405160209181900382019020805460018082018355600092835292909120835160039092020180548493919291839160ff19169083600281111561083f57634e487b7160e01b600052602160045260246000fd5b021790555060208201516001820155604090910151600290910180546001600160a01b0319166001600160a01b03909216919091179055600a80549060006108868361153f565b919050555034600d6040516102f090611307565b6060600080806002600754600160a81b900460ff1660028111156108ce57634e487b7160e01b600052602160045260246000fd5b146108da5760006108dd565b60015b905060096040516108ed90611307565b9081526020016040518091039020600d60405161090990611307565b908152602001604051809103902054600a548383805480602002602001604051908101604052809291908181526020016000905b828210156109da576000848152602090206040805160608101909152600384029091018054829060ff16600281111561098657634e487b7160e01b600052602160045260246000fd5b60028111156109a557634e487b7160e01b600052602160045260246000fd5b81526001828101546020808401919091526002909301546001600160a01b03166040909201919091529183529201910161093d565b505050509350935093509350935090919293565b60606000600e54600160a01b900460ff166003811115610a1e57634e487b7160e01b600052602160045260246000fd5b1415610a45575060408051808201909152600481526327a822a760e11b6020820152610b45565b6001600e54600160a01b900460ff166003811115610a7357634e487b7160e01b600052602160045260246000fd5b1415610a9c575060408051808201909152600681526510d313d4d15160d21b6020820152610b45565b6002600e54600160a01b900460ff166003811115610aca57634e487b7160e01b600052602160045260246000fd5b1415610af35750604080518082019091526006815265544f2050415960d01b6020820152610b45565b6003600e54600160a01b900460ff166003811115610b2157634e487b7160e01b600052602160045260246000fd5b1415610b455750604080518082019091526005815264141056515160da1b60208201525b90565b6000600e54600160a01b900460ff166003811115610b7657634e487b7160e01b600052602160045260246000fd5b14610b935760405162461bcd60e51b815260040161020d90611477565b604080516060810182526002815234602082015233818301529051600990610bba90611314565b90815260405160209181900382019020805460018082018355600092835292909120835160039092020180548493919291839160ff191690836002811115610c1257634e487b7160e01b600052602160045260246000fd5b021790555060208201516001820155604090910151600290910180546001600160a01b0319166001600160a01b03909216919091179055600c8054906000610c598361153f565b919050555034600d6040516102f090611314565b6008546000906001600160a01b03838116911614610c9d5760405162461bcd60e51b815260040161020d906113f4565b600e80546003919060ff60a01b1916600160a01b83610430565b6060600080806002600754600160a81b900460ff166002811115610ceb57634e487b7160e01b600052602160045260246000fd5b14610cf7576000610cfa565b60015b90506009604051610d0a906112fa565b9081526020016040518091039020600d604051610d26906112fa565b908152602001604051809103902054600b548383805480602002602001604051908101604052809291908181526020016000905b828210156109da576000848152602090206040805160608101909152600384029091018054829060ff166002811115610da357634e487b7160e01b600052602160045260246000fd5b6002811115610dc257634e487b7160e01b600052602160045260246000fd5b81526001828101546020808401919091526002909301546001600160a01b031660409092019190915291835292019101610d5a565b60606000808080856002811115610e1e57634e487b7160e01b600052602160045260246000fd5b1415610f72576009604051610e32906112fa565b9081526020016040518091039020805480602002602001604051908101604052809291908181526020016000905b82821015610efd576000848152602090206040805160608101909152600384029091018054829060ff166002811115610ea957634e487b7160e01b600052602160045260246000fd5b6002811115610ec857634e487b7160e01b600052602160045260246000fd5b81526001828101546020808401919091526002909301546001600160a01b031660409092019190915291835292019101610e60565b505050509350600b549250600d604051610f16906112fa565b9081526020016040518091039020549150600d604051610f3590611314565b908152602001604051809103902054600d604051610f5290611307565b908152602001604051809103902054610f6b91906114e8565b9050611212565b6001856002811115610f9457634e487b7160e01b600052602160045260246000fd5b14156110c8576009604051610fa890611307565b9081526020016040518091039020805480602002602001604051908101604052809291908181526020016000905b82821015611073576000848152602090206040805160608101909152600384029091018054829060ff16600281111561101f57634e487b7160e01b600052602160045260246000fd5b600281111561103e57634e487b7160e01b600052602160045260246000fd5b81526001828101546020808401919091526002909301546001600160a01b031660409092019190915291835292019101610fd6565b505050509350600a549250600d60405161108c90611307565b9081526020016040518091039020549150600d6040516110ab90611314565b908152602001604051809103902054600d604051610f52906112fa565b60096040516110d690611314565b9081526020016040518091039020805480602002602001604051908101604052809291908181526020016000905b828210156111a1576000848152602090206040805160608101909152600384029091018054829060ff16600281111561114d57634e487b7160e01b600052602160045260246000fd5b600281111561116c57634e487b7160e01b600052602160045260246000fd5b81526001828101546020808401919091526002909301546001600160a01b031660409092019190915291835292019101611104565b505050509350600c549250600d6040516111ba90611314565b9081526020016040518091039020549150600d6040516111d990611307565b908152602001604051809103902054600d6040516111f6906112fa565b90815260200160405180910390205461120f91906114e8565b90505b9193509193565b6000826064806112298588611520565b6112339190611500565b61123d9190611500565b6112479190611520565b61125190856114e8565b949350505050565b80356001600160a01b038116811461044457600080fd5b600060208284031215611281578081fd5b61128a82611259565b9392505050565b600080604083850312156112a3578081fd5b8235600381106112b1578182fd5b91506112bf60208401611259565b90509250929050565b8051600381106112da576112da611570565b8252602081810151908301526040908101516001600160a01b0316910152565b604160f81b815260010190565b602160f91b815260010190565b631395531360e21b815260040190565b6080808252855190820181905260009060209060a0840190828901845b82811015611367576113548483516112c8565b6060939093019290840190600101611341565b505050908301959095525060408101929092521515606090910152919050565b602081016004831061139b5761139b611570565b91905290565b6000602080835283518082850152825b818110156113cd578581018301518582016040015282016113b1565b818111156113de5783604083870101525b50601f01601f1916929092016040019392505050565b6020808252602c908201527f596f75206e6565642061646d696e2072696768747320746f20706572666f726d60408201526b103a3434b99030b1ba34b7b760a11b606082015260800190565b60208082526017908201527f626574207374617465206d75737420626520544f504159000000000000000000604082015260600190565b6020808252603a908201527f47616d652068617320616c726561647920737461727465642c20796f7520636160408201527f6e206e6f742074616b65206265747320616e79206c6f6e676572000000000000606082015260800190565b606081016114e282846112c8565b92915050565b600082198211156114fb576114fb61155a565b500190565b60008261151b57634e487b7160e01b81526012600452602481fd5b500490565b600081600019048311821515161561153a5761153a61155a565b500290565b60006000198214156115535761155361155a565b5060010190565b634e487b7160e01b600052601160045260246000fd5b634e487b7160e01b600052602160045260246000fdfea2646970667358221220e42ffda359108178063308aa714bb8587da16c9c9860cd2176bc780c33c0291a64736f6c63430008000033",
  "immutableReferences": {},
  "source": "// SPDX-License-Identifier: UNLICENSED\npragma solidity ^0.8.0;\n\nimport \"./IsCommon.sol\";\nimport \"./BetContract.sol\";\n\ncontract GameContract is IsCommon {\n    // PUBLIC\n    constructor(\n        string memory teamAName,\n        string memory teamBName,\n        string memory _description,\n        uint256 _start,\n        address _admin,\n        string memory cover\n    ) {\n        // setting isCommon storage admin variable\n        admin = _admin;\n        // create new BetContract with reference to the current GameContract;\n        address currentAdmin = getAdmin();\n        BetContract newBetContract = new BetContract(\n            address(this),\n            currentAdmin\n        );\n\n        // storing game data in storage\n        game = Game({\n            teamA: Team({name: teamAName, score: 0}),\n            teamB: Team({name: teamBName, score: 0}),\n            description: _description,\n            cover: cover,\n            start: _start,\n            gameState: GAMESTATES.INCOMING,\n            betContractAddress: address(newBetContract),\n            gameOutcome: GAMEOUTCOMES.NULL\n        });\n    }\n\n    // getters\n\n    function getAdmin() public view returns (address) {\n        return admin;\n    }\n\n    // EXTERNAL\n\n    function getGame()\n        external\n        view\n        returns (\n            address betContractAddress,\n            string memory teamAName,\n            uint256 teamAScore,\n            string memory teamBName,\n            uint256 teamBScore,\n            string memory description,\n            uint256 start,\n            string memory gameState,\n            string memory gameOutcome,\n            string memory cover\n        )\n    {\n        return (\n            game.betContractAddress,\n            game.teamA.name,\n            game.teamA.score,\n            game.teamB.name,\n            game.teamB.score,\n            game.description,\n            game.start,\n            this.getGameState(),\n            this.getGameOutcome(),\n            game.cover\n        );\n    }\n\n    function getGameState() external view returns (string memory gameState) {\n        if (game.gameState == GAMESTATES.INCOMING) {\n            return \"INCOMING\";\n        } else if (game.gameState == GAMESTATES.PLAYING) {\n            return \"PLAYING\";\n        } else if (game.gameState == GAMESTATES.ENDED) {\n            return \"ENDED\";\n        }\n    }\n\n    function getGameOutcome() external view returns (string memory gameOutcome) {\n        if (game.gameOutcome == GAMEOUTCOMES.TEAMA) {\n            return \"TEAMA\";\n        } else if (game.gameOutcome == GAMEOUTCOMES.TEAMB) {\n            return \"TEAMB\";\n        } else if (game.gameOutcome == GAMEOUTCOMES.NULL) {\n            return \"NULL\";\n        }\n    }\n\n    function getTeamA()\n        external\n        view\n        returns (string memory name, uint32 score)\n    {\n        return (game.teamA.name, game.teamA.score);\n    }\n\n    function getTeamB()\n        external\n        view\n        returns (string memory name, uint32 score)\n    {\n        return (game.teamB.name, game.teamB.score);\n    }\n\n    // setters\n    function setScore(string calldata _name, uint32 newScore)\n        external\n        isAdmin()\n    {\n        if (compareStr(game.teamA.name, _name)) {\n            game.teamA.score = newScore;\n            setGameOutcome();\n            emit GameScoreChanged(game.teamA);\n        } else if (compareStr(game.teamB.name, _name)) {\n            game.teamB.score = newScore;\n            setGameOutcome();\n            emit GameScoreChanged(game.teamB);\n        } else {\n            revert(\"Team name is not valid\");\n        }\n    }\n\n    // setters admin\n\n    // set GameContract gameState TO ENDED decide on game outcome and pay winners bets\n    function settleGame() external isAdmin() {\n        game.gameState = GAMESTATES.ENDED;\n        setGameOutcome();\n        BetContract betContract = BetContract(game.betContractAddress);\n        betContract.setBetStateTo_TOPAY(msg.sender);\n        betContract.settleBet(game.gameOutcome, msg.sender);\n        betContract.setBetStateTo_PAYED(msg.sender);\n        emit GameStateChanged(game.gameState);\n    }\n\n    // set GameContract gameState TO PLAYING and set betContract betState to CLOSE\n    function closeBets() external isAdmin() {\n        game.gameState = GAMESTATES.PLAYING;\n        BetContract betContract = BetContract(game.betContractAddress);\n        betContract.setBetStateTo_CLOSE(msg.sender);\n        emit GameStateChanged(game.gameState);\n    }\n\n    //PRIVATE\n\n    // find game outcome\n    function getGameOutcome(uint256 teamAScore, uint256 teamBScore)\n        private\n        view\n        isAdmin()\n        returns (GAMEOUTCOMES)\n    {\n        if (teamAScore > teamBScore) {\n            return GAMEOUTCOMES.TEAMA;\n        } else if (teamBScore > teamAScore) {\n            return GAMEOUTCOMES.TEAMB;\n        } else {\n            return GAMEOUTCOMES.NULL;\n        }\n    }\n\n    // set game outcome\n    function setGameOutcome() private {\n        game.gameOutcome = getGameOutcome(game.teamA.score, game.teamB.score);\n    }\n\n    // utils function to compare string\n    function compareStr(string memory str1, string memory str2)\n        private\n        pure\n        returns (bool)\n    {\n        bytes memory bytesStr1 = bytes(str1);\n        bytes memory bytesStr2 = bytes(str2);\n        if (bytesStr1.length != bytesStr2.length) {\n            return false;\n        }\n        for (uint256 i; i < bytesStr1.length; i++) {\n            if (bytesStr1[i] != bytesStr2[i]) {\n                return false;\n            }\n        }\n        return true;\n    }\n}\n",
  "sourcePath": "/home/neurotropik/Documents/PROJECTS/ETHEREUM/SportsOnTheBlock/contracts/GameContract.sol",
  "compiler": {
    "name": "solc",
    "version": "0.8.0+commit.c7dfd78e.Emscripten.clang"
  },
  "schemaVersion": "3.4.1",
  "updatedAt": "2021-06-27T15:22:55.522Z",
  "devdoc": {
    "kind": "dev",
    "methods": {},
    "version": 1
  },
  "userdoc": {
    "kind": "user",
    "methods": {},
    "version": 1
  }
}