{
  "contractName": "Oracle",
  "abi": [
    {
      "inputs": [],
      "stateMutability": "nonpayable",
      "type": "constructor"
    },
    {
      "anonymous": false,
      "inputs": [
        {
          "components": [
            {
              "internalType": "string",
              "name": "rootUrl",
              "type": "string"
            },
            {
              "internalType": "string",
              "name": "endpoint",
              "type": "string"
            },
            {
              "internalType": "uint256",
              "name": "id",
              "type": "uint256"
            },
            {
              "internalType": "string",
              "name": "paramsToFetch",
              "type": "string"
            },
            {
              "internalType": "uint256",
              "name": "team1Score",
              "type": "uint256"
            },
            {
              "internalType": "uint256",
              "name": "team2Score",
              "type": "uint256"
            },
            {
              "internalType": "bool",
              "name": "exists",
              "type": "bool"
            }
          ],
          "indexed": false,
          "internalType": "struct Oracle.Request",
          "name": "",
          "type": "tuple"
        }
      ],
      "name": "NewRequest",
      "type": "event"
    },
    {
      "inputs": [],
      "name": "bettingContractAddress",
      "outputs": [
        {
          "internalType": "address",
          "name": "",
          "type": "address"
        }
      ],
      "stateMutability": "view",
      "type": "function"
    },
    {
      "inputs": [],
      "name": "owner",
      "outputs": [
        {
          "internalType": "address",
          "name": "",
          "type": "address"
        }
      ],
      "stateMutability": "view",
      "type": "function"
    },
    {
      "inputs": [],
      "name": "deployBettingContract",
      "outputs": [],
      "stateMutability": "nonpayable",
      "type": "function"
    },
    {
      "inputs": [
        {
          "internalType": "uint256",
          "name": "gameId",
          "type": "uint256"
        }
      ],
      "name": "createRequest",
      "outputs": [],
      "stateMutability": "nonpayable",
      "type": "function"
    },
    {
      "inputs": [
        {
          "internalType": "uint256",
          "name": "gameId",
          "type": "uint256"
        },
        {
          "internalType": "uint256",
          "name": "team1Score",
          "type": "uint256"
        },
        {
          "internalType": "uint256",
          "name": "team2Score",
          "type": "uint256"
        }
      ],
      "name": "updateRequest",
      "outputs": [],
      "stateMutability": "nonpayable",
      "type": "function"
    },
    {
      "inputs": [
        {
          "internalType": "uint256",
          "name": "gameId",
          "type": "uint256"
        },
        {
          "internalType": "uint256",
          "name": "competitionId",
          "type": "uint256"
        },
        {
          "internalType": "uint256",
          "name": "start",
          "type": "uint256"
        },
        {
          "internalType": "string",
          "name": "team1Name",
          "type": "string"
        },
        {
          "internalType": "string",
          "name": "team2Name",
          "type": "string"
        }
      ],
      "name": "newGame",
      "outputs": [],
      "stateMutability": "nonpayable",
      "type": "function"
    },
    {
      "inputs": [
        {
          "internalType": "uint256",
          "name": "competitionId",
          "type": "uint256"
        },
        {
          "internalType": "string",
          "name": "name",
          "type": "string"
        }
      ],
      "name": "newCompetition",
      "outputs": [],
      "stateMutability": "nonpayable",
      "type": "function"
    }
  ],
  "bytecode": "0x608060405234801561001057600080fd5b50600080546001600160a01b0319908116339081179091161790556129ae8061003a6000396000f3fe608060405234801561001057600080fd5b506004361061007d5760003560e01c80638da5cb5b1161005b5780638da5cb5b146100bd578063ab49c774146100c5578063ac96c8c9146100d8578063da7620a3146100eb5761007d565b8063081cd7db146100825780631fb87cb71461009757806389324075146100b5575b600080fd5b610095610090366004610867565b6100fe565b005b61009f61016c565b6040516100ac91906109db565b60405180910390f35b61009561017b565b61009f6101e0565b6100956100d33660046108b1565b6101ef565b6100956100e63660046108dc565b61055d565b6100956100f936600461084f565b6105ee565b60025460405163081cd7db60e01b81526001600160a01b0390911690819063081cd7db9061013490879087908790600401610a7f565b600060405180830381600087803b15801561014e57600080fd5b505af1158015610162573d6000803e3d6000fd5b5050505050505050565b6002546001600160a01b031681565b6000546001600160a01b0316331461019257600080fd5b60006040516101a090610762565b604051809103906000f0801580156101bc573d6000803e3d6000fd5b50600280546001600160a01b0319166001600160a01b039290921691909117905550565b6000546001600160a01b031681565b6000546001600160a01b0316331461020657600080fd5b60008381526001602052604090206006015460ff161561055857600083815260016020526040808220815160e0810190925280548290829061024790610aff565b80601f016020809104026020016040519081016040528092919081815260200182805461027390610aff565b80156102c05780601f10610295576101008083540402835291602001916102c0565b820191906000526020600020905b8154815290600101906020018083116102a357829003601f168201915b505050505081526020016001820180546102d990610aff565b80601f016020809104026020016040519081016040528092919081815260200182805461030590610aff565b80156103525780601f1061032757610100808354040283529160200191610352565b820191906000526020600020905b81548152906001019060200180831161033557829003601f168201915b505050505081526020016002820154815260200160038201805461037590610aff565b80601f01602080910402602001604051908101604052809291908181526020018280546103a190610aff565b80156103ee5780601f106103c3576101008083540402835291602001916103ee565b820191906000526020600020905b8154815290600101906020018083116103d157829003601f168201915b50505091835250506004820154602080830191909152600583015460408084019190915260069093015460ff1615156060909201919091526080830186905260a0830185905260008781526001825291909120825180519394508493919261045b9284929091019061076f565b506020828101518051610474926001850192019061076f565b50604082015160028201556060820151805161049a91600384019160209091019061076f565b50608082015160048281019190915560a083015160058084019190915560c0909301516006909201805460ff1916921515929092179091556002805460008881526001602052604090819020928301548385015493909501549051633030242f60e21b81526001600160a01b0390921694859463c0c090bc946105239492939092909101610aa2565b600060405180830381600087803b15801561053d57600080fd5b505af1158015610551573d6000803e3d6000fd5b5050505050505b505050565b6000546001600160a01b0316331461057457600080fd5b60025460405163ac96c8c960e01b81526001600160a01b0390911690819063ac96c8c9906105b2908b908b908b908b908b908b908b90600401610ab8565b600060405180830381600087803b1580156105cc57600080fd5b505af11580156105e0573d6000803e3d6000fd5b505050505050505050505050565b6000546001600160a01b0316331461060557600080fd5b60006040518060e001604052806040518060600160405280602681526020016129536026913981526020016040518060400160405280600a8152602001692f66697874757265732f60b01b81525081526020018381526020016040518060600160405280602f8152602001612924602f913981526000602080830182905260408084018390526001606090940184905286835292815291902082518051939450849391926106b89284929091019061076f565b5060208281015180516106d1926001850192019061076f565b5060408201516002820155606082015180516106f791600384019160209091019061076f565b506080820151600482015560a0820151600582015560c0909101516006909101805460ff19169115159190911790556040517fd98d6c02f1f17da57736544bb2374c9f06c7064254090cf0d80e4751d8e39109906107569083906109ef565b60405180910390a15050565b611de980610b3b83390190565b82805461077b90610aff565b90600052602060002090601f01602090048101928261079d57600085556107e3565b82601f106107b657805160ff19168380011785556107e3565b828001600101855582156107e3579182015b828111156107e35782518255916020019190600101906107c8565b506107ef9291506107f3565b5090565b5b808211156107ef57600081556001016107f4565b60008083601f840112610819578182fd5b50813567ffffffffffffffff811115610830578182fd5b60208301915083602082850101111561084857600080fd5b9250929050565b600060208284031215610860578081fd5b5035919050565b60008060006040848603121561087b578182fd5b83359250602084013567ffffffffffffffff811115610898578283fd5b6108a486828701610808565b9497909650939450505050565b6000806000606084860312156108c5578283fd5b505081359360208301359350604090920135919050565b600080600080600080600060a0888a0312156108f6578283fd5b873596506020880135955060408801359450606088013567ffffffffffffffff80821115610922578485fd5b61092e8b838c01610808565b909650945060808a0135915080821115610946578384fd5b506109538a828b01610808565b989b979a50959850939692959293505050565b60008284528282602086013780602084860101526020601f19601f85011685010190509392505050565b60008151808452815b818110156109b557602081850181015186830182015201610999565b818111156109c65782602083870101525b50601f01601f19169290920160200192915050565b6001600160a01b0391909116815260200190565b600060208252825160e06020840152610a0c610100840182610990565b90506020840151601f1980858403016040860152610a2a8383610990565b925060408601516060860152606086015191508085840301608086015250610a528282610990565b915050608084015160a084015260a084015160c084015260c0840151151560e08401528091505092915050565b600084825260406020830152610a99604083018486610966565b95945050505050565b9283526020830191909152604082015260600190565b600088825287602083015286604083015260a06060830152610ade60a083018688610966565b8281036080840152610af1818587610966565b9a9950505050505050505050565b600281046001821680610b1357607f821691505b60208210811415610b3457634e487b7160e01b600052602260045260246000fd5b5091905056fe608060405234801561001057600080fd5b50600080546001600160a01b031990811633908117909116179055611daf8061003a6000396000f3fe6080604052600436106100915760003560e01c80639d6aaa7d116100595780639d6aaa7d146101435780639f6c0ce314610170578063a2f77bcc14610192578063ac96c8c9146101bf578063c0c090bc146101df57610091565b8063081cd7db146100965780631ccf6955146100b85780636579642b146100ee5780636ffcc7191461010e5780638da5cb5b14610121575b600080fd5b3480156100a257600080fd5b506100b66100b13660046117de565b6101ff565b005b3480156100c457600080fd5b506100d86100d33660046117c6565b6103b9565b6040516100e59190611a72565b60405180910390f35b3480156100fa57600080fd5b506100b66101093660046117c6565b610489565b6100b661011c366004611828565b6104c0565b34801561012d57600080fd5b50610136610603565b6040516100e59190611a5e565b34801561014f57600080fd5b5061016361015e3660046117c6565b610612565b6040516100e59190611b20565b34801561017c57600080fd5b50610185610834565b6040516100e59190611ac0565b34801561019e57600080fd5b506101b26101ad3660046117c6565b610958565b6040516100e59190611ca9565b3480156101cb57600080fd5b506100b66101da366004611874565b610b0a565b3480156101eb57600080fd5b506100b66101fa366004611849565b610de8565b6000546001600160a01b0316331461021657600080fd5b6000604051806080016040528085815260200184848080601f016020809104026020016040519081016040528093929190818152602001838380828437600092018290525093855250506001602080850182905260409485018290528984526002815293909220845181558484015180519596508695919461029d9486019350019061168d565b5060408201516002909101805460609093015115156101000261ff001992151560ff199094169390931791909116919091179055600180548082018255600091909152815160039091027fb10e2d527612073b26eecdfd717e6a320cf44b4afac2b0732d9fcbe2b7fa0cf681019182556020808401518051859493610348937fb10e2d527612073b26eecdfd717e6a320cf44b4afac2b0732d9fcbe2b7fa0cf790910192019061168d565b506040828101516002909201805460609094015115156101000261ff001993151560ff199095169490941792909216929092179055517fe8ec462dbfbc6b452f16d8deef17218d3715b40c1ca0f70527bcc9912329cd84906103ab908390611c8f565b60405180910390a150505050565b600081815260056020526040902060070154606090829062010000900460ff166103fe5760405162461bcd60e51b81526004016103f590611baa565b60405180910390fd5b600083815260046020908152604080832080548251818502810185019093528083529193909284015b8282101561047c576000848152602090819020604080516060810182526003860290920180546001600160a01b0316835260018082015484860152600290910154918301919091529083529092019101610427565b5050505091505b50919050565b6000546001600160a01b031633146104a057600080fd5b6000908152600560205260409020600701805461ff001916610100179055565b600082815260056020526040902060070154829062010000900460ff166104f95760405162461bcd60e51b81526004016103f590611baa565b81600281111561051b5760405162461bcd60e51b81526004016103f590611b7e565b6000848152600560205260409020600701548490610100900460ff16156105545760405162461bcd60e51b81526004016103f590611c3d565b6040805160608101825233815234602080830191825282840188815260008a81526004835285812080546001808201835591835293909120855160039094020180546001600160a01b0319166001600160a01b03909416939093178355925192820192909255905160029091015590517f49497e006b29902259c7a439a9fa5011c00afe0e0aa37e810333db207adcefb0906105f39083908990611c74565b60405180910390a1505050505050565b6000546001600160a01b031681565b600081815260026020819052604090912001546060908290610100900460ff1661064e5760405162461bcd60e51b81526004016103f590611c06565b600083815260036020908152604080832080548251818502810185019093528083529193909284015b8282101561047c578382906000526020600020906008020160405180610140016040529081600082015481526020016001820180546106b590611d13565b80601f01602080910402602001604051908101604052809291908181526020018280546106e190611d13565b801561072e5780601f106107035761010080835404028352916020019161072e565b820191906000526020600020905b81548152906001019060200180831161071157829003601f168201915b5050505050815260200160028201805461074790611d13565b80601f016020809104026020016040519081016040528092919081815260200182805461077390611d13565b80156107c05780601f10610795576101008083540402835291602001916107c0565b820191906000526020600020905b8154815290600101906020018083116107a357829003601f168201915b5050509183525050600382015460208083019190915260048301546040830152600583015460608301526006830154608083015260079092015460ff808216151560a084015261010082048116151560c08401526201000090910416151560e0909101529082526001929092019101610677565b60606001805480602002602001604051908101604052809291908181526020016000905b8282101561094f57838290600052602060002090600302016040518060800160405290816000820154815260200160018201805461089590611d13565b80601f01602080910402602001604051908101604052809291908181526020018280546108c190611d13565b801561090e5780601f106108e35761010080835404028352916020019161090e565b820191906000526020600020905b8154815290600101906020018083116108f157829003601f168201915b50505091835250506002919091015460ff80821615156020808501919091526101009092041615156040909201919091529082526001929092019101610858565b50505050905090565b610960611711565b60056000838152602001908152602001600020604051806101400160405290816000820154815260200160018201805461099990611d13565b80601f01602080910402602001604051908101604052809291908181526020018280546109c590611d13565b8015610a125780601f106109e757610100808354040283529160200191610a12565b820191906000526020600020905b8154815290600101906020018083116109f557829003601f168201915b50505050508152602001600282018054610a2b90611d13565b80601f0160208091040260200160405190810160405280929190818152602001828054610a5790611d13565b8015610aa45780601f10610a7957610100808354040283529160200191610aa4565b820191906000526020600020905b815481529060010190602001808311610a8757829003601f168201915b50505091835250506003820154602082015260048201546040820152600582015460608201526006820154608082015260079091015460ff808216151560a084015261010082048116151560c08401526201000090910416151560e09091015292915050565b600086815260026020819052604090912001548690610100900460ff16610b435760405162461bcd60e51b81526004016103f590611c06565b6000546001600160a01b03163314610b5a57600080fd5b60006040518061014001604052808a815260200187878080601f016020809104026020016040519081016040528093929190818152602001838380828437600092019190915250505090825250604080516020601f880181900481028201810190925286815291810191908790879081908401838280828437600092018290525093855250505060208083018b90526040808401839052606084018390526080840183905260a0840183905260c08401839052600160e09094018490528d8352600582529091208351815583820151805194955085949193610c42939085019291019061168d565b5060408201518051610c5e91600284019160209091019061168d565b5060608201516003808301919091556080830151600483015560a0830151600583015560c0830151600683015560e08301516007909201805461010080860151610120909601511515620100000262ff00001996151590910261ff001995151560ff19909316929092179490941617939093169190911790915560008981526020918252604081208054600181810183559183529183902084516008909302019182558383015180518594610d1793850192019061168d565b5060408201518051610d3391600284019160209091019061168d565b50606082015160038201556080820151600482015560a0820151600582015560c0820151600682015560e08201516007909101805461010080850151610120909501511515620100000262ff00001995151590910261ff001994151560ff19909316929092179390931617929092161790556040517fa767a6eb2512f3582b00e6e26f955916df5c2db941ac8b503b94ccf41a28c03090610dd5908390611ca9565b60405180910390a1505050505050505050565b600083815260056020526040902060070154839062010000900460ff16610e215760405162461bcd60e51b81526004016103f590611baa565b6000546001600160a01b03163314610e3857600080fd5b6000600560008681526020019081526020016000206040518061014001604052908160008201548152602001600182018054610e7390611d13565b80601f0160208091040260200160405190810160405280929190818152602001828054610e9f90611d13565b8015610eec5780601f10610ec157610100808354040283529160200191610eec565b820191906000526020600020905b815481529060010190602001808311610ecf57829003601f168201915b50505050508152602001600282018054610f0590611d13565b80601f0160208091040260200160405190810160405280929190818152602001828054610f3190611d13565b8015610f7e5780601f10610f5357610100808354040283529160200191610f7e565b820191906000526020600020905b815481529060010190602001808311610f6157829003601f168201915b5050509183525050600382015460208083019190915260048301546040808401919091526005808501546060850152600685015460808086019190915260079095015460ff808216151560a08088019190915261010083048216151560c08801526201000090920416151560e0958601529486018a9052938501889052600192850183905260008a8152938252909220835181558383015180519495508594919361102e9385019291019061168d565b506040820151805161104a91600284019160209091019061168d565b50606082015160038201556080820151600482015560a082015160058083019190915560c0830151600683015560e08301516007928301805461010080870151610120909701511515620100000262ff00001997151590910261ff001994151560ff19909316929092179390931617949094161790925560008781526020929092526040909120015460ff166110f25760405162461bcd60e51b81526004016103f590611bd8565b60006110fd866112ad565b9050600060046000888152602001908152602001600020805480602002602001604051908101604052809291908181526020016000905b82821015611189576000848152602090819020604080516060810182526003860290920180546001600160a01b0316835260018082015484860152600290910154918301919091529083529092019101611134565b505050509050600080600061119e84866114ed565b95505050935050925060005b83518110156112685760008482815181106111d557634e487b7160e01b600052603260045260246000fd5b60200260200101519050600084826020015160646111f39190611cf4565b6111fd9190611cd4565b6112079085611cf4565b905081600001516001600160a01b03166108fc82846020015161122a9190611cbc565b6040518115909202916000818181858888f19350505050158015611252573d6000803e3d6000fd5b505050808061126090611d48565b9150506111aa565b507fdf7a1dfb51dd87859a6f44cf9bddb076effbccd933619eec97e64a79fd94d32460016040516112999190611b73565b60405180910390a150505050505050505050565b600080546001600160a01b031633146112c557600080fd5b600082815260056020526040902060070154829062010000900460ff166112fe5760405162461bcd60e51b81526004016103f590611baa565b600060056000858152602001908152602001600020604051806101400160405290816000820154815260200160018201805461133990611d13565b80601f016020809104026020016040519081016040528092919081815260200182805461136590611d13565b80156113b25780601f10611387576101008083540402835291602001916113b2565b820191906000526020600020905b81548152906001019060200180831161139557829003601f168201915b505050505081526020016002820180546113cb90611d13565b80601f01602080910402602001604051908101604052809291908181526020018280546113f790611d13565b80156114445780601f1061141957610100808354040283529160200191611444565b820191906000526020600020905b81548152906001019060200180831161142757829003601f168201915b5050509183525050600382015460208201526004820154604082015260058201546060820152600682015460808083019190915260079092015460ff808216151560a08085019190915261010083048216151560c08501526201000090920416151560e0909201919091528201519082015191925010156114c9576001925050610483565b80608001518160a0015111156114e3576002925050610483565b6000925050610483565b6060600080606060008060005b8851811015611682578789828151811061152457634e487b7160e01b600052603260045260246000fd5b60200260200101516040015114156115d55788818151811061155657634e487b7160e01b600052603260045260246000fd5b602002602001015187878151811061157e57634e487b7160e01b600052603260045260246000fd5b6020026020010181905250858061159490611d48565b9650508881815181106115b757634e487b7160e01b600052603260045260246000fd5b602002602001015160200151856115ce9190611cbc565b9450611670565b8881815181106115f557634e487b7160e01b600052603260045260246000fd5b602002602001015184848151811061161d57634e487b7160e01b600052603260045260246000fd5b6020026020010181905250828061163390611d48565b93505088818151811061165657634e487b7160e01b600052603260045260246000fd5b6020026020010151602001518261166d9190611cbc565b91505b8061167a81611d48565b9150506114fa565b509295509295509295565b82805461169990611d13565b90600052602060002090601f0160209004810192826116bb5760008555611701565b82601f106116d457805160ff1916838001178555611701565b82800160010185558215611701579182015b828111156117015782518255916020019190600101906116e6565b5061170d92915061176a565b5090565b604051806101400160405280600081526020016060815260200160608152602001600081526020016000815260200160008152602001600081526020016000151581526020016000151581526020016000151581525090565b5b8082111561170d576000815560010161176b565b60008083601f840112611790578182fd5b50813567ffffffffffffffff8111156117a7578182fd5b6020830191508360208285010111156117bf57600080fd5b9250929050565b6000602082840312156117d7578081fd5b5035919050565b6000806000604084860312156117f2578182fd5b83359250602084013567ffffffffffffffff81111561180f578283fd5b61181b8682870161177f565b9497909650939450505050565b6000806040838503121561183a578182fd5b50508035926020909101359150565b60008060006060848603121561185d578283fd5b505081359360208301359350604090920135919050565b600080600080600080600060a0888a03121561188e578283fd5b873596506020880135955060408801359450606088013567ffffffffffffffff808211156118ba578485fd5b6118c68b838c0161177f565b909650945060808a01359150808211156118de578384fd5b506118eb8a828b0161177f565b989b979a50959850939692959293505050565b15159052565b60008151808452815b818110156119295760208185018101518683018201520161190d565b8181111561193a5782602083870101525b50601f01601f19169290920160200192915050565b80516001600160a01b0316825260208082015190830152604090810151910152565b6000815183526020820151608060208501526119906080850182611904565b90506040830151151560408501526060830151151560608501528091505092915050565b60006101408251845260208301518160208601526119d482860182611904565b915050604083015184820360408601526119ee8282611904565b915050606083015160608501526080830151608085015260a083015160a085015260c083015160c085015260e0830151611a2b60e08601826118fe565b5061010080840151611a3f828701826118fe565b505061012080840151611a54828701826118fe565b5090949350505050565b6001600160a01b0391909116815260200190565b6020808252825182820181905260009190848201906040850190845b81811015611ab457611aa183855161194f565b9284019260609290920191600101611a8e565b50909695505050505050565b6000602080830181845280855180835260408601915060408482028701019250838701855b82811015611b1357603f19888603018452611b01858351611971565b94509285019290850190600101611ae5565b5092979650505050505050565b6000602080830181845280855180835260408601915060408482028701019250838701855b82811015611b1357603f19888603018452611b618583516119b4565b94509285019290850190600101611b45565b901515815260200190565b60208082526012908201527113dd5d18dbdb59481a5cc81a5b9d985b1a5960721b604082015260600190565b60208082526014908201527347616d6520646f6573206e6f742065786973747360601b604082015260600190565b60208082526014908201527311d85b59481b5d5cdd081a185d9948195b99195960621b604082015260600190565b6020808252601b908201527f436f6d7065746974696f6e20646f6573206e6f74206578697374730000000000604082015260600190565b60208082526018908201527f67616d652068617320616c726561647920737461727465640000000000000000604082015260600190565b60808101611c82828561194f565b8260608301529392505050565b600060208252611ca26020830184611971565b9392505050565b600060208252611ca260208301846119b4565b60008219821115611ccf57611ccf611d63565b500190565b600082611cef57634e487b7160e01b81526012600452602481fd5b500490565b6000816000190483118215151615611d0e57611d0e611d63565b500290565b600281046001821680611d2757607f821691505b6020821081141561048357634e487b7160e01b600052602260045260246000fd5b6000600019821415611d5c57611d5c611d63565b5060010190565b634e487b7160e01b600052601160045260246000fdfea2646970667358221220cffa38442d57460b6cbd631029726b835aa37743e335aede765f0503b5f2701264736f6c6343000800003373636f7265732e6c6f63616c7465616d5f73636f72652c73636f7265732e76697369746f727465616d5f73636f726568747470733a2f2f736f636365722e73706f72746d6f6e6b732e636f6d2f6170692f76322e30a26469706673582212202306a9b0f4f0671f45668a1b36589d75e80be13899b5ca440b40540d530bcb1d64736f6c63430008000033",
  "immutableReferences": {},
  "source": "// SPDX-License-Identifier: UNLICENSED\npragma solidity ^0.8.0;\n\nimport \"./Owner.sol\";\nimport \"./BettingContract.sol\";\n\ncontract Oracle is Owner {\n    event NewRequest(Request);\n\n    struct Request {\n        string rootUrl;\n        string endpoint;\n        uint256 id;\n        string paramsToFetch;\n        uint256 team1Score;\n        uint256 team2Score;\n        bool exists;\n    }\n\n    mapping(uint256 => Request) requests;\n\n    address public bettingContractAddress;\n\n    constructor() {\n        owner = msg.sender;\n    }\n\n    function deployBettingContract() external isOwner() {\n        BettingContract bettingContract = new BettingContract();\n        bettingContractAddress = address(bettingContract);\n    }\n\n    function createRequest(uint256 gameId) external isOwner() {\n        Request memory newRequest = Request({\n            rootUrl: \"https://soccer.sportmonks.com/api/v2.0\",\n            endpoint: \"/fixtures/\",\n            id: gameId,\n            paramsToFetch: \"scores.localteam_score,scores.visitorteam_score\",\n            team1Score: 0,\n            team2Score: 0,\n            exists: true\n        });\n\n        requests[gameId] = newRequest;\n        emit NewRequest(newRequest);\n    }\n\n    function updateRequest(\n        uint256 gameId,\n        uint256 team1Score,\n        uint256 team2Score\n    ) external isOwner() {\n        if (requests[gameId].exists) {\n            Request memory request = requests[gameId];\n            request.team1Score = team1Score;\n            request.team2Score = team2Score;\n            requests[gameId] = request;\n            BettingContract bettingContract = BettingContract(\n                bettingContractAddress\n            );\n            bettingContract.settleGame(\n                requests[gameId].id,\n                requests[gameId].team1Score,\n                requests[gameId].team2Score\n            );\n        }\n    }\n\n    function newGame(\n        uint256 gameId,\n        uint256 competitionId,\n        uint256 start,\n        string calldata team1Name,\n        string calldata team2Name\n    ) external isOwner() {\n        BettingContract bettingContract = BettingContract(\n            bettingContractAddress\n        );\n        bettingContract.newGame(\n            gameId,\n            competitionId,\n            start,\n            team1Name,\n            team2Name\n        );\n    }\n\n    function newCompetition(uint256 competitionId, string calldata name)\n        external\n    {\n        BettingContract bettingContract = BettingContract(\n            bettingContractAddress\n        );\n        bettingContract.newCompetition(competitionId, name);\n    }\n}\n",
  "sourcePath": "/home/kstwa/Documents/SportsOnTheBlock/contracts/Oracle.sol",
  "compiler": {
    "name": "solc",
    "version": "0.8.0+commit.c7dfd78e.Emscripten.clang"
  },
  "schemaVersion": "3.4.1",
  "updatedAt": "2021-07-11T06:54:07.169Z",
  "devdoc": {
    "kind": "dev",
    "methods": {},
    "version": 1
  },
  "userdoc": {
    "kind": "user",
    "methods": {},
    "version": 1
  }
}