{
  "contractName": "Oracle",
  "abi": [
    {
      "inputs": [],
      "stateMutability": "nonpayable",
      "type": "constructor"
    },
    {
      "anonymous": false,
      "inputs": [
        {
          "components": [
            {
              "internalType": "string",
              "name": "rootUrl",
              "type": "string"
            },
            {
              "internalType": "string",
              "name": "endpoint",
              "type": "string"
            },
            {
              "internalType": "uint256",
              "name": "id",
              "type": "uint256"
            },
            {
              "internalType": "string",
              "name": "paramsToFetch",
              "type": "string"
            },
            {
              "internalType": "uint256",
              "name": "team1Score",
              "type": "uint256"
            },
            {
              "internalType": "uint256",
              "name": "team2Score",
              "type": "uint256"
            },
            {
              "internalType": "bool",
              "name": "exists",
              "type": "bool"
            }
          ],
          "indexed": false,
          "internalType": "struct Oracle.Request",
          "name": "",
          "type": "tuple"
        }
      ],
      "name": "NewRequest",
      "type": "event"
    },
    {
      "inputs": [],
      "name": "bettingContractAddress",
      "outputs": [
        {
          "internalType": "address",
          "name": "",
          "type": "address"
        }
      ],
      "stateMutability": "view",
      "type": "function"
    },
    {
      "inputs": [],
      "name": "owner",
      "outputs": [
        {
          "internalType": "address",
          "name": "",
          "type": "address"
        }
      ],
      "stateMutability": "view",
      "type": "function"
    },
    {
      "inputs": [],
      "name": "deployBettingContract",
      "outputs": [],
      "stateMutability": "nonpayable",
      "type": "function"
    },
    {
      "inputs": [
        {
          "internalType": "uint256",
          "name": "gameId",
          "type": "uint256"
        }
      ],
      "name": "createRequest",
      "outputs": [],
      "stateMutability": "nonpayable",
      "type": "function"
    },
    {
      "inputs": [
        {
          "internalType": "uint256",
          "name": "gameId",
          "type": "uint256"
        },
        {
          "internalType": "uint256",
          "name": "team1Score",
          "type": "uint256"
        },
        {
          "internalType": "uint256",
          "name": "team2Score",
          "type": "uint256"
        }
      ],
      "name": "updateRequest",
      "outputs": [],
      "stateMutability": "nonpayable",
      "type": "function"
    },
    {
      "inputs": [
        {
          "internalType": "uint256",
          "name": "gameId",
          "type": "uint256"
        },
        {
          "internalType": "uint256",
          "name": "competitionId",
          "type": "uint256"
        },
        {
          "internalType": "uint256",
          "name": "start",
          "type": "uint256"
        }
      ],
      "name": "newGame",
      "outputs": [],
      "stateMutability": "nonpayable",
      "type": "function"
    },
    {
      "inputs": [
        {
          "internalType": "uint256",
          "name": "competitionId",
          "type": "uint256"
        }
      ],
      "name": "newCompetition",
      "outputs": [],
      "stateMutability": "nonpayable",
      "type": "function"
    }
  ],
  "bytecode": "0x608060405234801561001057600080fd5b50336000806101000a81548173ffffffffffffffffffffffffffffffffffffffff021916908373ffffffffffffffffffffffffffffffffffffffff160217905550336000806101000a81548173ffffffffffffffffffffffffffffffffffffffff021916908373ffffffffffffffffffffffffffffffffffffffff160217905550612ea6806100a06000396000f3fe608060405234801561001057600080fd5b506004361061007d5760003560e01c80638da5cb5b1161005b5780638da5cb5b146100c657806398d079a7146100e4578063ab49c77414610100578063da7620a31461011c5761007d565b80631fb87cb71461008257806330852db8146100a057806389324075146100bc575b600080fd5b61008a610138565b6040516100979190610c43565b60405180910390f35b6100ba60048036038101906100b59190610ad5565b61015e565b005b6100c4610252565b005b6100ce61031b565b6040516100db9190610c43565b60405180910390f35b6100fe60048036038101906100f99190610aac565b61033f565b005b61011a60048036038101906101159190610ad5565b6103d5565b005b61013660048036038101906101319190610aac565b610807565b005b600260009054906101000a900473ffffffffffffffffffffffffffffffffffffffff1681565b60008054906101000a900473ffffffffffffffffffffffffffffffffffffffff1673ffffffffffffffffffffffffffffffffffffffff163373ffffffffffffffffffffffffffffffffffffffff16146101b657600080fd5b6000600260009054906101000a900473ffffffffffffffffffffffffffffffffffffffff1690508073ffffffffffffffffffffffffffffffffffffffff166330852db88585856040518463ffffffff1660e01b815260040161021a93929190610c9b565b600060405180830381600087803b15801561023457600080fd5b505af1158015610248573d6000803e3d6000fd5b5050505050505050565b60008054906101000a900473ffffffffffffffffffffffffffffffffffffffff1673ffffffffffffffffffffffffffffffffffffffff163373ffffffffffffffffffffffffffffffffffffffff16146102aa57600080fd5b60006040516102b8906109e7565b604051809103906000f0801580156102d4573d6000803e3d6000fd5b50905080600260006101000a81548173ffffffffffffffffffffffffffffffffffffffff021916908373ffffffffffffffffffffffffffffffffffffffff16021790555050565b60008054906101000a900473ffffffffffffffffffffffffffffffffffffffff1681565b6000600260009054906101000a900473ffffffffffffffffffffffffffffffffffffffff1690508073ffffffffffffffffffffffffffffffffffffffff166398d079a7836040518263ffffffff1660e01b815260040161039f9190610c80565b600060405180830381600087803b1580156103b957600080fd5b505af11580156103cd573d6000803e3d6000fd5b505050505050565b60008054906101000a900473ffffffffffffffffffffffffffffffffffffffff1673ffffffffffffffffffffffffffffffffffffffff163373ffffffffffffffffffffffffffffffffffffffff161461042d57600080fd5b6001600084815260200190815260200160002060060160009054906101000a900460ff1615610802576000600160008581526020019081526020016000206040518060e001604052908160008201805461048690610d69565b80601f01602080910402602001604051908101604052809291908181526020018280546104b290610d69565b80156104ff5780601f106104d4576101008083540402835291602001916104ff565b820191906000526020600020905b8154815290600101906020018083116104e257829003601f168201915b5050505050815260200160018201805461051890610d69565b80601f016020809104026020016040519081016040528092919081815260200182805461054490610d69565b80156105915780601f1061056657610100808354040283529160200191610591565b820191906000526020600020905b81548152906001019060200180831161057457829003601f168201915b50505050508152602001600282015481526020016003820180546105b490610d69565b80601f01602080910402602001604051908101604052809291908181526020018280546105e090610d69565b801561062d5780601f106106025761010080835404028352916020019161062d565b820191906000526020600020905b81548152906001019060200180831161061057829003601f168201915b5050505050815260200160048201548152602001600582015481526020016006820160009054906101000a900460ff161515151581525050905082816080018181525050818160a0018181525050806001600086815260200190815260200160002060008201518160000190805190602001906106ab9291906109f4565b5060208201518160010190805190602001906106c89291906109f4565b506040820151816002015560608201518160030190805190602001906106ef9291906109f4565b506080820151816004015560a0820151816005015560c08201518160060160006101000a81548160ff0219169083151502179055509050506000600260009054906101000a900473ffffffffffffffffffffffffffffffffffffffff1690508073ffffffffffffffffffffffffffffffffffffffff1663c0c090bc60016000888152602001908152602001600020600201546001600089815260200190815260200160002060040154600160008a8152602001908152602001600020600501546040518463ffffffff1660e01b81526004016107cd93929190610c9b565b600060405180830381600087803b1580156107e757600080fd5b505af11580156107fb573d6000803e3d6000fd5b5050505050505b505050565b60008054906101000a900473ffffffffffffffffffffffffffffffffffffffff1673ffffffffffffffffffffffffffffffffffffffff163373ffffffffffffffffffffffffffffffffffffffff161461085f57600080fd5b60006040518060e00160405280604051806060016040528060268152602001612e4b6026913981526020016040518060400160405280600a81526020017f2f66697874757265732f0000000000000000000000000000000000000000000081525081526020018381526020016040518060600160405280602f8152602001612e1c602f913981526020016000815260200160008152602001600115158152509050806001600084815260200190815260200160002060008201518160000190805190602001906109309291906109f4565b50602082015181600101908051906020019061094d9291906109f4565b506040820151816002015560608201518160030190805190602001906109749291906109f4565b506080820151816004015560a0820151816005015560c08201518160060160006101000a81548160ff0219169083151502179055509050507fd98d6c02f1f17da57736544bb2374c9f06c7064254090cf0d80e4751d8e39109816040516109db9190610c5e565b60405180910390a15050565b61202980610df383390190565b828054610a0090610d69565b90600052602060002090601f016020900481019282610a225760008555610a69565b82601f10610a3b57805160ff1916838001178555610a69565b82800160010185558215610a69579182015b82811115610a68578251825591602001919060010190610a4d565b5b509050610a769190610a7a565b5090565b5b80821115610a93576000816000905550600101610a7b565b5090565b600081359050610aa681610ddb565b92915050565b600060208284031215610abe57600080fd5b6000610acc84828501610a97565b91505092915050565b600080600060608486031215610aea57600080fd5b6000610af886828701610a97565b9350506020610b0986828701610a97565b9250506040610b1a86828701610a97565b9150509250925092565b610b2d81610cee565b82525050565b610b3c81610d00565b82525050565b6000610b4d82610cd2565b610b578185610cdd565b9350610b67818560208601610d36565b610b7081610dca565b840191505092915050565b600060e0830160008301518482036000860152610b988282610b42565b91505060208301518482036020860152610bb28282610b42565b9150506040830151610bc76040860182610c25565b5060608301518482036060860152610bdf8282610b42565b9150506080830151610bf46080860182610c25565b5060a0830151610c0760a0860182610c25565b5060c0830151610c1a60c0860182610b33565b508091505092915050565b610c2e81610d2c565b82525050565b610c3d81610d2c565b82525050565b6000602082019050610c586000830184610b24565b92915050565b60006020820190508181036000830152610c788184610b7b565b905092915050565b6000602082019050610c956000830184610c34565b92915050565b6000606082019050610cb06000830186610c34565b610cbd6020830185610c34565b610cca6040830184610c34565b949350505050565b600081519050919050565b600082825260208201905092915050565b6000610cf982610d0c565b9050919050565b60008115159050919050565b600073ffffffffffffffffffffffffffffffffffffffff82169050919050565b6000819050919050565b60005b83811015610d54578082015181840152602081019050610d39565b83811115610d63576000848401525b50505050565b60006002820490506001821680610d8157607f821691505b60208210811415610d9557610d94610d9b565b5b50919050565b7f4e487b7100000000000000000000000000000000000000000000000000000000600052602260045260246000fd5b6000601f19601f8301169050919050565b610de481610d2c565b8114610def57600080fd5b5056fe608060405234801561001057600080fd5b50336000806101000a81548173ffffffffffffffffffffffffffffffffffffffff021916908373ffffffffffffffffffffffffffffffffffffffff160217905550336000806101000a81548173ffffffffffffffffffffffffffffffffffffffff021916908373ffffffffffffffffffffffffffffffffffffffff160217905550611f89806100a06000396000f3fe6080604052600436106100a75760003560e01c806398d079a71161006457806398d079a7146101bf5780639d6aaa7d146101e85780639f6c0ce314610225578063a2f77bcc14610250578063c0c090bc1461028d578063da839c97146102b6576100a7565b80631ccf6955146100ac57806330852db8146100e95780636579642b146101125780636ffcc7191461013b57806386815fa9146101575780638da5cb5b14610194575b600080fd5b3480156100b857600080fd5b506100d360048036038101906100ce9190611688565b6102d2565b6040516100e09190611b56565b60405180910390f35b3480156100f557600080fd5b50610110600480360381019061010b9190611716565b610413565b005b34801561011e57600080fd5b5061013960048036038101906101349190611688565b610663565b005b610155600480360381019061015091906116da565b6106ed565b005b34801561016357600080fd5b5061017e60048036038101906101799190611688565b610996565b60405161018b9190611c9a565b60405180910390f35b3480156101a057600080fd5b506101a9610b91565b6040516101b69190611b3b565b60405180910390f35b3480156101cb57600080fd5b506101e660048036038101906101e19190611688565b610bb5565b005b3480156101f457600080fd5b5061020f600480360381019061020a9190611688565b610c70565b60405161021c9190611b78565b60405180910390f35b34801561023157600080fd5b5061023a610cdb565b6040516102479190611b78565b60405180910390f35b34801561025c57600080fd5b5061027760048036038101906102729190611688565b610d33565b6040516102849190611c7e565b60405180910390f35b34801561029957600080fd5b506102b460048036038101906102af9190611716565b610df8565b005b6102d060048036038101906102cb9190611688565b6110d8565b005b6060816004600082815260200190815260200160002060070160029054906101000a900460ff16610338576040517f08c379a000000000000000000000000000000000000000000000000000000000815260040161032f90611c15565b60405180910390fd5b60036000848152602001908152602001600020805480602002602001604051908101604052809291908181526020016000905b8282101561040757838290600052602060002090600302016040518060600160405290816000820160009054906101000a900473ffffffffffffffffffffffffffffffffffffffff1673ffffffffffffffffffffffffffffffffffffffff1673ffffffffffffffffffffffffffffffffffffffff168152602001600182015481526020016002820154815250508152602001906001019061036b565b50505050915050919050565b826004600082815260200190815260200160002060070160029054906101000a900460ff1615610478576040517f08c379a000000000000000000000000000000000000000000000000000000000815260040161046f90611bf5565b60405180910390fd5b60008054906101000a900473ffffffffffffffffffffffffffffffffffffffff1673ffffffffffffffffffffffffffffffffffffffff163373ffffffffffffffffffffffffffffffffffffffff16146104d057600080fd5b600060405180610140016040528086815260200184815260200160008152602001600081526020016000815260200160008152602001600081526020016000151581526020016000151581526020016001151581525090508060046000878152602001908152602001600020600082015181600001556020820151816001015560408201518160020155606082015181600301556080820151816004015560a0820151816005015560c0820151816006015560e08201518160070160006101000a81548160ff0219169083151502179055506101008201518160070160016101000a81548160ff0219169083151502179055506101208201518160070160026101000a81548160ff02191690831515021790555090505060026000858152602001908152602001600020816000015190806001815401808255809150506001900390600052602060002001600090919091909150557f57e59bf1623ed8daab69247f6aab2e3f69b7633c0a042b5b88b3b3bb13518dd4816040516106549190611c7e565b60405180910390a15050505050565b60008054906101000a900473ffffffffffffffffffffffffffffffffffffffff1673ffffffffffffffffffffffffffffffffffffffff163373ffffffffffffffffffffffffffffffffffffffff16146106bb57600080fd5b60016004600083815260200190815260200160002060070160016101000a81548160ff02191690831515021790555050565b816004600082815260200190815260200160002060070160029054906101000a900460ff16610751576040517f08c379a000000000000000000000000000000000000000000000000000000000815260040161074890611c15565b60405180910390fd5b8160008110158015610764575060028111155b6107a3576040517f08c379a000000000000000000000000000000000000000000000000000000000815260040161079a90611bd5565b60405180910390fd5b83600015156004600083815260200190815260200160002060070160019054906101000a900460ff1615151461080e576040517f08c379a000000000000000000000000000000000000000000000000000000000815260040161080590611c35565b60405180910390fd5b600060405180606001604052803373ffffffffffffffffffffffffffffffffffffffff1681526020013481526020018681525090506003600087815260200190815260200160002081908060018154018082558091505060019003906000526020600020906003020160009091909190915060008201518160000160006101000a81548173ffffffffffffffffffffffffffffffffffffffff021916908373ffffffffffffffffffffffffffffffffffffffff1602179055506020820151816001015560408201518160020155505034600560003373ffffffffffffffffffffffffffffffffffffffff1673ffffffffffffffffffffffffffffffffffffffff16815260200190815260200160002060008881526020019081526020016000206000878152602001908152602001600020600082825461094e9190611d38565b925050819055507f49497e006b29902259c7a439a9fa5011c00afe0e0aa37e810333db207adcefb08187604051610986929190611c55565b60405180910390a1505050505050565b6000816004600082815260200190815260200160002060070160029054906101000a900460ff166109fc576040517f08c379a00000000000000000000000000000000000000000000000000000000081526004016109f390611c15565b60405180910390fd5b82600115156004600083815260200190815260200160002060070160009054906101000a900460ff16151514610a67576040517f08c379a0000000000000000000000000000000000000000000000000000000008152600401610a5e90611bb5565b60405180910390fd5b60006004600086815260200190815260200160002060405180610140016040529081600082015481526020016001820154815260200160028201548152602001600382015481526020016004820154815260200160058201548152602001600682015481526020016007820160009054906101000a900460ff161515151581526020016007820160019054906101000a900460ff161515151581526020016007820160029054906101000a900460ff1615151515815250509050600560003373ffffffffffffffffffffffffffffffffffffffff1673ffffffffffffffffffffffffffffffffffffffff1681526020019081526020016000206000868152602001908152602001600020600082608001518152602001908152602001600020549350505050919050565b60008054906101000a900473ffffffffffffffffffffffffffffffffffffffff1681565b60008054906101000a900473ffffffffffffffffffffffffffffffffffffffff1673ffffffffffffffffffffffffffffffffffffffff163373ffffffffffffffffffffffffffffffffffffffff1614610c0d57600080fd5b60018190806001815401808255809150506001900390600052602060002001600090919091909150557f9edc9bae9b3983d36dfb38fff741c45440f54213c4782f68a10a50cc5d753c7c81604051610c659190611c9a565b60405180910390a150565b606060026000838152602001908152602001600020805480602002602001604051908101604052809291908181526020018280548015610ccf57602002820191906000526020600020905b815481526020019060010190808311610cbb575b50505050509050919050565b60606001805480602002602001604051908101604052809291908181526020018280548015610d2957602002820191906000526020600020905b815481526020019060010190808311610d15575b5050505050905090565b610d3b611605565b6004600083815260200190815260200160002060405180610140016040529081600082015481526020016001820154815260200160028201548152602001600382015481526020016004820154815260200160058201548152602001600682015481526020016007820160009054906101000a900460ff161515151581526020016007820160019054906101000a900460ff161515151581526020016007820160029054906101000a900460ff1615151515815250509050919050565b826004600082815260200190815260200160002060070160029054906101000a900460ff16610e5c576040517f08c379a0000000000000000000000000000000000000000000000000000000008152600401610e5390611c15565b60405180910390fd5b60008054906101000a900473ffffffffffffffffffffffffffffffffffffffff1673ffffffffffffffffffffffffffffffffffffffff163373ffffffffffffffffffffffffffffffffffffffff1614610eb457600080fd5b6000806000610ec287611327565b92509250925060006004600089815260200190815260200160002060405180610140016040529081600082015481526020016001820154815260200160028201548152602001600382015481526020016004820154815260200160058201548152602001600682015481526020016007820160009054906101000a900460ff161515151581526020016007820160019054906101000a900460ff161515151581526020016007820160029054906101000a900460ff1615151515815250509050868160400181815250508581606001818152505060018160e001901515908115158152505060018161010001901515908115158152505081816080018181525050828160c0018181525050838160a001818152505080600460008a8152602001908152602001600020600082015181600001556020820151816001015560408201518160020155606082015181600301556080820151816004015560a0820151816005015560c0820151816006015560e08201518160070160006101000a81548160ff0219169083151502179055506101008201518160070160016101000a81548160ff0219169083151502179055506101208201518160070160026101000a81548160ff0219169083151502179055509050507fdf7a1dfb51dd87859a6f44cf9bddb076effbccd933619eec97e64a79fd94d32460016040516110c69190611b9a565b60405180910390a15050505050505050565b806004600082815260200190815260200160002060070160029054906101000a900460ff1661113c576040517f08c379a000000000000000000000000000000000000000000000000000000000815260040161113390611c15565b60405180910390fd5b60006004600084815260200190815260200160002060405180610140016040529081600082015481526020016001820154815260200160028201548152602001600382015481526020016004820154815260200160058201548152602001600682015481526020016007820160009054906101000a900460ff161515151581526020016007820160019054906101000a900460ff161515151581526020016007820160029054906101000a900460ff161515151581525050905060003073ffffffffffffffffffffffffffffffffffffffff166386815fa9856040518263ffffffff1660e01b81526004016112319190611c9a565b60206040518083038186803b15801561124957600080fd5b505afa15801561125d573d6000803e3d6000fd5b505050506040513d601f19601f8201168201806040525081019061128191906116b1565b905060006404a817c80060648460c001518560a001516064866112a49190611dbf565b6112ae9190611d8e565b6112b89190611dbf565b6112c29190611d8e565b6112cc9190611e19565b90503373ffffffffffffffffffffffffffffffffffffffff166108fc83836112f49190611d38565b9081150290604051600060405180830381858888f1935050505015801561131f573d6000803e3d6000fd5b505050505050565b6000806000611335846114b1565b905060005b60036000868152602001908152602001600020805490508110156114a957816003600087815260200190815260200160002082815481106113a4577f4e487b7100000000000000000000000000000000000000000000000000000000600052603260045260246000fd5b906000526020600020906003020160020154141561142b57600360008681526020019081526020016000208181548110611407577f4e487b7100000000000000000000000000000000000000000000000000000000600052603260045260246000fd5b906000526020600020906003020160010154846114249190611d38565b9350611496565b600360008681526020019081526020016000208181548110611476577f4e487b7100000000000000000000000000000000000000000000000000000000600052603260045260246000fd5b906000526020600020906003020160010154836114939190611d38565b92505b80806114a190611e95565b91505061133a565b509193909250565b60008060009054906101000a900473ffffffffffffffffffffffffffffffffffffffff1673ffffffffffffffffffffffffffffffffffffffff163373ffffffffffffffffffffffffffffffffffffffff161461150c57600080fd5b60006004600084815260200190815260200160002060405180610140016040529081600082015481526020016001820154815260200160028201548152602001600382015481526020016004820154815260200160058201548152602001600682015481526020016007820160009054906101000a900460ff161515151581526020016007820160019054906101000a900460ff161515151581526020016007820160029054906101000a900460ff16151515158152505090508060600151816040015111156115e0576001915050611600565b8060400151816060015111156115fa576002915050611600565b60009150505b919050565b604051806101400160405280600081526020016000815260200160008152602001600081526020016000815260200160008152602001600081526020016000151581526020016000151581526020016000151581525090565b60008135905061166d81611f3c565b92915050565b60008151905061168281611f3c565b92915050565b60006020828403121561169a57600080fd5b60006116a88482850161165e565b91505092915050565b6000602082840312156116c357600080fd5b60006116d184828501611673565b91505092915050565b600080604083850312156116ed57600080fd5b60006116fb8582860161165e565b925050602061170c8582860161165e565b9150509250929050565b60008060006060848603121561172b57600080fd5b60006117398682870161165e565b935050602061174a8682870161165e565b925050604061175b8682870161165e565b9150509250925092565b600061177183836119cd565b60608301905092915050565b60006117898383611b1d565b60208301905092915050565b61179e81611e4d565b82525050565b6117ad81611e4d565b82525050565b60006117be82611cd5565b6117c88185611d05565b93506117d383611cb5565b8060005b838110156118045781516117eb8882611765565b97506117f683611ceb565b9250506001810190506117d7565b5085935050505092915050565b600061181c82611ce0565b6118268185611d16565b935061183183611cc5565b8060005b83811015611862578151611849888261177d565b975061185483611cf8565b925050600181019050611835565b5085935050505092915050565b61187881611e5f565b82525050565b61188781611e5f565b82525050565b600061189a601483611d27565b91507f67616d65206d757374206861766520656e6465640000000000000000000000006000830152602082019050919050565b60006118da601283611d27565b91507f4f7574636f6d6520697320696e76616c696400000000000000000000000000006000830152602082019050919050565b600061191a601483611d27565b91507f47616d6520616c657265616479206578697374730000000000000000000000006000830152602082019050919050565b600061195a601483611d27565b91507f47616d6520646f6573206e6f74206578697374730000000000000000000000006000830152602082019050919050565b600061199a601883611d27565b91507f67616d652068617320616c7265616479207374617274656400000000000000006000830152602082019050919050565b6060820160008201516119e36000850182611795565b5060208201516119f66020850182611b1d565b506040820151611a096040850182611b1d565b50505050565b606082016000820151611a256000850182611795565b506020820151611a386020850182611b1d565b506040820151611a4b6040850182611b1d565b50505050565b61014082016000820151611a686000850182611b1d565b506020820151611a7b6020850182611b1d565b506040820151611a8e6040850182611b1d565b506060820151611aa16060850182611b1d565b506080820151611ab46080850182611b1d565b5060a0820151611ac760a0850182611b1d565b5060c0820151611ada60c0850182611b1d565b5060e0820151611aed60e085018261186f565b50610100820151611b0261010085018261186f565b50610120820151611b1761012085018261186f565b50505050565b611b2681611e8b565b82525050565b611b3581611e8b565b82525050565b6000602082019050611b5060008301846117a4565b92915050565b60006020820190508181036000830152611b7081846117b3565b905092915050565b60006020820190508181036000830152611b928184611811565b905092915050565b6000602082019050611baf600083018461187e565b92915050565b60006020820190508181036000830152611bce8161188d565b9050919050565b60006020820190508181036000830152611bee816118cd565b9050919050565b60006020820190508181036000830152611c0e8161190d565b9050919050565b60006020820190508181036000830152611c2e8161194d565b9050919050565b60006020820190508181036000830152611c4e8161198d565b9050919050565b6000608082019050611c6a6000830185611a0f565b611c776060830184611b2c565b9392505050565b600061014082019050611c946000830184611a51565b92915050565b6000602082019050611caf6000830184611b2c565b92915050565b6000819050602082019050919050565b6000819050602082019050919050565b600081519050919050565b600081519050919050565b6000602082019050919050565b6000602082019050919050565b600082825260208201905092915050565b600082825260208201905092915050565b600082825260208201905092915050565b6000611d4382611e8b565b9150611d4e83611e8b565b9250827fffffffffffffffffffffffffffffffffffffffffffffffffffffffffffffffff03821115611d8357611d82611ede565b5b828201905092915050565b6000611d9982611e8b565b9150611da483611e8b565b925082611db457611db3611f0d565b5b828204905092915050565b6000611dca82611e8b565b9150611dd583611e8b565b9250817fffffffffffffffffffffffffffffffffffffffffffffffffffffffffffffffff0483118215151615611e0e57611e0d611ede565b5b828202905092915050565b6000611e2482611e8b565b9150611e2f83611e8b565b925082821015611e4257611e41611ede565b5b828203905092915050565b6000611e5882611e6b565b9050919050565b60008115159050919050565b600073ffffffffffffffffffffffffffffffffffffffff82169050919050565b6000819050919050565b6000611ea082611e8b565b91507fffffffffffffffffffffffffffffffffffffffffffffffffffffffffffffffff821415611ed357611ed2611ede565b5b600182019050919050565b7f4e487b7100000000000000000000000000000000000000000000000000000000600052601160045260246000fd5b7f4e487b7100000000000000000000000000000000000000000000000000000000600052601260045260246000fd5b611f4581611e8b565b8114611f5057600080fd5b5056fea2646970667358221220e8e57fdea54175fcd1e20b419f09dfb456aa2762ae2c5066d1f13115449c86f164736f6c6343000800003373636f7265732e6c6f63616c7465616d5f73636f72652c73636f7265732e76697369746f727465616d5f73636f726568747470733a2f2f736f636365722e73706f72746d6f6e6b732e636f6d2f6170692f76322e30a26469706673582212206f24e4181f1969d35822bb8e78abb86d6ee7d815582b1d6160ad1bedb83feafe64736f6c63430008000033",
  "immutableReferences": {},
  "source": "// SPDX-License-Identifier: UNLICENSED\npragma solidity ^0.8.0;\n\nimport \"./Owner.sol\";\nimport \"./BettingContract.sol\";\n\ncontract Oracle is Owner {\n    event NewRequest(Request);\n\n    struct Request {\n        string rootUrl;\n        string endpoint;\n        uint256 id;\n        string paramsToFetch;\n        uint256 team1Score;\n        uint256 team2Score;\n        bool exists;\n    }\n\n    mapping(uint256 => Request) requests;\n\n    address public bettingContractAddress;\n\n    constructor() {\n        owner = msg.sender;\n    }\n\n    function deployBettingContract() external isOwner() {\n        BettingContract bettingContract = new BettingContract();\n        bettingContractAddress = address(bettingContract);\n    }\n\n    function createRequest(uint256 gameId) external isOwner() {\n        Request memory newRequest = Request({\n            rootUrl: \"https://soccer.sportmonks.com/api/v2.0\",\n            endpoint: \"/fixtures/\",\n            id: gameId,\n            paramsToFetch: \"scores.localteam_score,scores.visitorteam_score\",\n            team1Score: 0,\n            team2Score: 0,\n            exists: true\n        });\n\n        requests[gameId] = newRequest;\n        emit NewRequest(newRequest);\n    }\n\n    function updateRequest(\n        uint256 gameId,\n        uint256 team1Score,\n        uint256 team2Score\n    ) external isOwner() {\n        if (requests[gameId].exists) {\n            Request memory request = requests[gameId];\n            request.team1Score = team1Score;\n            request.team2Score = team2Score;\n            requests[gameId] = request;\n            BettingContract bettingContract = BettingContract(\n                bettingContractAddress\n            );\n            bettingContract.settleGame(\n                requests[gameId].id,\n                requests[gameId].team1Score,\n                requests[gameId].team2Score\n            );\n        }\n    }\n\n    function newGame(\n        uint256 gameId,\n        uint256 competitionId,\n        uint256 start\n    ) external isOwner() {\n        BettingContract bettingContract = BettingContract(\n            bettingContractAddress\n        );\n        bettingContract.newGame(gameId, competitionId, start);\n    }\n\n    function newCompetition(uint256 competitionId) external {\n        BettingContract bettingContract = BettingContract(\n            bettingContractAddress\n        );\n        bettingContract.newCompetition(competitionId);\n    }\n}\n",
  "sourcePath": "/home/kstwa/Documents/SportsOnTheBlock/contracts/Oracle.sol",
  "compiler": {
    "name": "solc",
    "version": "0.8.0+commit.c7dfd78e.Emscripten.clang"
  },
  "schemaVersion": "3.4.1",
  "updatedAt": "2021-07-12T10:32:29.550Z",
  "devdoc": {
    "kind": "dev",
    "methods": {},
    "version": 1
  },
  "userdoc": {
    "kind": "user",
    "methods": {},
    "version": 1
  }
}