{
  "contractName": "Oracle",
  "abi": [
    {
      "inputs": [],
      "stateMutability": "nonpayable",
      "type": "constructor"
    },
    {
      "anonymous": false,
      "inputs": [
        {
          "components": [
            {
              "internalType": "string",
              "name": "rootUrl",
              "type": "string"
            },
            {
              "internalType": "string",
              "name": "endpoint",
              "type": "string"
            },
            {
              "internalType": "uint256",
              "name": "id",
              "type": "uint256"
            },
            {
              "internalType": "string",
              "name": "paramsToFetch",
              "type": "string"
            },
            {
              "internalType": "uint256",
              "name": "team1Score",
              "type": "uint256"
            },
            {
              "internalType": "uint256",
              "name": "team2Score",
              "type": "uint256"
            },
            {
              "internalType": "bool",
              "name": "exists",
              "type": "bool"
            }
          ],
          "indexed": false,
          "internalType": "struct Oracle.Request",
          "name": "",
          "type": "tuple"
        }
      ],
      "name": "NewRequest",
      "type": "event"
    },
    {
      "inputs": [],
      "name": "bettingContractAddress",
      "outputs": [
        {
          "internalType": "address",
          "name": "",
          "type": "address"
        }
      ],
      "stateMutability": "view",
      "type": "function",
      "constant": true
    },
    {
      "inputs": [],
      "name": "owner",
      "outputs": [
        {
          "internalType": "address",
          "name": "",
          "type": "address"
        }
      ],
      "stateMutability": "view",
      "type": "function",
      "constant": true
    },
    {
      "inputs": [
        {
          "internalType": "uint256",
          "name": "gameId",
          "type": "uint256"
        }
      ],
      "name": "createRequest",
      "outputs": [],
      "stateMutability": "nonpayable",
      "type": "function"
    },
    {
      "inputs": [
        {
          "internalType": "uint256",
          "name": "gameId",
          "type": "uint256"
        },
        {
          "internalType": "uint256",
          "name": "team1Score",
          "type": "uint256"
        },
        {
          "internalType": "uint256",
          "name": "team2Score",
          "type": "uint256"
        }
      ],
      "name": "updateRequest",
      "outputs": [],
      "stateMutability": "nonpayable",
      "type": "function"
    },
    {
      "inputs": [
        {
          "internalType": "uint256",
          "name": "gameId",
          "type": "uint256"
        },
        {
          "internalType": "uint256",
          "name": "competitionId",
          "type": "uint256"
        },
        {
          "internalType": "uint256",
          "name": "start",
          "type": "uint256"
        },
        {
          "internalType": "string",
          "name": "team1Name",
          "type": "string"
        },
        {
          "internalType": "string",
          "name": "team2Name",
          "type": "string"
        },
        {
          "internalType": "string",
          "name": "description",
          "type": "string"
        },
        {
          "internalType": "string",
          "name": "cover",
          "type": "string"
        }
      ],
      "name": "newGame",
      "outputs": [],
      "stateMutability": "nonpayable",
      "type": "function"
    },
    {
      "inputs": [
        {
          "internalType": "uint256",
          "name": "competitionId",
          "type": "uint256"
        },
        {
          "internalType": "string",
          "name": "name",
          "type": "string"
        },
        {
          "internalType": "string",
          "name": "description",
          "type": "string"
        },
        {
          "internalType": "string",
          "name": "cover",
          "type": "string"
        }
      ],
      "name": "newCompetition",
      "outputs": [],
      "stateMutability": "nonpayable",
      "type": "function"
    }
  ],
  "bytecode": "0x608060405234801561001057600080fd5b5060008054336001600160a01b0319918216811790911617905560405161003690610078565b604051809103906000f080158015610052573d6000803e3d6000fd5b50600280546001600160a01b0319166001600160a01b0392909216919091179055610085565b6126d080610ce683390190565b610c52806100946000396000f3fe608060405234801561001057600080fd5b50600436106100625760003560e01c80631fb87cb7146100675780635e701fc8146100855780638da5cb5b1461009a578063a7a0b372146100a2578063ab49c774146100b5578063da7620a3146100c8575b600080fd5b61006f6100db565b60405161007c9190610a0d565b60405180910390f35b6100986100933660046107ea565b6100ea565b005b61006f610164565b6100986100b03660046108b5565b610173565b6100986100c336600461088a565b610210565b6100986100d63660046107d2565b61057e565b6002546001600160a01b031681565b600254604051630bce03f960e31b81526001600160a01b03909116908190635e701fc890610128908b908b908b908b908b908b908b90600401610ab1565b600060405180830381600087803b15801561014257600080fd5b505af1158015610156573d6000803e3d6000fd5b505050505050505050505050565b6000546001600160a01b031681565b6000546001600160a01b0316331461018a57600080fd5b6002546040516353d059b960e11b81526001600160a01b0390911690819063a7a0b372906101d0908f908f908f908f908f908f908f908f908f908f908f90600401610b17565b600060405180830381600087803b1580156101ea57600080fd5b505af11580156101fe573d6000803e3d6000fd5b50505050505050505050505050505050565b6000546001600160a01b0316331461022757600080fd5b60008381526001602052604090206006015460ff161561057957600083815260016020526040808220815160e0810190925280548290829061026890610b8c565b80601f016020809104026020016040519081016040528092919081815260200182805461029490610b8c565b80156102e15780601f106102b6576101008083540402835291602001916102e1565b820191906000526020600020905b8154815290600101906020018083116102c457829003601f168201915b505050505081526020016001820180546102fa90610b8c565b80601f016020809104026020016040519081016040528092919081815260200182805461032690610b8c565b80156103735780601f1061034857610100808354040283529160200191610373565b820191906000526020600020905b81548152906001019060200180831161035657829003601f168201915b505050505081526020016002820154815260200160038201805461039690610b8c565b80601f01602080910402602001604051908101604052809291908181526020018280546103c290610b8c565b801561040f5780601f106103e45761010080835404028352916020019161040f565b820191906000526020600020905b8154815290600101906020018083116103f257829003601f168201915b50505091835250506004820154602080830191909152600583015460408084019190915260069093015460ff1615156060909201919091526080830186905260a0830185905260008781526001825291909120825180519394508493919261047c928492909101906106f2565b50602082810151805161049592600185019201906106f2565b5060408201516002820155606082015180516104bb9160038401916020909101906106f2565b50608082015160048281019190915560a083015160058084019190915560c0909301516006909201805460ff1916921515929092179091556002805460008881526001602052604090819020928301548385015493909501549051633030242f60e21b81526001600160a01b0390921694859463c0c090bc946105449492939092909101610b01565b600060405180830381600087803b15801561055e57600080fd5b505af1158015610572573d6000803e3d6000fd5b5050505050505b505050565b6000546001600160a01b0316331461059557600080fd5b60006040518060e00160405280604051806060016040528060268152602001610bf76026913981526020016040518060400160405280600a8152602001692f66697874757265732f60b01b81525081526020018381526020016040518060600160405280602f8152602001610bc8602f91398152600060208083018290526040808401839052600160609094018490528683529281529190208251805193945084939192610648928492909101906106f2565b50602082810151805161066192600185019201906106f2565b5060408201516002820155606082015180516106879160038401916020909101906106f2565b506080820151600482015560a0820151600582015560c0909101516006909101805460ff19169115159190911790556040517fd98d6c02f1f17da57736544bb2374c9f06c7064254090cf0d80e4751d8e39109906106e6908390610a21565b60405180910390a15050565b8280546106fe90610b8c565b90600052602060002090601f0160209004810192826107205760008555610766565b82601f1061073957805160ff1916838001178555610766565b82800160010185558215610766579182015b8281111561076657825182559160200191906001019061074b565b50610772929150610776565b5090565b5b808211156107725760008155600101610777565b60008083601f84011261079c578182fd5b50813567ffffffffffffffff8111156107b3578182fd5b6020830191508360208285010111156107cb57600080fd5b9250929050565b6000602082840312156107e3578081fd5b5035919050565b60008060008060008060006080888a031215610804578283fd5b87359650602088013567ffffffffffffffff80821115610822578485fd5b61082e8b838c0161078b565b909850965060408a0135915080821115610846578485fd5b6108528b838c0161078b565b909650945060608a013591508082111561086a578384fd5b506108778a828b0161078b565b989b979a50959850939692959293505050565b60008060006060848603121561089e578283fd5b505081359360208301359350604090920135919050565b600080600080600080600080600080600060e08c8e0312156108d5578384fd5b8b359a5060208c0135995060408c0135985067ffffffffffffffff8060608e01351115610900578485fd5b6109108e60608f01358f0161078b565b909950975060808d0135811015610925578485fd5b6109358e60808f01358f0161078b565b909750955060a08d013581101561094a578485fd5b61095a8e60a08f01358f0161078b565b909550935060c08d013581101561096f578283fd5b506109808d60c08e01358e0161078b565b81935080925050509295989b509295989b9093969950565b60008284528282602086013780602084860101526020601f19601f85011685010190509392505050565b60008151808452815b818110156109e7576020818501810151868301820152016109cb565b818111156109f85782602083870101525b50601f01601f19169290920160200192915050565b6001600160a01b0391909116815260200190565b600060208252825160e06020840152610a3e6101008401826109c2565b90506020840151601f1980858403016040860152610a5c83836109c2565b925060408601516060860152606086015191508085840301608086015250610a8482826109c2565b915050608084015160a084015260a084015160c084015260c0840151151560e08401528091505092915050565b600088825260806020830152610acb60808301888a610998565b8281036040840152610ade818789610998565b90508281036060840152610af3818587610998565b9a9950505050505050505050565b9283526020830191909152604082015260600190565b60008c82528b60208301528a604083015260e06060830152610b3d60e083018a8c610998565b8281036080840152610b5081898b610998565b905082810360a0840152610b65818789610998565b905082810360c0840152610b7a818587610998565b9e9d5050505050505050505050505050565b600281046001821680610ba057607f821691505b60208210811415610bc157634e487b7160e01b600052602260045260246000fd5b5091905056fe73636f7265732e6c6f63616c7465616d5f73636f72652c73636f7265732e76697369746f727465616d5f73636f726568747470733a2f2f736f636365722e73706f72746d6f6e6b732e636f6d2f6170692f76322e30a2646970667358221220593423a65c4998be4267f64c2f06e1492c3fe159948457e314ea0f9cb723cc8a64736f6c63430008000033608060405234801561001057600080fd5b50600080546001600160a01b0319908116339081179091161790556126968061003a6000396000f3fe6080604052600436106100915760003560e01c80639d6aaa7d116100595780639d6aaa7d146101435780639f6c0ce314610170578063a2f77bcc14610192578063a7a0b372146101bf578063c0c090bc146101df57610091565b80631ccf6955146100965780635e701fc8146100cc5780636579642b146100ee5780636ffcc7191461010e5780638da5cb5b14610121575b600080fd5b3480156100a257600080fd5b506100b66100b1366004611f99565b6101ff565b6040516100c39190612360565b60405180910390f35b3480156100d857600080fd5b506100ec6100e7366004611fb1565b6102cf565b005b3480156100fa57600080fd5b506100ec610109366004611f99565b61055d565b6100ec61011c366004612051565b610594565b34801561012d57600080fd5b506101366106d5565b6040516100c3919061234c565b34801561014f57600080fd5b5061016361015e366004611f99565b6106e4565b6040516100c3919061240e565b34801561017c57600080fd5b50610185610a29565b6040516100c391906123ae565b34801561019e57600080fd5b506101b26101ad366004611f99565b610c71565b6040516100c39190612590565b3480156101cb57600080fd5b506100ec6101da36600461209d565b610f47565b3480156101eb57600080fd5b506100ec6101fa366004612072565b611330565b600081815260056020526040902060090154606090829062010000900460ff166102445760405162461bcd60e51b815260040161023b90612498565b60405180910390fd5b600083815260046020908152604080832080548251818502810185019093528083529193909284015b828210156102c2576000848152602090819020604080516060810182526003860290920180546001600160a01b031683526001808201548486015260029091015491830191909152908352909201910161026d565b5050505091505b50919050565b60006040518060c0016040528089815260200188888080601f016020809104026020016040519081016040528093929190818152602001838380828437600092019190915250505090825250604080516020601f890181900481028201810190925287815291810191908890889081908401838280828437600092019190915250505090825250604080516020601f870181900481028201810190925285815291810191908690869081908401838280828437600092018290525093855250506001602080850182905260409485018290528d8452600281529390922084518155848401518051959650869591946103cc94860193500190611e52565b50604082015180516103e8916002840191602090910190611e52565b5060608201518051610404916003840191602090910190611e52565b5060808201516004909101805460a09093015115156101000261ff001992151560ff199094169390931791909116919091179055600180548082018255600091909152815160059091027fb10e2d527612073b26eecdfd717e6a320cf44b4afac2b0732d9fcbe2b7fa0cf6810191825560208084015180518594936104af937fb10e2d527612073b26eecdfd717e6a320cf44b4afac2b0732d9fcbe2b7fa0cf7909101920190611e52565b50604082015180516104cb916002840191602090910190611e52565b50606082015180516104e7916003840191602090910190611e52565b5060808201516004909101805460a09093015115156101000261ff001992151560ff1990941693909317919091169190911790556040517f68aa0aa08335d7fd81ca7a0478b8aed2dcbc260690a5cc5a9a62e87541b47c439061054b908390612576565b60405180910390a15050505050505050565b6000546001600160a01b0316331461057457600080fd5b6000908152600560205260409020600901805461ff001916610100179055565b600082815260056020526040902060090154829062010000900460ff166105cd5760405162461bcd60e51b815260040161023b90612498565b8160028111156105ef5760405162461bcd60e51b815260040161023b9061246c565b6000848152600560205260409020600901548490610100900460ff16156106285760405162461bcd60e51b815260040161023b9061252b565b6040805160608101825233815234602080830191825282840188815260008a81526004835285812080546001808201835591835293909120855160039094020180546001600160a01b0319166001600160a01b03909416939093178355925192820192909255905160029091015590517f46e48e42ee97857124fc71280d565b91420047a714f31dd5e7a0d655e11b4955906106c5908390612562565b60405180910390a1505050505050565b6000546001600160a01b031681565b6000818152600260205260409020600401546060908290610100900460ff1661071f5760405162461bcd60e51b815260040161023b906124f4565b600083815260036020908152604080832080548251818502810185019093528083529193909284015b828210156102c257838290600052602060002090600a02016040518061018001604052908160008201548152602001600182018054610786906125fa565b80601f01602080910402602001604051908101604052809291908181526020018280546107b2906125fa565b80156107ff5780601f106107d4576101008083540402835291602001916107ff565b820191906000526020600020905b8154815290600101906020018083116107e257829003601f168201915b50505050508152602001600282018054610818906125fa565b80601f0160208091040260200160405190810160405280929190818152602001828054610844906125fa565b80156108915780601f1061086657610100808354040283529160200191610891565b820191906000526020600020905b81548152906001019060200180831161087457829003601f168201915b505050505081526020016003820180546108aa906125fa565b80601f01602080910402602001604051908101604052809291908181526020018280546108d6906125fa565b80156109235780601f106108f857610100808354040283529160200191610923565b820191906000526020600020905b81548152906001019060200180831161090657829003601f168201915b5050505050815260200160048201805461093c906125fa565b80601f0160208091040260200160405190810160405280929190818152602001828054610968906125fa565b80156109b55780601f1061098a576101008083540402835291602001916109b5565b820191906000526020600020905b81548152906001019060200180831161099857829003601f168201915b5050509183525050600582015460208083019190915260068301546040830152600783015460608301526008830154608083015260099092015460ff808216151560a084015261010082048116151560c08401526201000090910416151560e0909101529082526001929092019101610748565b60606001805480602002602001604051908101604052809291908181526020016000905b82821015610c6857838290600052602060002090600502016040518060c001604052908160008201548152602001600182018054610a8a906125fa565b80601f0160208091040260200160405190810160405280929190818152602001828054610ab6906125fa565b8015610b035780601f10610ad857610100808354040283529160200191610b03565b820191906000526020600020905b815481529060010190602001808311610ae657829003601f168201915b50505050508152602001600282018054610b1c906125fa565b80601f0160208091040260200160405190810160405280929190818152602001828054610b48906125fa565b8015610b955780601f10610b6a57610100808354040283529160200191610b95565b820191906000526020600020905b815481529060010190602001808311610b7857829003601f168201915b50505050508152602001600382018054610bae906125fa565b80601f0160208091040260200160405190810160405280929190818152602001828054610bda906125fa565b8015610c275780601f10610bfc57610100808354040283529160200191610c27565b820191906000526020600020905b815481529060010190602001808311610c0a57829003601f168201915b50505091835250506004919091015460ff80821615156020808501919091526101009092041615156040909201919091529082526001929092019101610a4d565b50505050905090565b610c79611ed6565b600560008381526020019081526020016000206040518061018001604052908160008201548152602001600182018054610cb2906125fa565b80601f0160208091040260200160405190810160405280929190818152602001828054610cde906125fa565b8015610d2b5780601f10610d0057610100808354040283529160200191610d2b565b820191906000526020600020905b815481529060010190602001808311610d0e57829003601f168201915b50505050508152602001600282018054610d44906125fa565b80601f0160208091040260200160405190810160405280929190818152602001828054610d70906125fa565b8015610dbd5780601f10610d9257610100808354040283529160200191610dbd565b820191906000526020600020905b815481529060010190602001808311610da057829003601f168201915b50505050508152602001600382018054610dd6906125fa565b80601f0160208091040260200160405190810160405280929190818152602001828054610e02906125fa565b8015610e4f5780601f10610e2457610100808354040283529160200191610e4f565b820191906000526020600020905b815481529060010190602001808311610e3257829003601f168201915b50505050508152602001600482018054610e68906125fa565b80601f0160208091040260200160405190810160405280929190818152602001828054610e94906125fa565b8015610ee15780601f10610eb657610100808354040283529160200191610ee1565b820191906000526020600020905b815481529060010190602001808311610ec457829003601f168201915b50505091835250506005820154602082015260068201546040820152600782015460608201526008820154608082015260099091015460ff808216151560a084015261010082048116151560c08401526201000090910416151560e09091015292915050565b60008a8152600260205260409020600401548a90610100900460ff16610f7f5760405162461bcd60e51b815260040161023b906124f4565b6000546001600160a01b03163314610f9657600080fd5b60006040518061018001604052808e81526020018b8b8080601f016020809104026020016040519081016040528093929190818152602001838380828437600092019190915250505090825250604080516020601f8c018190048102820181019092528a815291810191908b908b9081908401838280828437600092019190915250505090825250604080516020601f8a0181900481028201810190925288815291810191908990899081908401838280828437600092019190915250505090825250604080516020601f880181900481028201810190925286815291810191908790879081908401838280828437600081840152601f19601f8201169050808301925050505050505081526020018c815260200160008152602001600081526020016000815260200160001515815260200160001515815260200160011515815250905080600560008f8152602001908152602001600020600082015181600001556020820151816001019080519060200190611115929190611e52565b5060408201518051611131916002840191602090910190611e52565b506060820151805161114d916003840191602090910190611e52565b5060808201518051611169916004840191602090910190611e52565b5060a0820151600582015560c0820151600682015560e08201516007820155610100808301516008830155610120830151600990920180546101408501516101609095015160ff199091169315159390931761ff0019169315159091029290921762ff00001916620100009115159190910217905560008c81526003602090815260408220805460018181018355918452928290208451600a90940201928355838201518051859493611220938501920190611e52565b506040820151805161123c916002840191602090910190611e52565b5060608201518051611258916003840191602090910190611e52565b5060808201518051611274916004840191602090910190611e52565b5060a0820151600582015560c0820151600682015560e08201516007820155610100808301516008830155610120830151600990920180546101408501516101609095015160ff199091169315159390931761ff0019169315159091029290921762ff0000191662010000911515919091021790556040517fc3121d21effb6e14564cf3d76845c58450be8359f6ca512b9d4ffea6af185e6f90611319908390612590565b60405180910390a150505050505050505050505050565b600083815260056020526040902060090154839062010000900460ff166113695760405162461bcd60e51b815260040161023b90612498565b6000546001600160a01b0316331461138057600080fd5b60006005600086815260200190815260200160002060405180610180016040529081600082015481526020016001820180546113bb906125fa565b80601f01602080910402602001604051908101604052809291908181526020018280546113e7906125fa565b80156114345780601f1061140957610100808354040283529160200191611434565b820191906000526020600020905b81548152906001019060200180831161141757829003601f168201915b5050505050815260200160028201805461144d906125fa565b80601f0160208091040260200160405190810160405280929190818152602001828054611479906125fa565b80156114c65780601f1061149b576101008083540402835291602001916114c6565b820191906000526020600020905b8154815290600101906020018083116114a957829003601f168201915b505050505081526020016003820180546114df906125fa565b80601f016020809104026020016040519081016040528092919081815260200182805461150b906125fa565b80156115585780601f1061152d57610100808354040283529160200191611558565b820191906000526020600020905b81548152906001019060200180831161153b57829003601f168201915b50505050508152602001600482018054611571906125fa565b80601f016020809104026020016040519081016040528092919081815260200182805461159d906125fa565b80156115ea5780601f106115bf576101008083540402835291602001916115ea565b820191906000526020600020905b8154815290600101906020018083116115cd57829003601f168201915b50505091835250506005828101546020808401919091526006840154604080850191909152600785015460608501526008850154608085015260099094015460ff808216151560a086015261010082048116151560c0808701919091526201000090920416151560e09485015285018990529184018790526001610120850181905260008a815291835292902083518155838201518051949550859491936116989390850192910190611e52565b50604082015180516116b4916002840191602090910190611e52565b50606082015180516116d0916003840191602090910190611e52565b50608082015180516116ec916004840191602090910190611e52565b5060a082015160058083019190915560c0830151600683015560e0830151600783015561010080840151600884015561012084015160099384018054610140870151610160909701511515620100000262ff00001997151590940261ff001993151560ff19909216919091179290921691909117949094161790925560008781526020929092526040909120015460ff166117995760405162461bcd60e51b815260040161023b906124c6565b60006117a486611954565b9050600060046000888152602001908152602001600020805480602002602001604051908101604052809291908181526020016000905b82821015611830576000848152602090819020604080516060810182526003860290920180546001600160a01b03168352600180820154848601526002909101549183019190915290835290920191016117db565b50505050905060008060006118458486611cb2565b95505050935050925060005b835181101561190f57600084828151811061187c57634e487b7160e01b600052603260045260246000fd5b602002602001015190506000848260200151606461189a91906125db565b6118a491906125bb565b6118ae90856125db565b905081600001516001600160a01b03166108fc8284602001516118d191906125a3565b6040518115909202916000818181858888f193505050501580156118f9573d6000803e3d6000fd5b50505080806119079061262f565b915050611851565b507fdf7a1dfb51dd87859a6f44cf9bddb076effbccd933619eec97e64a79fd94d32460016040516119409190612461565b60405180910390a150505050505050505050565b600080546001600160a01b0316331461196c57600080fd5b600082815260056020526040902060090154829062010000900460ff166119a55760405162461bcd60e51b815260040161023b90612498565b60006005600085815260200190815260200160002060405180610180016040529081600082015481526020016001820180546119e0906125fa565b80601f0160208091040260200160405190810160405280929190818152602001828054611a0c906125fa565b8015611a595780601f10611a2e57610100808354040283529160200191611a59565b820191906000526020600020905b815481529060010190602001808311611a3c57829003601f168201915b50505050508152602001600282018054611a72906125fa565b80601f0160208091040260200160405190810160405280929190818152602001828054611a9e906125fa565b8015611aeb5780601f10611ac057610100808354040283529160200191611aeb565b820191906000526020600020905b815481529060010190602001808311611ace57829003601f168201915b50505050508152602001600382018054611b04906125fa565b80601f0160208091040260200160405190810160405280929190818152602001828054611b30906125fa565b8015611b7d5780601f10611b5257610100808354040283529160200191611b7d565b820191906000526020600020905b815481529060010190602001808311611b6057829003601f168201915b50505050508152602001600482018054611b96906125fa565b80601f0160208091040260200160405190810160405280929190818152602001828054611bc2906125fa565b8015611c0f5780601f10611be457610100808354040283529160200191611c0f565b820191906000526020600020905b815481529060010190602001808311611bf257829003601f168201915b50505091835250506005820154602082015260068201546040820152600782015460608201526008820154608082015260099091015460ff808216151560a084015261010082048116151560c0808501919091526201000090920416151560e09283015290820151908201519192501015611c8e5760019250506102c9565b8060c001518160e001511115611ca85760029250506102c9565b60009250506102c9565b6060600080606060008060005b8851811015611e475787898281518110611ce957634e487b7160e01b600052603260045260246000fd5b6020026020010151604001511415611d9a57888181518110611d1b57634e487b7160e01b600052603260045260246000fd5b6020026020010151878781518110611d4357634e487b7160e01b600052603260045260246000fd5b60200260200101819052508580611d599061262f565b965050888181518110611d7c57634e487b7160e01b600052603260045260246000fd5b60200260200101516020015185611d9391906125a3565b9450611e35565b888181518110611dba57634e487b7160e01b600052603260045260246000fd5b6020026020010151848481518110611de257634e487b7160e01b600052603260045260246000fd5b60200260200101819052508280611df89061262f565b935050888181518110611e1b57634e487b7160e01b600052603260045260246000fd5b60200260200101516020015182611e3291906125a3565b91505b80611e3f8161262f565b915050611cbf565b509295509295509295565b828054611e5e906125fa565b90600052602060002090601f016020900481019282611e805760008555611ec6565b82601f10611e9957805160ff1916838001178555611ec6565b82800160010185558215611ec6579182015b82811115611ec6578251825591602001919060010190611eab565b50611ed2929150611f3d565b5090565b6040518061018001604052806000815260200160608152602001606081526020016060815260200160608152602001600081526020016000815260200160008152602001600081526020016000151581526020016000151581526020016000151581525090565b5b80821115611ed25760008155600101611f3e565b60008083601f840112611f63578182fd5b50813567ffffffffffffffff811115611f7a578182fd5b602083019150836020828501011115611f9257600080fd5b9250929050565b600060208284031215611faa578081fd5b5035919050565b60008060008060008060006080888a031215611fcb578283fd5b87359650602088013567ffffffffffffffff80821115611fe9578485fd5b611ff58b838c01611f52565b909850965060408a013591508082111561200d578485fd5b6120198b838c01611f52565b909650945060608a0135915080821115612031578384fd5b5061203e8a828b01611f52565b989b979a50959850939692959293505050565b60008060408385031215612063578182fd5b50508035926020909101359150565b600080600060608486031215612086578283fd5b505081359360208301359350604090920135919050565b600080600080600080600080600080600060e08c8e0312156120bd578384fd5b8b359a5060208c0135995060408c0135985067ffffffffffffffff8060608e013511156120e8578485fd5b6120f88e60608f01358f01611f52565b909950975060808d013581101561210d578485fd5b61211d8e60808f01358f01611f52565b909750955060a08d0135811015612132578485fd5b6121428e60a08f01358f01611f52565b909550935060c08d0135811015612157578283fd5b506121688d60c08e01358e01611f52565b81935080925050509295989b509295989b9093969950565b15159052565b60008151808452815b818110156121ab5760208185018101518683018201520161218f565b818111156121bc5782602083870101525b50601f01601f19169290920160200192915050565b80516001600160a01b0316825260208082015190830152604090810151910152565b600081518352602082015160c0602085015261221260c0850182612186565b90506040830151848203604086015261222b8282612186565b915050606083015184820360608601526122458282612186565b91505060808301511515608085015260a0830151151560a08501528091505092915050565b600061018082518452602083015181602086015261228a82860182612186565b915050604083015184820360408601526122a48282612186565b915050606083015184820360608601526122be8282612186565b915050608083015184820360808601526122d88282612186565b91505060a083015160a085015260c083015160c085015260e083015160e08501526101008084015181860152506101208084015161231882870182612180565b50506101408084015161232d82870182612180565b50506101608084015161234282870182612180565b5090949350505050565b6001600160a01b0391909116815260200190565b6020808252825182820181905260009190848201906040850190845b818110156123a25761238f8385516121d1565b928401926060929092019160010161237c565b50909695505050505050565b6000602080830181845280855180835260408601915060408482028701019250838701855b8281101561240157603f198886030184526123ef8583516121f3565b945092850192908501906001016123d3565b5092979650505050505050565b6000602080830181845280855180835260408601915060408482028701019250838701855b8281101561240157603f1988860301845261244f85835161226a565b94509285019290850190600101612433565b901515815260200190565b60208082526012908201527113dd5d18dbdb59481a5cc81a5b9d985b1a5960721b604082015260600190565b60208082526014908201527347616d6520646f6573206e6f742065786973747360601b604082015260600190565b60208082526014908201527311d85b59481b5d5cdd081a185d9948195b99195960621b604082015260600190565b6020808252601b908201527f436f6d7065746974696f6e20646f6573206e6f74206578697374730000000000604082015260600190565b60208082526018908201527f67616d652068617320616c726561647920737461727465640000000000000000604082015260600190565b6060810161257082846121d1565b92915050565b60006020825261258960208301846121f3565b9392505050565b600060208252612589602083018461226a565b600082198211156125b6576125b661264a565b500190565b6000826125d657634e487b7160e01b81526012600452602481fd5b500490565b60008160001904831182151516156125f5576125f561264a565b500290565b60028104600182168061260e57607f821691505b602082108114156102c957634e487b7160e01b600052602260045260246000fd5b60006000198214156126435761264361264a565b5060010190565b634e487b7160e01b600052601160045260246000fdfea26469706673582212203bb51ec207c9b92ef4c0ede698431364281c6d580555fb846a0f829c97a4253364736f6c63430008000033",
  "immutableReferences": {},
  "source": "// SPDX-License-Identifier: UNLICENSED\npragma solidity ^0.8.0;\n\nimport \"./Owner.sol\";\nimport \"./BettingContract.sol\";\n\ncontract Oracle is Owner {\n    event NewRequest(Request);\n\n    struct Request {\n        string rootUrl;\n        string endpoint;\n        uint256 id;\n        string paramsToFetch;\n        uint256 team1Score;\n        uint256 team2Score;\n        bool exists;\n    }\n\n    mapping(uint256 => Request) requests;\n\n    address public bettingContractAddress;\n\n    constructor() {\n        owner = msg.sender;\n        bettingContractAddress = address(new BettingContract());\n    }\n\n    function createRequest(uint256 gameId) external isOwner() {\n        Request memory newRequest = Request({\n            rootUrl: \"https://soccer.sportmonks.com/api/v2.0\",\n            endpoint: \"/fixtures/\",\n            id: gameId,\n            paramsToFetch: \"scores.localteam_score,scores.visitorteam_score\",\n            team1Score: 0,\n            team2Score: 0,\n            exists: true\n        });\n\n        requests[gameId] = newRequest;\n        emit NewRequest(newRequest);\n    }\n\n    function updateRequest(\n        uint256 gameId,\n        uint256 team1Score,\n        uint256 team2Score\n    ) external isOwner() {\n        if (requests[gameId].exists) {\n            Request memory request = requests[gameId];\n            request.team1Score = team1Score;\n            request.team2Score = team2Score;\n            requests[gameId] = request;\n            BettingContract bettingContract = BettingContract(\n                bettingContractAddress\n            );\n            bettingContract.settleGame(\n                requests[gameId].id,\n                requests[gameId].team1Score,\n                requests[gameId].team2Score\n            );\n        }\n    }\n\n    function newGame(\n        uint256 gameId,\n        uint256 competitionId,\n        uint256 start,\n        string calldata team1Name,\n        string calldata team2Name,\n        string calldata description,\n        string calldata cover\n    ) external isOwner() {\n        BettingContract bettingContract = BettingContract(\n            bettingContractAddress\n        );\n        bettingContract.newGame(\n            gameId,\n            competitionId,\n            start,\n            team1Name,\n            team2Name,\n            description,\n            cover\n        );\n    }\n\n    function newCompetition(\n        uint256 competitionId,\n        string calldata name,\n        string calldata description,\n        string calldata cover\n    ) external {\n        BettingContract bettingContract = BettingContract(\n            bettingContractAddress\n        );\n        bettingContract.newCompetition(competitionId, name, description, cover);\n    }\n}\n",
  "sourcePath": "/home/sama/Documents/PROJECTS/ETHEREUM/SportsOnTheBlock/contracts/Oracle.sol",
  "compiler": {
    "name": "solc",
    "version": "0.8.0+commit.c7dfd78e.Emscripten.clang"
  },
  "schemaVersion": "3.4.1",
  "updatedAt": "2021-07-06T12:25:18.787Z",
  "networkType": "ethereum",
  "devdoc": {
    "kind": "dev",
    "methods": {},
    "version": 1
  },
  "userdoc": {
    "kind": "user",
    "methods": {},
    "version": 1
  }
}