{
  "contractName": "Oracle",
  "abi": [
    {
      "inputs": [],
      "stateMutability": "nonpayable",
      "type": "constructor"
    },
    {
      "anonymous": false,
      "inputs": [
        {
          "components": [
            {
              "internalType": "string",
              "name": "rootUrl",
              "type": "string"
            },
            {
              "internalType": "string",
              "name": "paramsToFetch",
              "type": "string"
            },
            {
              "internalType": "string",
              "name": "endpoint",
              "type": "string"
            },
            {
              "internalType": "string",
              "name": "gameStatus",
              "type": "string"
            },
            {
              "internalType": "uint192",
              "name": "id",
              "type": "uint192"
            },
            {
              "internalType": "uint32",
              "name": "team1Score",
              "type": "uint32"
            },
            {
              "internalType": "uint32",
              "name": "team2Score",
              "type": "uint32"
            },
            {
              "internalType": "bool",
              "name": "exists",
              "type": "bool"
            }
          ],
          "indexed": false,
          "internalType": "struct Oracle.Request",
          "name": "",
          "type": "tuple"
        }
      ],
      "name": "NewRequest",
      "type": "event"
    },
    {
      "inputs": [],
      "name": "bettingContractAddress",
      "outputs": [
        {
          "internalType": "address",
          "name": "",
          "type": "address"
        }
      ],
      "stateMutability": "view",
      "type": "function",
      "constant": true
    },
    {
      "inputs": [],
      "name": "owner",
      "outputs": [
        {
          "internalType": "address",
          "name": "",
          "type": "address"
        }
      ],
      "stateMutability": "view",
      "type": "function",
      "constant": true
    },
    {
      "inputs": [
        {
          "internalType": "uint256",
          "name": "",
          "type": "uint256"
        }
      ],
      "name": "requests",
      "outputs": [
        {
          "internalType": "string",
          "name": "rootUrl",
          "type": "string"
        },
        {
          "internalType": "string",
          "name": "paramsToFetch",
          "type": "string"
        },
        {
          "internalType": "string",
          "name": "endpoint",
          "type": "string"
        },
        {
          "internalType": "string",
          "name": "gameStatus",
          "type": "string"
        },
        {
          "internalType": "uint192",
          "name": "id",
          "type": "uint192"
        },
        {
          "internalType": "uint32",
          "name": "team1Score",
          "type": "uint32"
        },
        {
          "internalType": "uint32",
          "name": "team2Score",
          "type": "uint32"
        },
        {
          "internalType": "bool",
          "name": "exists",
          "type": "bool"
        }
      ],
      "stateMutability": "view",
      "type": "function",
      "constant": true
    },
    {
      "inputs": [],
      "name": "deployBettingContract",
      "outputs": [],
      "stateMutability": "nonpayable",
      "type": "function"
    },
    {
      "inputs": [
        {
          "internalType": "uint192",
          "name": "gameId",
          "type": "uint192"
        }
      ],
      "name": "createRequest",
      "outputs": [],
      "stateMutability": "nonpayable",
      "type": "function"
    },
    {
      "inputs": [
        {
          "internalType": "uint192",
          "name": "gameId",
          "type": "uint192"
        },
        {
          "internalType": "uint32",
          "name": "team1Score",
          "type": "uint32"
        },
        {
          "internalType": "uint32",
          "name": "team2Score",
          "type": "uint32"
        },
        {
          "internalType": "string",
          "name": "gameStatus",
          "type": "string"
        }
      ],
      "name": "updateRequest",
      "outputs": [],
      "stateMutability": "nonpayable",
      "type": "function"
    },
    {
      "inputs": [
        {
          "internalType": "uint96",
          "name": "gameId",
          "type": "uint96"
        },
        {
          "internalType": "uint256",
          "name": "competitionId",
          "type": "uint256"
        },
        {
          "internalType": "uint56",
          "name": "start",
          "type": "uint56"
        }
      ],
      "name": "newGame",
      "outputs": [],
      "stateMutability": "nonpayable",
      "type": "function"
    },
    {
      "inputs": [
        {
          "internalType": "uint256",
          "name": "competitionId",
          "type": "uint256"
        }
      ],
      "name": "newCompetition",
      "outputs": [],
      "stateMutability": "nonpayable",
      "type": "function"
    }
  ],
  "bytecode": "0x608060405234801561001057600080fd5b50336000806101000a81548173ffffffffffffffffffffffffffffffffffffffff021916908373ffffffffffffffffffffffffffffffffffffffff160217905550336000806101000a81548173ffffffffffffffffffffffffffffffffffffffff021916908373ffffffffffffffffffffffffffffffffffffffff160217905550614261806100a06000396000f3fe608060405234801561001057600080fd5b50600436106100885760003560e01c80638da5cb5b1161005b5780638da5cb5b146101085780638ea08f2d1461012657806398d079a714610142578063e3c936561461015e57610088565b8063020f261d1461008d5780631fb87cb7146100a957806381d12c58146100c757806389324075146100fe575b600080fd5b6100a760048036038101906100a291906112c2565b61017a565b005b6100b16108b6565b6040516100be9190611587565b60405180910390f35b6100e160048036038101906100dc9190611342565b6108dc565b6040516100f59897969594939291906115a2565b60405180910390f35b610106610b95565b005b610110610c5e565b60405161011d9190611587565b60405180910390f35b610140600480360381019061013b9190611299565b610c82565b005b61015c60048036038101906101579190611342565b610f54565b005b6101786004803603810190610173919061136b565b611042565b005b60008054906101000a900473ffffffffffffffffffffffffffffffffffffffff1673ffffffffffffffffffffffffffffffffffffffff163373ffffffffffffffffffffffffffffffffffffffff16146101d257600080fd5b600160008677ffffffffffffffffffffffffffffffffffffffffffffffff16815260200190815260200160002060050160009054906101000a900460ff16156108af576000600160008777ffffffffffffffffffffffffffffffffffffffffffffffff16815260200190815260200160002060405180610100016040529081600082018054610260906117ee565b80601f016020809104026020016040519081016040528092919081815260200182805461028c906117ee565b80156102d95780601f106102ae576101008083540402835291602001916102d9565b820191906000526020600020905b8154815290600101906020018083116102bc57829003601f168201915b505050505081526020016001820180546102f2906117ee565b80601f016020809104026020016040519081016040528092919081815260200182805461031e906117ee565b801561036b5780601f106103405761010080835404028352916020019161036b565b820191906000526020600020905b81548152906001019060200180831161034e57829003601f168201915b50505050508152602001600282018054610384906117ee565b80601f01602080910402602001604051908101604052809291908181526020018280546103b0906117ee565b80156103fd5780601f106103d2576101008083540402835291602001916103fd565b820191906000526020600020905b8154815290600101906020018083116103e057829003601f168201915b50505050508152602001600382018054610416906117ee565b80601f0160208091040260200160405190810160405280929190818152602001828054610442906117ee565b801561048f5780601f106104645761010080835404028352916020019161048f565b820191906000526020600020905b81548152906001019060200180831161047257829003601f168201915b505050505081526020016004820160009054906101000a900477ffffffffffffffffffffffffffffffffffffffffffffffff1677ffffffffffffffffffffffffffffffffffffffffffffffff1677ffffffffffffffffffffffffffffffffffffffffffffffff1681526020016004820160189054906101000a900463ffffffff1663ffffffff1663ffffffff16815260200160048201601c9054906101000a900463ffffffff1663ffffffff1663ffffffff1681526020016005820160009054906101000a900460ff1615151515815250509050848160a0019063ffffffff16908163ffffffff1681525050838160c0019063ffffffff16908163ffffffff168152505082828080601f016020809104026020016040519081016040528093929190818152602001838380828437600081840152601f19601f82011690508083019250505050505050816060018190525080600160008877ffffffffffffffffffffffffffffffffffffffffffffffff168152602001908152602001600020600082015181600001908051906020019061062a929190611136565b506020820151816001019080519060200190610647929190611136565b506040820151816002019080519060200190610664929190611136565b506060820151816003019080519060200190610681929190611136565b5060808201518160040160006101000a81548177ffffffffffffffffffffffffffffffffffffffffffffffff021916908377ffffffffffffffffffffffffffffffffffffffffffffffff16021790555060a08201518160040160186101000a81548163ffffffff021916908363ffffffff16021790555060c082015181600401601c6101000a81548163ffffffff021916908363ffffffff16021790555060e08201518160050160006101000a81548160ff0219169083151502179055509050506000600260009054906101000a900473ffffffffffffffffffffffffffffffffffffffff1690508073ffffffffffffffffffffffffffffffffffffffff16630468a2c4600160008a77ffffffffffffffffffffffffffffffffffffffffffffffff16815260200190815260200160002060040160009054906101000a900477ffffffffffffffffffffffffffffffffffffffffffffffff16600160008b77ffffffffffffffffffffffffffffffffffffffffffffffff16815260200190815260200160002060040160189054906101000a900463ffffffff16600160008c77ffffffffffffffffffffffffffffffffffffffffffffffff168152602001908152602001600020600401601c9054906101000a900463ffffffff166040518463ffffffff1660e01b815260040161087a93929190611679565b600060405180830381600087803b15801561089457600080fd5b505af11580156108a8573d6000803e3d6000fd5b5050505050505b5050505050565b600260009054906101000a900473ffffffffffffffffffffffffffffffffffffffff1681565b60016020528060005260406000206000915090508060000180546108ff906117ee565b80601f016020809104026020016040519081016040528092919081815260200182805461092b906117ee565b80156109785780601f1061094d57610100808354040283529160200191610978565b820191906000526020600020905b81548152906001019060200180831161095b57829003601f168201915b50505050509080600101805461098d906117ee565b80601f01602080910402602001604051908101604052809291908181526020018280546109b9906117ee565b8015610a065780601f106109db57610100808354040283529160200191610a06565b820191906000526020600020905b8154815290600101906020018083116109e957829003601f168201915b505050505090806002018054610a1b906117ee565b80601f0160208091040260200160405190810160405280929190818152602001828054610a47906117ee565b8015610a945780601f10610a6957610100808354040283529160200191610a94565b820191906000526020600020905b815481529060010190602001808311610a7757829003601f168201915b505050505090806003018054610aa9906117ee565b80601f0160208091040260200160405190810160405280929190818152602001828054610ad5906117ee565b8015610b225780601f10610af757610100808354040283529160200191610b22565b820191906000526020600020905b815481529060010190602001808311610b0557829003601f168201915b5050505050908060040160009054906101000a900477ffffffffffffffffffffffffffffffffffffffffffffffff16908060040160189054906101000a900463ffffffff169080600401601c9054906101000a900463ffffffff16908060050160009054906101000a900460ff16905088565b60008054906101000a900473ffffffffffffffffffffffffffffffffffffffff1673ffffffffffffffffffffffffffffffffffffffff163373ffffffffffffffffffffffffffffffffffffffff1614610bed57600080fd5b6000604051610bfb906111bc565b604051809103906000f080158015610c17573d6000803e3d6000fd5b50905080600260006101000a81548173ffffffffffffffffffffffffffffffffffffffff021916908373ffffffffffffffffffffffffffffffffffffffff16021790555050565b60008054906101000a900473ffffffffffffffffffffffffffffffffffffffff1681565b60008054906101000a900473ffffffffffffffffffffffffffffffffffffffff1673ffffffffffffffffffffffffffffffffffffffff163373ffffffffffffffffffffffffffffffffffffffff1614610cda57600080fd5b60006040518061010001604052806040518060600160405280602681526020016142066026913981526020016040518060600160405280603b81526020016141cb603b913981526020016040518060400160405280600a81526020017f2f66697874757265732f0000000000000000000000000000000000000000000081525081526020016040518060200160405280600081525081526020018377ffffffffffffffffffffffffffffffffffffffffffffffff168152602001600063ffffffff168152602001600063ffffffff16815260200160011515815250905080600160008477ffffffffffffffffffffffffffffffffffffffffffffffff1681526020019081526020016000206000820151816000019080519060200190610e01929190611136565b506020820151816001019080519060200190610e1e929190611136565b506040820151816002019080519060200190610e3b929190611136565b506060820151816003019080519060200190610e58929190611136565b5060808201518160040160006101000a81548177ffffffffffffffffffffffffffffffffffffffffffffffff021916908377ffffffffffffffffffffffffffffffffffffffffffffffff16021790555060a08201518160040160186101000a81548163ffffffff021916908363ffffffff16021790555060c082015181600401601c6101000a81548163ffffffff021916908363ffffffff16021790555060e08201518160050160006101000a81548160ff0219169083151502179055509050507fdc5050fc0bbebbeda9fbd74b03fe51fe370f7100d4c24ba12d518a8756087e8481604051610f48919061163c565b60405180910390a15050565b60008054906101000a900473ffffffffffffffffffffffffffffffffffffffff1673ffffffffffffffffffffffffffffffffffffffff163373ffffffffffffffffffffffffffffffffffffffff1614610fac57600080fd5b6000600260009054906101000a900473ffffffffffffffffffffffffffffffffffffffff1690508073ffffffffffffffffffffffffffffffffffffffff166398d079a7836040518263ffffffff1660e01b815260040161100c919061165e565b600060405180830381600087803b15801561102657600080fd5b505af115801561103a573d6000803e3d6000fd5b505050505050565b60008054906101000a900473ffffffffffffffffffffffffffffffffffffffff1673ffffffffffffffffffffffffffffffffffffffff163373ffffffffffffffffffffffffffffffffffffffff161461109a57600080fd5b6000600260009054906101000a900473ffffffffffffffffffffffffffffffffffffffff1690508073ffffffffffffffffffffffffffffffffffffffff1663e3c936568585856040518463ffffffff1660e01b81526004016110fe939291906116b0565b600060405180830381600087803b15801561111857600080fd5b505af115801561112c573d6000803e3d6000fd5b5050505050505050565b828054611142906117ee565b90600052602060002090601f01602090048101928261116457600085556111ab565b82601f1061117d57805160ff19168380011785556111ab565b828001600101855582156111ab579182015b828111156111aa57825182559160200191906001019061118f565b5b5090506111b891906111c9565b5090565b6128f7806118d483390190565b5b808211156111e25760008160009055506001016111ca565b5090565b60008083601f8401126111f857600080fd5b8235905067ffffffffffffffff81111561121157600080fd5b60208301915083600182028301111561122957600080fd5b9250929050565b60008135905061123f81611860565b92915050565b60008135905061125481611877565b92915050565b6000813590506112698161188e565b92915050565b60008135905061127e816118a5565b92915050565b600081359050611293816118bc565b92915050565b6000602082840312156112ab57600080fd5b60006112b984828501611230565b91505092915050565b6000806000806000608086880312156112da57600080fd5b60006112e888828901611230565b95505060206112f98882890161125a565b945050604061130a8882890161125a565b935050606086013567ffffffffffffffff81111561132757600080fd5b611333888289016111e6565b92509250509295509295909350565b60006020828403121561135457600080fd5b600061136284828501611245565b91505092915050565b60008060006060848603121561138057600080fd5b600061138e86828701611284565b935050602061139f86828701611245565b92505060406113b08682870161126f565b9150509250925092565b6113c381611714565b82525050565b6113d281611726565b82525050565b6113e181611726565b82525050565b60006113f2826116e7565b6113fc81856116f2565b935061140c8185602086016117bb565b6114158161184f565b840191505092915050565b600061142b826116e7565b6114358185611703565b93506114458185602086016117bb565b61144e8161184f565b840191505092915050565b600061010083016000830151848203600086015261147782826113e7565b9150506020830151848203602086015261149182826113e7565b915050604083015184820360408601526114ab82826113e7565b915050606083015184820360608601526114c582826113e7565b91505060808301516114da608086018261151e565b5060a08301516114ed60a086018261154b565b5060c083015161150060c086018261154b565b5060e083015161151360e08601826113c9565b508091505092915050565b61152781611752565b82525050565b61153681611752565b82525050565b61154581611776565b82525050565b61155481611780565b82525050565b61156381611780565b82525050565b61157281611790565b82525050565b611581816117a3565b82525050565b600060208201905061159c60008301846113ba565b92915050565b60006101008201905081810360008301526115bd818b611420565b905081810360208301526115d1818a611420565b905081810360408301526115e58189611420565b905081810360608301526115f98188611420565b9050611608608083018761152d565b61161560a083018661155a565b61162260c083018561155a565b61162f60e08301846113d8565b9998505050505050505050565b600060208201905081810360008301526116568184611459565b905092915050565b6000602082019050611673600083018461153c565b92915050565b600060608201905061168e600083018661155a565b61169b602083018561155a565b6116a8604083018461155a565b949350505050565b60006060820190506116c56000830186611578565b6116d2602083018561153c565b6116df6040830184611569565b949350505050565b600081519050919050565b600082825260208201905092915050565b600082825260208201905092915050565b600061171f82611732565b9050919050565b60008115159050919050565b600073ffffffffffffffffffffffffffffffffffffffff82169050919050565b600077ffffffffffffffffffffffffffffffffffffffffffffffff82169050919050565b6000819050919050565b600063ffffffff82169050919050565b600066ffffffffffffff82169050919050565b60006bffffffffffffffffffffffff82169050919050565b60005b838110156117d95780820151818401526020810190506117be565b838111156117e8576000848401525b50505050565b6000600282049050600182168061180657607f821691505b6020821081141561181a57611819611820565b5b50919050565b7f4e487b7100000000000000000000000000000000000000000000000000000000600052602260045260246000fd5b6000601f19601f8301169050919050565b61186981611752565b811461187457600080fd5b50565b61188081611776565b811461188b57600080fd5b50565b61189781611780565b81146118a257600080fd5b50565b6118ae81611790565b81146118b957600080fd5b50565b6118c5816117a3565b81146118d057600080fd5b5056fe608060405234801561001057600080fd5b50336000806101000a81548173ffffffffffffffffffffffffffffffffffffffff021916908373ffffffffffffffffffffffffffffffffffffffff160217905550336000806101000a81548173ffffffffffffffffffffffffffffffffffffffff021916908373ffffffffffffffffffffffffffffffffffffffff160217905550612857806100a06000396000f3fe6080604052600436106100a75760003560e01c806398d079a71161006457806398d079a7146101d35780639d6aaa7d146101fc5780639f6c0ce314610239578063a2f77bcc14610264578063da839c97146102a1578063e3c93656146102bd576100a7565b80630468a2c4146100ac5780631ccf6955146100d55780636ffcc719146101125780638da5cb5b1461012e5780638fdcc8c61461015957806394328aa314610196575b600080fd5b3480156100b857600080fd5b506100d360048036038101906100ce9190611e53565b6102e6565b005b3480156100e157600080fd5b506100fc60048036038101906100f79190611dee565b610759565b604051610109919061238d565b60405180910390f35b61012c60048036038101906101279190611e17565b61089a565b005b34801561013a57600080fd5b50610143610b5a565b6040516101509190612372565b60405180910390f35b34801561016557600080fd5b50610180600480360381019061017b9190611e17565b610b7e565b60405161018d91906124ff565b60405180910390f35b3480156101a257600080fd5b506101bd60048036038101906101b89190611dee565b610c4f565b6040516101ca91906124ff565b60405180910390f35b3480156101df57600080fd5b506101fa60048036038101906101f59190611dee565b610efd565b005b34801561020857600080fd5b50610223600480360381019061021e9190611dee565b610fb8565b60405161023091906123af565b60405180910390f35b34801561024557600080fd5b5061024e611023565b60405161025b91906123af565b60405180910390f35b34801561027057600080fd5b5061028b60048036038101906102869190611dee565b61107b565b60405161029891906124e3565b60405180910390f35b6102bb60048036038101906102b69190611dee565b6111ed565b005b3480156102c957600080fd5b506102e460048036038101906102df9190611ea2565b611607565b005b8263ffffffff166004600082815260200190815260200160002060010160019054906101000a900460ff16610350576040517f08c379a00000000000000000000000000000000000000000000000000000000081526004016103479061247a565b60405180910390fd5b60008054906101000a900473ffffffffffffffffffffffffffffffffffffffff1673ffffffffffffffffffffffffffffffffffffffff163373ffffffffffffffffffffffffffffffffffffffff16146103a857600080fd5b60008060006103b687611951565b9250925092506000600460008963ffffffff168152602001908152602001600020604051806101400160405290816000820160009054906101000a90046bffffffffffffffffffffffff166bffffffffffffffffffffffff166bffffffffffffffffffffffff16815260200160008201600c9054906101000a900466ffffffffffffff1666ffffffffffffff1666ffffffffffffff1681526020016000820160139054906101000a900463ffffffff1663ffffffff1663ffffffff1681526020016000820160179054906101000a900463ffffffff1663ffffffff1663ffffffff16815260200160008201601b9054906101000a900463ffffffff1663ffffffff1663ffffffff16815260200160008201601f9054906101000a900460ff161515151581526020016001820160009054906101000a900460ff161515151581526020016001820160019054906101000a900460ff1615151515815260200160028201548152602001600382015481525050905086816040019063ffffffff16908163ffffffff168152505085816060019063ffffffff16908163ffffffff168152505060018160a001901515908115158152505060018160c001901515908115158152505081816080019063ffffffff16908163ffffffff16815250508281610120018181525050838161010001818152505080600460008a63ffffffff16815260200190815260200160002060008201518160000160006101000a8154816bffffffffffffffffffffffff02191690836bffffffffffffffffffffffff160217905550602082015181600001600c6101000a81548166ffffffffffffff021916908366ffffffffffffff16021790555060408201518160000160136101000a81548163ffffffff021916908363ffffffff16021790555060608201518160000160176101000a81548163ffffffff021916908363ffffffff160217905550608082015181600001601b6101000a81548163ffffffff021916908363ffffffff16021790555060a082015181600001601f6101000a81548160ff02191690831515021790555060c08201518160010160006101000a81548160ff02191690831515021790555060e08201518160010160016101000a81548160ff021916908315150217905550610100820151816002015561012082015181600301559050507fe89bb1849f637efae3f96a973a9c0775b0033ccf1deba9c11915717455a7fe836001896040516107479291906123d1565b60405180910390a15050505050505050565b6060816004600082815260200190815260200160002060010160019054906101000a900460ff166107bf576040517f08c379a00000000000000000000000000000000000000000000000000000000081526004016107b69061247a565b60405180910390fd5b60036000848152602001908152602001600020805480602002602001604051908101604052809291908181526020016000905b8282101561088e57838290600052602060002090600302016040518060600160405290816000820160009054906101000a900473ffffffffffffffffffffffffffffffffffffffff1673ffffffffffffffffffffffffffffffffffffffff1673ffffffffffffffffffffffffffffffffffffffff16815260200160018201548152602001600282015481525050815260200190600101906107f2565b50505050915050919050565b816004600082815260200190815260200160002060010160019054906101000a900460ff166108fe576040517f08c379a00000000000000000000000000000000000000000000000000000000081526004016108f59061247a565b60405180910390fd5b8160008110158015610911575060028111155b610950576040517f08c379a00000000000000000000000000000000000000000000000000000000081526004016109479061243a565b60405180910390fd5b8360046000828152602001908152602001600020600001600c9054906101000a900466ffffffffffffff1666ffffffffffffff166103e842610992919061262f565b106109d2576040517f08c379a00000000000000000000000000000000000000000000000000000000081526004016109c99061249a565b60405180910390fd5b600060405180606001604052803373ffffffffffffffffffffffffffffffffffffffff1681526020013481526020018681525090506003600087815260200190815260200160002081908060018154018082558091505060019003906000526020600020906003020160009091909190915060008201518160000160006101000a81548173ffffffffffffffffffffffffffffffffffffffff021916908373ffffffffffffffffffffffffffffffffffffffff1602179055506020820151816001015560408201518160020155505034600560003373ffffffffffffffffffffffffffffffffffffffff1673ffffffffffffffffffffffffffffffffffffffff168152602001908152602001600020600088815260200190815260200160002060008781526020019081526020016000206000828254610b1291906125a8565b925050819055507f49497e006b29902259c7a439a9fa5011c00afe0e0aa37e810333db207adcefb08187604051610b4a9291906124ba565b60405180910390a1505050505050565b60008054906101000a900473ffffffffffffffffffffffffffffffffffffffff1681565b6000826004600082815260200190815260200160002060010160019054906101000a900460ff16610be4576040517f08c379a0000000000000000000000000000000000000000000000000000000008152600401610bdb9061247a565b60405180910390fd5b600560003373ffffffffffffffffffffffffffffffffffffffff1673ffffffffffffffffffffffffffffffffffffffff168152602001908152602001600020600085815260200190815260200160002060008481526020019081526020016000205491505092915050565b6000816004600082815260200190815260200160002060010160019054906101000a900460ff16610cb5576040517f08c379a0000000000000000000000000000000000000000000000000000000008152600401610cac9061247a565b60405180910390fd5b826001151560046000838152602001908152602001600020600001601f9054906101000a900460ff16151514610d20576040517f08c379a0000000000000000000000000000000000000000000000000000000008152600401610d179061241a565b60405180910390fd5b600060046000868152602001908152602001600020604051806101400160405290816000820160009054906101000a90046bffffffffffffffffffffffff166bffffffffffffffffffffffff166bffffffffffffffffffffffff16815260200160008201600c9054906101000a900466ffffffffffffff1666ffffffffffffff1666ffffffffffffff1681526020016000820160139054906101000a900463ffffffff1663ffffffff1663ffffffff1681526020016000820160179054906101000a900463ffffffff1663ffffffff1663ffffffff16815260200160008201601b9054906101000a900463ffffffff1663ffffffff1663ffffffff16815260200160008201601f9054906101000a900460ff161515151581526020016001820160009054906101000a900460ff161515151581526020016001820160019054906101000a900460ff16151515158152602001600282015481526020016003820154815250509050600560003373ffffffffffffffffffffffffffffffffffffffff1673ffffffffffffffffffffffffffffffffffffffff16815260200190815260200160002060008681526020019081526020016000206000826080015163ffffffff168152602001908152602001600020549350505050919050565b60008054906101000a900473ffffffffffffffffffffffffffffffffffffffff1673ffffffffffffffffffffffffffffffffffffffff163373ffffffffffffffffffffffffffffffffffffffff1614610f5557600080fd5b60018190806001815401808255809150506001900390600052602060002001600090919091909150557f9edc9bae9b3983d36dfb38fff741c45440f54213c4782f68a10a50cc5d753c7c81604051610fad91906124ff565b60405180910390a150565b60606002600083815260200190815260200160002080548060200260200160405190810160405280929190818152602001828054801561101757602002820191906000526020600020905b815481526020019060010190808311611003575b50505050509050919050565b6060600180548060200260200160405190810160405280929190818152602001828054801561107157602002820191906000526020600020905b81548152602001906001019080831161105d575b5050505050905090565b611083611d18565b60046000838152602001908152602001600020604051806101400160405290816000820160009054906101000a90046bffffffffffffffffffffffff166bffffffffffffffffffffffff166bffffffffffffffffffffffff16815260200160008201600c9054906101000a900466ffffffffffffff1666ffffffffffffff1666ffffffffffffff1681526020016000820160139054906101000a900463ffffffff1663ffffffff1663ffffffff1681526020016000820160179054906101000a900463ffffffff1663ffffffff1663ffffffff16815260200160008201601b9054906101000a900463ffffffff1663ffffffff1663ffffffff16815260200160008201601f9054906101000a900460ff161515151581526020016001820160009054906101000a900460ff161515151581526020016001820160019054906101000a900460ff16151515158152602001600282015481526020016003820154815250509050919050565b806004600082815260200190815260200160002060010160019054906101000a900460ff16611251576040517f08c379a00000000000000000000000000000000000000000000000000000000081526004016112489061247a565b60405180910390fd5b816001151560046000838152602001908152602001600020600001601f9054906101000a900460ff161515146112bc576040517f08c379a00000000000000000000000000000000000000000000000000000000081526004016112b39061241a565b60405180910390fd5b600060046000858152602001908152602001600020604051806101400160405290816000820160009054906101000a90046bffffffffffffffffffffffff166bffffffffffffffffffffffff166bffffffffffffffffffffffff16815260200160008201600c9054906101000a900466ffffffffffffff1666ffffffffffffff1666ffffffffffffff1681526020016000820160139054906101000a900463ffffffff1663ffffffff1663ffffffff1681526020016000820160179054906101000a900463ffffffff1663ffffffff1663ffffffff16815260200160008201601b9054906101000a900463ffffffff1663ffffffff1663ffffffff16815260200160008201601f9054906101000a900460ff161515151581526020016001820160009054906101000a900460ff161515151581526020016001820160019054906101000a900460ff161515151581526020016002820154815260200160038201548152505090506000600560003373ffffffffffffffffffffffffffffffffffffffff1673ffffffffffffffffffffffffffffffffffffffff16815260200190815260200160002060008681526020019081526020016000206000836080015163ffffffff168152602001908152602001600020549050600060648361012001518461010001516064856114b0919061262f565b6114ba91906125fe565b6114c4919061262f565b6114ce91906125fe565b90506000600560003373ffffffffffffffffffffffffffffffffffffffff1673ffffffffffffffffffffffffffffffffffffffff16815260200190815260200160002060008881526020019081526020016000206000856080015163ffffffff168152602001908152602001600020819055506000828261154f91906125a8565b905060003373ffffffffffffffffffffffffffffffffffffffff16826040516115779061235d565b60006040518083038185875af1925050503d80600081146115b4576040519150601f19603f3d011682016040523d82523d6000602084013e6115b9565b606091505b50509050806115fd576040517f08c379a00000000000000000000000000000000000000000000000000000000081526004016115f4906123fa565b60405180910390fd5b5050505050505050565b826bffffffffffffffffffffffff166004600082815260200190815260200160002060010160019054906101000a900460ff161561167a576040517f08c379a00000000000000000000000000000000000000000000000000000000081526004016116719061245a565b60405180910390fd5b60008054906101000a900473ffffffffffffffffffffffffffffffffffffffff1673ffffffffffffffffffffffffffffffffffffffff163373ffffffffffffffffffffffffffffffffffffffff16146116d257600080fd5b6000604051806101400160405280866bffffffffffffffffffffffff1681526020018466ffffffffffffff168152602001600063ffffffff168152602001600063ffffffff168152602001600063ffffffff16815260200160001515815260200160001515815260200160011515815260200160008152602001600081525090508060046000876bffffffffffffffffffffffff16815260200190815260200160002060008201518160000160006101000a8154816bffffffffffffffffffffffff02191690836bffffffffffffffffffffffff160217905550602082015181600001600c6101000a81548166ffffffffffffff021916908366ffffffffffffff16021790555060408201518160000160136101000a81548163ffffffff021916908363ffffffff16021790555060608201518160000160176101000a81548163ffffffff021916908363ffffffff160217905550608082015181600001601b6101000a81548163ffffffff021916908363ffffffff16021790555060a082015181600001601f6101000a81548160ff02191690831515021790555060c08201518160010160006101000a81548160ff02191690831515021790555060e08201518160010160016101000a81548160ff0219169083151502179055506101008201518160020155610120820151816003015590505060026000858152602001908152602001600020816000015190806001815401808255809150506001900390600052602060002001600090916bffffffffffffffffffffffff169091909150557feada69c71ccb7e691fff2e286de47fbac785d1ede8b3eb1def52ada7d057047d8160405161194291906124e3565b60405180910390a15050505050565b600080600061195f84611af9565b905060005b600360008663ffffffff16815260200190815260200160002080549050811015611af1578163ffffffff16600360008763ffffffff16815260200190815260200160002082815481106119e0577f4e487b7100000000000000000000000000000000000000000000000000000000600052603260045260246000fd5b9060005260206000209060030201600201541415611a6d57600360008663ffffffff1681526020019081526020016000208181548110611a49577f4e487b7100000000000000000000000000000000000000000000000000000000600052603260045260246000fd5b90600052602060002090600302016001015484611a6691906125a8565b9350611ade565b600360008663ffffffff1681526020019081526020016000208181548110611abe577f4e487b7100000000000000000000000000000000000000000000000000000000600052603260045260246000fd5b90600052602060002090600302016001015483611adb91906125a8565b92505b8080611ae99061271e565b915050611964565b509193909250565b60008060009054906101000a900473ffffffffffffffffffffffffffffffffffffffff1673ffffffffffffffffffffffffffffffffffffffff163373ffffffffffffffffffffffffffffffffffffffff1614611b5457600080fd5b6000600460008463ffffffff168152602001908152602001600020604051806101400160405290816000820160009054906101000a90046bffffffffffffffffffffffff166bffffffffffffffffffffffff166bffffffffffffffffffffffff16815260200160008201600c9054906101000a900466ffffffffffffff1666ffffffffffffff1666ffffffffffffff1681526020016000820160139054906101000a900463ffffffff1663ffffffff1663ffffffff1681526020016000820160179054906101000a900463ffffffff1663ffffffff1663ffffffff16815260200160008201601b9054906101000a900463ffffffff1663ffffffff1663ffffffff16815260200160008201601f9054906101000a900460ff161515151581526020016001820160009054906101000a900460ff161515151581526020016001820160019054906101000a900460ff16151515158152602001600282015481526020016003820154815250509050806060015163ffffffff16816040015163ffffffff161115611ce7576001915050611d13565b806040015163ffffffff16816060015163ffffffff161115611d0d576002915050611d13565b60009150505b919050565b60405180610140016040528060006bffffffffffffffffffffffff168152602001600066ffffffffffffff168152602001600063ffffffff168152602001600063ffffffff168152602001600063ffffffff16815260200160001515815260200160001515815260200160001515815260200160008152602001600081525090565b600081359050611da9816127c5565b92915050565b600081359050611dbe816127dc565b92915050565b600081359050611dd3816127f3565b92915050565b600081359050611de88161280a565b92915050565b600060208284031215611e0057600080fd5b6000611e0e84828501611d9a565b91505092915050565b60008060408385031215611e2a57600080fd5b6000611e3885828601611d9a565b9250506020611e4985828601611d9a565b9150509250929050565b600080600060608486031215611e6857600080fd5b6000611e7686828701611daf565b9350506020611e8786828701611daf565b9250506040611e9886828701611daf565b9150509250925092565b600080600060608486031215611eb757600080fd5b6000611ec586828701611dd9565b9350506020611ed686828701611d9a565b9250506040611ee786828701611dc4565b9150509250925092565b6000611efd83836121b3565b60608301905092915050565b6000611f158383612303565b60208301905092915050565b611f2a81612689565b82525050565b611f3981612689565b82525050565b6000611f4a8261253a565b611f54818561256a565b9350611f5f8361251a565b8060005b83811015611f90578151611f778882611ef1565b9750611f8283612550565b925050600181019050611f63565b5085935050505092915050565b6000611fa882612545565b611fb2818561257b565b9350611fbd8361252a565b8060005b83811015611fee578151611fd58882611f09565b9750611fe08361255d565b925050600181019050611fc1565b5085935050505092915050565b6120048161269b565b82525050565b6120138161269b565b82525050565b6000612026601583612597565b91507f6761696e73207472616e73666572206661696c656400000000000000000000006000830152602082019050919050565b6000612066601483612597565b91507f67616d65206d757374206861766520656e6465640000000000000000000000006000830152602082019050919050565b60006120a6601283612597565b91507f4f7574636f6d6520697320696e76616c696400000000000000000000000000006000830152602082019050919050565b60006120e6601483612597565b91507f47616d6520616c657265616479206578697374730000000000000000000000006000830152602082019050919050565b6000612126601483612597565b91507f47616d6520646f6573206e6f74206578697374730000000000000000000000006000830152602082019050919050565b600061216660008361258c565b9150600082019050919050565b6000612180601883612597565b91507f67616d652068617320616c7265616479207374617274656400000000000000006000830152602082019050919050565b6060820160008201516121c96000850182611f21565b5060208201516121dc6020850182612303565b5060408201516121ef6040850182612303565b50505050565b60608201600082015161220b6000850182611f21565b50602082015161221e6020850182612303565b5060408201516122316040850182612303565b50505050565b6101408201600082015161224e600085018261234e565b506020820151612261602085018261233f565b5060408201516122746040850182612330565b5060608201516122876060850182612330565b50608082015161229a6080850182612330565b5060a08201516122ad60a0850182611ffb565b5060c08201516122c060c0850182611ffb565b5060e08201516122d360e0850182611ffb565b506101008201516122e8610100850182612303565b506101208201516122fd610120850182612303565b50505050565b61230c816126c7565b82525050565b61231b816126c7565b82525050565b61232a8161270c565b82525050565b612339816126d1565b82525050565b612348816126e1565b82525050565b612357816126f4565b82525050565b600061236882612159565b9150819050919050565b60006020820190506123876000830184611f30565b92915050565b600060208201905081810360008301526123a78184611f3f565b905092915050565b600060208201905081810360008301526123c98184611f9d565b905092915050565b60006040820190506123e6600083018561200a565b6123f36020830184612321565b9392505050565b6000602082019050818103600083015261241381612019565b9050919050565b6000602082019050818103600083015261243381612059565b9050919050565b6000602082019050818103600083015261245381612099565b9050919050565b60006020820190508181036000830152612473816120d9565b9050919050565b6000602082019050818103600083015261249381612119565b9050919050565b600060208201905081810360008301526124b381612173565b9050919050565b60006080820190506124cf60008301856121f5565b6124dc6060830184612312565b9392505050565b6000610140820190506124f96000830184612237565b92915050565b60006020820190506125146000830184612312565b92915050565b6000819050602082019050919050565b6000819050602082019050919050565b600081519050919050565b600081519050919050565b6000602082019050919050565b6000602082019050919050565b600082825260208201905092915050565b600082825260208201905092915050565b600081905092915050565b600082825260208201905092915050565b60006125b3826126c7565b91506125be836126c7565b9250827fffffffffffffffffffffffffffffffffffffffffffffffffffffffffffffffff038211156125f3576125f2612767565b5b828201905092915050565b6000612609826126c7565b9150612614836126c7565b92508261262457612623612796565b5b828204905092915050565b600061263a826126c7565b9150612645836126c7565b9250817fffffffffffffffffffffffffffffffffffffffffffffffffffffffffffffffff048311821515161561267e5761267d612767565b5b828202905092915050565b6000612694826126a7565b9050919050565b60008115159050919050565b600073ffffffffffffffffffffffffffffffffffffffff82169050919050565b6000819050919050565b600063ffffffff82169050919050565b600066ffffffffffffff82169050919050565b60006bffffffffffffffffffffffff82169050919050565b6000612717826126d1565b9050919050565b6000612729826126c7565b91507fffffffffffffffffffffffffffffffffffffffffffffffffffffffffffffffff82141561275c5761275b612767565b5b600182019050919050565b7f4e487b7100000000000000000000000000000000000000000000000000000000600052601160045260246000fd5b7f4e487b7100000000000000000000000000000000000000000000000000000000600052601260045260246000fd5b6127ce816126c7565b81146127d957600080fd5b50565b6127e5816126d1565b81146127f057600080fd5b50565b6127fc816126e1565b811461280757600080fd5b50565b612813816126f4565b811461281e57600080fd5b5056fea2646970667358221220bbd5155ba327984c925562c72a27459620bcae50a7bf0e1c5c810c1aa3f8bb8764736f6c6343000800003373636f7265732e6c6f63616c7465616d5f73636f72652c73636f7265732e76697369746f727465616d5f73636f72652c74696d652e73746174757368747470733a2f2f736f636365722e73706f72746d6f6e6b732e636f6d2f6170692f76322e30a2646970667358221220465a4cfbf3efa1d377e5a0f79e3ff6e30ce4f9192f126225cf09b1c7943d747f64736f6c63430008000033",
  "immutableReferences": {},
  "source": "// SPDX-License-Identifier: UNLICENSED\npragma solidity ^0.8.0;\n\nimport \"./Owner.sol\";\nimport \"./BettingContract.sol\";\n\ncontract Oracle is Owner {\n    event NewRequest(Request);\n\n    struct Request {\n        string rootUrl;\n        string paramsToFetch;\n        string endpoint;\n        string gameStatus;\n        uint192 id;\n        uint32 team1Score;\n        uint32 team2Score;\n        bool exists;\n    }\n\n    mapping(uint256 => Request) public requests;\n\n    address public bettingContractAddress;\n\n    constructor() {\n        owner = msg.sender;\n    }\n\n    function deployBettingContract() external isOwner() {\n        BettingContract bettingContract = new BettingContract();\n        bettingContractAddress = address(bettingContract);\n    }\n\n    function createRequest(uint192 gameId) external isOwner() {\n        Request memory newRequest = Request({\n            rootUrl: \"https://soccer.sportmonks.com/api/v2.0\",\n            paramsToFetch: \"scores.localteam_score,scores.visitorteam_score,time.status\",\n            endpoint: \"/fixtures/\",\n            gameStatus: \"\",\n            id: gameId,\n            team1Score: 0,\n            team2Score: 0,\n            exists: true\n        });\n\n        requests[gameId] = newRequest;\n        emit NewRequest(newRequest);\n    }\n\n    function updateRequest(\n        uint192 gameId,\n        uint32 team1Score,\n        uint32 team2Score,\n        string calldata gameStatus\n    ) external isOwner() {\n        if (requests[gameId].exists) {\n            Request memory request = requests[gameId];\n            request.team1Score = team1Score;\n            request.team2Score = team2Score;\n            request.gameStatus = gameStatus;\n            requests[gameId] = request;\n            BettingContract bettingContract = BettingContract(\n                bettingContractAddress\n            );\n            bettingContract.settleGame(\n                uint32(requests[gameId].id),\n                requests[gameId].team1Score,\n                requests[gameId].team2Score\n            );\n        }\n    }\n\n    function newGame(\n        uint96 gameId,\n        uint256 competitionId,\n        uint56 start\n    ) external isOwner() {\n        BettingContract bettingContract = BettingContract(\n            bettingContractAddress\n        );\n        bettingContract.newGame(gameId, competitionId, start);\n    }\n\n    function newCompetition(uint256 competitionId) external isOwner() {\n        BettingContract bettingContract = BettingContract(\n            bettingContractAddress\n        );\n        bettingContract.newCompetition(competitionId);\n    }\n}\n",
  "sourcePath": "/home/kstwa/Documents/SportsOnTheBlock/contracts/Oracle.sol",
  "compiler": {
    "name": "solc",
    "version": "0.8.0+commit.c7dfd78e.Emscripten.clang"
  },
  "schemaVersion": "3.4.1",
  "updatedAt": "2021-07-16T19:15:17.076Z",
  "networkType": "ethereum",
  "devdoc": {
    "kind": "dev",
    "methods": {},
    "version": 1
  },
  "userdoc": {
    "kind": "user",
    "methods": {},
    "version": 1
  }
}