{
    "contractName": "BetContract",
    "abi": [
        {
            "inputs": [
                {
                    "internalType": "address",
                    "name": "_gameAddress",
                    "type": "address"
                },
                {
                    "internalType": "address",
                    "name": "_admin",
                    "type": "address"
                }
            ],
            "payable": false,
            "stateMutability": "nonpayable",
            "type": "constructor"
        },
        {
            "anonymous": false,
            "inputs": [
                {
                    "indexed": false,
                    "internalType": "enum BetContract.BETSTATES",
                    "name": "",
                    "type": "uint8"
                }
            ],
            "name": "BetStateChanged",
            "type": "event"
        },
        {
            "anonymous": false,
            "inputs": [
                {
                    "components": [
                        {
                            "internalType": "enum IsCommon.GAMEOUTCOMES",
                            "name": "gameOutcome",
                            "type": "uint8"
                        },
                        {
                            "internalType": "uint256",
                            "name": "amount",
                            "type": "uint256"
                        },
                        {
                            "internalType": "address payable",
                            "name": "userAddress",
                            "type": "address"
                        }
                    ],
                    "indexed": false,
                    "internalType": "struct BetContract.Bet",
                    "name": "",
                    "type": "tuple"
                }
            ],
            "name": "NewBet",
            "type": "event"
        },
        {
            "constant": false,
            "inputs": [],
            "name": "betNULL",
            "outputs": [],
            "payable": true,
            "stateMutability": "payable",
            "type": "function"
        },
        {
            "constant": false,
            "inputs": [],
            "name": "betTeamA",
            "outputs": [],
            "payable": true,
            "stateMutability": "payable",
            "type": "function"
        },
        {
            "constant": false,
            "inputs": [],
            "name": "betTeamB",
            "outputs": [],
            "payable": true,
            "stateMutability": "payable",
            "type": "function"
        },
        {
            "constant": true,
            "inputs": [],
            "name": "getAdmin",
            "outputs": [
                {
                    "internalType": "address",
                    "name": "",
                    "type": "address"
                }
            ],
            "payable": false,
            "stateMutability": "view",
            "type": "function"
        },
        {
            "constant": true,
            "inputs": [],
            "name": "getBetCountA",
            "outputs": [
                {
                    "internalType": "uint256",
                    "name": "",
                    "type": "uint256"
                }
            ],
            "payable": false,
            "stateMutability": "view",
            "type": "function"
        },
        {
            "constant": true,
            "inputs": [],
            "name": "getBetCountB",
            "outputs": [
                {
                    "internalType": "uint256",
                    "name": "",
                    "type": "uint256"
                }
            ],
            "payable": false,
            "stateMutability": "view",
            "type": "function"
        },
        {
            "constant": true,
            "inputs": [],
            "name": "getBetCountNULL",
            "outputs": [
                {
                    "internalType": "uint256",
                    "name": "",
                    "type": "uint256"
                }
            ],
            "payable": false,
            "stateMutability": "view",
            "type": "function"
        },
        {
            "constant": true,
            "inputs": [],
            "name": "getBetState",
            "outputs": [
                {
                    "internalType": "enum BetContract.BETSTATES",
                    "name": "",
                    "type": "uint8"
                }
            ],
            "payable": false,
            "stateMutability": "view",
            "type": "function"
        },
        {
            "constant": true,
            "inputs": [],
            "name": "getBetValueA",
            "outputs": [
                {
                    "internalType": "uint256",
                    "name": "",
                    "type": "uint256"
                }
            ],
            "payable": false,
            "stateMutability": "view",
            "type": "function"
        },
        {
            "constant": true,
            "inputs": [],
            "name": "getBetValueB",
            "outputs": [
                {
                    "internalType": "uint256",
                    "name": "",
                    "type": "uint256"
                }
            ],
            "payable": false,
            "stateMutability": "view",
            "type": "function"
        },
        {
            "constant": true,
            "inputs": [],
            "name": "getBetValueNULL",
            "outputs": [
                {
                    "internalType": "uint256",
                    "name": "",
                    "type": "uint256"
                }
            ],
            "payable": false,
            "stateMutability": "view",
            "type": "function"
        },
        {
            "constant": true,
            "inputs": [],
            "name": "getBetsValue",
            "outputs": [
                {
                    "internalType": "uint256",
                    "name": "",
                    "type": "uint256"
                }
            ],
            "payable": false,
            "stateMutability": "view",
            "type": "function"
        },
        {
            "constant": true,
            "inputs": [],
            "name": "getTotalBetsCount",
            "outputs": [
                {
                    "internalType": "uint256",
                    "name": "",
                    "type": "uint256"
                }
            ],
            "payable": false,
            "stateMutability": "view",
            "type": "function"
        },
        {
            "constant": false,
            "inputs": [
                {
                    "internalType": "address",
                    "name": "_admin",
                    "type": "address"
                }
            ],
            "name": "setBetStateTo_CLOSE",
            "outputs": [
                {
                    "internalType": "enum BetContract.BETSTATES",
                    "name": "",
                    "type": "uint8"
                }
            ],
            "payable": false,
            "stateMutability": "nonpayable",
            "type": "function"
        },
        {
            "constant": false,
            "inputs": [
                {
                    "internalType": "address",
                    "name": "_admin",
                    "type": "address"
                }
            ],
            "name": "setBetStateTo_PAYED",
            "outputs": [
                {
                    "internalType": "enum BetContract.BETSTATES",
                    "name": "",
                    "type": "uint8"
                }
            ],
            "payable": false,
            "stateMutability": "nonpayable",
            "type": "function"
        },
        {
            "constant": false,
            "inputs": [
                {
                    "internalType": "address",
                    "name": "_admin",
                    "type": "address"
                }
            ],
            "name": "setBetStateTo_TOPAY",
            "outputs": [
                {
                    "internalType": "enum BetContract.BETSTATES",
                    "name": "",
                    "type": "uint8"
                }
            ],
            "payable": false,
            "stateMutability": "nonpayable",
            "type": "function"
        },
        {
            "constant": false,
            "inputs": [
                {
                    "internalType": "enum IsCommon.GAMEOUTCOMES",
                    "name": "gameOutcome",
                    "type": "uint8"
                },
                {
                    "internalType": "address",
                    "name": "_admin",
                    "type": "address"
                }
            ],
            "name": "settleBet",
            "outputs": [],
            "payable": false,
            "stateMutability": "nonpayable",
            "type": "function"
        }
    ],
    "bytecode": "60806040526000600455600060055560006006553480156200002057600080fd5b50604051620011b7380380620011b783398101604081905262000043916200009f565b60008054600180546001600160a01b0319166001600160a01b03958616179055610100600160a81b03191661010092909316919091029190911760ff60a81b191690556200010a565b80516200009981620000f0565b92915050565b60008060408385031215620000b357600080fd5b6000620000c185856200008c565b9250506020620000d4858286016200008c565b9150509250929050565b60006001600160a01b03821662000099565b620000fb81620000de565b81146200010757600080fd5b50565b61109d806200011a6000396000f3fe6080604052600436106100fe5760003560e01c80637956d37511610095578063adba163b11610064578063adba163b14610236578063b3f92e081461024b578063d03b785314610260578063dadf76c514610275578063f70e6a231461028a576100fe565b80637956d375146101e45780637cba277f146101f95780637d6246761461020e5780639d98b68114610216576100fe565b80635023fe94116100d15780635023fe941461018557806363466cd0146101a55780636e9960c3146101ad57806373c87843146101cf576100fe565b806339a3e4951461010357806339f8ac031461010d57806342065a84146101435780634893a16e14610163575b600080fd5b61010b61029f565b005b34801561011957600080fd5b5061012d610128366004610d45565b610487565b60405161013a9190610f7b565b60405180910390f35b34801561014f57600080fd5b5061010b61015e366004610d6b565b6104e9565b34801561016f57600080fd5b5061017861064e565b60405161013a9190610fc7565b34801561019157600080fd5b5061012d6101a0366004610d45565b610672565b61010b6106bf565b3480156101b957600080fd5b506101c26107bf565b60405161013a9190610f6d565b3480156101db57600080fd5b506101786107d3565b3480156101f057600080fd5b5061012d6107d9565b34801561020557600080fd5b506101786107e9565b61010b6107ef565b34801561022257600080fd5b5061012d610231366004610d45565b6108ef565b34801561024257600080fd5b5061017861093c565b34801561025757600080fd5b5061017861094c565b34801561026c57600080fd5b5061017861095c565b34801561028157600080fd5b50610178610962565b34801561029657600080fd5b50610178610966565b60008054600160a81b900460ff1660038111156102b857fe5b146102de5760405162461bcd60e51b81526004016102d590610fa9565b60405180910390fd5b6102e6610d07565b5060408051606081018252600081523460208201523381830152905160039061030e90610f4c565b9081526040516020918190038201902080546001808201808455600093845293909220845160039092020180548593919291839160ff19169083600281111561035357fe5b02179055506020820151600182810191909155604092830151600290920180546001600160a01b0319166001600160a01b0390931692909217909155600580549091019055513491506007906103a890610f4c565b908152604051908190036020019020805490910190556002805460018181018084556000849052845160039093027f405787fa12a823e0f2b7631cc41b3ba8828b3321ca811111fa75cd3aa3bb5ace0180549194869491939192849260ff1990911691849081111561041657fe5b021790555060208201516001820155604091820151600290910180546001600160a01b0319166001600160a01b03909216919091179055517fd4b76bd808a2ad094a96fd435f55a233dd5e0bc27ed6cd078568bb0759290106915061047c908390610fb9565b60405180910390a150565b600080546001600160a01b0383811661010090920416146104ba5760405162461bcd60e51b81526004016102d590610f89565b600080546002919060ff60a81b1916600160a81b835b021790555050600054600160a81b900460ff165b919050565b6000546001600160a01b03828116610100909204161461051b5760405162461bcd60e51b81526004016102d590610f89565b6002600054600160a81b900460ff16600381111561053557fe5b146105525760405162461bcd60e51b81526004016102d590610f99565b606060008060006105628661096c565b935093509350935060005b838110156105ee5761057d610d07565b85828151811061058957fe5b6020026020010151905060006105a482602001518587610ce9565b905081604001516001600160a01b03166108fc829081150290604051600060405180830381858888f193505050501580156105e3573d6000803e3d6000fd5b50505060010161056d565b506000805460ff60a81b1916600360a81b17908190556040517fb788f159f71f900499e53244a7e18c381d9fee90ce0d48d4363aaee5589b0c509161063e91600160a81b90910460ff1690610f7b565b60405180910390a1505050505050565b6000600760405161065e90610f4c565b908152602001604051809103902054905090565b600080546001600160a01b0383811661010090920416146106a55760405162461bcd60e51b81526004016102d590610f89565b600080546001919060ff60a81b1916600160a81b836104d0565b60008054600160a81b900460ff1660038111156106d857fe5b146106f55760405162461bcd60e51b81526004016102d590610fa9565b6106fd610d07565b5060408051606081018252600181523460208201523381830152905160039061072590610f57565b9081526040516020918190038201902080546001808201808455600093845293909220845160039092020180548593919291839160ff19169083600281111561076a57fe5b02179055506020820151600182810191909155604092830151600290920180546001600160a01b0319166001600160a01b0390931692909217909155600480549091019055513491506007906103a890610f57565b60005461010090046001600160a01b031690565b60025490565b600054600160a81b900460ff1690565b60055490565b60008054600160a81b900460ff16600381111561080857fe5b146108255760405162461bcd60e51b81526004016102d590610fa9565b61082d610d07565b5060408051606081018252600281523460208201523381830152905160039061085590610f62565b9081526040516020918190038201902080546001808201808455600093845293909220845160039092020180548593919291839160ff19169083600281111561089a57fe5b02179055506020820151600182810191909155604092830151600290920180546001600160a01b0319166001600160a01b0390931692909217909155600680549091019055513491506007906103a890610f62565b600080546001600160a01b0383811661010090920416146109225760405162461bcd60e51b81526004016102d590610f89565b600080546003919060ff60a81b1916600160a81b836104d0565b6000600760405161065e90610f57565b6000600760405161065e90610f62565b60065490565b4790565b60045490565b606060008080838180808089600281111561098357fe5b1415610aa657600360405161099790610f4c565b9081526020016040518091039020805480602002602001604051908101604052809291908181526020016000905b82821015610a3a576000848152602090206040805160608101909152600384029091018054829060ff1660028111156109fa57fe5b6002811115610a0557fe5b81526001828101546020808401919091526002909301546001600160a01b0316604090920191909152918352920191016109c5565b50505050935060055492506007604051610a5390610f4c565b90815260200160405180910390205490506007604051610a7290610f62565b9081526020016040518091039020546007604051610a8f90610f57565b908152602001604051809103902054019150610cd9565b6000896002811115610ab457fe5b1415610bc0576003604051610ac890610f57565b9081526020016040518091039020805480602002602001604051908101604052809291908181526020016000905b82821015610b6b576000848152602090206040805160608101909152600384029091018054829060ff166002811115610b2b57fe5b6002811115610b3657fe5b81526001828101546020808401919091526002909301546001600160a01b031660409092019190915291835292019101610af6565b50505050935060045492506007604051610b8490610f57565b90815260200160405180910390205490506007604051610ba390610f62565b9081526020016040518091039020546007604051610a8f90610f4c565b6003604051610bce90610f62565b9081526020016040518091039020805480602002602001604051908101604052809291908181526020016000905b82821015610c71576000848152602090206040805160608101909152600384029091018054829060ff166002811115610c3157fe5b6002811115610c3c57fe5b81526001828101546020808401919091526002909301546001600160a01b031660409092019190915291835292019101610bfc565b50505050935060065492506007604051610c8a90610f62565b90815260200160405180910390205490506007604051610ca990610f57565b9081526020016040518091039020546007604051610cc690610f4c565b9081526020016040518091039020540191505b9298919750919550909350915050565b6000826064808685020481610cfa57fe5b0402840190509392505050565b6040805160608101909152806000815260006020820181905260409091015290565b8035610d3481611039565b92915050565b8035610d348161104d565b600060208284031215610d5757600080fd5b6000610d638484610d29565b949350505050565b60008060408385031215610d7e57600080fd5b6000610d8a8585610d3a565b9250506020610d9b85828601610d29565b9150509250929050565b610dae81610fde565b82525050565b610dae8161100c565b610dae81611017565b6000610dd36001836104e4565b604160f81b815260010192915050565b6000610df06001836104e4565b602160f91b815260010192915050565b6000610e0d602c83610fd5565b7f596f75206e6565642061646d696e2072696768747320746f20706572666f726d81526b103a3434b99030b1ba34b7b760a11b602082015260400192915050565b6000610e5b601783610fd5565b7f626574207374617465206d75737420626520544f504159000000000000000000815260200192915050565b6000610e946004836104e4565b631395531360e21b815260040192915050565b6000610eb4603a83610fd5565b7f47616d652068617320616c726561647920737461727465642c20796f7520636181527f6e206e6f742074616b65206265747320616e79206c6f6e676572000000000000602082015260400192915050565b80516060830190610f178482610dbd565b506020820151610f2a6020850182610f43565b506040820151610f3d6040850182610da5565b50505050565b610dae81611009565b6000610d3482610dc6565b6000610d3482610de3565b6000610d3482610e87565b60208101610d348284610da5565b60208101610d348284610db4565b60208082528101610d3481610e00565b60208082528101610d3481610e4e565b60208082528101610d3481610ea7565b60608101610d348284610f06565b60208101610d348284610f43565b90815260200190565b6000610d3482610ffd565b806104e481611022565b806104e48161102f565b6001600160a01b031690565b90565b6000610d3482610fe9565b6000610d3482610ff3565b6004811061102c57fe5b50565b6003811061102c57fe5b61104281610fde565b811461102c57600080fd5b6003811061102c57600080fdfea365627a7a723158201fdfd7b64c591a4110ebf3900791c45dcecc6e1a0568145b0a1c51dca9dec0066c6578706572696d656e74616cf564736f6c63430005100040",
    "sourcePath": "/home/neurotropik/Documents/PROJECTS/ETHEREUM/SportsOnTheBlock/contracts/BetContract.sol",
    "compiler": {
        "name": "solc",
        "version": "0.5.16+commit.9c3226ce"
    },
    "functionHashes": {
        "betNULL()": "7d624676",
        "betTeamA()": "39a3e495",
        "betTeamB()": "63466cd0",
        "getAdmin()": "6e9960c3",
        "getBetCountA()": "7cba277f",
        "getBetCountB()": "f70e6a23",
        "getBetCountNULL()": "d03b7853",
        "getBetState()": "7956d375",
        "getBetValueA()": "4893a16e",
        "getBetValueB()": "adba163b",
        "getBetValueNULL()": "b3f92e08",
        "getBetsValue()": "dadf76c5",
        "getTotalBetsCount()": "73c87843",
        "setBetStateTo_CLOSE(address)": "5023fe94",
        "setBetStateTo_PAYED(address)": "9d98b681",
        "setBetStateTo_TOPAY(address)": "39f8ac03",
        "settleBet(uint8,address)": "42065a84"
    },
    "gasEstimates": {
        "creation": {
            "codeDepositCost": "850600",
            "executionCost": "infinite",
            "totalCost": "infinite"
        },
        "external": {
            "betNULL()": "infinite",
            "betTeamA()": "infinite",
            "betTeamB()": "infinite",
            "getAdmin()": "infinite",
            "getBetCountA()": "1144",
            "getBetCountB()": "1209",
            "getBetCountNULL()": "1165",
            "getBetState()": "infinite",
            "getBetValueA()": "infinite",
            "getBetValueB()": "infinite",
            "getBetValueNULL()": "infinite",
            "getBetsValue()": "389",
            "getTotalBetsCount()": "1188",
            "setBetStateTo_CLOSE(address)": "infinite",
            "setBetStateTo_PAYED(address)": "infinite",
            "setBetStateTo_TOPAY(address)": "infinite",
            "settleBet(uint8,address)": "infinite"
        },
        "internal": {
            "calculateAmountPayable(uint256,uint256,uint256)": "87",
            "getBetSettlementData(enum IsCommon.GAMEOUTCOMES)": "infinite"
        }
    }
}