{
    "contractName": "BettingContract",
    "abi": [
        {
            "inputs": [],
            "stateMutability": "nonpayable",
            "type": "constructor"
        },
        {
            "anonymous": false,
            "inputs": [
                {
                    "indexed": false,
                    "internalType": "bool",
                    "name": "",
                    "type": "bool"
                }
            ],
            "name": "GameEnded",
            "type": "event"
        },
        {
            "anonymous": false,
            "inputs": [
                {
                    "indexed": false,
                    "internalType": "bool",
                    "name": "",
                    "type": "bool"
                }
            ],
            "name": "GameStarted",
            "type": "event"
        },
        {
            "anonymous": false,
            "inputs": [
                {
                    "components": [
                        {
                            "internalType": "address",
                            "name": "user",
                            "type": "address"
                        },
                        {
                            "internalType": "uint256",
                            "name": "amount",
                            "type": "uint256"
                        },
                        {
                            "internalType": "uint256",
                            "name": "outcome",
                            "type": "uint256"
                        }
                    ],
                    "indexed": false,
                    "internalType": "struct isCommon.Bet",
                    "name": "",
                    "type": "tuple"
                }
            ],
            "name": "NewBet",
            "type": "event"
        },
        {
            "anonymous": false,
            "inputs": [
                {
                    "components": [
                        {
                            "internalType": "uint256",
                            "name": "id",
                            "type": "uint256"
                        },
                        {
                            "internalType": "string",
                            "name": "name",
                            "type": "string"
                        },
                        {
                            "internalType": "string",
                            "name": "description",
                            "type": "string"
                        },
                        {
                            "internalType": "bool",
                            "name": "available",
                            "type": "bool"
                        },
                        {
                            "internalType": "bool",
                            "name": "exists",
                            "type": "bool"
                        }
                    ],
                    "indexed": false,
                    "internalType": "struct isCommon.Competition",
                    "name": "",
                    "type": "tuple"
                }
            ],
            "name": "NewCompetition",
            "type": "event"
        },
        {
            "anonymous": false,
            "inputs": [
                {
                    "components": [
                        {
                            "internalType": "uint256",
                            "name": "id",
                            "type": "uint256"
                        },
                        {
                            "internalType": "string",
                            "name": "team1Name",
                            "type": "string"
                        },
                        {
                            "internalType": "string",
                            "name": "team2Name",
                            "type": "string"
                        },
                        {
                            "internalType": "string",
                            "name": "description",
                            "type": "string"
                        },
                        {
                            "internalType": "string",
                            "name": "cover",
                            "type": "string"
                        },
                        {
                            "internalType": "uint256",
                            "name": "start",
                            "type": "uint256"
                        },
                        {
                            "internalType": "uint256",
                            "name": "team1Score",
                            "type": "uint256"
                        },
                        {
                            "internalType": "uint256",
                            "name": "team2Score",
                            "type": "uint256"
                        },
                        {
                            "internalType": "uint256",
                            "name": "winner",
                            "type": "uint256"
                        },
                        {
                            "internalType": "bool",
                            "name": "ended",
                            "type": "bool"
                        },
                        {
                            "internalType": "bool",
                            "name": "started",
                            "type": "bool"
                        },
                        {
                            "internalType": "bool",
                            "name": "exists",
                            "type": "bool"
                        }
                    ],
                    "indexed": false,
                    "internalType": "struct isCommon.Game",
                    "name": "",
                    "type": "tuple"
                }
            ],
            "name": "NewGame",
            "type": "event"
        },
        {
            "inputs": [
                {
                    "internalType": "uint256",
                    "name": "gameId",
                    "type": "uint256"
                },
                {
                    "internalType": "uint256",
                    "name": "outcome",
                    "type": "uint256"
                }
            ],
            "name": "bet",
            "outputs": [],
            "stateMutability": "payable",
            "type": "function"
        },
        {
            "inputs": [
                {
                    "internalType": "uint256",
                    "name": "gameId",
                    "type": "uint256"
                }
            ],
            "name": "getBets",
            "outputs": [
                {
                    "components": [
                        {
                            "internalType": "address",
                            "name": "user",
                            "type": "address"
                        },
                        {
                            "internalType": "uint256",
                            "name": "amount",
                            "type": "uint256"
                        },
                        {
                            "internalType": "uint256",
                            "name": "outcome",
                            "type": "uint256"
                        }
                    ],
                    "internalType": "struct isCommon.Bet[]",
                    "name": "bets",
                    "type": "tuple[]"
                }
            ],
            "stateMutability": "view",
            "type": "function"
        },
        {
            "inputs": [],
            "name": "getCompetitions",
            "outputs": [
                {
                    "components": [
                        {
                            "internalType": "uint256",
                            "name": "id",
                            "type": "uint256"
                        },
                        {
                            "internalType": "string",
                            "name": "name",
                            "type": "string"
                        },
                        {
                            "internalType": "string",
                            "name": "description",
                            "type": "string"
                        },
                        {
                            "internalType": "bool",
                            "name": "available",
                            "type": "bool"
                        },
                        {
                            "internalType": "bool",
                            "name": "exists",
                            "type": "bool"
                        }
                    ],
                    "internalType": "struct isCommon.Competition[]",
                    "name": "",
                    "type": "tuple[]"
                }
            ],
            "stateMutability": "view",
            "type": "function"
        },
        {
            "inputs": [
                {
                    "internalType": "uint256",
                    "name": "gameId",
                    "type": "uint256"
                }
            ],
            "name": "getGame",
            "outputs": [
                {
                    "components": [
                        {
                            "internalType": "uint256",
                            "name": "id",
                            "type": "uint256"
                        },
                        {
                            "internalType": "string",
                            "name": "team1Name",
                            "type": "string"
                        },
                        {
                            "internalType": "string",
                            "name": "team2Name",
                            "type": "string"
                        },
                        {
                            "internalType": "string",
                            "name": "description",
                            "type": "string"
                        },
                        {
                            "internalType": "string",
                            "name": "cover",
                            "type": "string"
                        },
                        {
                            "internalType": "uint256",
                            "name": "start",
                            "type": "uint256"
                        },
                        {
                            "internalType": "uint256",
                            "name": "team1Score",
                            "type": "uint256"
                        },
                        {
                            "internalType": "uint256",
                            "name": "team2Score",
                            "type": "uint256"
                        },
                        {
                            "internalType": "uint256",
                            "name": "winner",
                            "type": "uint256"
                        },
                        {
                            "internalType": "bool",
                            "name": "ended",
                            "type": "bool"
                        },
                        {
                            "internalType": "bool",
                            "name": "started",
                            "type": "bool"
                        },
                        {
                            "internalType": "bool",
                            "name": "exists",
                            "type": "bool"
                        }
                    ],
                    "internalType": "struct isCommon.Game",
                    "name": "game",
                    "type": "tuple"
                }
            ],
            "stateMutability": "view",
            "type": "function"
        },
        {
            "inputs": [
                {
                    "internalType": "uint256",
                    "name": "competitionId",
                    "type": "uint256"
                }
            ],
            "name": "getGames",
            "outputs": [
                {
                    "components": [
                        {
                            "internalType": "uint256",
                            "name": "id",
                            "type": "uint256"
                        },
                        {
                            "internalType": "string",
                            "name": "team1Name",
                            "type": "string"
                        },
                        {
                            "internalType": "string",
                            "name": "team2Name",
                            "type": "string"
                        },
                        {
                            "internalType": "string",
                            "name": "description",
                            "type": "string"
                        },
                        {
                            "internalType": "string",
                            "name": "cover",
                            "type": "string"
                        },
                        {
                            "internalType": "uint256",
                            "name": "start",
                            "type": "uint256"
                        },
                        {
                            "internalType": "uint256",
                            "name": "team1Score",
                            "type": "uint256"
                        },
                        {
                            "internalType": "uint256",
                            "name": "team2Score",
                            "type": "uint256"
                        },
                        {
                            "internalType": "uint256",
                            "name": "winner",
                            "type": "uint256"
                        },
                        {
                            "internalType": "bool",
                            "name": "ended",
                            "type": "bool"
                        },
                        {
                            "internalType": "bool",
                            "name": "started",
                            "type": "bool"
                        },
                        {
                            "internalType": "bool",
                            "name": "exists",
                            "type": "bool"
                        }
                    ],
                    "internalType": "struct isCommon.Game[]",
                    "name": "games",
                    "type": "tuple[]"
                }
            ],
            "stateMutability": "view",
            "type": "function"
        },
        {
            "inputs": [
                {
                    "internalType": "uint256",
                    "name": "competitionId",
                    "type": "uint256"
                },
                {
                    "internalType": "string",
                    "name": "name",
                    "type": "string"
                },
                {
                    "internalType": "string",
                    "name": "description",
                    "type": "string"
                }
            ],
            "name": "newCompetition",
            "outputs": [],
            "stateMutability": "nonpayable",
            "type": "function"
        },
        {
            "inputs": [
                {
                    "internalType": "uint256",
                    "name": "gameId",
                    "type": "uint256"
                },
                {
                    "internalType": "uint256",
                    "name": "competitionId",
                    "type": "uint256"
                },
                {
                    "internalType": "uint256",
                    "name": "start",
                    "type": "uint256"
                },
                {
                    "internalType": "string",
                    "name": "team1Name",
                    "type": "string"
                },
                {
                    "internalType": "string",
                    "name": "team2Name",
                    "type": "string"
                },
                {
                    "internalType": "string",
                    "name": "description",
                    "type": "string"
                },
                {
                    "internalType": "string",
                    "name": "cover",
                    "type": "string"
                }
            ],
            "name": "newGame",
            "outputs": [],
            "stateMutability": "nonpayable",
            "type": "function"
        },
        {
            "inputs": [],
            "name": "owner",
            "outputs": [
                {
                    "internalType": "address",
                    "name": "",
                    "type": "address"
                }
            ],
            "stateMutability": "view",
            "type": "function"
        },
        {
            "inputs": [
                {
                    "internalType": "uint256",
                    "name": "gameId",
                    "type": "uint256"
                }
            ],
            "name": "setGameToStarted",
            "outputs": [],
            "stateMutability": "nonpayable",
            "type": "function"
        },
        {
            "inputs": [
                {
                    "internalType": "uint256",
                    "name": "gameId",
                    "type": "uint256"
                },
                {
                    "internalType": "uint256",
                    "name": "team1Score",
                    "type": "uint256"
                },
                {
                    "internalType": "uint256",
                    "name": "team2Score",
                    "type": "uint256"
                }
            ],
            "name": "settleGame",
            "outputs": [],
            "stateMutability": "nonpayable",
            "type": "function"
        }
    ],
    "bytecode": "608060405234801561001057600080fd5b50600080546001600160a01b03199081163390811790911617905561253c8061003a6000396000f3fe6080604052600436106100915760003560e01c80639d6aaa7d116100595780639d6aaa7d146101435780639f6c0ce314610170578063a2f77bcc14610192578063a7a0b372146101bf578063c0c090bc146101df57610091565b80631ccf6955146100965780636579642b146100cc5780636ffcc719146100ee5780638da5cb5b146101015780639bb0a2ae14610123575b600080fd5b3480156100a257600080fd5b506100b66100b1366004611e82565b6101ff565b6040516100c39190612206565b60405180910390f35b3480156100d857600080fd5b506100ec6100e7366004611e82565b6102cf565b005b6100ec6100fc366004611f11565b610306565b34801561010d57600080fd5b50610116610447565b6040516100c391906121f2565b34801561012f57600080fd5b506100ec61013e366004611e9a565b610456565b34801561014f57600080fd5b5061016361015e366004611e82565b61065f565b6040516100c391906122b4565b34801561017c57600080fd5b506101856109a4565b6040516100c39190612254565b34801561019e57600080fd5b506101b26101ad366004611e82565b610b5a565b6040516100c39190612436565b3480156101cb57600080fd5b506100ec6101da366004611f5d565b610e30565b3480156101eb57600080fd5b506100ec6101fa366004611f32565b611219565b600081815260056020526040902060090154606090829062010000900460ff166102445760405162461bcd60e51b815260040161023b9061233e565b60405180910390fd5b600083815260046020908152604080832080548251818502810185019093528083529193909284015b828210156102c2576000848152602090819020604080516060810182526003860290920180546001600160a01b031683526001808201548486015260029091015491830191909152908352909201910161026d565b5050505091505b50919050565b6000546001600160a01b031633146102e657600080fd5b6000908152600560205260409020600901805461ff001916610100179055565b600082815260056020526040902060090154829062010000900460ff1661033f5760405162461bcd60e51b815260040161023b9061233e565b8160028111156103615760405162461bcd60e51b815260040161023b90612312565b6000848152600560205260409020600901548490610100900460ff161561039a5760405162461bcd60e51b815260040161023b906123d1565b6040805160608101825233815234602080830191825282840188815260008a81526004835285812080546001808201835591835293909120855160039094020180546001600160a01b0319166001600160a01b03909416939093178355925192820192909255905160029091015590517f46e48e42ee97857124fc71280d565b91420047a714f31dd5e7a0d655e11b495590610437908390612408565b60405180910390a1505050505050565b6000546001600160a01b031681565b60006040518060a0016040528087815260200186868080601f016020809104026020016040519081016040528093929190818152602001838380828437600092019190915250505090825250604080516020601f870181900481028201810190925285815291810191908690869081908401838280828437600092018290525093855250506001602080850182905260409485018290528b84526002815293909220845181558484015180519596508695919461051894860193500190611d3b565b5060408201518051610534916002840191602090910190611d3b565b5060608201516003909101805460809093015115156101000261ff001992151560ff199094169390931791909116919091179055600180548082018255600091909152815160049091027fb10e2d527612073b26eecdfd717e6a320cf44b4afac2b0732d9fcbe2b7fa0cf6810191825560208084015180518594936105df937fb10e2d527612073b26eecdfd717e6a320cf44b4afac2b0732d9fcbe2b7fa0cf7909101920190611d3b565b50604082015180516105fb916002840191602090910190611d3b565b5060608201516003909101805460809093015115156101000261ff001992151560ff1990941693909317919091169190911790556040517f42533bcf534d99d05868545d130ce727d0a65c44442459010686ac2974bddee79061043790839061241c565b6000818152600260205260409020600301546060908290610100900460ff1661069a5760405162461bcd60e51b815260040161023b9061239a565b600083815260036020908152604080832080548251818502810185019093528083529193909284015b828210156102c257838290600052602060002090600a02016040518061018001604052908160008201548152602001600182018054610701906124a0565b80601f016020809104026020016040519081016040528092919081815260200182805461072d906124a0565b801561077a5780601f1061074f5761010080835404028352916020019161077a565b820191906000526020600020905b81548152906001019060200180831161075d57829003601f168201915b50505050508152602001600282018054610793906124a0565b80601f01602080910402602001604051908101604052809291908181526020018280546107bf906124a0565b801561080c5780601f106107e15761010080835404028352916020019161080c565b820191906000526020600020905b8154815290600101906020018083116107ef57829003601f168201915b50505050508152602001600382018054610825906124a0565b80601f0160208091040260200160405190810160405280929190818152602001828054610851906124a0565b801561089e5780601f106108735761010080835404028352916020019161089e565b820191906000526020600020905b81548152906001019060200180831161088157829003601f168201915b505050505081526020016004820180546108b7906124a0565b80601f01602080910402602001604051908101604052809291908181526020018280546108e3906124a0565b80156109305780601f1061090557610100808354040283529160200191610930565b820191906000526020600020905b81548152906001019060200180831161091357829003601f168201915b5050509183525050600582015460208083019190915260068301546040830152600783015460608301526008830154608083015260099092015460ff808216151560a084015261010082048116151560c08401526201000090910416151560e09091015290825260019290920191016106c3565b60606001805480602002602001604051908101604052809291908181526020016000905b82821015610b5157838290600052602060002090600402016040518060a001604052908160008201548152602001600182018054610a05906124a0565b80601f0160208091040260200160405190810160405280929190818152602001828054610a31906124a0565b8015610a7e5780601f10610a5357610100808354040283529160200191610a7e565b820191906000526020600020905b815481529060010190602001808311610a6157829003601f168201915b50505050508152602001600282018054610a97906124a0565b80601f0160208091040260200160405190810160405280929190818152602001828054610ac3906124a0565b8015610b105780601f10610ae557610100808354040283529160200191610b10565b820191906000526020600020905b815481529060010190602001808311610af357829003601f168201915b50505091835250506003919091015460ff808216151560208085019190915261010090920416151560409092019190915290825260019290920191016109c8565b50505050905090565b610b62611dbf565b600560008381526020019081526020016000206040518061018001604052908160008201548152602001600182018054610b9b906124a0565b80601f0160208091040260200160405190810160405280929190818152602001828054610bc7906124a0565b8015610c145780601f10610be957610100808354040283529160200191610c14565b820191906000526020600020905b815481529060010190602001808311610bf757829003601f168201915b50505050508152602001600282018054610c2d906124a0565b80601f0160208091040260200160405190810160405280929190818152602001828054610c59906124a0565b8015610ca65780601f10610c7b57610100808354040283529160200191610ca6565b820191906000526020600020905b815481529060010190602001808311610c8957829003601f168201915b50505050508152602001600382018054610cbf906124a0565b80601f0160208091040260200160405190810160405280929190818152602001828054610ceb906124a0565b8015610d385780601f10610d0d57610100808354040283529160200191610d38565b820191906000526020600020905b815481529060010190602001808311610d1b57829003601f168201915b50505050508152602001600482018054610d51906124a0565b80601f0160208091040260200160405190810160405280929190818152602001828054610d7d906124a0565b8015610dca5780601f10610d9f57610100808354040283529160200191610dca565b820191906000526020600020905b815481529060010190602001808311610dad57829003601f168201915b50505091835250506005820154602082015260068201546040820152600782015460608201526008820154608082015260099091015460ff808216151560a084015261010082048116151560c08401526201000090910416151560e09091015292915050565b60008a8152600260205260409020600301548a90610100900460ff16610e685760405162461bcd60e51b815260040161023b9061239a565b6000546001600160a01b03163314610e7f57600080fd5b60006040518061018001604052808e81526020018b8b8080601f016020809104026020016040519081016040528093929190818152602001838380828437600092019190915250505090825250604080516020601f8c018190048102820181019092528a815291810191908b908b9081908401838280828437600092019190915250505090825250604080516020601f8a0181900481028201810190925288815291810191908990899081908401838280828437600092019190915250505090825250604080516020601f880181900481028201810190925286815291810191908790879081908401838280828437600081840152601f19601f8201169050808301925050505050505081526020018c815260200160008152602001600081526020016000815260200160001515815260200160001515815260200160011515815250905080600560008f8152602001908152602001600020600082015181600001556020820151816001019080519060200190610ffe929190611d3b565b506040820151805161101a916002840191602090910190611d3b565b5060608201518051611036916003840191602090910190611d3b565b5060808201518051611052916004840191602090910190611d3b565b5060a0820151600582015560c0820151600682015560e08201516007820155610100808301516008830155610120830151600990920180546101408501516101609095015160ff199091169315159390931761ff0019169315159091029290921762ff00001916620100009115159190910217905560008c81526003602090815260408220805460018181018355918452928290208451600a90940201928355838201518051859493611109938501920190611d3b565b5060408201518051611125916002840191602090910190611d3b565b5060608201518051611141916003840191602090910190611d3b565b506080820151805161115d916004840191602090910190611d3b565b5060a0820151600582015560c0820151600682015560e08201516007820155610100808301516008830155610120830151600990920180546101408501516101609095015160ff199091169315159390931761ff0019169315159091029290921762ff0000191662010000911515919091021790556040517fc3121d21effb6e14564cf3d76845c58450be8359f6ca512b9d4ffea6af185e6f90611202908390612436565b60405180910390a150505050505050505050505050565b600083815260056020526040902060090154839062010000900460ff166112525760405162461bcd60e51b815260040161023b9061233e565b6000546001600160a01b0316331461126957600080fd5b60006005600086815260200190815260200160002060405180610180016040529081600082015481526020016001820180546112a4906124a0565b80601f01602080910402602001604051908101604052809291908181526020018280546112d0906124a0565b801561131d5780601f106112f25761010080835404028352916020019161131d565b820191906000526020600020905b81548152906001019060200180831161130057829003601f168201915b50505050508152602001600282018054611336906124a0565b80601f0160208091040260200160405190810160405280929190818152602001828054611362906124a0565b80156113af5780601f10611384576101008083540402835291602001916113af565b820191906000526020600020905b81548152906001019060200180831161139257829003601f168201915b505050505081526020016003820180546113c8906124a0565b80601f01602080910402602001604051908101604052809291908181526020018280546113f4906124a0565b80156114415780601f1061141657610100808354040283529160200191611441565b820191906000526020600020905b81548152906001019060200180831161142457829003601f168201915b5050505050815260200160048201805461145a906124a0565b80601f0160208091040260200160405190810160405280929190818152602001828054611486906124a0565b80156114d35780601f106114a8576101008083540402835291602001916114d3565b820191906000526020600020905b8154815290600101906020018083116114b657829003601f168201915b50505091835250506005828101546020808401919091526006840154604080850191909152600785015460608501526008850154608085015260099094015460ff808216151560a086015261010082048116151560c0808701919091526201000090920416151560e09485015285018990529184018790526001610120850181905260008a815291835292902083518155838201518051949550859491936115819390850192910190611d3b565b506040820151805161159d916002840191602090910190611d3b565b50606082015180516115b9916003840191602090910190611d3b565b50608082015180516115d5916004840191602090910190611d3b565b5060a082015160058083019190915560c0830151600683015560e0830151600783015561010080840151600884015561012084015160099384018054610140870151610160909701511515620100000262ff00001997151590940261ff001993151560ff19909216919091179290921691909117949094161790925560008781526020929092526040909120015460ff166116825760405162461bcd60e51b815260040161023b9061236c565b600061168d8661183d565b9050600060046000888152602001908152602001600020805480602002602001604051908101604052809291908181526020016000905b82821015611719576000848152602090819020604080516060810182526003860290920180546001600160a01b03168352600180820154848601526002909101549183019190915290835290920191016116c4565b505050509050600080600061172e8486611b9b565b95505050935050925060005b83518110156117f857600084828151811061176557634e487b7160e01b600052603260045260246000fd5b60200260200101519050600084826020015160646117839190612481565b61178d9190612461565b6117979085612481565b905081600001516001600160a01b03166108fc8284602001516117ba9190612449565b6040518115909202916000818181858888f193505050501580156117e2573d6000803e3d6000fd5b50505080806117f0906124d5565b91505061173a565b507fdf7a1dfb51dd87859a6f44cf9bddb076effbccd933619eec97e64a79fd94d32460016040516118299190612307565b60405180910390a150505050505050505050565b600080546001600160a01b0316331461185557600080fd5b600082815260056020526040902060090154829062010000900460ff1661188e5760405162461bcd60e51b815260040161023b9061233e565b60006005600085815260200190815260200160002060405180610180016040529081600082015481526020016001820180546118c9906124a0565b80601f01602080910402602001604051908101604052809291908181526020018280546118f5906124a0565b80156119425780601f1061191757610100808354040283529160200191611942565b820191906000526020600020905b81548152906001019060200180831161192557829003601f168201915b5050505050815260200160028201805461195b906124a0565b80601f0160208091040260200160405190810160405280929190818152602001828054611987906124a0565b80156119d45780601f106119a9576101008083540402835291602001916119d4565b820191906000526020600020905b8154815290600101906020018083116119b757829003601f168201915b505050505081526020016003820180546119ed906124a0565b80601f0160208091040260200160405190810160405280929190818152602001828054611a19906124a0565b8015611a665780601f10611a3b57610100808354040283529160200191611a66565b820191906000526020600020905b815481529060010190602001808311611a4957829003601f168201915b50505050508152602001600482018054611a7f906124a0565b80601f0160208091040260200160405190810160405280929190818152602001828054611aab906124a0565b8015611af85780601f10611acd57610100808354040283529160200191611af8565b820191906000526020600020905b815481529060010190602001808311611adb57829003601f168201915b50505091835250506005820154602082015260068201546040820152600782015460608201526008820154608082015260099091015460ff808216151560a084015261010082048116151560c0808501919091526201000090920416151560e09283015290820151908201519192501015611b775760019250506102c9565b8060c001518160e001511115611b915760029250506102c9565b60009250506102c9565b6060600080606060008060005b8851811015611d305787898281518110611bd257634e487b7160e01b600052603260045260246000fd5b6020026020010151604001511415611c8357888181518110611c0457634e487b7160e01b600052603260045260246000fd5b6020026020010151878781518110611c2c57634e487b7160e01b600052603260045260246000fd5b60200260200101819052508580611c42906124d5565b965050888181518110611c6557634e487b7160e01b600052603260045260246000fd5b60200260200101516020015185611c7c9190612449565b9450611d1e565b888181518110611ca357634e487b7160e01b600052603260045260246000fd5b6020026020010151848481518110611ccb57634e487b7160e01b600052603260045260246000fd5b60200260200101819052508280611ce1906124d5565b935050888181518110611d0457634e487b7160e01b600052603260045260246000fd5b60200260200101516020015182611d1b9190612449565b91505b80611d28816124d5565b915050611ba8565b509295509295509295565b828054611d47906124a0565b90600052602060002090601f016020900481019282611d695760008555611daf565b82601f10611d8257805160ff1916838001178555611daf565b82800160010185558215611daf579182015b82811115611daf578251825591602001919060010190611d94565b50611dbb929150611e26565b5090565b6040518061018001604052806000815260200160608152602001606081526020016060815260200160608152602001600081526020016000815260200160008152602001600081526020016000151581526020016000151581526020016000151581525090565b5b80821115611dbb5760008155600101611e27565b60008083601f840112611e4c578182fd5b50813567ffffffffffffffff811115611e63578182fd5b602083019150836020828501011115611e7b57600080fd5b9250929050565b600060208284031215611e93578081fd5b5035919050565b600080600080600060608688031215611eb1578081fd5b85359450602086013567ffffffffffffffff80821115611ecf578283fd5b611edb89838a01611e3b565b90965094506040880135915080821115611ef3578283fd5b50611f0088828901611e3b565b969995985093965092949392505050565b60008060408385031215611f23578182fd5b50508035926020909101359150565b600080600060608486031215611f46578283fd5b505081359360208301359350604090920135919050565b600080600080600080600080600080600060e08c8e031215611f7d578586fd5b8b359a5060208c0135995060408c0135985067ffffffffffffffff8060608e01351115611fa8578687fd5b611fb88e60608f01358f01611e3b565b909950975060808d0135811015611fcd578687fd5b611fdd8e60808f01358f01611e3b565b909750955060a08d0135811015611ff2578485fd5b6120028e60a08f01358f01611e3b565b909550935060c08d0135811015612017578283fd5b506120288d60c08e01358e01611e3b565b81935080925050509295989b509295989b9093969950565b15159052565b60008151808452815b8181101561206b5760208185018101518683018201520161204f565b8181111561207c5782602083870101525b50601f01601f19169290920160200192915050565b80516001600160a01b0316825260208082015190830152604090810151910152565b600081518352602082015160a060208501526120d260a0850182612046565b9050604083015184820360408601526120eb8282612046565b9150506060830151151560608501526080830151151560808501528091505092915050565b600061018082518452602083015181602086015261213082860182612046565b9150506040830151848203604086015261214a8282612046565b915050606083015184820360608601526121648282612046565b9150506080830151848203608086015261217e8282612046565b91505060a083015160a085015260c083015160c085015260e083015160e0850152610100808401518186015250610120808401516121be82870182612040565b5050610140808401516121d382870182612040565b5050610160808401516121e882870182612040565b5090949350505050565b6001600160a01b0391909116815260200190565b6020808252825182820181905260009190848201906040850190845b8181101561224857612235838551612091565b9284019260609290920191600101612222565b50909695505050505050565b6000602080830181845280855180835260408601915060408482028701019250838701855b828110156122a757603f198886030184526122958583516120b3565b94509285019290850190600101612279565b5092979650505050505050565b6000602080830181845280855180835260408601915060408482028701019250838701855b828110156122a757603f198886030184526122f5858351612110565b945092850192908501906001016122d9565b901515815260200190565b60208082526012908201527113dd5d18dbdb59481a5cc81a5b9d985b1a5960721b604082015260600190565b60208082526014908201527347616d6520646f6573206e6f742065786973747360601b604082015260600190565b60208082526014908201527311d85b59481b5d5cdd081a185d9948195b99195960621b604082015260600190565b6020808252601b908201527f436f6d7065746974696f6e20646f6573206e6f74206578697374730000000000604082015260600190565b60208082526018908201527f67616d652068617320616c726561647920737461727465640000000000000000604082015260600190565b606081016124168284612091565b92915050565b60006020825261242f60208301846120b3565b9392505050565b60006020825261242f6020830184612110565b6000821982111561245c5761245c6124f0565b500190565b60008261247c57634e487b7160e01b81526012600452602481fd5b500490565b600081600019048311821515161561249b5761249b6124f0565b500290565b6002810460018216806124b457607f821691505b602082108114156102c957634e487b7160e01b600052602260045260246000fd5b60006000198214156124e9576124e96124f0565b5060010190565b634e487b7160e01b600052601160045260246000fdfea264697066735822122064363921c5fdf53506f001ecd40895474a4d04bb46eb678b2d9569d601a6788464736f6c63430008000033",
    "sourcePath": "/home/sama/Documents/PROJECTS/ETHEREUM/SportsOnTheBlock/contracts/BettingContract.sol",
    "compiler": {
        "name": "solc",
        "version": "0.8.0+commit.c7dfd78e"
    },
    "functionHashes": {
        "bet(uint256,uint256)": "6ffcc719",
        "getBets(uint256)": "1ccf6955",
        "getCompetitions()": "9f6c0ce3",
        "getGame(uint256)": "a2f77bcc",
        "getGames(uint256)": "9d6aaa7d",
        "newCompetition(uint256,string,string)": "9bb0a2ae",
        "newGame(uint256,uint256,uint256,string,string,string,string)": "a7a0b372",
        "owner()": "8da5cb5b",
        "setGameToStarted(uint256)": "6579642b",
        "settleGame(uint256,uint256,uint256)": "c0c090bc"
    },
    "gasEstimates": {
        "creation": {
            "codeDepositCost": "1906400",
            "executionCost": "22874",
            "totalCost": "1929274"
        },
        "external": {
            "bet(uint256,uint256)": "85807",
            "getBets(uint256)": "infinite",
            "getCompetitions()": "infinite",
            "getGame(uint256)": "infinite",
            "getGames(uint256)": "infinite",
            "newCompetition(uint256,string,string)": "infinite",
            "newGame(uint256,uint256,uint256,string,string,string,string)": "infinite",
            "owner()": "1137",
            "setGameToStarted(uint256)": "21980",
            "settleGame(uint256,uint256,uint256)": "infinite"
        },
        "internal": {
            "getSettlementData(struct isCommon.Bet memory[] memory,uint256)": "infinite",
            "getWinner(uint256)": "infinite"
        }
    }
}