{
    "contractName": "BettingResultOracle",
    "abi": [
        {
            "inputs": [],
            "stateMutability": "nonpayable",
            "type": "constructor"
        },
        {
            "anonymous": false,
            "inputs": [
                {
                    "components": [
                        {
                            "internalType": "string",
                            "name": "rootUrl",
                            "type": "string"
                        },
                        {
                            "internalType": "string",
                            "name": "endpoint",
                            "type": "string"
                        },
                        {
                            "internalType": "uint256",
                            "name": "gameId",
                            "type": "uint256"
                        },
                        {
                            "internalType": "string",
                            "name": "paramsToFetch",
                            "type": "string"
                        },
                        {
                            "internalType": "uint256",
                            "name": "result",
                            "type": "uint256"
                        },
                        {
                            "internalType": "bool",
                            "name": "exists",
                            "type": "bool"
                        }
                    ],
                    "indexed": false,
                    "internalType": "struct BettingResultOracle.Request",
                    "name": "",
                    "type": "tuple"
                }
            ],
            "name": "NewRequest",
            "type": "event"
        },
        {
            "inputs": [
                {
                    "internalType": "uint256",
                    "name": "gameId",
                    "type": "uint256"
                }
            ],
            "name": "createRequest",
            "outputs": [],
            "stateMutability": "nonpayable",
            "type": "function"
        },
        {
            "inputs": [
                {
                    "internalType": "uint256",
                    "name": "competitionId",
                    "type": "uint256"
                },
                {
                    "internalType": "uint256",
                    "name": "start",
                    "type": "uint256"
                },
                {
                    "internalType": "string",
                    "name": "team1Name",
                    "type": "string"
                },
                {
                    "internalType": "string",
                    "name": "team2Name",
                    "type": "string"
                },
                {
                    "internalType": "string",
                    "name": "description",
                    "type": "string"
                },
                {
                    "internalType": "string",
                    "name": "cover",
                    "type": "string"
                }
            ],
            "name": "newGame",
            "outputs": [],
            "stateMutability": "nonpayable",
            "type": "function"
        },
        {
            "inputs": [],
            "name": "owner",
            "outputs": [
                {
                    "internalType": "address",
                    "name": "",
                    "type": "address"
                }
            ],
            "stateMutability": "view",
            "type": "function"
        },
        {
            "inputs": [
                {
                    "internalType": "uint256",
                    "name": "gameId",
                    "type": "uint256"
                },
                {
                    "internalType": "uint256",
                    "name": "gameResult",
                    "type": "uint256"
                }
            ],
            "name": "updateRequest",
            "outputs": [],
            "stateMutability": "nonpayable",
            "type": "function"
        }
    ],
    "bytecode": "608060405234801561001057600080fd5b5060008054336001600160a01b0319918216811790911617905560405161003690610078565b604051809103906000f080158015610052573d6000803e3d6000fd5b50600280546001600160a01b0319166001600160a01b0392909216919091179055610085565b611daf806107a683390190565b610712806100946000396000f3fe608060405234801561001057600080fd5b506004361061004c5760003560e01c80635cdb4642146100515780638b1a046d146100665780638da5cb5b14610079578063da7620a314610097575b600080fd5b61006461005f366004610421565b6100aa565b005b610064610074366004610442565b61015f565b6100816101f9565b60405161008e919061058c565b60405180910390f35b6100646100a5366004610409565b610208565b6000546001600160a01b031633146100c157600080fd5b60008281526001602052604090206005015460ff161561015b576000828152600160205260409081902060048082018490556002805492015492516313ff261160e31b81526001600160a01b03909216928392639ff93088926101279291879101610625565b600060405180830381600087803b15801561014157600080fd5b505af1158015610155573d6000803e3d6000fd5b50505050505b5050565b6000546001600160a01b0316331461017657600080fd5b600254604051638b1a046d60e01b81526001600160a01b03909116908190638b1a046d906101ba908e908e908e908e908e908e908e908e908e908e90600401610633565b600060405180830381600087803b1580156101d457600080fd5b505af11580156101e8573d6000803e3d6000fd5b505050505050505050505050505050565b6000546001600160a01b031681565b6000546001600160a01b0316331461021f57600080fd5b6040805160e081018252600060c0820181815282528251602081810185528282528084019190915282840182905283518082018552828152606084015260808301829052600160a08401819052858352815292902081518051929384936102899284920190610329565b5060208281015180516102a29260018501920190610329565b5060408201516002820155606082015180516102c8916003840191602090910190610329565b506080820151600482015560a0909101516005909101805460ff19169115159190911790556040517f563ab953b66b75d91cbf6992c9df1d1762fba270c8fa817cd8e47c8a335914d69061031d9083906105a0565b60405180910390a15050565b828054610335906106a1565b90600052602060002090601f016020900481019282610357576000855561039d565b82601f1061037057805160ff191683800117855561039d565b8280016001018555821561039d579182015b8281111561039d578251825591602001919060010190610382565b506103a99291506103ad565b5090565b5b808211156103a957600081556001016103ae565b60008083601f8401126103d3578182fd5b50813567ffffffffffffffff8111156103ea578182fd5b60208301915083602082850101111561040257600080fd5b9250929050565b60006020828403121561041a578081fd5b5035919050565b60008060408385031215610433578081fd5b50508035926020909101359150565b60008060008060008060008060008060c08b8d031215610460578586fd5b8a35995060208b0135985060408b013567ffffffffffffffff80821115610485578788fd5b6104918e838f016103c2565b909a50985060608d01359150808211156104a9578788fd5b6104b58e838f016103c2565b909850965060808d01359150808211156104cd578586fd5b6104d98e838f016103c2565b909650945060a08d01359150808211156104f1578384fd5b506104fe8d828e016103c2565b915080935050809150509295989b9194979a5092959850565b60008284528282602086013780602084860101526020601f19601f85011685010190509392505050565b60008151808452815b818110156105665760208185018101518683018201520161054a565b818111156105775782602083870101525b50601f01601f19169290920160200192915050565b6001600160a01b0391909116815260200190565b600060208252825160c060208401526105bc60e0840182610541565b90506020840151601f19808584030160408601526105da8383610541565b9250604086015160608601526060860151915080858403016080860152506106028282610541565b915050608084015160a084015260a0840151151560c08401528091505092915050565b918252602082015260400190565b60008b82528a602083015260c0604083015261065360c083018a8c610517565b828103606084015261066681898b610517565b9050828103608084015261067b818789610517565b905082810360a0840152610690818587610517565b9d9c50505050505050505050505050565b6002810460018216806106b557607f821691505b602082108114156106d657634e487b7160e01b600052602260045260246000fd5b5091905056fea264697066735822122057abdca4e57258a46e524f3475cb654d12686e1b35b5cc4b74b88304a89b6c1964736f6c63430008000033608060405234801561001057600080fd5b50600080546001600160a01b031990811633908117909116179055611d758061003a6000396000f3fe6080604052600436106100865760003560e01c80638b1a046d116100595780638b1a046d146101165780638da5cb5b146101365780639d6aaa7d146101585780639f6c0ce3146101855780639ff93088146101a757610086565b80631ccf69551461008b57806365237d20146100c15780636579642b146100e35780636ffcc71914610103575b600080fd5b34801561009757600080fd5b506100ab6100a63660046117ab565b6101c7565b6040516100b89190611a62565b60405180910390f35b3480156100cd57600080fd5b506100e16100dc366004611715565b6102ba565b005b3480156100ef57600080fd5b506100e16100fe3660046117ab565b6104e0565b6100e16101113660046117c3565b610517565b34801561012257600080fd5b506100e16101313660046117e4565b61064e565b34801561014257600080fd5b5061014b6109c9565b6040516100b89190611a4e565b34801561016457600080fd5b506101786101733660046117ab565b6109d8565b6040516100b89190611b10565b34801561019157600080fd5b5061019a610cfa565b6040516100b89190611ab0565b3480156101b357600080fd5b506100e16101c23660046117c3565b610f21565b6060816000811180156101dc57506002548111155b6102015760405162461bcd60e51b81526004016101f890611ba5565b60405180910390fd5b60008311801561021357506002548311155b61022f5760405162461bcd60e51b81526004016101f890611ba5565b600083815260066020908152604080832080548251818502810185019093528083529193909284015b828210156102ad576000848152602090819020604080516060810182526003860290920180546001600160a01b0316835260018082015484860152600290910154918301919091529083529092019101610258565b5050505091505b50919050565b6040805160a06020601f89018190040282018101909252608081018781526000928291908a908a9081908501838280828437600092019190915250505090825250604080516020601f890181900481028201810190925287815291810191908890889081908401838280828437600092019190915250505090825250604080516020601f8701819004810282018101909252858152918101919086908690819084018382808284376000920182905250938552505060016020938401525060035481526004825260409020825180519394508493919261039f92849290910190611635565b5060208281015180516103b89260018501920190611635565b50604082015180516103d4916002840191602090910190611635565b50606091909101516003909101805491151560ff199092169190911790556001805480820182556000919091528151805183926004027fb10e2d527612073b26eecdfd717e6a320cf44b4afac2b0732d9fcbe2b7fa0cf6019161043c91839160200190611635565b5060208281015180516104559260018501920190611635565b5060408201518051610471916002840191602090910190611635565b50606091909101516003918201805460ff1916911515919091179055805490600061049b83611d0e565b91905055507f0adbede93e7486b6cd70aea787deab75918d4cb9c03f4d62c14cf8b633c708e9816040516104cf9190611c55565b60405180910390a150505050505050565b6000546001600160a01b031633146104f757600080fd5b6000908152600760205260409020600801805461ff001916610100179055565b8160008111801561052a57506002548111155b6105465760405162461bcd60e51b81526004016101f890611ba5565b8160028111156105685760405162461bcd60e51b81526004016101f890611b6e565b6000848152600760205260409020600801548490610100900460ff16156105a15760405162461bcd60e51b81526004016101f890611c0a565b6040805160608101825233815234602080830191825282840188815260008a81526006835285812080546001808201835591835293909120855160039094020180546001600160a01b0319166001600160a01b03909416939093178355925192820192909255905160029091015590517f46e48e42ee97857124fc71280d565b91420047a714f31dd5e7a0d655e11b49559061063e908390611c41565b60405180910390a1505050505050565b8960008111801561066157506003548111155b61067d5760405162461bcd60e51b81526004016101f890611bd3565b6000546001600160a01b0316331461069457600080fd5b604080516101606020601f8c01819004028201810190925261014081018a81526000928291908d908d9081908501838280828437600092019190915250505090825250604080516020601f8c018190048102820181019092528a815291810191908b908b9081908401838280828437600092019190915250505090825250604080516020601f8a0181900481028201810190925288815291810191908990899081908401838280828437600092019190915250505090825250604080516020601f880181900481028201810190925286815291810191908790879081908401838280828437600092018290525093855250505060208083018f90526040808401839052606084018390526080840183905260a0840183905260c090930182905260025482526007815291902082518051939450849391926107da92849290910190611635565b5060208281015180516107f39260018501920190611635565b506040820151805161080f916002840191602090910190611635565b506060820151805161082b916003840191602090910190611635565b506080820151600482015560a082015160058083019190915560c0830151600683015560e0830151600783015561010080840151600890930180546101209095015160ff199095169315159390931761ff0019169315150292909217905560008d81526020918252604081208054600181018255908252908290208351805185946009909402909201926108c492849290910190611635565b5060208281015180516108dd9260018501920190611635565b50604082015180516108f9916002840191602090910190611635565b5060608201518051610915916003840191602090910190611635565b506080820151600482015560a0820151600582015560c0820151600682015560e0820151600782015561010080830151600890920180546101209094015160ff199094169215159290921761ff001916921515029190911790556002805490600061097f83611d0e565b91905055507f0a7b7bc807ba5c692e5602ad5b8461eeb00850aa30921eb4ef2b59d32e763e68816040516109b39190611c6f565b60405180910390a1505050505050505050505050565b6000546001600160a01b031681565b6060816000811180156109ed57506003548111155b610a095760405162461bcd60e51b81526004016101f890611bd3565b600083815260056020908152604080832080548251818502810185019093528083529193909284015b828210156102ad578382906000526020600020906009020160405180610140016040529081600082018054610a6690611cd9565b80601f0160208091040260200160405190810160405280929190818152602001828054610a9290611cd9565b8015610adf5780601f10610ab457610100808354040283529160200191610adf565b820191906000526020600020905b815481529060010190602001808311610ac257829003601f168201915b50505050508152602001600182018054610af890611cd9565b80601f0160208091040260200160405190810160405280929190818152602001828054610b2490611cd9565b8015610b715780601f10610b4657610100808354040283529160200191610b71565b820191906000526020600020905b815481529060010190602001808311610b5457829003601f168201915b50505050508152602001600282018054610b8a90611cd9565b80601f0160208091040260200160405190810160405280929190818152602001828054610bb690611cd9565b8015610c035780601f10610bd857610100808354040283529160200191610c03565b820191906000526020600020905b815481529060010190602001808311610be657829003601f168201915b50505050508152602001600382018054610c1c90611cd9565b80601f0160208091040260200160405190810160405280929190818152602001828054610c4890611cd9565b8015610c955780601f10610c6a57610100808354040283529160200191610c95565b820191906000526020600020905b815481529060010190602001808311610c7857829003601f168201915b5050509183525050600482015460208083019190915260058301546040830152600683015460608301526007830154608083015260089092015460ff808216151560a084015261010090910416151560c0909101529082526001929092019101610a32565b60606001805480602002602001604051908101604052809291908181526020016000905b82821015610f185783829060005260206000209060040201604051806080016040529081600082018054610d5190611cd9565b80601f0160208091040260200160405190810160405280929190818152602001828054610d7d90611cd9565b8015610dca5780601f10610d9f57610100808354040283529160200191610dca565b820191906000526020600020905b815481529060010190602001808311610dad57829003601f168201915b50505050508152602001600182018054610de390611cd9565b80601f0160208091040260200160405190810160405280929190818152602001828054610e0f90611cd9565b8015610e5c5780601f10610e3157610100808354040283529160200191610e5c565b820191906000526020600020905b815481529060010190602001808311610e3f57829003601f168201915b50505050508152602001600282018054610e7590611cd9565b80601f0160208091040260200160405190810160405280929190818152602001828054610ea190611cd9565b8015610eee5780601f10610ec357610100808354040283529160200191610eee565b820191906000526020600020905b815481529060010190602001808311610ed157829003601f168201915b50505091835250506003919091015460ff1615156020918201529082526001929092019101610d1e565b50505050905090565b81600081118015610f3457506002548111155b610f505760405162461bcd60e51b81526004016101f890611ba5565b6000546001600160a01b03163314610f6757600080fd5b60008381526007602052604080822081516101408101909252805482908290610f8f90611cd9565b80601f0160208091040260200160405190810160405280929190818152602001828054610fbb90611cd9565b80156110085780601f10610fdd57610100808354040283529160200191611008565b820191906000526020600020905b815481529060010190602001808311610feb57829003601f168201915b5050505050815260200160018201805461102190611cd9565b80601f016020809104026020016040519081016040528092919081815260200182805461104d90611cd9565b801561109a5780601f1061106f5761010080835404028352916020019161109a565b820191906000526020600020905b81548152906001019060200180831161107d57829003601f168201915b505050505081526020016002820180546110b390611cd9565b80601f01602080910402602001604051908101604052809291908181526020018280546110df90611cd9565b801561112c5780601f106111015761010080835404028352916020019161112c565b820191906000526020600020905b81548152906001019060200180831161110f57829003601f168201915b5050505050815260200160038201805461114590611cd9565b80601f016020809104026020016040519081016040528092919081815260200182805461117190611cd9565b80156111be5780601f10611193576101008083540402835291602001916111be565b820191906000526020600020905b8154815290600101906020018083116111a157829003601f168201915b50505091835250506004820154602080830191909152600583015460408084019190915260068085015460608501526007850154608085015260089094015460ff808216151560a086015261010090910416151560c09093019290925260008881529281528183208054835181840281018401909452808452949550929391929190849084015b8282101561129a576000848152602090819020604080516060810182526003860290920180546001600160a01b0316835260018082015484860152600290910154918301919091529083529092019101611245565b50505050905060008060006112af8488611495565b95505050935050925060005b83518110156113795760008482815181106112e657634e487b7160e01b600052603260045260246000fd5b60200260200101519050600084826020015160646113049190611cba565b61130e9190611c9a565b6113189085611cba565b905081600001516001600160a01b03166108fc82846020015161133b9190611c82565b6040518115909202916000818181858888f19350505050158015611363573d6000803e3d6000fd5b505050808061137190611d0e565b9150506112bb565b50600161010086015260008881526007602090815260409091208651805188936113a7928492910190611635565b5060208281015180516113c09260018501920190611635565b50604082015180516113dc916002840191602090910190611635565b50606082015180516113f8916003840191602090910190611635565b506080820151600482015560a0820151600582015560c0820151600682015560e0820151600782015561010080830151600890920180546101209094015160ff199094169215159290921761ff001916921515029190911790556040517fdf7a1dfb51dd87859a6f44cf9bddb076effbccd933619eec97e64a79fd94d3249061148390600190611b63565b60405180910390a15050505050505050565b6060600080606060008060005b885181101561162a57878982815181106114cc57634e487b7160e01b600052603260045260246000fd5b602002602001015160400151141561157d578881815181106114fe57634e487b7160e01b600052603260045260246000fd5b602002602001015187878151811061152657634e487b7160e01b600052603260045260246000fd5b6020026020010181905250858061153c90611d0e565b96505088818151811061155f57634e487b7160e01b600052603260045260246000fd5b602002602001015160200151856115769190611c82565b9450611618565b88818151811061159d57634e487b7160e01b600052603260045260246000fd5b60200260200101518484815181106115c557634e487b7160e01b600052603260045260246000fd5b602002602001018190525082806115db90611d0e565b9350508881815181106115fe57634e487b7160e01b600052603260045260246000fd5b602002602001015160200151826116159190611c82565b91505b8061162281611d0e565b9150506114a2565b509295509295509295565b82805461164190611cd9565b90600052602060002090601f01602090048101928261166357600085556116a9565b82601f1061167c57805160ff19168380011785556116a9565b828001600101855582156116a9579182015b828111156116a957825182559160200191906001019061168e565b506116b59291506116b9565b5090565b5b808211156116b557600081556001016116ba565b60008083601f8401126116df578182fd5b50813567ffffffffffffffff8111156116f6578182fd5b60208301915083602082850101111561170e57600080fd5b9250929050565b6000806000806000806060878903121561172d578182fd5b863567ffffffffffffffff80821115611744578384fd5b6117508a838b016116ce565b90985096506020890135915080821115611768578384fd5b6117748a838b016116ce565b9096509450604089013591508082111561178c578384fd5b5061179989828a016116ce565b979a9699509497509295939492505050565b6000602082840312156117bc578081fd5b5035919050565b600080604083850312156117d5578182fd5b50508035926020909101359150565b60008060008060008060008060008060c08b8d031215611802578384fd5b8a35995060208b0135985060408b013567ffffffffffffffff80821115611827578586fd5b6118338e838f016116ce565b909a50985060608d013591508082111561184b578586fd5b6118578e838f016116ce565b909850965060808d013591508082111561186f578586fd5b61187b8e838f016116ce565b909650945060a08d0135915080821115611893578384fd5b506118a08d828e016116ce565b915080935050809150509295989b9194979a5092959850565b15159052565b60008151808452815b818110156118e4576020818501810151868301820152016118c8565b818111156118f55782602083870101525b50601f01601f19169290920160200192915050565b80516001600160a01b0316825260208082015190830152604090810151910152565b600081516080845261194160808501826118bf565b90506020830151848203602086015261195a82826118bf565b9150506040830151848203604086015261197482826118bf565b9150506060830151151560608501528091505092915050565b600061014082518185526119a3828601826118bf565b915050602083015184820360208601526119bd82826118bf565b915050604083015184820360408601526119d782826118bf565b915050606083015184820360608601526119f182826118bf565b9150506080830151608085015260a083015160a085015260c083015160c085015260e083015160e085015261010080840151611a2f828701826118b9565b505061012080840151611a44828701826118b9565b5090949350505050565b6001600160a01b0391909116815260200190565b6020808252825182820181905260009190848201906040850190845b81811015611aa457611a9183855161190a565b9284019260609290920191600101611a7e565b50909695505050505050565b6000602080830181845280855180835260408601915060408482028701019250838701855b82811015611b0357603f19888603018452611af185835161192c565b94509285019290850190600101611ad5565b5092979650505050505050565b6000602080830181845280855180835260408601915060408482028701019250838701855b82811015611b0357603f19888603018452611b5185835161198d565b94509285019290850190600101611b35565b901515815260200190565b6020808252601a908201527f4f7574636f6d65206d75737420626520302c20312c206f722032000000000000604082015260600190565b60208082526014908201527347616d6520646f6573206e6f742065786973747360601b604082015260600190565b6020808252601b908201527f436f6d7065746974696f6e20646f6573206e6f74206578697374730000000000604082015260600190565b60208082526018908201527f67616d652068617320616c726561647920737461727465640000000000000000604082015260600190565b60608101611c4f828461190a565b92915050565b600060208252611c68602083018461192c565b9392505050565b600060208252611c68602083018461198d565b60008219821115611c9557611c95611d29565b500190565b600082611cb557634e487b7160e01b81526012600452602481fd5b500490565b6000816000190483118215151615611cd457611cd4611d29565b500290565b600281046001821680611ced57607f821691505b602082108114156102b457634e487b7160e01b600052602260045260246000fd5b6000600019821415611d2257611d22611d29565b5060010190565b634e487b7160e01b600052601160045260246000fdfea2646970667358221220dbf6d51848b506d7a0c41764f872c6cba0c36742d6ca3061dddd135bea9e801464736f6c63430008000033",
    "sourcePath": "/home/sama/Documents/PROJECTS/ETHEREUM/SportsOnTheBlock/contracts/BettingResultOracle.sol",
    "compiler": {
        "name": "solc",
        "version": "0.8.0+commit.c7dfd78e"
    },
    "functionHashes": {
        "createRequest(uint256)": "da7620a3",
        "newGame(uint256,uint256,string,string,string,string)": "8b1a046d",
        "owner()": "8da5cb5b",
        "updateRequest(uint256,uint256)": "5cdb4642"
    },
    "gasEstimates": {
        "creation": {
            "codeDepositCost": "362000",
            "executionCost": "infinite",
            "totalCost": "infinite"
        },
        "external": {
            "createRequest(uint256)": "infinite",
            "newGame(uint256,uint256,string,string,string,string)": "infinite",
            "owner()": "1092",
            "updateRequest(uint256,uint256)": "infinite"
        }
    }
}