{
    "contractName": "BettingContract",
    "abi": [
        {
            "inputs": [],
            "stateMutability": "nonpayable",
            "type": "constructor"
        },
        {
            "anonymous": false,
            "inputs": [
                {
                    "indexed": false,
                    "internalType": "bool",
                    "name": "",
                    "type": "bool"
                },
                {
                    "indexed": false,
                    "internalType": "uint256",
                    "name": "",
                    "type": "uint256"
                }
            ],
            "name": "GameEnded",
            "type": "event"
        },
        {
            "anonymous": false,
            "inputs": [
                {
                    "indexed": false,
                    "internalType": "bool",
                    "name": "",
                    "type": "bool"
                },
                {
                    "indexed": false,
                    "internalType": "uint256",
                    "name": "",
                    "type": "uint256"
                }
            ],
            "name": "GameStarted",
            "type": "event"
        },
        {
            "anonymous": false,
            "inputs": [
                {
                    "components": [
                        {
                            "internalType": "address",
                            "name": "user",
                            "type": "address"
                        },
                        {
                            "internalType": "uint256",
                            "name": "amount",
                            "type": "uint256"
                        },
                        {
                            "internalType": "uint256",
                            "name": "outcome",
                            "type": "uint256"
                        }
                    ],
                    "indexed": false,
                    "internalType": "struct isCommon.Bet",
                    "name": "",
                    "type": "tuple"
                },
                {
                    "indexed": false,
                    "internalType": "uint256",
                    "name": "",
                    "type": "uint256"
                }
            ],
            "name": "NewBet",
            "type": "event"
        },
        {
            "anonymous": false,
            "inputs": [
                {
                    "indexed": false,
                    "internalType": "uint256",
                    "name": "",
                    "type": "uint256"
                }
            ],
            "name": "NewCompetition",
            "type": "event"
        },
        {
            "anonymous": false,
            "inputs": [
                {
                    "components": [
                        {
                            "internalType": "uint32",
                            "name": "id",
                            "type": "uint32"
                        },
                        {
                            "internalType": "uint32",
                            "name": "start",
                            "type": "uint32"
                        },
                        {
                            "internalType": "uint32",
                            "name": "team1Score",
                            "type": "uint32"
                        },
                        {
                            "internalType": "uint32",
                            "name": "team2Score",
                            "type": "uint32"
                        },
                        {
                            "internalType": "uint32",
                            "name": "winner",
                            "type": "uint32"
                        },
                        {
                            "internalType": "bool",
                            "name": "ended",
                            "type": "bool"
                        },
                        {
                            "internalType": "bool",
                            "name": "started",
                            "type": "bool"
                        },
                        {
                            "internalType": "bool",
                            "name": "exists",
                            "type": "bool"
                        },
                        {
                            "internalType": "uint256",
                            "name": "winnerBetsSum",
                            "type": "uint256"
                        },
                        {
                            "internalType": "uint256",
                            "name": "loserBetsSum",
                            "type": "uint256"
                        }
                    ],
                    "indexed": false,
                    "internalType": "struct isCommon.Game",
                    "name": "",
                    "type": "tuple"
                }
            ],
            "name": "NewGame",
            "type": "event"
        },
        {
            "inputs": [
                {
                    "internalType": "uint256",
                    "name": "gameId",
                    "type": "uint256"
                },
                {
                    "internalType": "uint256",
                    "name": "outcome",
                    "type": "uint256"
                }
            ],
            "name": "bet",
            "outputs": [],
            "stateMutability": "payable",
            "type": "function"
        },
        {
            "inputs": [
                {
                    "internalType": "uint256",
                    "name": "gameId",
                    "type": "uint256"
                }
            ],
            "name": "claimProfits",
            "outputs": [],
            "stateMutability": "payable",
            "type": "function"
        },
        {
            "inputs": [
                {
                    "internalType": "uint256",
                    "name": "gameId",
                    "type": "uint256"
                }
            ],
            "name": "getBets",
            "outputs": [
                {
                    "components": [
                        {
                            "internalType": "address",
                            "name": "user",
                            "type": "address"
                        },
                        {
                            "internalType": "uint256",
                            "name": "amount",
                            "type": "uint256"
                        },
                        {
                            "internalType": "uint256",
                            "name": "outcome",
                            "type": "uint256"
                        }
                    ],
                    "internalType": "struct isCommon.Bet[]",
                    "name": "bets",
                    "type": "tuple[]"
                }
            ],
            "stateMutability": "view",
            "type": "function"
        },
        {
            "inputs": [],
            "name": "getCompetitions",
            "outputs": [
                {
                    "internalType": "uint256[]",
                    "name": "",
                    "type": "uint256[]"
                }
            ],
            "stateMutability": "view",
            "type": "function"
        },
        {
            "inputs": [
                {
                    "internalType": "uint256",
                    "name": "gameId",
                    "type": "uint256"
                }
            ],
            "name": "getGame",
            "outputs": [
                {
                    "components": [
                        {
                            "internalType": "uint32",
                            "name": "id",
                            "type": "uint32"
                        },
                        {
                            "internalType": "uint32",
                            "name": "start",
                            "type": "uint32"
                        },
                        {
                            "internalType": "uint32",
                            "name": "team1Score",
                            "type": "uint32"
                        },
                        {
                            "internalType": "uint32",
                            "name": "team2Score",
                            "type": "uint32"
                        },
                        {
                            "internalType": "uint32",
                            "name": "winner",
                            "type": "uint32"
                        },
                        {
                            "internalType": "bool",
                            "name": "ended",
                            "type": "bool"
                        },
                        {
                            "internalType": "bool",
                            "name": "started",
                            "type": "bool"
                        },
                        {
                            "internalType": "bool",
                            "name": "exists",
                            "type": "bool"
                        },
                        {
                            "internalType": "uint256",
                            "name": "winnerBetsSum",
                            "type": "uint256"
                        },
                        {
                            "internalType": "uint256",
                            "name": "loserBetsSum",
                            "type": "uint256"
                        }
                    ],
                    "internalType": "struct isCommon.Game",
                    "name": "game",
                    "type": "tuple"
                }
            ],
            "stateMutability": "view",
            "type": "function"
        },
        {
            "inputs": [
                {
                    "internalType": "uint256",
                    "name": "competitionId",
                    "type": "uint256"
                }
            ],
            "name": "getGames",
            "outputs": [
                {
                    "internalType": "uint256[]",
                    "name": "games",
                    "type": "uint256[]"
                }
            ],
            "stateMutability": "view",
            "type": "function"
        },
        {
            "inputs": [
                {
                    "internalType": "uint256",
                    "name": "gameId",
                    "type": "uint256"
                },
                {
                    "internalType": "uint256",
                    "name": "outcome",
                    "type": "uint256"
                }
            ],
            "name": "getUserInitialBetSum",
            "outputs": [
                {
                    "internalType": "uint256",
                    "name": "betSum",
                    "type": "uint256"
                }
            ],
            "stateMutability": "view",
            "type": "function"
        },
        {
            "inputs": [
                {
                    "internalType": "uint256",
                    "name": "gameId",
                    "type": "uint256"
                }
            ],
            "name": "getUserWinnerBetSum",
            "outputs": [
                {
                    "internalType": "uint256",
                    "name": "profits",
                    "type": "uint256"
                }
            ],
            "stateMutability": "view",
            "type": "function"
        },
        {
            "inputs": [
                {
                    "internalType": "uint256",
                    "name": "competitionId",
                    "type": "uint256"
                }
            ],
            "name": "newCompetition",
            "outputs": [],
            "stateMutability": "nonpayable",
            "type": "function"
        },
        {
            "inputs": [
                {
                    "internalType": "uint32",
                    "name": "gameId",
                    "type": "uint32"
                },
                {
                    "internalType": "uint256",
                    "name": "competitionId",
                    "type": "uint256"
                },
                {
                    "internalType": "uint32",
                    "name": "start",
                    "type": "uint32"
                }
            ],
            "name": "newGame",
            "outputs": [],
            "stateMutability": "nonpayable",
            "type": "function"
        },
        {
            "inputs": [],
            "name": "owner",
            "outputs": [
                {
                    "internalType": "address",
                    "name": "",
                    "type": "address"
                }
            ],
            "stateMutability": "view",
            "type": "function"
        },
        {
            "inputs": [
                {
                    "internalType": "uint32",
                    "name": "gameId",
                    "type": "uint32"
                },
                {
                    "internalType": "uint32",
                    "name": "team1Score",
                    "type": "uint32"
                },
                {
                    "internalType": "uint32",
                    "name": "team2Score",
                    "type": "uint32"
                }
            ],
            "name": "settleGame",
            "outputs": [],
            "stateMutability": "nonpayable",
            "type": "function"
        }
    ],
    "bytecode": "608060405234801561001057600080fd5b50600080546001600160a01b03193381811691909216171790556117ab806100396000396000f3fe6080604052600436106100a75760003560e01c806398d079a71161006457806398d079a71461019d5780639d6aaa7d146101bd5780639f6c0ce3146101ea578063a2f77bcc146101ff578063da839c971461032c578063f836ed881461033f57600080fd5b80630468a2c4146100ac5780631ccf6955146100ce5780636ffcc719146101045780638da5cb5b146101175780638fdcc8c61461014f57806394328aa31461017d575b600080fd5b3480156100b857600080fd5b506100cc6100c7366004611502565b61035f565b005b3480156100da57600080fd5b506100ee6100e936600461148b565b610746565b6040516100fb919061153c565b60405180910390f35b6100cc6101123660046114a4565b61080a565b34801561012357600080fd5b50600054610137906001600160a01b031681565b6040516001600160a01b0390911681526020016100fb565b34801561015b57600080fd5b5061016f61016a3660046114a4565b610a03565b6040519081526020016100fb565b34801561018957600080fd5b5061016f61019836600461148b565b610a63565b3480156101a957600080fd5b506100cc6101b836600461148b565b610bce565b3480156101c957600080fd5b506101dd6101d836600461148b565b610c4f565b6040516100fb91906115a7565b3480156101f657600080fd5b506101dd610cb1565b34801561020b57600080fd5b5061031f61021a36600461148b565b6040805161014081018252600080825260208201819052918101829052606081018290526080810182905260a0810182905260c0810182905260e08101829052610100810182905261012081019190915250600090815260046020908152604091829020825161014081018452815463ffffffff80821683526401000000008204811694830194909452600160401b8104841694820194909452600160601b840483166060820152600160801b8404909216608083015260ff600160a01b84048116151560a0840152600160a81b84048116151560c0840152600160b01b909304909216151560e0820152600182015461010082015260029091015461012082015290565b6040516100fb919061160d565b6100cc61033a36600461148b565b610d09565b34801561034b57600080fd5b506100cc61035a3660046114c6565b610f7c565b63ffffffff8316600081815260046020526040902054600160b01b900460ff166103a45760405162461bcd60e51b815260040161039b906115df565b60405180910390fd5b6000546001600160a01b031633146103bb57600080fd5b60008060006103c987611245565b9250925092506000600460008963ffffffff168152602001908152602001600020604051806101400160405290816000820160009054906101000a900463ffffffff1663ffffffff1663ffffffff1681526020016000820160049054906101000a900463ffffffff1663ffffffff1663ffffffff1681526020016000820160089054906101000a900463ffffffff1663ffffffff1663ffffffff16815260200160008201600c9054906101000a900463ffffffff1663ffffffff1663ffffffff1681526020016000820160109054906101000a900463ffffffff1663ffffffff1663ffffffff1681526020016000820160149054906101000a900460ff161515151581526020016000820160159054906101000a900460ff161515151581526020016000820160169054906101000a900460ff1615151515815260200160018201548152602001600282015481525050905086816040019063ffffffff16908163ffffffff168152505085816060019063ffffffff16908163ffffffff168152505060018160a001901515908115158152505060018160c001901515908115158152505081816080019063ffffffff16908163ffffffff16815250508281610120018181525050838161010001818152505080600460008a63ffffffff16815260200190815260200160002060008201518160000160006101000a81548163ffffffff021916908363ffffffff16021790555060208201518160000160046101000a81548163ffffffff021916908363ffffffff16021790555060408201518160000160086101000a81548163ffffffff021916908363ffffffff160217905550606082015181600001600c6101000a81548163ffffffff021916908363ffffffff16021790555060808201518160000160106101000a81548163ffffffff021916908363ffffffff16021790555060a08201518160000160146101000a81548160ff02191690831515021790555060c08201518160000160156101000a81548160ff02191690831515021790555060e08201518160000160166101000a81548160ff021916908315150217905550610100820151816001015561012082015181600201559050507fe89bb1849f637efae3f96a973a9c0775b0033ccf1deba9c11915717455a7fe83600189604051610734929190911515825263ffffffff16602082015260400190565b60405180910390a15050505050505050565b6000818152600460205260409020546060908290600160b01b900460ff166107805760405162461bcd60e51b815260040161039b906115df565b600083815260036020908152604080832080548251818502810185019093528083529193909284015b828210156107fe576000848152602090819020604080516060810182526003860290920180546001600160a01b03168352600180820154848601526002909101549183019190915290835290920191016107a9565b50505050915050919050565b6000828152600460205260409020548290600160b01b900460ff166108415760405162461bcd60e51b815260040161039b906115df565b8160028111156108885760405162461bcd60e51b815260206004820152601260248201527113dd5d18dbdb59481a5cc81a5b9d985b1a5960721b604482015260640161039b565b6000848152600460205260409020548490640100000000900463ffffffff166108b3426103e861170f565b106109005760405162461bcd60e51b815260206004820152601860248201527f67616d652068617320616c726561647920737461727465640000000000000000604482015260640161039b565b60408051606081018252338082523460208084018281528486018a815260008c815260038085528882208054600180820183559184528684208a519190930290920180546001600160a01b0319166001600160a01b039093169290921782559351938101939093559051600290920191909155928352600581528483208a84528152848320898452905292812080549293929091906109a09084906116d5565b90915550506040805182516001600160a01b031681526020808401519082015282820151818301526060810188905290517f49497e006b29902259c7a439a9fa5011c00afe0e0aa37e810333db207adcefb09181900360800190a1505050505050565b6000828152600460205260408120548390600160b01b900460ff16610a3a5760405162461bcd60e51b815260040161039b906115df565b505033600090815260056020908152604080832094835293815283822092825291909152205490565b6000818152600460205260408120548290600160b01b900460ff16610a9a5760405162461bcd60e51b815260040161039b906115df565b6000838152600460205260409020548390600160a01b900460ff161515600114610afd5760405162461bcd60e51b815260206004820152601460248201527319d85b59481b5d5cdd081a185d9948195b99195960621b604482015260640161039b565b5050506000818152600460209081526040808320815161014081018352815463ffffffff80821683526401000000008204811683870152600160401b8204811683860152600160601b820481166060840152600160801b820481166080840190815260ff600160a01b84048116151560a0860152600160a81b84048116151560c0860152600160b01b909304909216151560e0840152600184015461010084015260029093015461012090920191909152338552600584528285209585529483528184209451168352929052205490565b6000546001600160a01b03163314610be557600080fd5b6001805480820182556000919091527fb10e2d527612073b26eecdfd717e6a320cf44b4afac2b0732d9fcbe2b7fa0cf6018190556040518181527f9edc9bae9b3983d36dfb38fff741c45440f54213c4782f68a10a50cc5d753c7c9060200160405180910390a150565b600081815260026020908152604091829020805483518184028101840190945280845260609392830182828015610ca557602002820191906000526020600020905b815481526020019060010190808311610c91575b50505050509050919050565b60606001805480602002602001604051908101604052809291908181526020018280548015610cff57602002820191906000526020600020905b815481526020019060010190808311610ceb575b5050505050905090565b6000818152600460205260409020548190600160b01b900460ff16610d405760405162461bcd60e51b815260040161039b906115df565b6000828152600460205260409020548290600160a01b900460ff161515600114610da35760405162461bcd60e51b815260206004820152601460248201527319d85b59481b5d5cdd081a185d9948195b99195960621b604482015260640161039b565b6000838152600460209081526040808320815161014081018352815463ffffffff80821683526401000000008204811683870152600160401b8204811683860152600160601b820481166060840152600160801b820481166080840190815260ff600160a01b84048116151560a0860152600160a81b84048116151560c0860152600160b01b909304909216151560e0840152600184015461010084019081526002909401546101208401908152338852600587528588208b89528752858820925190911687529452918420549251905191939160649190610e85858461170f565b610e8f91906116ed565b610e99919061170f565b610ea391906116ed565b3360009081526005602090815260408083208a84528252808320608088015163ffffffff1684529091528120819055909150610edf83836116d5565b604051909150600090339083908381818185875af1925050503d8060008114610f24576040519150601f19603f3d011682016040523d82523d6000602084013e610f29565b606091505b5050905080610f725760405162461bcd60e51b815260206004820152601560248201527419d85a5b9cc81d1c985b9cd9995c8819985a5b1959605a1b604482015260640161039b565b5050505050505050565b63ffffffff8316600081815260046020526040902054600160b01b900460ff1615610fe05760405162461bcd60e51b815260206004820152601460248201527347616d6520616c6572656164792065786973747360601b604482015260640161039b565b6000546001600160a01b03163314610ff757600080fd5b60006040518061014001604052808663ffffffff1681526020018463ffffffff168152602001600063ffffffff168152602001600063ffffffff168152602001600063ffffffff168152602001600015158152602001600015158152602001600115158152602001600081526020016000815250905080600460008763ffffffff16815260200190815260200160002060008201518160000160006101000a81548163ffffffff021916908363ffffffff16021790555060208201518160000160046101000a81548163ffffffff021916908363ffffffff16021790555060408201518160000160086101000a81548163ffffffff021916908363ffffffff160217905550606082015181600001600c6101000a81548163ffffffff021916908363ffffffff16021790555060808201518160000160106101000a81548163ffffffff021916908363ffffffff16021790555060a08201518160000160146101000a81548160ff02191690831515021790555060c08201518160000160156101000a81548160ff02191690831515021790555060e08201518160000160166101000a81548160ff02191690831515021790555061010082015181600101556101208201518160020155905050600260008581526020019081526020016000208160000151908060018154018082558091505060019003906000526020600020016000909163ffffffff169091909150557f76ab29f872f9e4b2ef62fb4f12169e5e25c3300afe1960f680d8acea22a3f92881604051611236919061160d565b60405180910390a15050505050565b60008060006112538461136a565b905060005b63ffffffff8516600090815260036020526040902054811015611362578163ffffffff16600360008763ffffffff16815260200190815260200160002082815481106112a6576112a661175f565b90600052602060002090600302016002015414156113095763ffffffff851660009081526003602052604090208054829081106112e5576112e561175f565b9060005260206000209060030201600101548461130291906116d5565b9350611350565b63ffffffff851660009081526003602052604090208054829081106113305761133061175f565b9060005260206000209060030201600101548361134d91906116d5565b92505b8061135a8161172e565b915050611258565b509193909250565b600080546001600160a01b0316331461138257600080fd5b63ffffffff808316600090815260046020908152604091829020825161014081018452815480861682526401000000008104861693820193909352600160401b83048516938101849052600160601b8304851660608201819052600160801b8404909516608082015260ff600160a01b84048116151560a0830152600160a81b84048116151560c0830152600160b01b909304909216151560e08301526001810154610100830152600201546101208201529110156114445750600192915050565b806040015163ffffffff16816060015163ffffffff1611156114695750600292915050565b50600092915050565b919050565b803563ffffffff8116811461147257600080fd5b60006020828403121561149d57600080fd5b5035919050565b600080604083850312156114b757600080fd5b50508035926020909101359150565b6000806000606084860312156114db57600080fd5b6114e484611477565b9250602084013591506114f960408501611477565b90509250925092565b60008060006060848603121561151757600080fd5b61152084611477565b925061152e60208501611477565b91506114f960408501611477565b6020808252825182820181905260009190848201906040850190845b8181101561159b5761158883855180516001600160a01b0316825260208082015190830152604090810151910152565b9284019260609290920191600101611558565b50909695505050505050565b6020808252825182820181905260009190848201906040850190845b8181101561159b578351835292840192918401916001016115c3565b60208082526014908201527347616d6520646f6573206e6f742065786973747360601b604082015260600190565b815163ffffffff16815261014081016020830151611633602084018263ffffffff169052565b50604083015161164b604084018263ffffffff169052565b506060830151611663606084018263ffffffff169052565b50608083015161167b608084018263ffffffff169052565b5060a083015161168f60a084018215159052565b5060c08301516116a360c084018215159052565b5060e08301516116b760e084018215159052565b50610100838101519083015261012092830151929091019190915290565b600082198211156116e8576116e8611749565b500190565b60008261170a57634e487b7160e01b600052601260045260246000fd5b500490565b600081600019048311821515161561172957611729611749565b500290565b600060001982141561174257611742611749565b5060010190565b634e487b7160e01b600052601160045260246000fd5b634e487b7160e01b600052603260045260246000fdfea26469706673582212201bfb24d01e7c08c5461bc1251e9c2c9291739aed74c1c09b0070b5a7c3f8861164736f6c63430008060033",
    "sourcePath": "/home/kstwa/Documents/SportsOnTheBlock/contracts/BettingContract.sol",
    "compiler": {
        "name": "solc",
        "version": "0.8.6+commit.11564f7e"
    },
    "functionHashes": {
        "bet(uint256,uint256)": "6ffcc719",
        "claimProfits(uint256)": "da839c97",
        "getBets(uint256)": "1ccf6955",
        "getCompetitions()": "9f6c0ce3",
        "getGame(uint256)": "a2f77bcc",
        "getGames(uint256)": "9d6aaa7d",
        "getUserInitialBetSum(uint256,uint256)": "8fdcc8c6",
        "getUserWinnerBetSum(uint256)": "94328aa3",
        "newCompetition(uint256)": "98d079a7",
        "newGame(uint32,uint256,uint32)": "f836ed88",
        "owner()": "8da5cb5b",
        "settleGame(uint32,uint32,uint32)": "0468a2c4"
    },
    "gasEstimates": {
        "creation": {
            "codeDepositCost": "1211800",
            "executionCost": "25520",
            "totalCost": "1237320"
        },
        "external": {
            "bet(uint256,uint256)": "124210",
            "claimProfits(uint256)": "infinite",
            "getBets(uint256)": "infinite",
            "getCompetitions()": "infinite",
            "getGame(uint256)": "7831",
            "getGames(uint256)": "infinite",
            "getUserInitialBetSum(uint256,uint256)": "4918",
            "getUserWinnerBetSum(uint256)": "13913",
            "newCompetition(uint256)": "49765",
            "newGame(uint32,uint256,uint32)": "infinite",
            "owner()": "2407",
            "settleGame(uint32,uint32,uint32)": "infinite"
        },
        "internal": {
            "getSettlementData(uint32)": "infinite",
            "getWinner(uint32)": "infinite"
        }
    }
}