{
    "contractName": "BettingContract",
    "abi": [
        {
            "inputs": [],
            "stateMutability": "nonpayable",
            "type": "constructor"
        },
        {
            "anonymous": false,
            "inputs": [
                {
                    "indexed": false,
                    "internalType": "bool",
                    "name": "",
                    "type": "bool"
                }
            ],
            "name": "GameEnded",
            "type": "event"
        },
        {
            "anonymous": false,
            "inputs": [
                {
                    "indexed": false,
                    "internalType": "bool",
                    "name": "",
                    "type": "bool"
                }
            ],
            "name": "GameStarted",
            "type": "event"
        },
        {
            "anonymous": false,
            "inputs": [
                {
                    "components": [
                        {
                            "internalType": "address",
                            "name": "user",
                            "type": "address"
                        },
                        {
                            "internalType": "uint256",
                            "name": "amount",
                            "type": "uint256"
                        },
                        {
                            "internalType": "uint256",
                            "name": "outcome",
                            "type": "uint256"
                        }
                    ],
                    "indexed": false,
                    "internalType": "struct isCommon.Bet",
                    "name": "",
                    "type": "tuple"
                },
                {
                    "indexed": false,
                    "internalType": "uint256",
                    "name": "",
                    "type": "uint256"
                }
            ],
            "name": "NewBet",
            "type": "event"
        },
        {
            "anonymous": false,
            "inputs": [
                {
                    "indexed": false,
                    "internalType": "uint256",
                    "name": "",
                    "type": "uint256"
                }
            ],
            "name": "NewCompetition",
            "type": "event"
        },
        {
            "anonymous": false,
            "inputs": [
                {
                    "components": [
                        {
                            "internalType": "uint256",
                            "name": "id",
                            "type": "uint256"
                        },
                        {
                            "internalType": "uint256",
                            "name": "start",
                            "type": "uint256"
                        },
                        {
                            "internalType": "uint256",
                            "name": "team1Score",
                            "type": "uint256"
                        },
                        {
                            "internalType": "uint256",
                            "name": "team2Score",
                            "type": "uint256"
                        },
                        {
                            "internalType": "uint256",
                            "name": "winner",
                            "type": "uint256"
                        },
                        {
                            "internalType": "uint256",
                            "name": "winnerBetsSum",
                            "type": "uint256"
                        },
                        {
                            "internalType": "uint256",
                            "name": "loserBetsSum",
                            "type": "uint256"
                        },
                        {
                            "internalType": "bool",
                            "name": "ended",
                            "type": "bool"
                        },
                        {
                            "internalType": "bool",
                            "name": "started",
                            "type": "bool"
                        },
                        {
                            "internalType": "bool",
                            "name": "exists",
                            "type": "bool"
                        }
                    ],
                    "indexed": false,
                    "internalType": "struct isCommon.Game",
                    "name": "",
                    "type": "tuple"
                }
            ],
            "name": "NewGame",
            "type": "event"
        },
        {
            "inputs": [
                {
                    "internalType": "uint256",
                    "name": "gameId",
                    "type": "uint256"
                },
                {
                    "internalType": "uint256",
                    "name": "outcome",
                    "type": "uint256"
                }
            ],
            "name": "bet",
            "outputs": [],
            "stateMutability": "payable",
            "type": "function"
        },
        {
            "inputs": [
                {
                    "internalType": "uint256",
                    "name": "gameId",
                    "type": "uint256"
                }
            ],
            "name": "claimProfits",
            "outputs": [],
            "stateMutability": "payable",
            "type": "function"
        },
        {
            "inputs": [
                {
                    "internalType": "uint256",
                    "name": "gameId",
                    "type": "uint256"
                }
            ],
            "name": "getBets",
            "outputs": [
                {
                    "components": [
                        {
                            "internalType": "address",
                            "name": "user",
                            "type": "address"
                        },
                        {
                            "internalType": "uint256",
                            "name": "amount",
                            "type": "uint256"
                        },
                        {
                            "internalType": "uint256",
                            "name": "outcome",
                            "type": "uint256"
                        }
                    ],
                    "internalType": "struct isCommon.Bet[]",
                    "name": "bets",
                    "type": "tuple[]"
                }
            ],
            "stateMutability": "view",
            "type": "function"
        },
        {
            "inputs": [],
            "name": "getCompetitions",
            "outputs": [
                {
                    "internalType": "uint256[]",
                    "name": "",
                    "type": "uint256[]"
                }
            ],
            "stateMutability": "view",
            "type": "function"
        },
        {
            "inputs": [
                {
                    "internalType": "uint256",
                    "name": "gameId",
                    "type": "uint256"
                }
            ],
            "name": "getGame",
            "outputs": [
                {
                    "components": [
                        {
                            "internalType": "uint256",
                            "name": "id",
                            "type": "uint256"
                        },
                        {
                            "internalType": "uint256",
                            "name": "start",
                            "type": "uint256"
                        },
                        {
                            "internalType": "uint256",
                            "name": "team1Score",
                            "type": "uint256"
                        },
                        {
                            "internalType": "uint256",
                            "name": "team2Score",
                            "type": "uint256"
                        },
                        {
                            "internalType": "uint256",
                            "name": "winner",
                            "type": "uint256"
                        },
                        {
                            "internalType": "uint256",
                            "name": "winnerBetsSum",
                            "type": "uint256"
                        },
                        {
                            "internalType": "uint256",
                            "name": "loserBetsSum",
                            "type": "uint256"
                        },
                        {
                            "internalType": "bool",
                            "name": "ended",
                            "type": "bool"
                        },
                        {
                            "internalType": "bool",
                            "name": "started",
                            "type": "bool"
                        },
                        {
                            "internalType": "bool",
                            "name": "exists",
                            "type": "bool"
                        }
                    ],
                    "internalType": "struct isCommon.Game",
                    "name": "game",
                    "type": "tuple"
                }
            ],
            "stateMutability": "view",
            "type": "function"
        },
        {
            "inputs": [
                {
                    "internalType": "uint256",
                    "name": "competitionId",
                    "type": "uint256"
                }
            ],
            "name": "getGames",
            "outputs": [
                {
                    "internalType": "uint256[]",
                    "name": "games",
                    "type": "uint256[]"
                }
            ],
            "stateMutability": "view",
            "type": "function"
        },
        {
            "inputs": [
                {
                    "internalType": "uint256",
                    "name": "gameId",
                    "type": "uint256"
                }
            ],
            "name": "getUserProfits",
            "outputs": [
                {
                    "internalType": "uint256",
                    "name": "profits",
                    "type": "uint256"
                }
            ],
            "stateMutability": "view",
            "type": "function"
        },
        {
            "inputs": [
                {
                    "internalType": "uint256",
                    "name": "competitionId",
                    "type": "uint256"
                }
            ],
            "name": "newCompetition",
            "outputs": [],
            "stateMutability": "nonpayable",
            "type": "function"
        },
        {
            "inputs": [
                {
                    "internalType": "uint256",
                    "name": "gameId",
                    "type": "uint256"
                },
                {
                    "internalType": "uint256",
                    "name": "competitionId",
                    "type": "uint256"
                },
                {
                    "internalType": "uint256",
                    "name": "start",
                    "type": "uint256"
                }
            ],
            "name": "newGame",
            "outputs": [],
            "stateMutability": "nonpayable",
            "type": "function"
        },
        {
            "inputs": [],
            "name": "owner",
            "outputs": [
                {
                    "internalType": "address",
                    "name": "",
                    "type": "address"
                }
            ],
            "stateMutability": "view",
            "type": "function"
        },
        {
            "inputs": [
                {
                    "internalType": "uint256",
                    "name": "gameId",
                    "type": "uint256"
                }
            ],
            "name": "setGameToStarted",
            "outputs": [],
            "stateMutability": "nonpayable",
            "type": "function"
        },
        {
            "inputs": [
                {
                    "internalType": "uint256",
                    "name": "gameId",
                    "type": "uint256"
                },
                {
                    "internalType": "uint256",
                    "name": "team1Score",
                    "type": "uint256"
                },
                {
                    "internalType": "uint256",
                    "name": "team2Score",
                    "type": "uint256"
                }
            ],
            "name": "settleGame",
            "outputs": [],
            "stateMutability": "nonpayable",
            "type": "function"
        }
    ],
    "bytecode": "608060405234801561001057600080fd5b50600080546001600160a01b0319908116339081179091161790556113758061003a6000396000f3fe6080604052600436106100a75760003560e01c806398d079a71161006457806398d079a7146101865780639d6aaa7d146101a65780639f6c0ce3146101d3578063a2f77bcc146101e8578063c0c090bc14610215578063da839c9714610235576100a7565b806309ea407d146100ac5780631ccf6955146100e257806330852db81461010f5780636579642b146101315780636ffcc719146101515780638da5cb5b14610164575b600080fd5b3480156100b857600080fd5b506100cc6100c7366004610fd2565b610248565b6040516100d99190611297565b60405180910390f35b3480156100ee57600080fd5b506101026100fd366004610fd2565b61036e565b6040516100d99190611072565b34801561011b57600080fd5b5061012f61012a36600461100b565b610434565b005b34801561013d57600080fd5b5061012f61014c366004610fd2565b610618565b61012f61015f366004610fea565b61064f565b34801561017057600080fd5b506101796107ca565b6040516100d9919061105e565b34801561019257600080fd5b5061012f6101a1366004610fd2565b6107d9565b3480156101b257600080fd5b506101c66101c1366004610fd2565b61085f565b6040516100d991906110c0565b3480156101df57600080fd5b506101c66108c2565b3480156101f457600080fd5b50610208610203366004610fd2565b61091a565b6040516100d9919061120b565b34801561022157600080fd5b5061012f61023036600461100b565b6109b4565b61012f610243366004610fd2565b610c28565b600081815260046020526040812060070154829062010000900460ff1661028a5760405162461bcd60e51b81526004016102819061118b565b60405180910390fd5b600083815260046020526040902060070154839060ff1615156001146102c25760405162461bcd60e51b815260040161028190611103565b50505060008181526004602081815260408084208151610140810183528154815260018201548185015260028201548184015260038201546060820152938101546080850190815260058083015460a0870152600683015460c087015260079092015460ff808216151560e08801526101008083048216151590880152620100009091041615156101209095019490945233855282528084209484529381528383209151835252205490565b600081815260046020526040902060070154606090829062010000900460ff166103aa5760405162461bcd60e51b81526004016102819061118b565b600083815260036020908152604080832080548251818502810185019093528083529193909284015b82821015610428576000848152602090819020604080516060810182526003860290920180546001600160a01b03168352600180820154848601526002909101549183019190915290835290920191016103d3565b50505050915050919050565b600083815260046020526040902060070154839062010000900460ff161561046e5760405162461bcd60e51b81526004016102819061115d565b6000546001600160a01b0316331461048557600080fd5b600060405180610140016040528086815260200184815260200160008152602001600081526020016000815260200160008152602001600081526020016000151581526020016000151581526020016001151581525090508060046000878152602001908152602001600020600082015181600001556020820151816001015560408201518160020155606082015181600301556080820151816004015560a0820151816005015560c0820151816006015560e08201518160070160006101000a81548160ff0219169083151502179055506101008201518160070160016101000a81548160ff0219169083151502179055506101208201518160070160026101000a81548160ff02191690831515021790555090505060026000858152602001908152602001600020816000015190806001815401808255809150506001900390600052602060002001600090919091909150557f57e59bf1623ed8daab69247f6aab2e3f69b7633c0a042b5b88b3b3bb13518dd481604051610609919061120b565b60405180910390a15050505050565b6000546001600160a01b0316331461062f57600080fd5b6000908152600460205260409020600701805461ff001916610100179055565b600082815260046020526040902060070154829062010000900460ff166106885760405162461bcd60e51b81526004016102819061118b565b8160028111156106aa5760405162461bcd60e51b815260040161028190611131565b6000848152600460205260409020600701548490610100900460ff16156106e35760405162461bcd60e51b8152600401610281906111b9565b60408051606081018252338082523460208084018281528486018a815260008c815260038085528882208054600180820183559184528684208a519190930290920180546001600160a01b0319166001600160a01b039093169290921782559351938101939093559051600290920191909155928352600581528483208a84528152848320898452905292812080549293929091906107839084906112a0565b90915550506040517f49497e006b29902259c7a439a9fa5011c00afe0e0aa37e810333db207adcefb0906107ba90839089906111f0565b60405180910390a1505050505050565b6000546001600160a01b031681565b6000546001600160a01b031633146107f057600080fd5b6001805480820182556000919091527fb10e2d527612073b26eecdfd717e6a320cf44b4afac2b0732d9fcbe2b7fa0cf6018190556040517f9edc9bae9b3983d36dfb38fff741c45440f54213c4782f68a10a50cc5d753c7c90610854908390611297565b60405180910390a150565b6000818152600260209081526040918290208054835181840281018401909452808452606093928301828280156108b557602002820191906000526020600020905b8154815260200190600101908083116108a1575b505050505090505b919050565b6060600180548060200260200160405190810160405280929190818152602001828054801561091057602002820191906000526020600020905b8154815260200190600101908083116108fc575b5050505050905090565b610922610f79565b506000908152600460208181526040928390208351610140810185528154815260018201549281019290925260028101549382019390935260038301546060820152908201546080820152600582015460a0820152600682015460c082015260079091015460ff808216151560e084015261010080830482161515908401526201000090910416151561012082015290565b600083815260046020526040902060070154839062010000900460ff166109ed5760405162461bcd60e51b81526004016102819061118b565b6000546001600160a01b03163314610a0457600080fd5b6000806000610a1287610d73565b92509250925060006004600089815260200190815260200160002060405180610140016040529081600082015481526020016001820154815260200160028201548152602001600382015481526020016004820154815260200160058201548152602001600682015481526020016007820160009054906101000a900460ff161515151581526020016007820160019054906101000a900460ff161515151581526020016007820160029054906101000a900460ff1615151515815250509050868160400181815250508581606001818152505060018160e001901515908115158152505060018161010001901515908115158152505081816080018181525050828160c0018181525050838160a001818152505080600460008a8152602001908152602001600020600082015181600001556020820151816001015560408201518160020155606082015181600301556080820151816004015560a0820151816005015560c0820151816006015560e08201518160070160006101000a81548160ff0219169083151502179055506101008201518160070160016101000a81548160ff0219169083151502179055506101208201518160070160026101000a81548160ff0219169083151502179055509050507fdf7a1dfb51dd87859a6f44cf9bddb076effbccd933619eec97e64a79fd94d3246001604051610c1691906110f8565b60405180910390a15050505050505050565b600081815260046020526040902060070154819062010000900460ff16610c615760405162461bcd60e51b81526004016102819061118b565b60008281526004602081815260408084208151610140810183528154815260018201548185015260028201548184015260038201546060820152938101546080850190815260058083015460a08701819052600684015460c088015260079093015460ff808216151560e0890152610100808304821615159089015262010000909104161515610120870152338088529085528387208988528552838720915187529352932054919290916108fc916404a817c80091610d229060646112d8565b610d2c91906112b8565b8460c00151610d3b91906112d8565b610d4591906112f7565b6040518115909202916000818181858888f19350505050158015610d6d573d6000803e3d6000fd5b50505050565b6000806000610d8184610e9f565b905060005b600085815260036020526040902054811015610e97576000858152600360205260409020805483919083908110610dcd57634e487b7160e01b600052603260045260246000fd5b9060005260206000209060030201600201541415610e37576000858152600360205260409020805482908110610e1357634e487b7160e01b600052603260045260246000fd5b90600052602060002090600302016001015484610e3091906112a0565b9350610e85565b6000858152600360205260409020805482908110610e6557634e487b7160e01b600052603260045260246000fd5b90600052602060002090600302016001015483610e8291906112a0565b92505b80610e8f8161130e565b915050610d86565b509193909250565b600080546001600160a01b03163314610eb757600080fd5b600082815260046020818152604092839020835161014081018552815481526001820154928101929092526002810154938201849052600381015460608301819052928101546080830152600581015460a0830152600681015460c08301526007015460ff808216151560e0840152610100808304821615159084015262010000909104161515610120820152911115610f555760019150506108bd565b806040015181606001511115610f6f5760029150506108bd565b60009150506108bd565b604051806101400160405280600081526020016000815260200160008152602001600081526020016000815260200160008152602001600081526020016000151581526020016000151581526020016000151581525090565b600060208284031215610fe3578081fd5b5035919050565b60008060408385031215610ffc578081fd5b50508035926020909101359150565b60008060006060848603121561101f578081fd5b505081359360208301359350604090920135919050565b15159052565b80516001600160a01b0316825260208082015190830152604090810151910152565b6001600160a01b0391909116815260200190565b6020808252825182820181905260009190848201906040850190845b818110156110b4576110a183855161103c565b928401926060929092019160010161108e565b50909695505050505050565b6020808252825182820181905260009190848201906040850190845b818110156110b4578351835292840192918401916001016110dc565b901515815260200190565b60208082526014908201527319d85b59481b5d5cdd081a185d9948195b99195960621b604082015260600190565b60208082526012908201527113dd5d18dbdb59481a5cc81a5b9d985b1a5960721b604082015260600190565b60208082526014908201527347616d6520616c6572656164792065786973747360601b604082015260600190565b60208082526014908201527347616d6520646f6573206e6f742065786973747360601b604082015260600190565b60208082526018908201527f67616d652068617320616c726561647920737461727465640000000000000000604082015260600190565b608081016111fe828561103c565b8260608301529392505050565b600061014082019050825182526020830151602083015260408301516040830152606083015160608301526080830151608083015260a083015160a083015260c083015160c083015260e083015161126660e0840182611036565b506101008084015161127a82850182611036565b50506101208084015161128f82850182611036565b505092915050565b90815260200190565b600082198211156112b3576112b3611329565b500190565b6000826112d357634e487b7160e01b81526012600452602481fd5b500490565b60008160001904831182151516156112f2576112f2611329565b500290565b60008282101561130957611309611329565b500390565b600060001982141561132257611322611329565b5060010190565b634e487b7160e01b600052601160045260246000fdfea2646970667358221220d3ce54fd417f55fc9be630347452089c9029d83a086651a2524a37c9f24bdbd264736f6c63430008000033",
    "sourcePath": "/home/kstwa/Documents/SportsOnTheBlock/contracts/BettingContract.sol",
    "compiler": {
        "name": "solc",
        "version": "0.8.0+commit.c7dfd78e"
    },
    "functionHashes": {
        "bet(uint256,uint256)": "6ffcc719",
        "claimProfits(uint256)": "da839c97",
        "getBets(uint256)": "1ccf6955",
        "getCompetitions()": "9f6c0ce3",
        "getGame(uint256)": "a2f77bcc",
        "getGames(uint256)": "9d6aaa7d",
        "getUserProfits(uint256)": "09ea407d",
        "newCompetition(uint256)": "98d079a7",
        "newGame(uint256,uint256,uint256)": "30852db8",
        "owner()": "8da5cb5b",
        "setGameToStarted(uint256)": "6579642b",
        "settleGame(uint256,uint256,uint256)": "c0c090bc"
    },
    "gasEstimates": {
        "creation": {
            "codeDepositCost": "996200",
            "executionCost": "21896",
            "totalCost": "1018096"
        },
        "external": {
            "bet(uint256,uint256)": "107247",
            "claimProfits(uint256)": "infinite",
            "getBets(uint256)": "infinite",
            "getCompetitions()": "infinite",
            "getGame(uint256)": "infinite",
            "getGames(uint256)": "infinite",
            "getUserProfits(uint256)": "9919",
            "newCompetition(uint256)": "43001",
            "newGame(uint256,uint256,uint256)": "infinite",
            "owner()": "1181",
            "setGameToStarted(uint256)": "22024",
            "settleGame(uint256,uint256,uint256)": "infinite"
        },
        "internal": {
            "getSettlementData(uint256)": "infinite",
            "getWinner(uint256)": "infinite"
        }
    }
}