{
    "contractName": "BettingContract",
    "abi": [
        {
            "inputs": [],
            "stateMutability": "nonpayable",
            "type": "constructor"
        },
        {
            "anonymous": false,
            "inputs": [
                {
                    "indexed": false,
                    "internalType": "bool",
                    "name": "",
                    "type": "bool"
                }
            ],
            "name": "GameEnded",
            "type": "event"
        },
        {
            "anonymous": false,
            "inputs": [
                {
                    "indexed": false,
                    "internalType": "bool",
                    "name": "",
                    "type": "bool"
                }
            ],
            "name": "GameStarted",
            "type": "event"
        },
        {
            "anonymous": false,
            "inputs": [
                {
                    "components": [
                        {
                            "internalType": "address",
                            "name": "user",
                            "type": "address"
                        },
                        {
                            "internalType": "uint256",
                            "name": "amount",
                            "type": "uint256"
                        },
                        {
                            "internalType": "uint256",
                            "name": "outcome",
                            "type": "uint256"
                        }
                    ],
                    "indexed": false,
                    "internalType": "struct isCommon.Bet",
                    "name": "",
                    "type": "tuple"
                },
                {
                    "indexed": false,
                    "internalType": "uint256",
                    "name": "",
                    "type": "uint256"
                }
            ],
            "name": "NewBet",
            "type": "event"
        },
        {
            "anonymous": false,
            "inputs": [
                {
                    "indexed": false,
                    "internalType": "uint256",
                    "name": "",
                    "type": "uint256"
                }
            ],
            "name": "NewCompetition",
            "type": "event"
        },
        {
            "anonymous": false,
            "inputs": [
                {
                    "components": [
                        {
                            "internalType": "uint256",
                            "name": "id",
                            "type": "uint256"
                        },
                        {
                            "internalType": "uint256",
                            "name": "start",
                            "type": "uint256"
                        },
                        {
                            "internalType": "uint256",
                            "name": "team1Score",
                            "type": "uint256"
                        },
                        {
                            "internalType": "uint256",
                            "name": "team2Score",
                            "type": "uint256"
                        },
                        {
                            "internalType": "uint256",
                            "name": "winner",
                            "type": "uint256"
                        },
                        {
                            "internalType": "uint256",
                            "name": "winnerBetsSum",
                            "type": "uint256"
                        },
                        {
                            "internalType": "uint256",
                            "name": "loserBetsSum",
                            "type": "uint256"
                        },
                        {
                            "internalType": "bool",
                            "name": "ended",
                            "type": "bool"
                        },
                        {
                            "internalType": "bool",
                            "name": "started",
                            "type": "bool"
                        },
                        {
                            "internalType": "bool",
                            "name": "exists",
                            "type": "bool"
                        }
                    ],
                    "indexed": false,
                    "internalType": "struct isCommon.Game",
                    "name": "",
                    "type": "tuple"
                }
            ],
            "name": "NewGame",
            "type": "event"
        },
        {
            "inputs": [
                {
                    "internalType": "uint256",
                    "name": "gameId",
                    "type": "uint256"
                },
                {
                    "internalType": "uint256",
                    "name": "outcome",
                    "type": "uint256"
                }
            ],
            "name": "bet",
            "outputs": [],
            "stateMutability": "payable",
            "type": "function"
        },
        {
            "inputs": [
                {
                    "internalType": "uint256",
                    "name": "gameId",
                    "type": "uint256"
                }
            ],
            "name": "claimProfits",
            "outputs": [],
            "stateMutability": "payable",
            "type": "function"
        },
        {
            "inputs": [
                {
                    "internalType": "uint256",
                    "name": "gameId",
                    "type": "uint256"
                }
            ],
            "name": "getBets",
            "outputs": [
                {
                    "components": [
                        {
                            "internalType": "address",
                            "name": "user",
                            "type": "address"
                        },
                        {
                            "internalType": "uint256",
                            "name": "amount",
                            "type": "uint256"
                        },
                        {
                            "internalType": "uint256",
                            "name": "outcome",
                            "type": "uint256"
                        }
                    ],
                    "internalType": "struct isCommon.Bet[]",
                    "name": "bets",
                    "type": "tuple[]"
                }
            ],
            "stateMutability": "view",
            "type": "function"
        },
        {
            "inputs": [],
            "name": "getCompetitions",
            "outputs": [
                {
                    "internalType": "uint256[]",
                    "name": "",
                    "type": "uint256[]"
                }
            ],
            "stateMutability": "view",
            "type": "function"
        },
        {
            "inputs": [
                {
                    "internalType": "uint256",
                    "name": "gameId",
                    "type": "uint256"
                }
            ],
            "name": "getGame",
            "outputs": [
                {
                    "components": [
                        {
                            "internalType": "uint256",
                            "name": "id",
                            "type": "uint256"
                        },
                        {
                            "internalType": "uint256",
                            "name": "start",
                            "type": "uint256"
                        },
                        {
                            "internalType": "uint256",
                            "name": "team1Score",
                            "type": "uint256"
                        },
                        {
                            "internalType": "uint256",
                            "name": "team2Score",
                            "type": "uint256"
                        },
                        {
                            "internalType": "uint256",
                            "name": "winner",
                            "type": "uint256"
                        },
                        {
                            "internalType": "uint256",
                            "name": "winnerBetsSum",
                            "type": "uint256"
                        },
                        {
                            "internalType": "uint256",
                            "name": "loserBetsSum",
                            "type": "uint256"
                        },
                        {
                            "internalType": "bool",
                            "name": "ended",
                            "type": "bool"
                        },
                        {
                            "internalType": "bool",
                            "name": "started",
                            "type": "bool"
                        },
                        {
                            "internalType": "bool",
                            "name": "exists",
                            "type": "bool"
                        }
                    ],
                    "internalType": "struct isCommon.Game",
                    "name": "game",
                    "type": "tuple"
                }
            ],
            "stateMutability": "view",
            "type": "function"
        },
        {
            "inputs": [
                {
                    "internalType": "uint256",
                    "name": "competitionId",
                    "type": "uint256"
                }
            ],
            "name": "getGames",
            "outputs": [
                {
                    "internalType": "uint256[]",
                    "name": "games",
                    "type": "uint256[]"
                }
            ],
            "stateMutability": "view",
            "type": "function"
        },
        {
            "inputs": [
                {
                    "internalType": "uint256",
                    "name": "gameId",
                    "type": "uint256"
                }
            ],
            "name": "getUserInitialBetSum",
            "outputs": [
                {
                    "internalType": "uint256",
                    "name": "profits",
                    "type": "uint256"
                }
            ],
            "stateMutability": "view",
            "type": "function"
        },
        {
            "inputs": [
                {
                    "internalType": "uint256",
                    "name": "competitionId",
                    "type": "uint256"
                }
            ],
            "name": "newCompetition",
            "outputs": [],
            "stateMutability": "nonpayable",
            "type": "function"
        },
        {
            "inputs": [
                {
                    "internalType": "uint256",
                    "name": "gameId",
                    "type": "uint256"
                },
                {
                    "internalType": "uint256",
                    "name": "competitionId",
                    "type": "uint256"
                },
                {
                    "internalType": "uint256",
                    "name": "start",
                    "type": "uint256"
                }
            ],
            "name": "newGame",
            "outputs": [],
            "stateMutability": "nonpayable",
            "type": "function"
        },
        {
            "inputs": [],
            "name": "owner",
            "outputs": [
                {
                    "internalType": "address",
                    "name": "",
                    "type": "address"
                }
            ],
            "stateMutability": "view",
            "type": "function"
        },
        {
            "inputs": [
                {
                    "internalType": "uint256",
                    "name": "gameId",
                    "type": "uint256"
                }
            ],
            "name": "setGameToStarted",
            "outputs": [],
            "stateMutability": "nonpayable",
            "type": "function"
        },
        {
            "inputs": [
                {
                    "internalType": "uint256",
                    "name": "gameId",
                    "type": "uint256"
                },
                {
                    "internalType": "uint256",
                    "name": "team1Score",
                    "type": "uint256"
                },
                {
                    "internalType": "uint256",
                    "name": "team2Score",
                    "type": "uint256"
                }
            ],
            "name": "settleGame",
            "outputs": [],
            "stateMutability": "nonpayable",
            "type": "function"
        }
    ],
    "bytecode": "608060405234801561001057600080fd5b50600080546001600160a01b0319908116339081179091161790556114198061003a6000396000f3fe6080604052600436106100a75760003560e01c806398d079a71161006457806398d079a7146101865780639d6aaa7d146101a65780639f6c0ce3146101d3578063a2f77bcc146101e8578063c0c090bc14610215578063da839c9714610235576100a7565b80631ccf6955146100ac57806330852db8146100e25780636579642b146101045780636ffcc7191461012457806386815fa9146101375780638da5cb5b14610164575b600080fd5b3480156100b857600080fd5b506100cc6100c736600461105b565b610248565b6040516100d991906110fe565b60405180910390f35b3480156100ee57600080fd5b506101026100fd366004611094565b610317565b005b34801561011057600080fd5b5061010261011f36600461105b565b6104fb565b610102610132366004611073565b610532565b34801561014357600080fd5b5061015761015236600461105b565b6106ad565b6040516100d99190611352565b34801561017057600080fd5b506101796107ca565b6040516100d991906110ea565b34801561019257600080fd5b506101026101a136600461105b565b6107d9565b3480156101b257600080fd5b506101c66101c136600461105b565b61085f565b6040516100d9919061114c565b3480156101df57600080fd5b506101c66108c2565b3480156101f457600080fd5b5061020861020336600461105b565b61091a565b6040516100d991906112c6565b34801561022157600080fd5b50610102610230366004611094565b6109b4565b61010261024336600461105b565b610c28565b600081815260046020526040902060070154606090829062010000900460ff1661028d5760405162461bcd60e51b815260040161028490611246565b60405180910390fd5b600083815260036020908152604080832080548251818502810185019093528083529193909284015b8282101561030b576000848152602090819020604080516060810182526003860290920180546001600160a01b03168352600180820154848601526002909101549183019190915290835290920191016102b6565b50505050915050919050565b600083815260046020526040902060070154839062010000900460ff16156103515760405162461bcd60e51b815260040161028490611218565b6000546001600160a01b0316331461036857600080fd5b600060405180610140016040528086815260200184815260200160008152602001600081526020016000815260200160008152602001600081526020016000151581526020016000151581526020016001151581525090508060046000878152602001908152602001600020600082015181600001556020820151816001015560408201518160020155606082015181600301556080820151816004015560a0820151816005015560c0820151816006015560e08201518160070160006101000a81548160ff0219169083151502179055506101008201518160070160016101000a81548160ff0219169083151502179055506101208201518160070160026101000a81548160ff02191690831515021790555090505060026000858152602001908152602001600020816000015190806001815401808255809150506001900390600052602060002001600090919091909150557f57e59bf1623ed8daab69247f6aab2e3f69b7633c0a042b5b88b3b3bb13518dd4816040516104ec91906112c6565b60405180910390a15050505050565b6000546001600160a01b0316331461051257600080fd5b6000908152600460205260409020600701805461ff001916610100179055565b600082815260046020526040902060070154829062010000900460ff1661056b5760405162461bcd60e51b815260040161028490611246565b81600281111561058d5760405162461bcd60e51b8152600401610284906111ec565b6000848152600460205260409020600701548490610100900460ff16156105c65760405162461bcd60e51b815260040161028490611274565b60408051606081018252338082523460208084018281528486018a815260008c815260038085528882208054600180820183559184528684208a519190930290920180546001600160a01b0319166001600160a01b039093169290921782559351938101939093559051600290920191909155928352600581528483208a845281528483208984529052928120805492939290919061066690849061135b565b90915550506040517f49497e006b29902259c7a439a9fa5011c00afe0e0aa37e810333db207adcefb09061069d90839089906112ab565b60405180910390a1505050505050565b600081815260046020526040812060070154829062010000900460ff166106e65760405162461bcd60e51b815260040161028490611246565b600083815260046020526040902060070154839060ff16151560011461071e5760405162461bcd60e51b8152600401610284906111be565b50505060008181526004602081815260408084208151610140810183528154815260018201548185015260028201548184015260038201546060820152938101546080850190815260058083015460a0870152600683015460c087015260079092015460ff808216151560e08801526101008083048216151590880152620100009091041615156101209095019490945233855282528084209484529381528383209151835252205490565b6000546001600160a01b031681565b6000546001600160a01b031633146107f057600080fd5b6001805480820182556000919091527fb10e2d527612073b26eecdfd717e6a320cf44b4afac2b0732d9fcbe2b7fa0cf6018190556040517f9edc9bae9b3983d36dfb38fff741c45440f54213c4782f68a10a50cc5d753c7c90610854908390611352565b60405180910390a150565b6000818152600260209081526040918290208054835181840281018401909452808452606093928301828280156108b557602002820191906000526020600020905b8154815260200190600101908083116108a1575b505050505090505b919050565b6060600180548060200260200160405190810160405280929190818152602001828054801561091057602002820191906000526020600020905b8154815260200190600101908083116108fc575b5050505050905090565b610922611002565b506000908152600460208181526040928390208351610140810185528154815260018201549281019290925260028101549382019390935260038301546060820152908201546080820152600582015460a0820152600682015460c082015260079091015460ff808216151560e084015261010080830482161515908401526201000090910416151561012082015290565b600083815260046020526040902060070154839062010000900460ff166109ed5760405162461bcd60e51b815260040161028490611246565b6000546001600160a01b03163314610a0457600080fd5b6000806000610a1287610dfc565b92509250925060006004600089815260200190815260200160002060405180610140016040529081600082015481526020016001820154815260200160028201548152602001600382015481526020016004820154815260200160058201548152602001600682015481526020016007820160009054906101000a900460ff161515151581526020016007820160019054906101000a900460ff161515151581526020016007820160029054906101000a900460ff1615151515815250509050868160400181815250508581606001818152505060018160e001901515908115158152505060018161010001901515908115158152505081816080018181525050828160c0018181525050838160a001818152505080600460008a8152602001908152602001600020600082015181600001556020820151816001015560408201518160020155606082015181600301556080820151816004015560a0820151816005015560c0820151816006015560e08201518160070160006101000a81548160ff0219169083151502179055506101008201518160070160016101000a81548160ff0219169083151502179055506101208201518160070160026101000a81548160ff0219169083151502179055509050507fdf7a1dfb51dd87859a6f44cf9bddb076effbccd933619eec97e64a79fd94d3246001604051610c169190611184565b60405180910390a15050505050505050565b600081815260046020526040902060070154819062010000900460ff16610c615760405162461bcd60e51b815260040161028490611246565b60008281526004602081815260408084208151610140810183528154815260018201548185015260028201548184015260038201546060820152938101546080850190815260058083015460a08701908152600684015460c0880190815260079094015460ff808216151560e08a015261010080830482161515908a01526201000090910416151561012088015233885290855283872089885285528387209151875293529084205490519151929390929091606491610d218584611393565b610d2b9190611373565b610d359190611393565b610d3f9190611373565b3360009081526005602090815260408083208984528252808320608088015184529091528120819055909150610d75838361135b565b90506000336001600160a01b031682604051610d90906110e7565b60006040518083038185875af1925050503d8060008114610dcd576040519150601f19603f3d011682016040523d82523d6000602084013e610dd2565b606091505b5050905080610df35760405162461bcd60e51b81526004016102849061118f565b50505050505050565b6000806000610e0a84610f28565b905060005b600085815260036020526040902054811015610f20576000858152600360205260409020805483919083908110610e5657634e487b7160e01b600052603260045260246000fd5b9060005260206000209060030201600201541415610ec0576000858152600360205260409020805482908110610e9c57634e487b7160e01b600052603260045260246000fd5b90600052602060002090600302016001015484610eb9919061135b565b9350610f0e565b6000858152600360205260409020805482908110610eee57634e487b7160e01b600052603260045260246000fd5b90600052602060002090600302016001015483610f0b919061135b565b92505b80610f18816113b2565b915050610e0f565b509193909250565b600080546001600160a01b03163314610f4057600080fd5b600082815260046020818152604092839020835161014081018552815481526001820154928101929092526002810154938201849052600381015460608301819052928101546080830152600581015460a0830152600681015460c08301526007015460ff808216151560e0840152610100808304821615159084015262010000909104161515610120820152911115610fde5760019150506108bd565b806040015181606001511115610ff85760029150506108bd565b60009150506108bd565b604051806101400160405280600081526020016000815260200160008152602001600081526020016000815260200160008152602001600081526020016000151581526020016000151581526020016000151581525090565b60006020828403121561106c578081fd5b5035919050565b60008060408385031215611085578081fd5b50508035926020909101359150565b6000806000606084860312156110a8578081fd5b505081359360208301359350604090920135919050565b15159052565b80516001600160a01b0316825260208082015190830152604090810151910152565b90565b6001600160a01b0391909116815260200190565b6020808252825182820181905260009190848201906040850190845b818110156111405761112d8385516110c5565b928401926060929092019160010161111a565b50909695505050505050565b6020808252825182820181905260009190848201906040850190845b8181101561114057835183529284019291840191600101611168565b901515815260200190565b60208082526015908201527419d85a5b9cc81d1c985b9cd9995c8819985a5b1959605a1b604082015260600190565b60208082526014908201527319d85b59481b5d5cdd081a185d9948195b99195960621b604082015260600190565b60208082526012908201527113dd5d18dbdb59481a5cc81a5b9d985b1a5960721b604082015260600190565b60208082526014908201527347616d6520616c6572656164792065786973747360601b604082015260600190565b60208082526014908201527347616d6520646f6573206e6f742065786973747360601b604082015260600190565b60208082526018908201527f67616d652068617320616c726561647920737461727465640000000000000000604082015260600190565b608081016112b982856110c5565b8260608301529392505050565b600061014082019050825182526020830151602083015260408301516040830152606083015160608301526080830151608083015260a083015160a083015260c083015160c083015260e083015161132160e08401826110bf565b5061010080840151611335828501826110bf565b50506101208084015161134a828501826110bf565b505092915050565b90815260200190565b6000821982111561136e5761136e6113cd565b500190565b60008261138e57634e487b7160e01b81526012600452602481fd5b500490565b60008160001904831182151516156113ad576113ad6113cd565b500290565b60006000198214156113c6576113c66113cd565b5060010190565b634e487b7160e01b600052601160045260246000fdfea2646970667358221220ec9cf3579ff91e446017b5ec5d29f3d39e1dc6a071c8292b58cf970e5687118a64736f6c63430008000033",
    "sourcePath": "/home/kstwa/Documents/SportsOnTheBlock/contracts/BettingContract.sol",
    "compiler": {
        "name": "solc",
        "version": "0.8.0+commit.c7dfd78e"
    },
    "functionHashes": {
        "bet(uint256,uint256)": "6ffcc719",
        "claimProfits(uint256)": "da839c97",
        "getBets(uint256)": "1ccf6955",
        "getCompetitions()": "9f6c0ce3",
        "getGame(uint256)": "a2f77bcc",
        "getGames(uint256)": "9d6aaa7d",
        "getUserInitialBetSum(uint256)": "86815fa9",
        "newCompetition(uint256)": "98d079a7",
        "newGame(uint256,uint256,uint256)": "30852db8",
        "owner()": "8da5cb5b",
        "setGameToStarted(uint256)": "6579642b",
        "settleGame(uint256,uint256,uint256)": "c0c090bc"
    },
    "gasEstimates": {
        "creation": {
            "codeDepositCost": "1029000",
            "executionCost": "21929",
            "totalCost": "1050929"
        },
        "external": {
            "bet(uint256,uint256)": "107225",
            "claimProfits(uint256)": "infinite",
            "getBets(uint256)": "infinite",
            "getCompetitions()": "infinite",
            "getGame(uint256)": "infinite",
            "getGames(uint256)": "infinite",
            "getUserInitialBetSum(uint256)": "10007",
            "newCompetition(uint256)": "43001",
            "newGame(uint256,uint256,uint256)": "infinite",
            "owner()": "1181",
            "setGameToStarted(uint256)": "22002",
            "settleGame(uint256,uint256,uint256)": "infinite"
        },
        "internal": {
            "getSettlementData(uint256)": "infinite",
            "getWinner(uint256)": "infinite"
        }
    }
}