{
    "contractName": "BettingContract",
    "abi": [
        {
            "inputs": [],
            "stateMutability": "nonpayable",
            "type": "constructor"
        },
        {
            "anonymous": false,
            "inputs": [
                {
                    "indexed": false,
                    "internalType": "bool",
                    "name": "",
                    "type": "bool"
                }
            ],
            "name": "GameEnded",
            "type": "event"
        },
        {
            "anonymous": false,
            "inputs": [
                {
                    "indexed": false,
                    "internalType": "bool",
                    "name": "",
                    "type": "bool"
                }
            ],
            "name": "GameStarted",
            "type": "event"
        },
        {
            "anonymous": false,
            "inputs": [
                {
                    "components": [
                        {
                            "internalType": "address",
                            "name": "user",
                            "type": "address"
                        },
                        {
                            "internalType": "uint256",
                            "name": "amount",
                            "type": "uint256"
                        },
                        {
                            "internalType": "uint256",
                            "name": "outcome",
                            "type": "uint256"
                        }
                    ],
                    "indexed": false,
                    "internalType": "struct isCommon.Bet",
                    "name": "",
                    "type": "tuple"
                },
                {
                    "indexed": false,
                    "internalType": "uint256",
                    "name": "",
                    "type": "uint256"
                }
            ],
            "name": "NewBet",
            "type": "event"
        },
        {
            "anonymous": false,
            "inputs": [
                {
                    "components": [
                        {
                            "internalType": "uint256",
                            "name": "id",
                            "type": "uint256"
                        },
                        {
                            "internalType": "string",
                            "name": "name",
                            "type": "string"
                        },
                        {
                            "internalType": "bool",
                            "name": "available",
                            "type": "bool"
                        },
                        {
                            "internalType": "bool",
                            "name": "exists",
                            "type": "bool"
                        }
                    ],
                    "indexed": false,
                    "internalType": "struct isCommon.Competition",
                    "name": "",
                    "type": "tuple"
                }
            ],
            "name": "NewCompetition",
            "type": "event"
        },
        {
            "anonymous": false,
            "inputs": [
                {
                    "components": [
                        {
                            "internalType": "uint256",
                            "name": "id",
                            "type": "uint256"
                        },
                        {
                            "internalType": "string",
                            "name": "team1Name",
                            "type": "string"
                        },
                        {
                            "internalType": "string",
                            "name": "team2Name",
                            "type": "string"
                        },
                        {
                            "internalType": "uint256",
                            "name": "start",
                            "type": "uint256"
                        },
                        {
                            "internalType": "uint256",
                            "name": "team1Score",
                            "type": "uint256"
                        },
                        {
                            "internalType": "uint256",
                            "name": "team2Score",
                            "type": "uint256"
                        },
                        {
                            "internalType": "uint256",
                            "name": "winner",
                            "type": "uint256"
                        },
                        {
                            "internalType": "bool",
                            "name": "ended",
                            "type": "bool"
                        },
                        {
                            "internalType": "bool",
                            "name": "started",
                            "type": "bool"
                        },
                        {
                            "internalType": "bool",
                            "name": "exists",
                            "type": "bool"
                        }
                    ],
                    "indexed": false,
                    "internalType": "struct isCommon.Game",
                    "name": "",
                    "type": "tuple"
                }
            ],
            "name": "NewGame",
            "type": "event"
        },
        {
            "inputs": [
                {
                    "internalType": "uint256",
                    "name": "gameId",
                    "type": "uint256"
                },
                {
                    "internalType": "uint256",
                    "name": "outcome",
                    "type": "uint256"
                }
            ],
            "name": "bet",
            "outputs": [],
            "stateMutability": "payable",
            "type": "function"
        },
        {
            "inputs": [
                {
                    "internalType": "uint256",
                    "name": "gameId",
                    "type": "uint256"
                }
            ],
            "name": "claimProfits",
            "outputs": [],
            "stateMutability": "payable",
            "type": "function"
        },
        {
            "inputs": [
                {
                    "internalType": "uint256",
                    "name": "gameId",
                    "type": "uint256"
                }
            ],
            "name": "getBets",
            "outputs": [
                {
                    "components": [
                        {
                            "internalType": "address",
                            "name": "user",
                            "type": "address"
                        },
                        {
                            "internalType": "uint256",
                            "name": "amount",
                            "type": "uint256"
                        },
                        {
                            "internalType": "uint256",
                            "name": "outcome",
                            "type": "uint256"
                        }
                    ],
                    "internalType": "struct isCommon.Bet[]",
                    "name": "bets",
                    "type": "tuple[]"
                }
            ],
            "stateMutability": "view",
            "type": "function"
        },
        {
            "inputs": [],
            "name": "getCompetitions",
            "outputs": [
                {
                    "components": [
                        {
                            "internalType": "uint256",
                            "name": "id",
                            "type": "uint256"
                        },
                        {
                            "internalType": "string",
                            "name": "name",
                            "type": "string"
                        },
                        {
                            "internalType": "bool",
                            "name": "available",
                            "type": "bool"
                        },
                        {
                            "internalType": "bool",
                            "name": "exists",
                            "type": "bool"
                        }
                    ],
                    "internalType": "struct isCommon.Competition[]",
                    "name": "",
                    "type": "tuple[]"
                }
            ],
            "stateMutability": "view",
            "type": "function"
        },
        {
            "inputs": [
                {
                    "internalType": "uint256",
                    "name": "gameId",
                    "type": "uint256"
                }
            ],
            "name": "getGame",
            "outputs": [
                {
                    "components": [
                        {
                            "internalType": "uint256",
                            "name": "id",
                            "type": "uint256"
                        },
                        {
                            "internalType": "string",
                            "name": "team1Name",
                            "type": "string"
                        },
                        {
                            "internalType": "string",
                            "name": "team2Name",
                            "type": "string"
                        },
                        {
                            "internalType": "uint256",
                            "name": "start",
                            "type": "uint256"
                        },
                        {
                            "internalType": "uint256",
                            "name": "team1Score",
                            "type": "uint256"
                        },
                        {
                            "internalType": "uint256",
                            "name": "team2Score",
                            "type": "uint256"
                        },
                        {
                            "internalType": "uint256",
                            "name": "winner",
                            "type": "uint256"
                        },
                        {
                            "internalType": "bool",
                            "name": "ended",
                            "type": "bool"
                        },
                        {
                            "internalType": "bool",
                            "name": "started",
                            "type": "bool"
                        },
                        {
                            "internalType": "bool",
                            "name": "exists",
                            "type": "bool"
                        }
                    ],
                    "internalType": "struct isCommon.Game",
                    "name": "game",
                    "type": "tuple"
                }
            ],
            "stateMutability": "view",
            "type": "function"
        },
        {
            "inputs": [
                {
                    "internalType": "uint256",
                    "name": "competitionId",
                    "type": "uint256"
                }
            ],
            "name": "getGames",
            "outputs": [
                {
                    "internalType": "uint256[]",
                    "name": "games",
                    "type": "uint256[]"
                }
            ],
            "stateMutability": "view",
            "type": "function"
        },
        {
            "inputs": [
                {
                    "internalType": "uint256",
                    "name": "gameId",
                    "type": "uint256"
                }
            ],
            "name": "getUserProfits",
            "outputs": [
                {
                    "internalType": "uint256",
                    "name": "dueProfits",
                    "type": "uint256"
                },
                {
                    "internalType": "uint256",
                    "name": "_winnerBetsSum",
                    "type": "uint256"
                },
                {
                    "internalType": "uint256",
                    "name": "_loserBetsSum",
                    "type": "uint256"
                }
            ],
            "stateMutability": "view",
            "type": "function"
        },
        {
            "inputs": [
                {
                    "internalType": "uint256",
                    "name": "competitionId",
                    "type": "uint256"
                },
                {
                    "internalType": "string",
                    "name": "name",
                    "type": "string"
                }
            ],
            "name": "newCompetition",
            "outputs": [],
            "stateMutability": "nonpayable",
            "type": "function"
        },
        {
            "inputs": [
                {
                    "internalType": "uint256",
                    "name": "gameId",
                    "type": "uint256"
                },
                {
                    "internalType": "uint256",
                    "name": "competitionId",
                    "type": "uint256"
                },
                {
                    "internalType": "uint256",
                    "name": "start",
                    "type": "uint256"
                },
                {
                    "internalType": "string",
                    "name": "team1Name",
                    "type": "string"
                },
                {
                    "internalType": "string",
                    "name": "team2Name",
                    "type": "string"
                }
            ],
            "name": "newGame",
            "outputs": [],
            "stateMutability": "nonpayable",
            "type": "function"
        },
        {
            "inputs": [],
            "name": "owner",
            "outputs": [
                {
                    "internalType": "address",
                    "name": "",
                    "type": "address"
                }
            ],
            "stateMutability": "view",
            "type": "function"
        },
        {
            "inputs": [
                {
                    "internalType": "uint256",
                    "name": "gameId",
                    "type": "uint256"
                }
            ],
            "name": "setGameToStarted",
            "outputs": [],
            "stateMutability": "nonpayable",
            "type": "function"
        },
        {
            "inputs": [
                {
                    "internalType": "uint256",
                    "name": "gameId",
                    "type": "uint256"
                },
                {
                    "internalType": "uint256",
                    "name": "team1Score",
                    "type": "uint256"
                },
                {
                    "internalType": "uint256",
                    "name": "team2Score",
                    "type": "uint256"
                }
            ],
            "name": "settleGame",
            "outputs": [],
            "stateMutability": "nonpayable",
            "type": "function"
        }
    ],
    "bytecode": "608060405234801561001057600080fd5b50600080546001600160a01b031990811633908117909116179055611cb68061003a6000396000f3fe6080604052600436106100a75760003560e01c80639d6aaa7d116100645780639d6aaa7d146101885780639f6c0ce3146101b5578063a2f77bcc146101d7578063ac96c8c914610204578063c0c090bc14610224578063da839c9714610244576100a7565b8063081cd7db146100ac57806309ea407d146100ce5780631ccf6955146101065780636579642b146101335780636ffcc719146101535780638da5cb5b14610166575b600080fd5b3480156100b857600080fd5b506100cc6100c73660046116aa565b610257565b005b3480156100da57600080fd5b506100ee6100e9366004611692565b6103af565b6040516100fd93929190611bad565b60405180910390f35b34801561011257600080fd5b50610126610121366004611692565b610521565b6040516100fd91906118c1565b34801561013f57600080fd5b506100cc61014e366004611692565b6105e8565b6100cc6101613660046116f4565b61061f565b34801561017257600080fd5b5061017b610762565b6040516100fd91906118ad565b34801561019457600080fd5b506101a86101a3366004611692565b610771565b6040516100fd919061196f565b3480156101c157600080fd5b506101ca6107d3565b6040516100fd919061190f565b3480156101e357600080fd5b506101f76101f2366004611692565b6108f7565b6040516100fd9190611af0565b34801561021057600080fd5b506100cc61021f36600461176d565b610aa9565b34801561023057600080fd5b506100cc61023f366004611715565b610c9c565b6100cc610252366004611692565b610fb1565b6000546001600160a01b0316331461026e57600080fd5b6000604051806080016040528085815260200184848080601f016020809104026020016040519081016040528093929190818152602001838380828437600092018290525093855250506001602080850182905260409094018190528054808201825592525082517fb10e2d527612073b26eecdfd717e6a320cf44b4afac2b0732d9fcbe2b7fa0cf660039092029182019081558383015180519495508594919361033e937fb10e2d527612073b26eecdfd717e6a320cf44b4afac2b0732d9fcbe2b7fa0cf70192910190611560565b506040828101516002909201805460609094015115156101000261ff001993151560ff199095169490941792909216929092179055517fe8ec462dbfbc6b452f16d8deef17218d3715b40c1ca0f70527bcc9912329cd84906103a1908390611ad6565b60405180910390a150505050565b60008060008060006103c0866110de565b91509150600081116103ed5760405162461bcd60e51b81526004016103e490611a38565b60405180910390fd5b60006103f88761124b565b60008881526003602090815260408083208054825181850281018501909352808352949550610487949193909284015b8282101561047d576000848152602090819020604080516060810182526003860290920180546001600160a01b0316835260018082015484860152600290910154918301919091529083529092019101610428565b505050508261148b565b909550935060005b8281101561051657818482815181106104b857634e487b7160e01b600052603260045260246000fd5b6020026020010151604001511415610504578381815181106104ea57634e487b7160e01b600052603260045260246000fd5b602002602001015160200151876105019190611bc3565b96505b8061050e81611c4f565b91505061048f565b505050509193909250565b600081815260046020526040902060070154606090829062010000900460ff1661055d5760405162461bcd60e51b81526004016103e490611a0a565b600083815260036020908152604080832080548251818502810185019093528083529193909284015b828210156105db576000848152602090819020604080516060810182526003860290920180546001600160a01b0316835260018082015484860152600290910154918301919091529083529092019101610586565b5050505091505b50919050565b6000546001600160a01b031633146105ff57600080fd5b6000908152600460205260409020600701805461ff001916610100179055565b600082815260046020526040902060070154829062010000900460ff166106585760405162461bcd60e51b81526004016103e490611a0a565b81600281111561067a5760405162461bcd60e51b81526004016103e4906119de565b6000848152600460205260409020600701548490610100900460ff16156106b35760405162461bcd60e51b81526004016103e490611a84565b6040805160608101825233815234602080830191825282840188815260008a81526003808452868220805460018082018355918452949092208651949091020180546001600160a01b0319166001600160a01b03909416939093178355925192820192909255905160029091015590517f49497e006b29902259c7a439a9fa5011c00afe0e0aa37e810333db207adcefb0906107529083908990611abb565b60405180910390a1505050505050565b6000546001600160a01b031681565b6000818152600260209081526040918290208054835181840281018401909452808452606093928301828280156107c757602002820191906000526020600020905b8154815260200190600101908083116107b3575b50505050509050919050565b60606001805480602002602001604051908101604052809291908181526020016000905b828210156108ee57838290600052602060002090600302016040518060800160405290816000820154815260200160018201805461083490611c1a565b80601f016020809104026020016040519081016040528092919081815260200182805461086090611c1a565b80156108ad5780601f10610882576101008083540402835291602001916108ad565b820191906000526020600020905b81548152906001019060200180831161089057829003601f168201915b50505091835250506002919091015460ff808216151560208085019190915261010090920416151560409092019190915290825260019290920191016107f7565b50505050905090565b6108ff6115e4565b60046000838152602001908152602001600020604051806101400160405290816000820154815260200160018201805461093890611c1a565b80601f016020809104026020016040519081016040528092919081815260200182805461096490611c1a565b80156109b15780601f10610986576101008083540402835291602001916109b1565b820191906000526020600020905b81548152906001019060200180831161099457829003601f168201915b505050505081526020016002820180546109ca90611c1a565b80601f01602080910402602001604051908101604052809291908181526020018280546109f690611c1a565b8015610a435780601f10610a1857610100808354040283529160200191610a43565b820191906000526020600020905b815481529060010190602001808311610a2657829003601f168201915b50505091835250506003820154602082015260048201546040820152600582015460608201526006820154608082015260079091015460ff808216151560a084015261010082048116151560c08401526201000090910416151560e09091015292915050565b6000546001600160a01b03163314610ac057600080fd5b600060405180610140016040528089815260200186868080601f016020809104026020016040519081016040528093929190818152602001838380828437600092019190915250505090825250604080516020601f870181900481028201810190925285815291810191908690869081908401838280828437600092018290525093855250505060208083018a90526040808401839052606084018390526080840183905260a0840183905260c08401839052600160e09094018490528c8352600482529091208351815583820151805194955085949193610ba89390850192910190611560565b5060408201518051610bc4916002840191602090910190611560565b50606082015160038201556080820151600482015560a0820151600582015560c0820151600682015560e08201516007909101805461010080850151610120909501511515620100000262ff00001995151590910261ff001994151560ff19909316929092179390931617929092161790556000878152600260209081526040808320845181546001810183559185529290932090920155517fa767a6eb2512f3582b00e6e26f955916df5c2db941ac8b503b94ccf41a28c03090610c8a908390611af0565b60405180910390a15050505050505050565b600083815260046020526040902060070154839062010000900460ff16610cd55760405162461bcd60e51b81526004016103e490611a0a565b6000546001600160a01b03163314610cec57600080fd5b6000600460008681526020019081526020016000206040518061014001604052908160008201548152602001600182018054610d2790611c1a565b80601f0160208091040260200160405190810160405280929190818152602001828054610d5390611c1a565b8015610da05780601f10610d7557610100808354040283529160200191610da0565b820191906000526020600020905b815481529060010190602001808311610d8357829003601f168201915b50505050508152602001600282018054610db990611c1a565b80601f0160208091040260200160405190810160405280929190818152602001828054610de590611c1a565b8015610e325780601f10610e0757610100808354040283529160200191610e32565b820191906000526020600020905b815481529060010190602001808311610e1557829003601f168201915b5050509183525050600382015460208083019190915260048084015460408085019190915260058501546060850152600685015460808086019190915260079095015460ff808216151560a08088019190915261010083048216151560c08801526201000090920416151560e0958601529486018a9052938501889052600192850183905260008a8152908252929092208351815583830151805194955085949193610ee393850192910190611560565b5060408201518051610eff916002840191602090910190611560565b50606082015160038201556080820151600482015560a0820151600582015560c0820151600682015560e08201516007909101805461010080850151610120909501511515620100000262ff00001995151590910261ff001994151560ff19909316929092179390931617929092161790556040517fdf7a1dfb51dd87859a6f44cf9bddb076effbccd933619eec97e64a79fd94d32490610fa2906001906119a7565b60405180910390a15050505050565b600081815260046020526040902060070154819062010000900460ff16610fea5760405162461bcd60e51b81526004016103e490611a0a565b6040516309ea407d60e01b81526000908190819030906309ea407d90611014908890600401611ba4565b60606040518083038186803b15801561102c57600080fd5b505afa158015611040573d6000803e3d6000fd5b505050506040513d601f19601f820116820180604052508101906110649190611740565b9250925092506000831161108a5760405162461bcd60e51b81526004016103e4906119b2565b336108fc8361109a866064611bfb565b6110a49190611bdb565b6110ae9084611bfb565b6040518115909202916000818181858888f193505050501580156110d6573d6000803e3d6000fd5b505050505050565b60008181526004602052604081206007015460609190839062010000900460ff1661111b5760405162461bcd60e51b81526004016103e490611a0a565b60005b60008581526003602052604090205481101561124457600085815260036020526040902080543391908390811061116557634e487b7160e01b600052603260045260246000fd5b60009182526020909120600390910201546001600160a01b031614156112325760008581526003602052604090208054829081106111b357634e487b7160e01b600052603260045260246000fd5b600091825260209182902060408051606081018252600390930290910180546001600160a01b0316835260018101549383019390935260029092015491810191909152845185908590811061121857634e487b7160e01b600052603260045260246000fd5b6020026020010181905250828061122e90611c4f565b9350505b8061123c81611c4f565b91505061111e565b5050915091565b600080546001600160a01b0316331461126357600080fd5b600082815260046020526040902060070154829062010000900460ff1661129c5760405162461bcd60e51b81526004016103e490611a0a565b60006004600085815260200190815260200160002060405180610140016040529081600082015481526020016001820180546112d790611c1a565b80601f016020809104026020016040519081016040528092919081815260200182805461130390611c1a565b80156113505780601f1061132557610100808354040283529160200191611350565b820191906000526020600020905b81548152906001019060200180831161133357829003601f168201915b5050505050815260200160028201805461136990611c1a565b80601f016020809104026020016040519081016040528092919081815260200182805461139590611c1a565b80156113e25780601f106113b7576101008083540402835291602001916113e2565b820191906000526020600020905b8154815290600101906020018083116113c557829003601f168201915b5050509183525050600382015460208201526004820154604082015260058201546060820152600682015460808083019190915260079092015460ff808216151560a08085019190915261010083048216151560c08501526201000090920416151560e0909201919091528201519082015191925010156114675760019250506105e2565b80608001518160a0015111156114815760029250506105e2565b60009250506105e2565b60008060005b845181101561155757838582815181106114bb57634e487b7160e01b600052603260045260246000fd5b602002602001015160400151141561150b578481815181106114ed57634e487b7160e01b600052603260045260246000fd5b602002602001015160200151836115049190611bc3565b9250611545565b84818151811061152b57634e487b7160e01b600052603260045260246000fd5b602002602001015160200151826115429190611bc3565b91505b8061154f81611c4f565b915050611491565b505b9250929050565b82805461156c90611c1a565b90600052602060002090601f01602090048101928261158e57600085556115d4565b82601f106115a757805160ff19168380011785556115d4565b828001600101855582156115d4579182015b828111156115d45782518255916020019190600101906115b9565b506115e092915061163d565b5090565b604051806101400160405280600081526020016060815260200160608152602001600081526020016000815260200160008152602001600081526020016000151581526020016000151581526020016000151581525090565b5b808211156115e0576000815560010161163e565b60008083601f840112611663578182fd5b50813567ffffffffffffffff81111561167a578182fd5b60208301915083602082850101111561155957600080fd5b6000602082840312156116a3578081fd5b5035919050565b6000806000604084860312156116be578182fd5b83359250602084013567ffffffffffffffff8111156116db578283fd5b6116e786828701611652565b9497909650939450505050565b60008060408385031215611706578182fd5b50508035926020909101359150565b600080600060608486031215611729578283fd5b505081359360208301359350604090920135919050565b600080600060608486031215611754578283fd5b8351925060208401519150604084015190509250925092565b600080600080600080600060a0888a031215611787578283fd5b873596506020880135955060408801359450606088013567ffffffffffffffff808211156117b3578485fd5b6117bf8b838c01611652565b909650945060808a01359150808211156117d7578384fd5b506117e48a828b01611652565b989b979a50959850939692959293505050565b15159052565b60008151808452815b8181101561182257602081850181015186830182015201611806565b818111156118335782602083870101525b50601f01601f19169290920160200192915050565b80516001600160a01b0316825260208082015190830152604090810151910152565b60008151835260208201516080602085015261188960808501826117fd565b90506040830151151560408501526060830151151560608501528091505092915050565b6001600160a01b0391909116815260200190565b6020808252825182820181905260009190848201906040850190845b81811015611903576118f0838551611848565b92840192606092909201916001016118dd565b50909695505050505050565b6000602080830181845280855180835260408601915060408482028701019250838701855b8281101561196257603f1988860301845261195085835161186a565b94509285019290850190600101611934565b5092979650505050505050565b6020808252825182820181905260009190848201906040850190845b818110156119035783518352928401929184019160010161198b565b901515815260200190565b6020808252601290820152711b9bc81c1c9bd99a5d1cc81d1bc81cd95b9960721b604082015260600190565b60208082526012908201527113dd5d18dbdb59481a5cc81a5b9d985b1a5960721b604082015260600190565b60208082526014908201527347616d6520646f6573206e6f742065786973747360601b604082015260600190565b6020808252602c908201527f5573657220646f6573206e6f74206861766520626574732072656c617465642060408201526b746f20746869732067616d6560a01b606082015260800190565b60208082526018908201527f67616d652068617320616c726561647920737461727465640000000000000000604082015260600190565b60808101611ac98285611848565b8260608301529392505050565b600060208252611ae9602083018461186a565b9392505050565b600060208252825160208301526020830151610140806040850152611b196101608501836117fd565b91506040850151601f19858403016060860152611b3683826117fd565b92505060608501516080850152608085015160a085015260a085015160c085015260c085015160e085015260e0850151610100611b75818701836117f7565b8601519050610120611b89868201836117f7565b8601519050611b9a858301826117f7565b5090949350505050565b90815260200190565b9283526020830191909152604082015260600190565b60008219821115611bd657611bd6611c6a565b500190565b600082611bf657634e487b7160e01b81526012600452602481fd5b500490565b6000816000190483118215151615611c1557611c15611c6a565b500290565b600281046001821680611c2e57607f821691505b602082108114156105e257634e487b7160e01b600052602260045260246000fd5b6000600019821415611c6357611c63611c6a565b5060010190565b634e487b7160e01b600052601160045260246000fdfea2646970667358221220b495d6ca62b4e93c110dcef445875d3c2beb71ed21fdcc4059e1271d1cfb0c0c64736f6c63430008000033",
    "sourcePath": "/home/kstwa/Documents/SportsOnTheBlock/contracts/BettingContract.sol",
    "compiler": {
        "name": "solc",
        "version": "0.8.0+commit.c7dfd78e"
    },
    "functionHashes": {
        "bet(uint256,uint256)": "6ffcc719",
        "claimProfits(uint256)": "da839c97",
        "getBets(uint256)": "1ccf6955",
        "getCompetitions()": "9f6c0ce3",
        "getGame(uint256)": "a2f77bcc",
        "getGames(uint256)": "9d6aaa7d",
        "getUserProfits(uint256)": "09ea407d",
        "newCompetition(uint256,string)": "081cd7db",
        "newGame(uint256,uint256,uint256,string,string)": "ac96c8c9",
        "owner()": "8da5cb5b",
        "setGameToStarted(uint256)": "6579642b",
        "settleGame(uint256,uint256,uint256)": "c0c090bc"
    },
    "gasEstimates": {
        "creation": {
            "codeDepositCost": "1470000",
            "executionCost": "22396",
            "totalCost": "1492396"
        },
        "external": {
            "bet(uint256,uint256)": "86136",
            "claimProfits(uint256)": "infinite",
            "getBets(uint256)": "infinite",
            "getCompetitions()": "infinite",
            "getGame(uint256)": "infinite",
            "getGames(uint256)": "infinite",
            "getUserProfits(uint256)": "infinite",
            "newCompetition(uint256,string)": "infinite",
            "newGame(uint256,uint256,uint256,string,string)": "infinite",
            "owner()": "1181",
            "setGameToStarted(uint256)": "22024",
            "settleGame(uint256,uint256,uint256)": "infinite"
        },
        "internal": {
            "getSettlementData(struct isCommon.Bet memory[] memory,uint256)": "infinite",
            "getUserBets(uint256)": "infinite",
            "getWinner(uint256)": "infinite"
        }
    }
}