{
    "contractName": "BettingContract",
    "abi": [
        {
            "inputs": [],
            "stateMutability": "nonpayable",
            "type": "constructor"
        },
        {
            "anonymous": false,
            "inputs": [
                {
                    "indexed": false,
                    "internalType": "bool",
                    "name": "",
                    "type": "bool"
                }
            ],
            "name": "GameEnded",
            "type": "event"
        },
        {
            "anonymous": false,
            "inputs": [
                {
                    "indexed": false,
                    "internalType": "bool",
                    "name": "",
                    "type": "bool"
                }
            ],
            "name": "GameStarted",
            "type": "event"
        },
        {
            "anonymous": false,
            "inputs": [
                {
                    "components": [
                        {
                            "internalType": "address",
                            "name": "user",
                            "type": "address"
                        },
                        {
                            "internalType": "uint256",
                            "name": "amount",
                            "type": "uint256"
                        },
                        {
                            "internalType": "uint256",
                            "name": "outcome",
                            "type": "uint256"
                        }
                    ],
                    "indexed": false,
                    "internalType": "struct isCommon.Bet",
                    "name": "",
                    "type": "tuple"
                },
                {
                    "indexed": false,
                    "internalType": "uint256",
                    "name": "",
                    "type": "uint256"
                }
            ],
            "name": "NewBet",
            "type": "event"
        },
        {
            "anonymous": false,
            "inputs": [
                {
                    "indexed": false,
                    "internalType": "uint256",
                    "name": "",
                    "type": "uint256"
                }
            ],
            "name": "NewCompetition",
            "type": "event"
        },
        {
            "anonymous": false,
            "inputs": [
                {
                    "components": [
                        {
                            "internalType": "uint256",
                            "name": "id",
                            "type": "uint256"
                        },
                        {
                            "internalType": "uint256",
                            "name": "start",
                            "type": "uint256"
                        },
                        {
                            "internalType": "uint256",
                            "name": "team1Score",
                            "type": "uint256"
                        },
                        {
                            "internalType": "uint256",
                            "name": "team2Score",
                            "type": "uint256"
                        },
                        {
                            "internalType": "uint256",
                            "name": "winner",
                            "type": "uint256"
                        },
                        {
                            "internalType": "bool",
                            "name": "ended",
                            "type": "bool"
                        },
                        {
                            "internalType": "bool",
                            "name": "started",
                            "type": "bool"
                        },
                        {
                            "internalType": "bool",
                            "name": "exists",
                            "type": "bool"
                        }
                    ],
                    "indexed": false,
                    "internalType": "struct isCommon.Game",
                    "name": "",
                    "type": "tuple"
                }
            ],
            "name": "NewGame",
            "type": "event"
        },
        {
            "inputs": [
                {
                    "internalType": "uint256",
                    "name": "gameId",
                    "type": "uint256"
                },
                {
                    "internalType": "uint256",
                    "name": "outcome",
                    "type": "uint256"
                }
            ],
            "name": "bet",
            "outputs": [],
            "stateMutability": "payable",
            "type": "function"
        },
        {
            "inputs": [
                {
                    "internalType": "uint256",
                    "name": "gameId",
                    "type": "uint256"
                }
            ],
            "name": "claimProfits",
            "outputs": [],
            "stateMutability": "payable",
            "type": "function"
        },
        {
            "inputs": [
                {
                    "internalType": "uint256",
                    "name": "gameId",
                    "type": "uint256"
                }
            ],
            "name": "getBets",
            "outputs": [
                {
                    "components": [
                        {
                            "internalType": "address",
                            "name": "user",
                            "type": "address"
                        },
                        {
                            "internalType": "uint256",
                            "name": "amount",
                            "type": "uint256"
                        },
                        {
                            "internalType": "uint256",
                            "name": "outcome",
                            "type": "uint256"
                        }
                    ],
                    "internalType": "struct isCommon.Bet[]",
                    "name": "bets",
                    "type": "tuple[]"
                }
            ],
            "stateMutability": "view",
            "type": "function"
        },
        {
            "inputs": [],
            "name": "getCompetitions",
            "outputs": [
                {
                    "internalType": "uint256[]",
                    "name": "",
                    "type": "uint256[]"
                }
            ],
            "stateMutability": "view",
            "type": "function"
        },
        {
            "inputs": [
                {
                    "internalType": "uint256",
                    "name": "gameId",
                    "type": "uint256"
                }
            ],
            "name": "getGame",
            "outputs": [
                {
                    "components": [
                        {
                            "internalType": "uint256",
                            "name": "id",
                            "type": "uint256"
                        },
                        {
                            "internalType": "uint256",
                            "name": "start",
                            "type": "uint256"
                        },
                        {
                            "internalType": "uint256",
                            "name": "team1Score",
                            "type": "uint256"
                        },
                        {
                            "internalType": "uint256",
                            "name": "team2Score",
                            "type": "uint256"
                        },
                        {
                            "internalType": "uint256",
                            "name": "winner",
                            "type": "uint256"
                        },
                        {
                            "internalType": "bool",
                            "name": "ended",
                            "type": "bool"
                        },
                        {
                            "internalType": "bool",
                            "name": "started",
                            "type": "bool"
                        },
                        {
                            "internalType": "bool",
                            "name": "exists",
                            "type": "bool"
                        }
                    ],
                    "internalType": "struct isCommon.Game",
                    "name": "game",
                    "type": "tuple"
                }
            ],
            "stateMutability": "view",
            "type": "function"
        },
        {
            "inputs": [
                {
                    "internalType": "uint256",
                    "name": "competitionId",
                    "type": "uint256"
                }
            ],
            "name": "getGames",
            "outputs": [
                {
                    "internalType": "uint256[]",
                    "name": "games",
                    "type": "uint256[]"
                }
            ],
            "stateMutability": "view",
            "type": "function"
        },
        {
            "inputs": [
                {
                    "internalType": "uint256",
                    "name": "gameId",
                    "type": "uint256"
                }
            ],
            "name": "getSettlementData",
            "outputs": [
                {
                    "internalType": "uint256",
                    "name": "_winnerBetsSum",
                    "type": "uint256"
                },
                {
                    "internalType": "uint256",
                    "name": "_loserBetsSum",
                    "type": "uint256"
                },
                {
                    "internalType": "uint256",
                    "name": "userWinnerBetValue",
                    "type": "uint256"
                },
                {
                    "internalType": "uint256",
                    "name": "winner",
                    "type": "uint256"
                }
            ],
            "stateMutability": "view",
            "type": "function"
        },
        {
            "inputs": [
                {
                    "internalType": "uint256",
                    "name": "competitionId",
                    "type": "uint256"
                }
            ],
            "name": "newCompetition",
            "outputs": [],
            "stateMutability": "nonpayable",
            "type": "function"
        },
        {
            "inputs": [
                {
                    "internalType": "uint256",
                    "name": "gameId",
                    "type": "uint256"
                },
                {
                    "internalType": "uint256",
                    "name": "competitionId",
                    "type": "uint256"
                },
                {
                    "internalType": "uint256",
                    "name": "start",
                    "type": "uint256"
                }
            ],
            "name": "newGame",
            "outputs": [],
            "stateMutability": "nonpayable",
            "type": "function"
        },
        {
            "inputs": [],
            "name": "owner",
            "outputs": [
                {
                    "internalType": "address",
                    "name": "",
                    "type": "address"
                }
            ],
            "stateMutability": "view",
            "type": "function"
        },
        {
            "inputs": [
                {
                    "internalType": "uint256",
                    "name": "gameId",
                    "type": "uint256"
                }
            ],
            "name": "setGameToStarted",
            "outputs": [],
            "stateMutability": "nonpayable",
            "type": "function"
        },
        {
            "inputs": [
                {
                    "internalType": "uint256",
                    "name": "gameId",
                    "type": "uint256"
                },
                {
                    "internalType": "uint256",
                    "name": "team1Score",
                    "type": "uint256"
                },
                {
                    "internalType": "uint256",
                    "name": "team2Score",
                    "type": "uint256"
                }
            ],
            "name": "settleGame",
            "outputs": [],
            "stateMutability": "nonpayable",
            "type": "function"
        }
    ],
    "bytecode": "608060405234801561001057600080fd5b50600080546001600160a01b0319908116339081179091161790556113488061003a6000396000f3fe6080604052600436106100a75760003560e01c80639d6aaa7d116100645780639d6aaa7d146101795780639f6c0ce3146101a6578063a2f77bcc146101bb578063c0c090bc146101e8578063da839c9714610208578063ee1c113b1461021b576100a7565b80631ccf6955146100ac57806330852db8146100e25780636579642b146101045780636ffcc719146101245780638da5cb5b1461013757806398d079a714610159575b600080fd5b3480156100b857600080fd5b506100cc6100c7366004610f68565b61024b565b6040516100d99190611037565b60405180910390f35b3480156100ee57600080fd5b506101026100fd366004610fa1565b61031a565b005b34801561011057600080fd5b5061010261011f366004610f68565b6104da565b610102610132366004610f80565b610511565b34801561014357600080fd5b5061014c610654565b6040516100d99190611023565b34801561016557600080fd5b50610102610174366004610f68565b610663565b34801561018557600080fd5b50610199610194366004610f68565b610763565b6040516100d99190611085565b3480156101b257600080fd5b506101996107c5565b3480156101c757600080fd5b506101db6101d6366004610f68565b61081d565b6040516100d99190611207565b3480156101f457600080fd5b50610102610203366004610fa1565b6108a0565b610102610216366004610f68565b610a94565b34801561022757600080fd5b5061023b610236366004610f68565b610ba3565b6040516100d9949392919061126f565b600081815260046020526040902060050154606090829062010000900460ff166102905760405162461bcd60e51b815260040161028790611150565b60405180910390fd5b600083815260036020908152604080832080548251818502810185019093528083529193909284015b8282101561030e576000848152602090819020604080516060810182526003860290920180546001600160a01b03168352600180820154848601526002909101549183019190915290835290920191016102b9565b50505050915050919050565b600083815260046020526040902060050154839062010000900460ff16156103545760405162461bcd60e51b815260040161028790611122565b6000546001600160a01b0316331461036b57600080fd5b60006040518061010001604052808681526020018481526020016000815260200160008152602001600081526020016000151581526020016000151581526020016001151581525090508060046000878152602001908152602001600020600082015181600001556020820151816001015560408201518160020155606082015181600301556080820151816004015560a08201518160050160006101000a81548160ff02191690831515021790555060c08201518160050160016101000a81548160ff02191690831515021790555060e08201518160050160026101000a81548160ff02191690831515021790555090505060026000858152602001908152602001600020816000015190806001815401808255809150506001900390600052602060002001600090919091909150557f4439a997f3be8260f2dd61f048bda634006130103c6bc88e34705c5524d0db95816040516104cb9190611207565b60405180910390a15050505050565b6000546001600160a01b031633146104f157600080fd5b6000908152600460205260409020600501805461ff001916610100179055565b600082815260046020526040902060050154829062010000900460ff1661054a5760405162461bcd60e51b815260040161028790611150565b81600281111561056c5760405162461bcd60e51b8152600401610287906110f6565b6000848152600460205260409020600501548490610100900460ff16156105a55760405162461bcd60e51b8152600401610287906111b5565b6040805160608101825233815234602080830191825282840188815260008a81526003808452868220805460018082018355918452949092208651949091020180546001600160a01b0319166001600160a01b03909416939093178355925192820192909255905160029091015590517f49497e006b29902259c7a439a9fa5011c00afe0e0aa37e810333db207adcefb09061064490839089906111ec565b60405180910390a1505050505050565b6000546001600160a01b031681565b806000805b6001548110156106bc57826001828154811061069457634e487b7160e01b600052603260045260246000fd5b906000526020600020015414156106aa57600191505b806106b4816112e1565b915050610668565b5080156106db5760405162461bcd60e51b81526004016102879061117e565b6000546001600160a01b031633146106f257600080fd5b6001805480820182556000919091527fb10e2d527612073b26eecdfd717e6a320cf44b4afac2b0732d9fcbe2b7fa0cf6018390556040517f9edc9bae9b3983d36dfb38fff741c45440f54213c4782f68a10a50cc5d753c7c90610756908590611266565b60405180910390a1505050565b6000818152600260209081526040918290208054835181840281018401909452808452606093928301828280156107b957602002820191906000526020600020905b8154815260200190600101908083116107a5575b50505050509050919050565b6060600180548060200260200160405190810160405280929190818152602001828054801561081357602002820191906000526020600020905b8154815260200190600101908083116107ff575b5050505050905090565b610825610f1d565b5060009081526004602081815260409283902083516101008082018652825482526001830154938201939093526002820154948101949094526003810154606085015291820154608084015260059091015460ff808216151560a08501529181048216151560c084015262010000900416151560e082015290565b600083815260046020526040902060050154839062010000900460ff166108d95760405162461bcd60e51b815260040161028790611150565b6000546001600160a01b031633146108f057600080fd5b6000600460008681526020019081526020016000206040518061010001604052908160008201548152602001600182015481526020016002820154815260200160038201548152602001600482015481526020016005820160009054906101000a900460ff161515151581526020016005820160019054906101000a900460ff161515151581526020016005820160029054906101000a900460ff1615151515815250509050838160400181815250508281606001818152505060018160a00190151590811515815250508060046000878152602001908152602001600020600082015181600001556020820151816001015560408201518160020155606082015181600301556080820151816004015560a08201518160050160006101000a81548160ff02191690831515021790555060c08201518160050160016101000a81548160ff02191690831515021790555060e08201518160050160026101000a81548160ff0219169083151502179055509050507fdf7a1dfb51dd87859a6f44cf9bddb076effbccd933619eec97e64a79fd94d32460016040516104cb91906110bd565b600081815260046020526040902060050154819062010000900460ff16610acd5760405162461bcd60e51b815260040161028790611150565b60405163ee1c113b60e01b815260009081908190309063ee1c113b90610af7908890600401611266565b60806040518083038186803b158015610b0f57600080fd5b505afa158015610b23573d6000803e3d6000fd5b505050506040513d601f19601f82011682018060405250810190610b479190610fcc565b5091945092509050336108fc84610b5f8460646112c2565b610b6991906112a2565b610b7390856112c2565b6040518115909202916000818181858888f19350505050158015610b9b573d6000803e3d6000fd5b505050505050565b600081815260046020526040812060050154819081908190859062010000900460ff16610be25760405162461bcd60e51b815260040161028790611150565b600086815260046020526040902060050154869060ff161515600114610c1a5760405162461bcd60e51b8152600401610287906110c8565b610c2387610de2565b925060005b600088815260036020526040902054811015610dd8576000888152600360205260409020805485919083908110610c6f57634e487b7160e01b600052603260045260246000fd5b9060005260206000209060030201600201541415610d78576000888152600360205260409020805482908110610cb557634e487b7160e01b600052603260045260246000fd5b90600052602060002090600302016001015487610cd2919061128a565b600089815260036020526040902080549198509082908110610d0457634e487b7160e01b600052603260045260246000fd5b60009182526020909120600390910201546001600160a01b0316331415610d73576000888152600360205260409020805482908110610d5357634e487b7160e01b600052603260045260246000fd5b90600052602060002090600302016001015485610d70919061128a565b94505b610dc6565b6000888152600360205260409020805482908110610da657634e487b7160e01b600052603260045260246000fd5b90600052602060002090600302016001015486610dc3919061128a565b95505b80610dd0816112e1565b915050610c28565b5050509193509193565b600080546001600160a01b03163314610dfa57600080fd5b600082815260046020526040902060050154829062010000900460ff16610e335760405162461bcd60e51b815260040161028790611150565b600083815260046020526040902060050154839060ff161515600114610e6b5760405162461bcd60e51b8152600401610287906110c8565b6000848152600460208181526040928390208351610100808201865282548252600183015493820193909352600282015494810185905260038201546060820181905293820154608082015260059091015460ff808216151560a08401529281048316151560c0830152620100009004909116151560e0820152911115610ef6576001935050610f16565b806040015181606001511115610f10576002935050610f16565b60009350505b5050919050565b60405180610100016040528060008152602001600081526020016000815260200160008152602001600081526020016000151581526020016000151581526020016000151581525090565b600060208284031215610f79578081fd5b5035919050565b60008060408385031215610f92578081fd5b50508035926020909101359150565b600080600060608486031215610fb5578081fd5b505081359360208301359350604090920135919050565b60008060008060808587031215610fe1578081fd5b505082516020840151604085015160609095015191969095509092509050565b80516001600160a01b0316825260208082015190830152604090810151910152565b6001600160a01b0391909116815260200190565b6020808252825182820181905260009190848201906040850190845b8181101561107957611066838551611001565b9284019260609290920191600101611053565b50909695505050505050565b6020808252825182820181905260009190848201906040850190845b81811015611079578351835292840192918401916001016110a1565b901515815260200190565b60208082526014908201527319d85b59481b5d5cdd081a185d9948195b99195960621b604082015260600190565b60208082526012908201527113dd5d18dbdb59481a5cc81a5b9d985b1a5960721b604082015260600190565b60208082526014908201527347616d6520616c6572656164792065786973747360601b604082015260600190565b60208082526014908201527347616d6520646f6573206e6f742065786973747360601b604082015260600190565b6020808252601a908201527f636f6d7065746974696f6e20616c726561647920657869737473000000000000604082015260600190565b60208082526018908201527f67616d652068617320616c726561647920737461727465640000000000000000604082015260600190565b608081016111fa8285611001565b8260608301529392505050565b600061010082019050825182526020830151602083015260408301516040830152606083015160608301526080830151608083015260a0830151151560a083015260c0830151151560c083015260e0830151151560e083015292915050565b90815260200190565b93845260208401929092526040830152606082015260800190565b6000821982111561129d5761129d6112fc565b500190565b6000826112bd57634e487b7160e01b81526012600452602481fd5b500490565b60008160001904831182151516156112dc576112dc6112fc565b500290565b60006000198214156112f5576112f56112fc565b5060010190565b634e487b7160e01b600052601160045260246000fdfea26469706673582212205519ad0ca676dd0b744b4fca54e03ca9685ea2fc0a72872c0b04f84a90f624ce64736f6c63430008000033",
    "sourcePath": "/home/kstwa/Documents/SportsOnTheBlock/contracts/BettingContract.sol",
    "compiler": {
        "name": "solc",
        "version": "0.8.0+commit.c7dfd78e"
    },
    "functionHashes": {
        "bet(uint256,uint256)": "6ffcc719",
        "claimProfits(uint256)": "da839c97",
        "getBets(uint256)": "1ccf6955",
        "getCompetitions()": "9f6c0ce3",
        "getGame(uint256)": "a2f77bcc",
        "getGames(uint256)": "9d6aaa7d",
        "getSettlementData(uint256)": "ee1c113b",
        "newCompetition(uint256)": "98d079a7",
        "newGame(uint256,uint256,uint256)": "30852db8",
        "owner()": "8da5cb5b",
        "setGameToStarted(uint256)": "6579642b",
        "settleGame(uint256,uint256,uint256)": "c0c090bc"
    },
    "gasEstimates": {
        "creation": {
            "codeDepositCost": "987200",
            "executionCost": "21886",
            "totalCost": "1009086"
        },
        "external": {
            "bet(uint256,uint256)": "86114",
            "claimProfits(uint256)": "infinite",
            "getBets(uint256)": "infinite",
            "getCompetitions()": "infinite",
            "getGame(uint256)": "5935",
            "getGames(uint256)": "infinite",
            "getSettlementData(uint256)": "infinite",
            "newCompetition(uint256)": "infinite",
            "newGame(uint256,uint256,uint256)": "164307",
            "owner()": "1159",
            "setGameToStarted(uint256)": "22002",
            "settleGame(uint256,uint256,uint256)": "173176"
        },
        "internal": {
            "getWinner(uint256)": "infinite"
        }
    }
}