{
    "contractName": "CompetitionContract",
    "abi": [
        {
            "inputs": [
                {
                    "internalType": "string",
                    "name": "_name",
                    "type": "string"
                },
                {
                    "internalType": "address",
                    "name": "_admin",
                    "type": "address"
                }
            ],
            "payable": false,
            "stateMutability": "nonpayable",
            "type": "constructor"
        },
        {
            "anonymous": false,
            "inputs": [
                {
                    "indexed": false,
                    "internalType": "contract GameContract",
                    "name": "",
                    "type": "address"
                }
            ],
            "name": "NewGameContract",
            "type": "event"
        },
        {
            "constant": false,
            "inputs": [
                {
                    "internalType": "string",
                    "name": "teamAName",
                    "type": "string"
                },
                {
                    "internalType": "string",
                    "name": "teamBName",
                    "type": "string"
                },
                {
                    "internalType": "uint256",
                    "name": "_start",
                    "type": "uint256"
                }
            ],
            "name": "createGame",
            "outputs": [],
            "payable": false,
            "stateMutability": "nonpayable",
            "type": "function"
        },
        {
            "constant": true,
            "inputs": [],
            "name": "getAdmin",
            "outputs": [
                {
                    "internalType": "address",
                    "name": "",
                    "type": "address"
                }
            ],
            "payable": false,
            "stateMutability": "view",
            "type": "function"
        },
        {
            "constant": true,
            "inputs": [],
            "name": "getGamesAdresses",
            "outputs": [
                {
                    "internalType": "contract GameContract[]",
                    "name": "",
                    "type": "address[]"
                }
            ],
            "payable": false,
            "stateMutability": "view",
            "type": "function"
        },
        {
            "constant": true,
            "inputs": [],
            "name": "getName",
            "outputs": [
                {
                    "internalType": "string",
                    "name": "",
                    "type": "string"
                }
            ],
            "payable": false,
            "stateMutability": "view",
            "type": "function"
        }
    ],
    "bytecode": "60806040523480156200001157600080fd5b5060405162002c4d38038062002c4d833981016040819052620000349162000181565b600280546001600160a01b0319166001600160a01b0383161790558151620000649060009060208501906200006d565b50505062000285565b828054600181600116156101000203166002900490600052602060002090601f016020900481019282601f10620000b057805160ff1916838001178555620000e0565b82800160010185558215620000e0579182015b82811115620000e0578251825591602001919060010190620000c3565b50620000ee929150620000f2565b5090565b6200010f91905b80821115620000ee5760008155600101620000f9565b90565b80516200011f816200026b565b92915050565b600082601f8301126200013757600080fd5b81516200014e6200014882620001fe565b620001d7565b915080825260208301602083018583830111156200016b57600080fd5b6200017883828462000238565b50505092915050565b600080604083850312156200019557600080fd5b82516001600160401b03811115620001ac57600080fd5b620001ba8582860162000125565b9250506020620001cd8582860162000112565b9150509250929050565b6040518181016001600160401b0381118282101715620001f657600080fd5b604052919050565b60006001600160401b038211156200021557600080fd5b506020601f91909101601f19160190565b60006001600160a01b0382166200011f565b60005b83811015620002555781810151838201526020016200023b565b8381111562000265576000848401525b50505050565b620002768162000226565b81146200028257600080fd5b50565b6129b880620002956000396000f3fe60806040523480156200001157600080fd5b5060043610620000525760003560e01c806317d7de7c14620000575780636e9960c3146200007957806391898efd1462000092578063b90e114114620000ab575b600080fd5b62000061620000c4565b60405162000070919062000627565b60405180910390f35b6200008362000191565b60405162000070919062000597565b620000a9620000a3366004620003ae565b620001a0565b005b620000b5620002b0565b604051620000709190620005a7565b6002546060906001600160a01b03163314620000fd5760405162461bcd60e51b8152600401620000f4906200063a565b60405180910390fd5b6000805460408051602060026001851615610100026000190190941693909304601f81018490048402820184019092528181529291830182828015620001875780601f106200015b5761010080835404028352916020019162000187565b820191906000526020600020905b8154815290600101906020018083116200016957829003601f168201915b5050505050905090565b6002546001600160a01b031690565b6002546001600160a01b03163314620001cd5760405162461bcd60e51b8152600401620000f4906200063a565b6000620001d962000191565b90506000868686868686604051620001f19062000341565b6200020296959493929190620005d1565b604051809103906000f0801580156200021f573d6000803e3d6000fd5b506001805480820182556000919091527fb10e2d527612073b26eecdfd717e6a320cf44b4afac2b0732d9fcbe2b7fa0cf60180546001600160a01b0319166001600160a01b0383161790556040519091507f7b4f10014c23ea33ab4f8cc59c583fa422eca3392c456380a9e6a52be139f407906200029f908390620005c1565b60405180910390a150505050505050565b6002546060906001600160a01b03163314620002e05760405162461bcd60e51b8152600401620000f4906200063a565b60018054806020026020016040519081016040528092919081815260200182805480156200018757602002820191906000526020600020905b81546001600160a01b0316815260019091019060200180831162000319575050505050905090565b61229180620006e583390190565b60008083601f8401126200036257600080fd5b50813567ffffffffffffffff8111156200037b57600080fd5b6020830191508360018202830111156200039457600080fd5b9250929050565b8035620003a881620006ca565b92915050565b600080600080600060608688031215620003c757600080fd5b853567ffffffffffffffff811115620003df57600080fd5b620003ed888289016200034f565b9550955050602086013567ffffffffffffffff8111156200040d57600080fd5b6200041b888289016200034f565b9350935050604062000430888289016200039b565b9150509295509295909350565b60006200044b8383620004c9565b505060200190565b6200045e816200065f565b82525050565b6000620004718262000652565b6200047d818562000656565b93506200048a836200064c565b8060005b83811015620004be578151620004a588826200043d565b9750620004b2836200064c565b9250506001016200048e565b509495945050505050565b6200045e8162000674565b6000620004e2838562000656565b9350620004f183858462000681565b620004fc83620006c0565b9093019392505050565b6000620005138262000652565b6200051f818562000656565b9350620005318185602086016200068d565b620004fc81620006c0565b60006200054b602c8362000656565b7f596f75206e6565642061646d696e2072696768747320746f20706572666f726d81526b103a3434b99030b1ba34b7b760a11b602082015260400192915050565b6200045e8162000671565b60208101620003a8828462000453565b60208082528101620005ba818462000464565b9392505050565b60208101620003a88284620004c9565b60808082528101620005e581888a620004d4565b90508181036020830152620005fc818688620004d4565b90506200060d60408301856200058c565b6200061c606083018462000453565b979650505050505050565b60208082528101620005ba818462000506565b60208082528101620003a8816200053c565b60200190565b5190565b90815260200190565b60006001600160a01b038216620003a8565b90565b6000620003a8826200065f565b82818337506000910152565b60005b83811015620006aa57818101518382015260200162000690565b83811115620006ba576000848401525b50505050565b601f01601f191690565b620006d58162000671565b8114620006e157600080fd5b5056fe60806040523480156200001157600080fd5b5060405162002291380380620022918339810160408190526200003491620002d0565b60008054610100600160a81b0319166101006001600160a01b0384160217815560408051808201909152858152602080820192909252855190916003916200008291839190890190620001a4565b50602091820151600191909101805463ffffffff191663ffffffff9092169190911790556040805180820190915284815260008183015284519091600591620000d191839190880190620001a4565b50602091909101516001918201805463ffffffff191663ffffffff9092169190911790558281556000805460ff60a81b1916600160a81b8302179055506000620001236001600160e01b036200018f16565b905060003082604051620001379062000229565b620001449291906200037a565b604051809103906000f08015801562000161573d6000803e3d6000fd5b50600280546001600160a01b0319166001600160a01b03929092169190911790555062000459945050505050565b60005461010090046001600160a01b03165b90565b828054600181600116156101000203166002900490600052602060002090601f016020900481019282601f10620001e757805160ff191683800117855562000217565b8280016001018555821562000217579182015b8281111562000217578251825591602001919060010190620001fa565b506200022592915062000237565b5090565b6111b780620010da83390190565b620001a191905b808211156200022557600081556001016200023e565b8051620002618162000434565b92915050565b600082601f8301126200027957600080fd5b8151620002906200028a82620003c7565b620003a0565b91508082526020830160208301858383011115620002ad57600080fd5b620002ba83828462000401565b50505092915050565b805162000261816200044e565b60008060008060808587031215620002e757600080fd5b84516001600160401b03811115620002fe57600080fd5b6200030c8782880162000267565b94505060208501516001600160401b038111156200032957600080fd5b620003378782880162000267565b93505060406200034a87828801620002c3565b92505060606200035d8782880162000254565b91505092959194509250565b6200037481620003ef565b82525050565b604081016200038a828562000369565b62000399602083018462000369565b9392505050565b6040518181016001600160401b0381118282101715620003bf57600080fd5b604052919050565b60006001600160401b03821115620003de57600080fd5b506020601f91909101601f19160190565b60006001600160a01b03821662000261565b60005b838110156200041e57818101518382015260200162000404565b838111156200042e576000848401525b50505050565b6200043f81620003ef565b81146200044b57600080fd5b50565b6200043f81620001a1565b610c7180620004696000396000f3fe608060405234801561001057600080fd5b506004361061009e5760003560e01c8063777628201161006657806377762820146100fb5780637e7e4b4714610103578063886e343714610118578063b7d0628b14610120578063c5292c67146101285761009e565b80634d1c9241146100a35780636046d29c146100b8578063665d5a70146100d65780636e9960c3146100eb57806372374eac146100f3575b600080fd5b6100b66100b13660046107a6565b61013d565b005b6100c0610293565b6040516100cd9190610b0e565b60405180910390f35b6100de61034e565b6040516100cd9190610aa9565b6100de61035d565b6100c0610371565b6100b66103e0565b61010b6105f6565b6040516100cd9190610ac5565b6100b661060b565b61010b610679565b610130610689565b6040516100cd9190610b30565b60005461010090046001600160a01b031633146101755760405162461bcd60e51b815260040161016c90610afe565b60405180910390fd5b8282604051610185929190610a89565b6040519081900381209061019b90600390610a96565b604051809103902014156101fc576004805463ffffffff191663ffffffff83161790556040517fe6d464df9d910b9846254c10eff03706981866b31a34cbc4331c4463de3b36c0906101ef90600390610b1f565b60405180910390a161028e565b828260405161020c929190610a89565b6040519081900381209061022290600590610a96565b60405180910390201415610276576006805463ffffffff191663ffffffff83161790556040517fe6d464df9d910b9846254c10eff03706981866b31a34cbc4331c4463de3b36c0906101ef90600590610b1f565b60405162461bcd60e51b815260040161016c90610aee565b505050565b61029b610703565b604080516005805460606020601f60026000196101006001871615020190941693909304928301819004028401810185529383018181529293919284929091849184018282801561032d5780601f106103025761010080835404028352916020019161032d565b820191906000526020600020905b81548152906001019060200180831161031057829003601f168201915b50505091835250506001919091015463ffffffff1660209091015290505b90565b6002546001600160a01b031690565b60005461010090046001600160a01b031690565b610379610703565b604080516003805460606020601f60026000196101006001871615020190941693909304928301819004028401810185529383018181529293919284929091849184018282801561032d5780601f106103025761010080835404028352916020019161032d565b60005461010090046001600160a01b0316331461040f5760405162461bcd60e51b815260040161016c90610afe565b6000805460ff60a81b1916600160a91b17905561042a61068f565b6000805460ff1916600183600281111561044057fe5b02179055506002546040516339f8ac0360e01b81526001600160a01b039091169081906339f8ac0390610477903390600401610ab7565b602060405180830381600087803b15801561049157600080fd5b505af11580156104a5573d6000803e3d6000fd5b505050506040513d601f19601f820116820180604052506104c99190810190610780565b5060005460405163108196a160e21b81526001600160a01b038316916342065a84916104fd9160ff16903390600401610ad3565b600060405180830381600087803b15801561051757600080fd5b505af115801561052b573d6000803e3d6000fd5b5050604051639d98b68160e01b81526001600160a01b0384169250639d98b681915061055b903390600401610ab7565b602060405180830381600087803b15801561057557600080fd5b505af1158015610589573d6000803e3d6000fd5b505050506040513d601f19601f820116820180604052506105ad9190810190610780565b507ea8b06dd72552dea96e97c9a96acf39a1908ada44765cefe367620485b2c7e1600060159054906101000a900460ff166040516105eb9190610ac5565b60405180910390a150565b600061060061068f565b505060005460ff1690565b60005461010090046001600160a01b0316331461063a5760405162461bcd60e51b815260040161016c90610afe565b6000805460ff60a81b19169055600254604051631408ffa560e21b81526001600160a01b03909116908190635023fe949061055b903390600401610ab7565b600054600160a81b900460ff1690565b60015490565b6000805461010090046001600160a01b031633146106bf5760405162461bcd60e51b815260040161016c90610afe565b60065460045463ffffffff918216911611156106dd5750600061034b565b60045460065463ffffffff918216911611156106fb5750600161034b565b50600261034b565b60408051808201909152606081526000602082015290565b805161072681610c0d565b92915050565b60008083601f84011261073e57600080fd5b50813567ffffffffffffffff81111561075657600080fd5b60208301915083600182028301111561076e57600080fd5b9250929050565b803561072681610c1a565b60006020828403121561079257600080fd5b600061079e848461071b565b949350505050565b6000806000604084860312156107bb57600080fd5b833567ffffffffffffffff8111156107d257600080fd5b6107de8682870161072c565b935093505060206107f186828701610775565b9150509250925092565b61080481610b86565b82525050565b61080481610b65565b600061081f8385610b4e565b935061082c838584610ba7565b50500190565b60008154600181166000811461084f5760018114610872576108b1565b607f60028304166108608187610b4e565b60ff19841681529550850192506108b1565b600282046108808187610b4e565b955061088b85610b3e565b60005b828110156108aa5781548882015260019091019060200161088e565b5050850192505b505092915050565b61080481610b91565b60006108cd82610b4a565b6108d78185610b53565b93506108e7818560208601610bb3565b6108f081610bf6565b9093019392505050565b600081546001811660008114610917576001811461093d576108b1565b607f60028304166109288187610b53565b60ff19841681529550506020850192506108b1565b6002820461094b8187610b53565b955061095685610b3e565b60005b8281101561097557815488820152600190910190602001610959565b9096019695505050505050565b600061098f601683610b53565b751519585b481b985b59481a5cc81b9bdd081d985b1a5960521b815260200192915050565b60006109c1602c83610b53565b7f596f75206e6565642061646d696e2072696768747320746f20706572666f726d81526b103a3434b99030b1ba34b7b760a11b602082015260400192915050565b8051604080845260009190840190610a1a82826108c2565b9150506020830151610a2f6020860182610a80565b509392505050565b604080835260009083018183610a4d83826108fa565b92505060018401549050610a6081610be3565b610a6d6020870182610a80565b5090949350505050565b6108048161034b565b61080481610b5c565b600061079e828486610813565b6000610aa28284610832565b9392505050565b60208101610726828461080a565b6020810161072682846107fb565b6020810161072682846108b9565b60408101610ae182856108b9565b610aa260208301846107fb565b6020808252810161072681610982565b60208082528101610726816109b4565b60208082528101610aa28184610a02565b60208082528101610aa28184610a37565b602081016107268284610a77565b60009081526020902090565b5190565b919050565b90815260200190565b63ffffffff1690565b600061072682610b7a565b80610b4e81610c00565b6001600160a01b031690565b600061072682610b9c565b600061072682610b70565b600061072682610b65565b82818337506000910152565b60005b83811015610bce578181015183820152602001610bb6565b83811115610bdd576000848401525b50505050565b6000610726610bf18361034b565b610b5c565b601f01601f191690565b60038110610c0a57fe5b50565b60048110610c0a57600080fd5b610c2381610b5c565b8114610c0a57600080fdfea365627a7a723158206b795cbc98099f2e972dacc4fb95b3a4fbbed069c367b4d7522028560f480c3e6c6578706572696d656e74616cf564736f6c6343000510004060806040526000600455600060055560006006553480156200002057600080fd5b50604051620011b7380380620011b783398101604081905262000043916200009f565b60008054600180546001600160a01b0319166001600160a01b03958616179055610100600160a81b03191661010092909316919091029190911760ff60a81b191690556200010a565b80516200009981620000f0565b92915050565b60008060408385031215620000b357600080fd5b6000620000c185856200008c565b9250506020620000d4858286016200008c565b9150509250929050565b60006001600160a01b03821662000099565b620000fb81620000de565b81146200010757600080fd5b50565b61109d806200011a6000396000f3fe6080604052600436106100fe5760003560e01c80637956d37511610095578063adba163b11610064578063adba163b14610236578063b3f92e081461024b578063d03b785314610260578063dadf76c514610275578063f70e6a231461028a576100fe565b80637956d375146101e45780637cba277f146101f95780637d6246761461020e5780639d98b68114610216576100fe565b80635023fe94116100d15780635023fe941461018557806363466cd0146101a55780636e9960c3146101ad57806373c87843146101cf576100fe565b806339a3e4951461010357806339f8ac031461010d57806342065a84146101435780634893a16e14610163575b600080fd5b61010b61029f565b005b34801561011957600080fd5b5061012d610128366004610d45565b610487565b60405161013a9190610f7b565b60405180910390f35b34801561014f57600080fd5b5061010b61015e366004610d6b565b6104e9565b34801561016f57600080fd5b5061017861064e565b60405161013a9190610fc7565b34801561019157600080fd5b5061012d6101a0366004610d45565b610672565b61010b6106bf565b3480156101b957600080fd5b506101c26107bf565b60405161013a9190610f6d565b3480156101db57600080fd5b506101786107d3565b3480156101f057600080fd5b5061012d6107d9565b34801561020557600080fd5b506101786107e9565b61010b6107ef565b34801561022257600080fd5b5061012d610231366004610d45565b6108ef565b34801561024257600080fd5b5061017861093c565b34801561025757600080fd5b5061017861094c565b34801561026c57600080fd5b5061017861095c565b34801561028157600080fd5b50610178610962565b34801561029657600080fd5b50610178610966565b60008054600160a81b900460ff1660038111156102b857fe5b146102de5760405162461bcd60e51b81526004016102d590610fa9565b60405180910390fd5b6102e6610d07565b5060408051606081018252600081523460208201523381830152905160039061030e90610f4c565b9081526040516020918190038201902080546001808201808455600093845293909220845160039092020180548593919291839160ff19169083600281111561035357fe5b02179055506020820151600182810191909155604092830151600290920180546001600160a01b0319166001600160a01b0390931692909217909155600580549091019055513491506007906103a890610f4c565b908152604051908190036020019020805490910190556002805460018181018084556000849052845160039093027f405787fa12a823e0f2b7631cc41b3ba8828b3321ca811111fa75cd3aa3bb5ace0180549194869491939192849260ff1990911691849081111561041657fe5b021790555060208201516001820155604091820151600290910180546001600160a01b0319166001600160a01b03909216919091179055517fd4b76bd808a2ad094a96fd435f55a233dd5e0bc27ed6cd078568bb0759290106915061047c908390610fb9565b60405180910390a150565b600080546001600160a01b0383811661010090920416146104ba5760405162461bcd60e51b81526004016102d590610f89565b600080546002919060ff60a81b1916600160a81b835b021790555050600054600160a81b900460ff165b919050565b6000546001600160a01b03828116610100909204161461051b5760405162461bcd60e51b81526004016102d590610f89565b6002600054600160a81b900460ff16600381111561053557fe5b146105525760405162461bcd60e51b81526004016102d590610f99565b606060008060006105628661096c565b935093509350935060005b838110156105ee5761057d610d07565b85828151811061058957fe5b6020026020010151905060006105a482602001518587610ce9565b905081604001516001600160a01b03166108fc829081150290604051600060405180830381858888f193505050501580156105e3573d6000803e3d6000fd5b50505060010161056d565b506000805460ff60a81b1916600360a81b17908190556040517fb788f159f71f900499e53244a7e18c381d9fee90ce0d48d4363aaee5589b0c509161063e91600160a81b90910460ff1690610f7b565b60405180910390a1505050505050565b6000600760405161065e90610f4c565b908152602001604051809103902054905090565b600080546001600160a01b0383811661010090920416146106a55760405162461bcd60e51b81526004016102d590610f89565b600080546001919060ff60a81b1916600160a81b836104d0565b60008054600160a81b900460ff1660038111156106d857fe5b146106f55760405162461bcd60e51b81526004016102d590610fa9565b6106fd610d07565b5060408051606081018252600181523460208201523381830152905160039061072590610f57565b9081526040516020918190038201902080546001808201808455600093845293909220845160039092020180548593919291839160ff19169083600281111561076a57fe5b02179055506020820151600182810191909155604092830151600290920180546001600160a01b0319166001600160a01b0390931692909217909155600480549091019055513491506007906103a890610f57565b60005461010090046001600160a01b031690565b60025490565b600054600160a81b900460ff1690565b60055490565b60008054600160a81b900460ff16600381111561080857fe5b146108255760405162461bcd60e51b81526004016102d590610fa9565b61082d610d07565b5060408051606081018252600281523460208201523381830152905160039061085590610f62565b9081526040516020918190038201902080546001808201808455600093845293909220845160039092020180548593919291839160ff19169083600281111561089a57fe5b02179055506020820151600182810191909155604092830151600290920180546001600160a01b0319166001600160a01b0390931692909217909155600680549091019055513491506007906103a890610f62565b600080546001600160a01b0383811661010090920416146109225760405162461bcd60e51b81526004016102d590610f89565b600080546003919060ff60a81b1916600160a81b836104d0565b6000600760405161065e90610f57565b6000600760405161065e90610f62565b60065490565b4790565b60045490565b606060008080838180808089600281111561098357fe5b1415610aa657600360405161099790610f4c565b9081526020016040518091039020805480602002602001604051908101604052809291908181526020016000905b82821015610a3a576000848152602090206040805160608101909152600384029091018054829060ff1660028111156109fa57fe5b6002811115610a0557fe5b81526001828101546020808401919091526002909301546001600160a01b0316604090920191909152918352920191016109c5565b50505050935060055492506007604051610a5390610f4c565b90815260200160405180910390205490506007604051610a7290610f62565b9081526020016040518091039020546007604051610a8f90610f57565b908152602001604051809103902054019150610cd9565b6000896002811115610ab457fe5b1415610bc0576003604051610ac890610f57565b9081526020016040518091039020805480602002602001604051908101604052809291908181526020016000905b82821015610b6b576000848152602090206040805160608101909152600384029091018054829060ff166002811115610b2b57fe5b6002811115610b3657fe5b81526001828101546020808401919091526002909301546001600160a01b031660409092019190915291835292019101610af6565b50505050935060045492506007604051610b8490610f57565b90815260200160405180910390205490506007604051610ba390610f62565b9081526020016040518091039020546007604051610a8f90610f4c565b6003604051610bce90610f62565b9081526020016040518091039020805480602002602001604051908101604052809291908181526020016000905b82821015610c71576000848152602090206040805160608101909152600384029091018054829060ff166002811115610c3157fe5b6002811115610c3c57fe5b81526001828101546020808401919091526002909301546001600160a01b031660409092019190915291835292019101610bfc565b50505050935060065492506007604051610c8a90610f62565b90815260200160405180910390205490506007604051610ca990610f57565b9081526020016040518091039020546007604051610cc690610f4c565b9081526020016040518091039020540191505b9298919750919550909350915050565b6000826064808685020481610cfa57fe5b0402840190509392505050565b6040805160608101909152806000815260006020820181905260409091015290565b8035610d3481611039565b92915050565b8035610d348161104d565b600060208284031215610d5757600080fd5b6000610d638484610d29565b949350505050565b60008060408385031215610d7e57600080fd5b6000610d8a8585610d3a565b9250506020610d9b85828601610d29565b9150509250929050565b610dae81610fde565b82525050565b610dae8161100c565b610dae81611017565b6000610dd36001836104e4565b604160f81b815260010192915050565b6000610df06001836104e4565b602160f91b815260010192915050565b6000610e0d602c83610fd5565b7f596f75206e6565642061646d696e2072696768747320746f20706572666f726d81526b103a3434b99030b1ba34b7b760a11b602082015260400192915050565b6000610e5b601783610fd5565b7f626574207374617465206d75737420626520544f504159000000000000000000815260200192915050565b6000610e946004836104e4565b631395531360e21b815260040192915050565b6000610eb4603a83610fd5565b7f47616d652068617320616c726561647920737461727465642c20796f7520636181527f6e206e6f742074616b65206265747320616e79206c6f6e676572000000000000602082015260400192915050565b80516060830190610f178482610dbd565b506020820151610f2a6020850182610f43565b506040820151610f3d6040850182610da5565b50505050565b610dae81611009565b6000610d3482610dc6565b6000610d3482610de3565b6000610d3482610e87565b60208101610d348284610da5565b60208101610d348284610db4565b60208082528101610d3481610e00565b60208082528101610d3481610e4e565b60208082528101610d3481610ea7565b60608101610d348284610f06565b60208101610d348284610f43565b90815260200190565b6000610d3482610ffd565b806104e481611022565b806104e48161102f565b6001600160a01b031690565b90565b6000610d3482610fe9565b6000610d3482610ff3565b6004811061102c57fe5b50565b6003811061102c57fe5b61104281610fde565b811461102c57600080fd5b6003811061102c57600080fdfea365627a7a723158201fdfd7b64c591a4110ebf3900791c45dcecc6e1a0568145b0a1c51dca9dec0066c6578706572696d656e74616cf564736f6c63430005100040a365627a7a72315820ecbd8c3db382209acfdcfff61195ab68dcb86d97670077de35525ce05ce12add6c6578706572696d656e74616cf564736f6c63430005100040",
    "sourcePath": "/home/neurotropik/Documents/PROJECTS/ETHEREUM/SportsOnTheBlock/contracts/CompetitionContract.sol",
    "compiler": {
        "name": "solc",
        "version": "0.5.16+commit.9c3226ce"
    },
    "functionHashes": {
        "createGame(string,string,uint256)": "91898efd",
        "getAdmin()": "6e9960c3",
        "getGamesAdresses()": "b90e1141",
        "getName()": "17d7de7c"
    },
    "gasEstimates": {
        "creation": {
            "codeDepositCost": "2136000",
            "executionCost": "infinite",
            "totalCost": "infinite"
        },
        "external": {
            "createGame(string,string,uint256)": "infinite",
            "getAdmin()": "infinite",
            "getGamesAdresses()": "infinite",
            "getName()": "infinite"
        }
    }
}