{
    "contractName": "Oracle",
    "abi": [
        {
            "inputs": [],
            "stateMutability": "nonpayable",
            "type": "constructor"
        },
        {
            "anonymous": false,
            "inputs": [
                {
                    "components": [
                        {
                            "internalType": "string",
                            "name": "rootUrl",
                            "type": "string"
                        },
                        {
                            "internalType": "string",
                            "name": "paramsToFetch",
                            "type": "string"
                        },
                        {
                            "internalType": "string",
                            "name": "endpoint",
                            "type": "string"
                        },
                        {
                            "internalType": "string",
                            "name": "gameStatus",
                            "type": "string"
                        },
                        {
                            "internalType": "uint192",
                            "name": "id",
                            "type": "uint192"
                        },
                        {
                            "internalType": "uint32",
                            "name": "team1Score",
                            "type": "uint32"
                        },
                        {
                            "internalType": "uint32",
                            "name": "team2Score",
                            "type": "uint32"
                        },
                        {
                            "internalType": "bool",
                            "name": "exists",
                            "type": "bool"
                        }
                    ],
                    "indexed": false,
                    "internalType": "struct Oracle.Request",
                    "name": "",
                    "type": "tuple"
                }
            ],
            "name": "NewRequest",
            "type": "event"
        },
        {
            "inputs": [],
            "name": "bettingContractAddress",
            "outputs": [
                {
                    "internalType": "address",
                    "name": "",
                    "type": "address"
                }
            ],
            "stateMutability": "view",
            "type": "function"
        },
        {
            "inputs": [
                {
                    "internalType": "uint192",
                    "name": "gameId",
                    "type": "uint192"
                }
            ],
            "name": "createRequest",
            "outputs": [],
            "stateMutability": "nonpayable",
            "type": "function"
        },
        {
            "inputs": [],
            "name": "deployBettingContract",
            "outputs": [],
            "stateMutability": "nonpayable",
            "type": "function"
        },
        {
            "inputs": [
                {
                    "internalType": "uint256",
                    "name": "competitionId",
                    "type": "uint256"
                }
            ],
            "name": "newCompetition",
            "outputs": [],
            "stateMutability": "nonpayable",
            "type": "function"
        },
        {
            "inputs": [
                {
                    "internalType": "uint96",
                    "name": "gameId",
                    "type": "uint96"
                },
                {
                    "internalType": "uint256",
                    "name": "competitionId",
                    "type": "uint256"
                },
                {
                    "internalType": "uint56",
                    "name": "start",
                    "type": "uint56"
                }
            ],
            "name": "newGame",
            "outputs": [],
            "stateMutability": "nonpayable",
            "type": "function"
        },
        {
            "inputs": [],
            "name": "owner",
            "outputs": [
                {
                    "internalType": "address",
                    "name": "",
                    "type": "address"
                }
            ],
            "stateMutability": "view",
            "type": "function"
        },
        {
            "inputs": [
                {
                    "internalType": "uint256",
                    "name": "",
                    "type": "uint256"
                }
            ],
            "name": "requests",
            "outputs": [
                {
                    "internalType": "string",
                    "name": "rootUrl",
                    "type": "string"
                },
                {
                    "internalType": "string",
                    "name": "paramsToFetch",
                    "type": "string"
                },
                {
                    "internalType": "string",
                    "name": "endpoint",
                    "type": "string"
                },
                {
                    "internalType": "string",
                    "name": "gameStatus",
                    "type": "string"
                },
                {
                    "internalType": "uint192",
                    "name": "id",
                    "type": "uint192"
                },
                {
                    "internalType": "uint32",
                    "name": "team1Score",
                    "type": "uint32"
                },
                {
                    "internalType": "uint32",
                    "name": "team2Score",
                    "type": "uint32"
                },
                {
                    "internalType": "bool",
                    "name": "exists",
                    "type": "bool"
                }
            ],
            "stateMutability": "view",
            "type": "function"
        },
        {
            "inputs": [
                {
                    "internalType": "uint192",
                    "name": "gameId",
                    "type": "uint192"
                },
                {
                    "internalType": "uint32",
                    "name": "team1Score",
                    "type": "uint32"
                },
                {
                    "internalType": "uint32",
                    "name": "team2Score",
                    "type": "uint32"
                },
                {
                    "internalType": "string",
                    "name": "gameStatus",
                    "type": "string"
                }
            ],
            "name": "updateRequest",
            "outputs": [],
            "stateMutability": "nonpayable",
            "type": "function"
        }
    ],
    "bytecode": "608060405234801561001057600080fd5b50600080546001600160a01b0319338181169190921617179055612906806100396000396000f3fe608060405234801561001057600080fd5b50600436106100885760003560e01c80638da5cb5b1161005b5780638da5cb5b146101015780638ea08f2d1461011457806398d079a714610127578063e3c936561461013a57600080fd5b8063020f261d1461008d5780631fb87cb7146100a257806381d12c58146100d257806389324075146100f9575b600080fd5b6100a061009b366004610cf3565b61014d565b005b6002546100b5906001600160a01b031681565b6040516001600160a01b0390911681526020015b60405180910390f35b6100e56100e0366004610d95565b610619565b6040516100c9989796959493929190610e5a565b6100a0610895565b6000546100b5906001600160a01b031681565b6100a0610122366004610cd1565b6108fa565b6100a0610135366004610d95565b610ae0565b6100a0610148366004610dae565b610b5b565b6000546001600160a01b0316331461016457600080fd5b6001600160c01b03851660009081526001602052604090206005015460ff1615610612576001600160c01b038516600090815260016020526040808220815161010081019092528054829082906101ba90610fb4565b80601f01602080910402602001604051908101604052809291908181526020018280546101e690610fb4565b80156102335780601f1061020857610100808354040283529160200191610233565b820191906000526020600020905b81548152906001019060200180831161021657829003601f168201915b5050505050815260200160018201805461024c90610fb4565b80601f016020809104026020016040519081016040528092919081815260200182805461027890610fb4565b80156102c55780601f1061029a576101008083540402835291602001916102c5565b820191906000526020600020905b8154815290600101906020018083116102a857829003601f168201915b505050505081526020016002820180546102de90610fb4565b80601f016020809104026020016040519081016040528092919081815260200182805461030a90610fb4565b80156103575780601f1061032c57610100808354040283529160200191610357565b820191906000526020600020905b81548152906001019060200180831161033a57829003601f168201915b5050505050815260200160038201805461037090610fb4565b80601f016020809104026020016040519081016040528092919081815260200182805461039c90610fb4565b80156103e95780601f106103be576101008083540402835291602001916103e9565b820191906000526020600020905b8154815290600101906020018083116103cc57829003601f168201915b505050918352505060048201546001600160c01b03811660208084019190915263ffffffff600160c01b83048116604080860191909152600160e01b9093048116606085015260059094015460ff16151560809093019290925288831660a085015291871660c08401528151601f8601829004820281018201909252848252919250908490849081908401838280828437600092018290525060608601949094525050506001600160c01b03871681526001602090815260409091208251805184936104b9928492910190610bfb565b5060208281015180516104d29260018501920190610bfb565b50604082015180516104ee916002840191602090910190610bfb565b506060820151805161050a916003840191602090910190610bfb565b5060808201516004828101805460a086015160c08701516001600160c01b039586166001600160e01b031990931692909217600160c01b63ffffffff9283168102919091176001600160e01b0316600160e01b93831684021790935560e0909601516005909501805460ff191695151595909517909455600254928b1660009081526001602052604090819020830154905163011a28b160e21b815281871693810193909352908104851660248301529290920490921660448201526001600160a01b03909116908190630468a2c490606401600060405180830381600087803b1580156105f757600080fd5b505af115801561060b573d6000803e3d6000fd5b5050505050505b5050505050565b60016020526000908152604090208054819061063490610fb4565b80601f016020809104026020016040519081016040528092919081815260200182805461066090610fb4565b80156106ad5780601f10610682576101008083540402835291602001916106ad565b820191906000526020600020905b81548152906001019060200180831161069057829003601f168201915b5050505050908060010180546106c290610fb4565b80601f01602080910402602001604051908101604052809291908181526020018280546106ee90610fb4565b801561073b5780601f106107105761010080835404028352916020019161073b565b820191906000526020600020905b81548152906001019060200180831161071e57829003601f168201915b50505050509080600201805461075090610fb4565b80601f016020809104026020016040519081016040528092919081815260200182805461077c90610fb4565b80156107c95780601f1061079e576101008083540402835291602001916107c9565b820191906000526020600020905b8154815290600101906020018083116107ac57829003601f168201915b5050505050908060030180546107de90610fb4565b80601f016020809104026020016040519081016040528092919081815260200182805461080a90610fb4565b80156108575780601f1061082c57610100808354040283529160200191610857565b820191906000526020600020905b81548152906001019060200180831161083a57829003601f168201915b505050600484015460059094015492936001600160c01b0381169363ffffffff600160c01b830481169450600160e01b909204909116915060ff1688565b6000546001600160a01b031633146108ac57600080fd5b60006040516108ba90610c7f565b604051809103906000f0801580156108d6573d6000803e3d6000fd5b50600280546001600160a01b0319166001600160a01b039290921691909117905550565b6000546001600160a01b0316331461091157600080fd5b60006040518061010001604052806040518060600160405280602681526020016128ab6026913981526020016040518060600160405280603b8152602001612870603b91398152604080518082018252600a8152692f66697874757265732f60b01b60208281019190915280840191909152815180820183526000808252838501919091526001600160c01b038716606085018190526080850182905260a08501829052600160c09095018590528152928152912082518051939450849391926109e092849290910190610bfb565b5060208281015180516109f99260018501920190610bfb565b5060408201518051610a15916002840191602090910190610bfb565b5060608201518051610a31916003840191602090910190610bfb565b50608082015160048201805460a085015160c08601516001600160c01b039094166001600160e01b031990921691909117600160c01b63ffffffff92831602176001600160e01b0316600160e01b919093160291909117905560e0909101516005909101805460ff19169115159190911790556040517fdc5050fc0bbebbeda9fbd74b03fe51fe370f7100d4c24ba12d518a8756087e8490610ad4908390610ee4565b60405180910390a15050565b6000546001600160a01b03163314610af757600080fd5b6002546040516398d079a760e01b8152600481018390526001600160a01b039091169081906398d079a790602401600060405180830381600087803b158015610b3f57600080fd5b505af1158015610b53573d6000803e3d6000fd5b505050505050565b6000546001600160a01b03163314610b7257600080fd5b6002546040516371e49b2b60e11b81526bffffffffffffffffffffffff851660048201526024810184905266ffffffffffffff831660448201526001600160a01b0390911690819063e3c9365690606401600060405180830381600087803b158015610bdd57600080fd5b505af1158015610bf1573d6000803e3d6000fd5b5050505050505050565b828054610c0790610fb4565b90600052602060002090601f016020900481019282610c295760008555610c6f565b82601f10610c4257805160ff1916838001178555610c6f565b82800160010185558215610c6f579182015b82811115610c6f578251825591602001919060010190610c54565b50610c7b929150610c8c565b5090565b61188080610ff083390190565b5b80821115610c7b5760008155600101610c8d565b80356001600160c01b0381168114610cb857600080fd5b919050565b803563ffffffff81168114610cb857600080fd5b600060208284031215610ce357600080fd5b610cec82610ca1565b9392505050565b600080600080600060808688031215610d0b57600080fd5b610d1486610ca1565b9450610d2260208701610cbd565b9350610d3060408701610cbd565b9250606086013567ffffffffffffffff80821115610d4d57600080fd5b818801915088601f830112610d6157600080fd5b813581811115610d7057600080fd5b896020828501011115610d8257600080fd5b9699959850939650602001949392505050565b600060208284031215610da757600080fd5b5035919050565b600080600060608486031215610dc357600080fd5b83356bffffffffffffffffffffffff81168114610ddf57600080fd5b925060208401359150604084013566ffffffffffffff81168114610e0257600080fd5b809150509250925092565b6000815180845260005b81811015610e3357602081850181015186830182015201610e17565b81811115610e45576000602083870101525b50601f01601f19169290920160200192915050565b6000610100808352610e6e8184018c610e0d565b90508281036020840152610e82818b610e0d565b90508281036040840152610e96818a610e0d565b90508281036060840152610eaa8189610e0d565b6001600160c01b03979097166080840152505063ffffffff93841660a08201529190921660c082015290151560e090910152949350505050565b6020815260008251610100806020850152610f03610120850183610e0d565b91506020850151601f1980868503016040870152610f218483610e0d565b93506040870151915080868503016060870152610f3e8483610e0d565b9350606087015191508086850301608087015250610f5c8382610e0d565b9250506080850151610f7960a08601826001600160c01b03169052565b5060a085015163ffffffff811660c08601525060c085015163ffffffff811660e08601525060e0850151801515858301525090949350505050565b600181811c90821680610fc857607f821691505b60208210811415610fe957634e487b7160e01b600052602260045260246000fd5b5091905056fe608060405234801561001057600080fd5b50600080546001600160a01b0319338181169190921617179055611847806100396000396000f3fe6080604052600436106100a75760003560e01c806398d079a71161006457806398d079a71461019d5780639d6aaa7d146101bd5780639f6c0ce3146101ea578063a2f77bcc146101ff578063da839c9714610336578063e3c936561461034957600080fd5b80630468a2c4146100ac5780631ccf6955146100ce5780636ffcc719146101045780638da5cb5b146101175780638fdcc8c61461014f57806394328aa31461017d575b600080fd5b3480156100b857600080fd5b506100cc6100c7366004611535565b610369565b005b3480156100da57600080fd5b506100ee6100e93660046114fa565b61076f565b6040516100fb91906115d2565b60405180910390f35b6100cc610112366004611513565b610834565b34801561012357600080fd5b50600054610137906001600160a01b031681565b6040516001600160a01b0390911681526020016100fb565b34801561015b57600080fd5b5061016f61016a366004611513565b610a30565b6040519081526020016100fb565b34801561018957600080fd5b5061016f6101983660046114fa565b610a91565b3480156101a957600080fd5b506100cc6101b83660046114fa565b610c09565b3480156101c957600080fd5b506101dd6101d83660046114fa565b610c8a565b6040516100fb919061163d565b3480156101f657600080fd5b506101dd610cec565b34801561020b57600080fd5b5061032961021a3660046114fa565b6040805161014081018252600080825260208201819052918101829052606081018290526080810182905260a0810182905260c0810182905260e0810182905261010081018290526101208101919091525060009081526004602090815260409182902082516101408101845281546001600160601b0381168252600160601b810466ffffffffffffff1693820193909352600160981b830463ffffffff90811694820194909452600160b81b830484166060820152600160d81b83049093166080840152600160f81b90910460ff908116151560a08401526001820154808216151560c085015261010090819004909116151560e08401526002820154908301526003015461012082015290565b6040516100fb91906116a3565b6100cc6103443660046114fa565b610d44565b34801561035557600080fd5b506100cc610364366004611578565b610fc4565b63ffffffff8316600081815260046020526040902060010154610100900460ff166103af5760405162461bcd60e51b81526004016103a690611675565b60405180910390fd5b6000546001600160a01b031633146103c657600080fd5b60008060006103d4876112a9565b9250925092506000600460008963ffffffff168152602001908152602001600020604051806101400160405290816000820160009054906101000a90046001600160601b03166001600160601b03166001600160601b0316815260200160008201600c9054906101000a900466ffffffffffffff1666ffffffffffffff1666ffffffffffffff1681526020016000820160139054906101000a900463ffffffff1663ffffffff1663ffffffff1681526020016000820160179054906101000a900463ffffffff1663ffffffff1663ffffffff16815260200160008201601b9054906101000a900463ffffffff1663ffffffff1663ffffffff16815260200160008201601f9054906101000a900460ff161515151581526020016001820160009054906101000a900460ff161515151581526020016001820160019054906101000a900460ff1615151515815260200160028201548152602001600382015481525050905086816040019063ffffffff16908163ffffffff168152505085816060019063ffffffff16908163ffffffff168152505060018160a001901515908115158152505060018160c001901515908115158152505081816080019063ffffffff16908163ffffffff16815250508281610120018181525050838161010001818152505080600460008a63ffffffff16815260200190815260200160002060008201518160000160006101000a8154816001600160601b0302191690836001600160601b03160217905550602082015181600001600c6101000a81548166ffffffffffffff021916908366ffffffffffffff16021790555060408201518160000160136101000a81548163ffffffff021916908363ffffffff16021790555060608201518160000160176101000a81548163ffffffff021916908363ffffffff160217905550608082015181600001601b6101000a81548163ffffffff021916908363ffffffff16021790555060a082015181600001601f6101000a81548160ff02191690831515021790555060c08201518160010160006101000a81548160ff02191690831515021790555060e08201518160010160016101000a81548160ff021916908315150217905550610100820151816002015561012082015181600301559050507fe89bb1849f637efae3f96a973a9c0775b0033ccf1deba9c11915717455a7fe8360018960405161075d929190911515825263ffffffff16602082015260400190565b60405180910390a15050505050505050565b6000818152600460205260409020600101546060908290610100900460ff166107aa5760405162461bcd60e51b81526004016103a690611675565b600083815260036020908152604080832080548251818502810185019093528083529193909284015b82821015610828576000848152602090819020604080516060810182526003860290920180546001600160a01b03168352600180820154848601526002909101549183019190915290835290920191016107d3565b50505050915050919050565b6000828152600460205260409020600101548290610100900460ff1661086c5760405162461bcd60e51b81526004016103a690611675565b8160028111156108b35760405162461bcd60e51b815260206004820152601260248201527113dd5d18dbdb59481a5cc81a5b9d985b1a5960721b60448201526064016103a6565b6000848152600460205260409020548490600160601b900466ffffffffffffff166108e0426103e86117ab565b1061092d5760405162461bcd60e51b815260206004820152601860248201527f67616d652068617320616c72656164792073746172746564000000000000000060448201526064016103a6565b60408051606081018252338082523460208084018281528486018a815260008c815260038085528882208054600180820183559184528684208a519190930290920180546001600160a01b0319166001600160a01b039093169290921782559351938101939093559051600290920191909155928352600581528483208a84528152848320898452905292812080549293929091906109cd908490611771565b90915550506040805182516001600160a01b031681526020808401519082015282820151818301526060810188905290517f49497e006b29902259c7a439a9fa5011c00afe0e0aa37e810333db207adcefb09181900360800190a1505050505050565b6000828152600460205260408120600101548390610100900460ff16610a685760405162461bcd60e51b81526004016103a690611675565b505033600090815260056020908152604080832094835293815283822092825291909152205490565b6000818152600460205260408120600101548290610100900460ff16610ac95760405162461bcd60e51b81526004016103a690611675565b6000838152600460205260409020548390600160f81b900460ff161515600114610b2c5760405162461bcd60e51b815260206004820152601460248201527319d85b59481b5d5cdd081a185d9948195b99195960621b60448201526064016103a6565b505050600081815260046020908152604080832081516101408101835281546001600160601b0381168252600160601b810466ffffffffffffff1682860152600160981b810463ffffffff90811683860152600160b81b820481166060840152600160d81b8204811660808401908152600160f81b90920460ff908116151560a08501526001850154808216151560c086015261010090819004909116151560e085015260028501549084015260039093015461012090920191909152338552600584528285209585529483528184209451168352929052205490565b6000546001600160a01b03163314610c2057600080fd5b6001805480820182556000919091527fb10e2d527612073b26eecdfd717e6a320cf44b4afac2b0732d9fcbe2b7fa0cf6018190556040518181527f9edc9bae9b3983d36dfb38fff741c45440f54213c4782f68a10a50cc5d753c7c9060200160405180910390a150565b600081815260026020908152604091829020805483518184028101840190945280845260609392830182828015610ce057602002820191906000526020600020905b815481526020019060010190808311610ccc575b50505050509050919050565b60606001805480602002602001604051908101604052809291908181526020018280548015610d3a57602002820191906000526020600020905b815481526020019060010190808311610d26575b5050505050905090565b6000818152600460205260409020600101548190610100900460ff16610d7c5760405162461bcd60e51b81526004016103a690611675565b6000828152600460205260409020548290600160f81b900460ff161515600114610ddf5760405162461bcd60e51b815260206004820152601460248201527319d85b59481b5d5cdd081a185d9948195b99195960621b60448201526064016103a6565b600083815260046020908152604080832081516101408101835281546001600160601b0381168252600160601b810466ffffffffffffff1682860152600160981b810463ffffffff90811683860152600160b81b820481166060840152600160d81b8204811660808401908152600160f81b90920460ff908116151560a08501526001850154808216151560c086015261010090819004909116151560e085015260028501549084019081526003909401546101208401908152338852600587528588208b89528752858820925190911687529452918420549251905191939160649190610ecd85846117ab565b610ed79190611789565b610ee191906117ab565b610eeb9190611789565b3360009081526005602090815260408083208a84528252808320608088015163ffffffff1684529091528120819055909150610f278383611771565b604051909150600090339083908381818185875af1925050503d8060008114610f6c576040519150601f19603f3d011682016040523d82523d6000602084013e610f71565b606091505b5050905080610fba5760405162461bcd60e51b815260206004820152601560248201527419d85a5b9cc81d1c985b9cd9995c8819985a5b1959605a1b60448201526064016103a6565b5050505050505050565b6001600160601b038316600081815260046020526040902060010154610100900460ff161561102c5760405162461bcd60e51b815260206004820152601460248201527347616d6520616c6572656164792065786973747360601b60448201526064016103a6565b6000546001600160a01b0316331461104357600080fd5b6000604051806101400160405280866001600160601b031681526020018466ffffffffffffff168152602001600063ffffffff168152602001600063ffffffff168152602001600063ffffffff16815260200160001515815260200160001515815260200160011515815260200160008152602001600081525090508060046000876001600160601b0316815260200190815260200160002060008201518160000160006101000a8154816001600160601b0302191690836001600160601b03160217905550602082015181600001600c6101000a81548166ffffffffffffff021916908366ffffffffffffff16021790555060408201518160000160136101000a81548163ffffffff021916908363ffffffff16021790555060608201518160000160176101000a81548163ffffffff021916908363ffffffff160217905550608082015181600001601b6101000a81548163ffffffff021916908363ffffffff16021790555060a082015181600001601f6101000a81548160ff02191690831515021790555060c08201518160010160006101000a81548160ff02191690831515021790555060e08201518160010160016101000a81548160ff0219169083151502179055506101008201518160020155610120820151816003015590505060026000858152602001908152602001600020816000015190806001815401808255809150506001900390600052602060002001600090916001600160601b03169091909150557feada69c71ccb7e691fff2e286de47fbac785d1ede8b3eb1def52ada7d057047d8160405161129a91906116a3565b60405180910390a15050505050565b60008060006112b7846113ce565b905060005b63ffffffff85166000908152600360205260409020548110156113c6578163ffffffff16600360008763ffffffff168152602001908152602001600020828154811061130a5761130a6117fb565b906000526020600020906003020160020154141561136d5763ffffffff85166000908152600360205260409020805482908110611349576113496117fb565b906000526020600020906003020160010154846113669190611771565b93506113b4565b63ffffffff85166000908152600360205260409020805482908110611394576113946117fb565b906000526020600020906003020160010154836113b19190611771565b92505b806113be816117ca565b9150506112bc565b509193909250565b600080546001600160a01b031633146113e657600080fd5b63ffffffff82811660009081526004602090815260409182902082516101408101845281546001600160601b0381168252600160601b810466ffffffffffffff1693820193909352600160981b83048516938101849052600160b81b8304851660608201819052600160d81b84049095166080820152600160f81b90920460ff908116151560a08401526001820154808216151560c085015261010090819004909116151560e0840152600282015490830152600301546101208201529110156114b35750600192915050565b806040015163ffffffff16816060015163ffffffff1611156114d85750600292915050565b50600092915050565b919050565b803563ffffffff811681146114e157600080fd5b60006020828403121561150c57600080fd5b5035919050565b6000806040838503121561152657600080fd5b50508035926020909101359150565b60008060006060848603121561154a57600080fd5b611553846114e6565b9250611561602085016114e6565b915061156f604085016114e6565b90509250925092565b60008060006060848603121561158d57600080fd5b83356001600160601b03811681146115a457600080fd5b925060208401359150604084013566ffffffffffffff811681146115c757600080fd5b809150509250925092565b6020808252825182820181905260009190848201906040850190845b818110156116315761161e83855180516001600160a01b0316825260208082015190830152604090810151910152565b92840192606092909201916001016115ee565b50909695505050505050565b6020808252825182820181905260009190848201906040850190845b8181101561163157835183529284019291840191600101611659565b60208082526014908201527347616d6520646f6573206e6f742065786973747360601b604082015260600190565b81516001600160601b03168152610140810160208301516116cf602084018266ffffffffffffff169052565b5060408301516116e7604084018263ffffffff169052565b5060608301516116ff606084018263ffffffff169052565b506080830151611717608084018263ffffffff169052565b5060a083015161172b60a084018215159052565b5060c083015161173f60c084018215159052565b5060e083015161175360e084018215159052565b50610100838101519083015261012092830151929091019190915290565b60008219821115611784576117846117e5565b500190565b6000826117a657634e487b7160e01b600052601260045260246000fd5b500490565b60008160001904831182151516156117c5576117c56117e5565b500290565b60006000198214156117de576117de6117e5565b5060010190565b634e487b7160e01b600052601160045260246000fd5b634e487b7160e01b600052603260045260246000fdfea2646970667358221220babbfffd131ef162eb6e8354066e3e027b3719af107ea0a488fbfb62b565f32664736f6c6343000806003373636f7265732e6c6f63616c7465616d5f73636f72652c73636f7265732e76697369746f727465616d5f73636f72652c74696d652e73746174757368747470733a2f2f736f636365722e73706f72746d6f6e6b732e636f6d2f6170692f76322e30a26469706673582212201a80c78c8350377d334faa9bc4ef9a60c46a938cab9c664120a56b61a09295f664736f6c63430008060033",
    "sourcePath": "/home/kstwa/Documents/SportsOnTheBlock/contracts/Oracle.sol",
    "compiler": {
        "name": "solc",
        "version": "0.8.6+commit.11564f7e"
    },
    "functionHashes": {
        "bettingContractAddress()": "1fb87cb7",
        "createRequest(uint192)": "8ea08f2d",
        "deployBettingContract()": "89324075",
        "newCompetition(uint256)": "98d079a7",
        "newGame(uint96,uint256,uint56)": "e3c93656",
        "owner()": "8da5cb5b",
        "requests(uint256)": "81d12c58",
        "updateRequest(uint192,uint32,uint32,string)": "020f261d"
    },
    "gasEstimates": {
        "creation": {
            "codeDepositCost": "2100400",
            "executionCost": "26492",
            "totalCost": "2126892"
        },
        "external": {
            "bettingContractAddress()": "2349",
            "createRequest(uint192)": "infinite",
            "deployBettingContract()": "infinite",
            "newCompetition(uint256)": "infinite",
            "newGame(uint96,uint256,uint56)": "infinite",
            "owner()": "2326",
            "requests(uint256)": "infinite",
            "updateRequest(uint192,uint32,uint32,string)": "infinite"
        }
    }
}