{
    "contractName": "BettingContract",
    "abi": [
        {
            "anonymous": false,
            "inputs": [
                {
                    "indexed": false,
                    "internalType": "bool",
                    "name": "",
                    "type": "bool"
                }
            ],
            "name": "GameEnded",
            "type": "event"
        },
        {
            "anonymous": false,
            "inputs": [
                {
                    "indexed": false,
                    "internalType": "bool",
                    "name": "",
                    "type": "bool"
                }
            ],
            "name": "GameStarted",
            "type": "event"
        },
        {
            "anonymous": false,
            "inputs": [
                {
                    "components": [
                        {
                            "internalType": "address",
                            "name": "user",
                            "type": "address"
                        },
                        {
                            "internalType": "uint256",
                            "name": "amount",
                            "type": "uint256"
                        },
                        {
                            "internalType": "uint256",
                            "name": "outcome",
                            "type": "uint256"
                        }
                    ],
                    "indexed": false,
                    "internalType": "struct isCommon.Bet",
                    "name": "",
                    "type": "tuple"
                }
            ],
            "name": "NewBet",
            "type": "event"
        },
        {
            "anonymous": false,
            "inputs": [
                {
                    "components": [
                        {
                            "internalType": "string",
                            "name": "name",
                            "type": "string"
                        },
                        {
                            "internalType": "string",
                            "name": "description",
                            "type": "string"
                        },
                        {
                            "internalType": "string",
                            "name": "cover",
                            "type": "string"
                        },
                        {
                            "internalType": "bool",
                            "name": "available",
                            "type": "bool"
                        }
                    ],
                    "indexed": false,
                    "internalType": "struct isCommon.Competition",
                    "name": "",
                    "type": "tuple"
                }
            ],
            "name": "NewCompetition",
            "type": "event"
        },
        {
            "anonymous": false,
            "inputs": [
                {
                    "components": [
                        {
                            "internalType": "string",
                            "name": "team1Name",
                            "type": "string"
                        },
                        {
                            "internalType": "string",
                            "name": "team2Name",
                            "type": "string"
                        },
                        {
                            "internalType": "string",
                            "name": "description",
                            "type": "string"
                        },
                        {
                            "internalType": "string",
                            "name": "cover",
                            "type": "string"
                        },
                        {
                            "internalType": "uint256",
                            "name": "team1Score",
                            "type": "uint256"
                        },
                        {
                            "internalType": "uint256",
                            "name": "team2Score",
                            "type": "uint256"
                        },
                        {
                            "internalType": "uint256",
                            "name": "winner",
                            "type": "uint256"
                        },
                        {
                            "internalType": "bool",
                            "name": "ended",
                            "type": "bool"
                        },
                        {
                            "internalType": "bool",
                            "name": "started",
                            "type": "bool"
                        }
                    ],
                    "indexed": false,
                    "internalType": "struct isCommon.Game",
                    "name": "",
                    "type": "tuple"
                }
            ],
            "name": "NewGame",
            "type": "event"
        },
        {
            "inputs": [
                {
                    "internalType": "uint256",
                    "name": "gameId",
                    "type": "uint256"
                },
                {
                    "internalType": "uint256",
                    "name": "outcome",
                    "type": "uint256"
                }
            ],
            "name": "bet",
            "outputs": [],
            "stateMutability": "payable",
            "type": "function"
        },
        {
            "inputs": [
                {
                    "internalType": "uint256",
                    "name": "gameId",
                    "type": "uint256"
                }
            ],
            "name": "getBets",
            "outputs": [
                {
                    "components": [
                        {
                            "internalType": "address",
                            "name": "user",
                            "type": "address"
                        },
                        {
                            "internalType": "uint256",
                            "name": "amount",
                            "type": "uint256"
                        },
                        {
                            "internalType": "uint256",
                            "name": "outcome",
                            "type": "uint256"
                        }
                    ],
                    "internalType": "struct isCommon.Bet[]",
                    "name": "bets",
                    "type": "tuple[]"
                }
            ],
            "stateMutability": "view",
            "type": "function"
        },
        {
            "inputs": [],
            "name": "getCompetition",
            "outputs": [
                {
                    "components": [
                        {
                            "internalType": "string",
                            "name": "name",
                            "type": "string"
                        },
                        {
                            "internalType": "string",
                            "name": "description",
                            "type": "string"
                        },
                        {
                            "internalType": "string",
                            "name": "cover",
                            "type": "string"
                        },
                        {
                            "internalType": "bool",
                            "name": "available",
                            "type": "bool"
                        }
                    ],
                    "internalType": "struct isCommon.Competition[]",
                    "name": "",
                    "type": "tuple[]"
                }
            ],
            "stateMutability": "view",
            "type": "function"
        },
        {
            "inputs": [
                {
                    "internalType": "uint256",
                    "name": "competitionId",
                    "type": "uint256"
                }
            ],
            "name": "getGames",
            "outputs": [
                {
                    "components": [
                        {
                            "internalType": "string",
                            "name": "team1Name",
                            "type": "string"
                        },
                        {
                            "internalType": "string",
                            "name": "team2Name",
                            "type": "string"
                        },
                        {
                            "internalType": "string",
                            "name": "description",
                            "type": "string"
                        },
                        {
                            "internalType": "string",
                            "name": "cover",
                            "type": "string"
                        },
                        {
                            "internalType": "uint256",
                            "name": "team1Score",
                            "type": "uint256"
                        },
                        {
                            "internalType": "uint256",
                            "name": "team2Score",
                            "type": "uint256"
                        },
                        {
                            "internalType": "uint256",
                            "name": "winner",
                            "type": "uint256"
                        },
                        {
                            "internalType": "bool",
                            "name": "ended",
                            "type": "bool"
                        },
                        {
                            "internalType": "bool",
                            "name": "started",
                            "type": "bool"
                        }
                    ],
                    "internalType": "struct isCommon.Game[]",
                    "name": "games",
                    "type": "tuple[]"
                }
            ],
            "stateMutability": "view",
            "type": "function"
        },
        {
            "inputs": [
                {
                    "internalType": "string",
                    "name": "name",
                    "type": "string"
                },
                {
                    "internalType": "string",
                    "name": "description",
                    "type": "string"
                },
                {
                    "internalType": "string",
                    "name": "cover",
                    "type": "string"
                }
            ],
            "name": "newCompetition",
            "outputs": [],
            "stateMutability": "nonpayable",
            "type": "function"
        },
        {
            "inputs": [
                {
                    "internalType": "uint256",
                    "name": "competitionId",
                    "type": "uint256"
                },
                {
                    "internalType": "string",
                    "name": "team1Name",
                    "type": "string"
                },
                {
                    "internalType": "string",
                    "name": "team2Name",
                    "type": "string"
                },
                {
                    "internalType": "string",
                    "name": "description",
                    "type": "string"
                },
                {
                    "internalType": "string",
                    "name": "cover",
                    "type": "string"
                }
            ],
            "name": "newGame",
            "outputs": [],
            "stateMutability": "nonpayable",
            "type": "function"
        },
        {
            "inputs": [],
            "name": "owner",
            "outputs": [
                {
                    "internalType": "address",
                    "name": "",
                    "type": "address"
                }
            ],
            "stateMutability": "view",
            "type": "function"
        },
        {
            "inputs": [
                {
                    "internalType": "uint256",
                    "name": "gameId",
                    "type": "uint256"
                },
                {
                    "internalType": "uint256",
                    "name": "winner",
                    "type": "uint256"
                }
            ],
            "name": "settleGame",
            "outputs": [],
            "stateMutability": "nonpayable",
            "type": "function"
        }
    ],
    "bytecode": "608060405234801561001057600080fd5b50600080546001600160a01b03191633179055611c10806100326000396000f3fe60806040526004361061007b5760003560e01c806376b2c3781161004e57806376b2c3781461010b5780638da5cb5b1461012d5780639d6aaa7d146101655780639ff930881461019257600080fd5b80631ccf6955146100805780633992c0a3146100b657806365237d20146100d85780636ffcc719146100f8575b600080fd5b34801561008c57600080fd5b506100a061009b366004611729565b6101b2565b6040516100ad9190611991565b60405180910390f35b3480156100c257600080fd5b506100d66100d1366004611742565b6102a5565b005b3480156100e457600080fd5b506100d66100f336600461168f565b610634565b6100d6610106366004611812565b61085a565b34801561011757600080fd5b506101206109b6565b6040516100ad91906119f3565b34801561013957600080fd5b5060005461014d906001600160a01b031681565b6040516001600160a01b0390911681526020016100ad565b34801561017157600080fd5b50610185610180366004611729565b610bdd565b6040516100ad9190611a55565b34801561019e57600080fd5b506100d66101ad366004611812565b610f25565b6060816000811180156101c757506002548111155b6101ec5760405162461bcd60e51b81526004016101e390611aaa565b60405180910390fd5b6000831180156101fe57506002548311155b61021a5760405162461bcd60e51b81526004016101e390611aaa565b600083815260066020908152604080832080548251818502810185019093528083529193909284015b82821015610298576000848152602090819020604080516060810182526003860290920180546001600160a01b0316835260018082015484860152600290910154918301919091529083529092019101610243565b5050505091505b50919050565b886000811180156102b857506003548111155b6103045760405162461bcd60e51b815260206004820152601b60248201527f436f6d7065746974696f6e20646f6573206e6f7420657869737473000000000060448201526064016101e3565b6000546001600160a01b0316331461031b57600080fd5b604080516101406020601f8c01819004028201810190925261012081018a81526000928291908d908d9081908501838280828437600092019190915250505090825250604080516020601f8c018190048102820181019092528a815291810191908b908b9081908401838280828437600092019190915250505090825250604080516020601f8a0181900481028201810190925288815291810191908990899081908401838280828437600092019190915250505090825250604080516020601f880181900481028201810190925286815291810191908790879081908401838280828437600092018290525093855250505060208083018290526040808401839052606084018390526080840183905260a0909301829052600254825260078152919020825180519394508493919261045a928492909101906115ad565b50602082810151805161047392600185019201906115ad565b506040820151805161048f9160028401916020909101906115ad565b50606082015180516104ab9160038401916020909101906115ad565b506080820151600482015560a082015160058083019190915560c0830151600683015560e0830151600790920180546101009485015161ffff1990911693151561ff001916939093179215159093029190911790915560008c815260209182526040812080546001810182559082529082902083518051859460089094029092019261053c928492909101906115ad565b50602082810151805161055592600185019201906115ad565b50604082015180516105719160028401916020909101906115ad565b506060820151805161058d9160038401916020909101906115ad565b506080820151600482015560a0820151600582015560c0820151600682015560e0820151600790910180546101009384015161ffff1990911692151561ff00191692909217911515909202179055600280549060006105eb83611b93565b91905055507fe2d196aa7d13c9880ce53c2b8b7bd42594be12d56789b25d3b30210d2628966c8160405161061f9190611af2565b60405180910390a15050505050505050505050565b6040805160a06020601f89018190040282018101909252608081018781526000928291908a908a9081908501838280828437600092019190915250505090825250604080516020601f890181900481028201810190925287815291810191908890889081908401838280828437600092019190915250505090825250604080516020601f87018190048102820181019092528581529181019190869086908190840183828082843760009201829052509385525050600160209384015250600354815260048252604090208251805193945084939192610719928492909101906115ad565b50602082810151805161073292600185019201906115ad565b506040820151805161074e9160028401916020909101906115ad565b50606091909101516003909101805491151560ff199092169190911790556001805480820182556000919091528151805183926004027fb10e2d527612073b26eecdfd717e6a320cf44b4afac2b0732d9fcbe2b7fa0cf601916107b6918391602001906115ad565b5060208281015180516107cf92600185019201906115ad565b50604082015180516107eb9160028401916020909101906115ad565b50606091909101516003918201805460ff1916911515919091179055805490600061081583611b93565b91905055507f0adbede93e7486b6cd70aea787deab75918d4cb9c03f4d62c14cf8b633c708e9816040516108499190611ad8565b60405180910390a150505050505050565b8160008111801561086d57506002548111155b6108895760405162461bcd60e51b81526004016101e390611aaa565b8160028111156108db5760405162461bcd60e51b815260206004820152601a60248201527f4f7574636f6d65206d75737420626520302c20312c206f72203200000000000060448201526064016101e3565b60008481526007602081905260409091200154610100900460ff16156109435760405162461bcd60e51b815260206004820152601860248201527f67616d652068617320616c72656164792073746172746564000000000000000060448201526064016101e3565b50506000918252600660209081526040808420815160608101835233815234818501908152928101948552815460018082018455928752939095209451600390930290940180546001600160a01b0319166001600160a01b03909316929092178255519281019290925551600290910155565b60606001805480602002602001604051908101604052809291908181526020016000905b82821015610bd45783829060005260206000209060040201604051806080016040529081600082018054610a0d90611b5e565b80601f0160208091040260200160405190810160405280929190818152602001828054610a3990611b5e565b8015610a865780601f10610a5b57610100808354040283529160200191610a86565b820191906000526020600020905b815481529060010190602001808311610a6957829003601f168201915b50505050508152602001600182018054610a9f90611b5e565b80601f0160208091040260200160405190810160405280929190818152602001828054610acb90611b5e565b8015610b185780601f10610aed57610100808354040283529160200191610b18565b820191906000526020600020905b815481529060010190602001808311610afb57829003601f168201915b50505050508152602001600282018054610b3190611b5e565b80601f0160208091040260200160405190810160405280929190818152602001828054610b5d90611b5e565b8015610baa5780601f10610b7f57610100808354040283529160200191610baa565b820191906000526020600020905b815481529060010190602001808311610b8d57829003601f168201915b50505091835250506003919091015460ff16151560209182015290825260019290920191016109da565b50505050905090565b606081600081118015610bf257506003548111155b610c3e5760405162461bcd60e51b815260206004820152601b60248201527f436f6d7065746974696f6e20646f6573206e6f7420657869737473000000000060448201526064016101e3565b600083815260056020908152604080832080548251818502810185019093528083529193909284015b82821015610298578382906000526020600020906008020160405180610120016040529081600082018054610c9b90611b5e565b80601f0160208091040260200160405190810160405280929190818152602001828054610cc790611b5e565b8015610d145780601f10610ce957610100808354040283529160200191610d14565b820191906000526020600020905b815481529060010190602001808311610cf757829003601f168201915b50505050508152602001600182018054610d2d90611b5e565b80601f0160208091040260200160405190810160405280929190818152602001828054610d5990611b5e565b8015610da65780601f10610d7b57610100808354040283529160200191610da6565b820191906000526020600020905b815481529060010190602001808311610d8957829003601f168201915b50505050508152602001600282018054610dbf90611b5e565b80601f0160208091040260200160405190810160405280929190818152602001828054610deb90611b5e565b8015610e385780601f10610e0d57610100808354040283529160200191610e38565b820191906000526020600020905b815481529060010190602001808311610e1b57829003601f168201915b50505050508152602001600382018054610e5190611b5e565b80601f0160208091040260200160405190810160405280929190818152602001828054610e7d90611b5e565b8015610eca5780601f10610e9f57610100808354040283529160200191610eca565b820191906000526020600020905b815481529060010190602001808311610ead57829003601f168201915b50505091835250506004820154602080830191909152600583015460408301526006830154606083015260079092015460ff8082161515608084015261010090910416151560a0909101529082526001929092019101610c67565b81600081118015610f3857506002548111155b610f545760405162461bcd60e51b81526004016101e390611aaa565b6000546001600160a01b03163314610f6b57600080fd5b60008381526007602052604080822081516101208101909252805482908290610f9390611b5e565b80601f0160208091040260200160405190810160405280929190818152602001828054610fbf90611b5e565b801561100c5780601f10610fe15761010080835404028352916020019161100c565b820191906000526020600020905b815481529060010190602001808311610fef57829003601f168201915b5050505050815260200160018201805461102590611b5e565b80601f016020809104026020016040519081016040528092919081815260200182805461105190611b5e565b801561109e5780601f106110735761010080835404028352916020019161109e565b820191906000526020600020905b81548152906001019060200180831161108157829003601f168201915b505050505081526020016002820180546110b790611b5e565b80601f01602080910402602001604051908101604052809291908181526020018280546110e390611b5e565b80156111305780601f1061110557610100808354040283529160200191611130565b820191906000526020600020905b81548152906001019060200180831161111357829003601f168201915b5050505050815260200160038201805461114990611b5e565b80601f016020809104026020016040519081016040528092919081815260200182805461117590611b5e565b80156111c25780601f10611197576101008083540402835291602001916111c2565b820191906000526020600020905b8154815290600101906020018083116111a557829003601f168201915b505050918352505060048201546020808301919091526005830154604080840191909152600680850154606085015260079094015460ff8082161515608086015261010090910416151560a09093019290925260008881529281528183208054835181840281018401909452808452949550929391929190849084015b82821015611294576000848152602090819020604080516060810182526003860290920180546001600160a01b031683526001808201548486015260029091015491830191909152908352909201910161123f565b50505050905060008060006112a9848861146f565b95505050935050925060005b83518110156113655760008482815181106112d2576112d2611bc4565b60200260200101519050600084826020015160646112f09190611b3f565b6112fa9190611b1d565b6113049085611b3f565b905081600001516001600160a01b03166108fc8284602001516113279190611b05565b6040518115909202916000818181858888f1935050505015801561134f573d6000803e3d6000fd5b505050808061135d90611b93565b9150506112b5565b50600160e086015260008881526007602090815260409091208651805188936113929284929101906115ad565b5060208281015180516113ab92600185019201906115ad565b50604082015180516113c79160028401916020909101906115ad565b50606082015180516113e39160038401916020909101906115ad565b506080820151600482015560a0820151600582015560c0820151600682015560e0820151600790910180546101009384015161ffff1990911692151561ff00191692909217911515909202179055604051600181527fdf7a1dfb51dd87859a6f44cf9bddb076effbccd933619eec97e64a79fd94d3249060200160405180910390a15050505050505050565b6060600080606060008060005b88518110156115a2578789828151811061149857611498611bc4565b602002602001015160400151141561151f578881815181106114bc576114bc611bc4565b60200260200101518787815181106114d6576114d6611bc4565b602002602001018190525085806114ec90611b93565b96505088818151811061150157611501611bc4565b602002602001015160200151856115189190611b05565b9450611590565b88818151811061153157611531611bc4565b602002602001015184848151811061154b5761154b611bc4565b6020026020010181905250828061156190611b93565b93505088818151811061157657611576611bc4565b6020026020010151602001518261158d9190611b05565b91505b8061159a81611b93565b91505061147c565b509295509295509295565b8280546115b990611b5e565b90600052602060002090601f0160209004810192826115db5760008555611621565b82601f106115f457805160ff1916838001178555611621565b82800160010185558215611621579182015b82811115611621578251825591602001919060010190611606565b5061162d929150611631565b5090565b5b8082111561162d5760008155600101611632565b60008083601f84011261165857600080fd5b50813567ffffffffffffffff81111561167057600080fd5b60208301915083602082850101111561168857600080fd5b9250929050565b600080600080600080606087890312156116a857600080fd5b863567ffffffffffffffff808211156116c057600080fd5b6116cc8a838b01611646565b909850965060208901359150808211156116e557600080fd5b6116f18a838b01611646565b9096509450604089013591508082111561170a57600080fd5b5061171789828a01611646565b979a9699509497509295939492505050565b60006020828403121561173b57600080fd5b5035919050565b600080600080600080600080600060a08a8c03121561176057600080fd5b8935985060208a013567ffffffffffffffff8082111561177f57600080fd5b61178b8d838e01611646565b909a50985060408c01359150808211156117a457600080fd5b6117b08d838e01611646565b909850965060608c01359150808211156117c957600080fd5b6117d58d838e01611646565b909650945060808c01359150808211156117ee57600080fd5b506117fb8c828d01611646565b915080935050809150509295985092959850929598565b6000806040838503121561182557600080fd5b50508035926020909101359150565b6000815180845260005b8181101561185a5760208185018101518683018201520161183e565b8181111561186c576000602083870101525b50601f01601f19169290920160200192915050565b60008151608084526118966080850182611834565b9050602083015184820360208601526118af8282611834565b915050604083015184820360408601526118c98282611834565b9150506060830151151560608501528091505092915050565b600061012082518185526118f882860182611834565b915050602083015184820360208601526119128282611834565b9150506040830151848203604086015261192c8282611834565b915050606083015184820360608601526119468282611834565b9150506080830151608085015260a083015160a085015260c083015160c085015260e083015161197a60e086018215159052565b506101009283015115159390920192909252919050565b602080825282518282018190526000919060409081850190868401855b828110156119e657815180516001600160a01b03168552868101518786015285015185850152606090930192908501906001016119ae565b5091979650505050505050565b6000602080830181845280855180835260408601915060408160051b870101925083870160005b82811015611a4857603f19888603018452611a36858351611881565b94509285019290850190600101611a1a565b5092979650505050505050565b6000602080830181845280855180835260408601915060408160051b870101925083870160005b82811015611a4857603f19888603018452611a988583516118e2565b94509285019290850190600101611a7c565b60208082526014908201527347616d6520646f6573206e6f742065786973747360601b604082015260600190565b602081526000611aeb6020830184611881565b9392505050565b602081526000611aeb60208301846118e2565b60008219821115611b1857611b18611bae565b500190565b600082611b3a57634e487b7160e01b600052601260045260246000fd5b500490565b6000816000190483118215151615611b5957611b59611bae565b500290565b600181811c90821680611b7257607f821691505b6020821081141561029f57634e487b7160e01b600052602260045260246000fd5b6000600019821415611ba757611ba7611bae565b5060010190565b634e487b7160e01b600052601160045260246000fd5b634e487b7160e01b600052603260045260246000fdfea2646970667358221220f5d64df5a274d3e889aeee3d03430af45ab57d3d78d802c46f0c7212fde1349f64736f6c63430008060033",
    "sourcePath": "/home/bitch1y/Documents/PROJECTS/ETHEREUM/SportsOnTheBlock/contracts/BettingContrat.sol",
    "compiler": {
        "name": "solc",
        "version": "0.8.6+commit.11564f7e"
    },
    "functionHashes": {
        "bet(uint256,uint256)": "6ffcc719",
        "getBets(uint256)": "1ccf6955",
        "getCompetition()": "76b2c378",
        "getGames(uint256)": "9d6aaa7d",
        "newCompetition(string,string,string)": "65237d20",
        "newGame(uint256,string,string,string,string)": "3992c0a3",
        "owner()": "8da5cb5b",
        "settleGame(uint256,uint256)": "9ff93088"
    },
    "gasEstimates": {
        "creation": {
            "codeDepositCost": "1436800",
            "executionCost": "25734",
            "totalCost": "1462534"
        },
        "external": {
            "bet(uint256,uint256)": "97652",
            "getBets(uint256)": "infinite",
            "getCompetition()": "infinite",
            "getGames(uint256)": "infinite",
            "newCompetition(string,string,string)": "infinite",
            "newGame(uint256,string,string,string,string)": "infinite",
            "owner()": "2359",
            "settleGame(uint256,uint256)": "infinite"
        },
        "internal": {
            "getSettlementData(struct isCommon.Bet memory[] memory,uint256)": "infinite"
        }
    }
}