{
    "contractName": "Owner",
    "abi": [
        {
            "inputs": [],
            "stateMutability": "nonpayable",
            "type": "constructor"
        },
        {
            "inputs": [],
            "name": "owner",
            "outputs": [
                {
                    "internalType": "address",
                    "name": "",
                    "type": "address"
                }
            ],
            "stateMutability": "view",
            "type": "function"
        }
    ],
    "bytecode": "6080604052348015600f57600080fd5b50600080546001600160a01b031916331790556091806100306000396000f3fe6080604052348015600f57600080fd5b506004361060285760003560e01c80638da5cb5b14602d575b600080fd5b600054603f906001600160a01b031681565b6040516001600160a01b03909116815260200160405180910390f3fea2646970667358221220d48bf739b4c06444456c64d82b4aecc60f71a41fe6195b58aad9a0ba81b341a064736f6c63430008060033",
    "sourcePath": "/home/bitch1y/Documents/PROJECTS/ETHEREUM/SportsOnTheBlock/contracts/Owner.sol",
    "compiler": {
        "name": "solc",
        "version": "0.8.6+commit.11564f7e"
    },
    "functionHashes": {
        "owner()": "8da5cb5b"
    },
    "gasEstimates": {
        "creation": {
            "codeDepositCost": "29000",
            "executionCost": "24316",
            "totalCost": "53316"
        },
        "external": {
            "owner()": "2303"
        }
    }
}